:0100000001FE
:0100010002FC
:0100020003FA
:0100030005F7
:010004000AF1
:0100050010EA
:0100060017E2
:010007001CDC
:0100080026D1
:010009002CCA
:01000A0031C4
:01000B0001F3
:01000C0002F1
:01000D0005ED
:01000E000AE7
:01000F000EE2
:0100100016D9
:010011001DD1
:0100120023CA
:010013002EBE
:010014003BB0
:0100150041A9
:0100160001E8
:0100170002E6
:0100180004E3
:0100190007DF
:01001A000DD8
:01001B0010D4
:01001C0015CE
:01001D001AC8
:01001E0024BD
:01001F002CB4
:0100200031AE
:0100210001DD
:0100220002DB
:0100230003D9
:0100240004D7
:0100250007D3
:010026000ACF
:010027000DCB
:0100280011C6
:010029001ABC
:01002A001DB8
:01002B0020B4
:01002C0001D2
:01002D0002D0
:01002E0005CC
:01002F0009C7
:0100300010BF
:0100310016B8
:010032001AB3
:0100330020AC
:010034002BA0
:010035003694
:010036003C8D
:0100370001C7
:0100380002C5
:0100390004C2
:01003A0006BF
:01003B000ABA
:01003C0010B3
:01003D0019A9
:01003E001FA2
:01003F002A96
:01004000318E
:010041003688
:0100420001BC
:0100430002BA
:0100440003B8
:0100450007B3
:0100460009B0
:0100470010A8
:01004800189F
:010049001E98
:01004A00298C
:01004B00367E
:01004C003C77
:01004D0001B1
:01004E0002AF
:01004F0005AB
:0100500008A7
:010051000DA1
:01005200109D
:010053001795
:010054001D8E
:010055002882
:010056003178
:010057003672
:0100580001A6
:0100590002A4
:01005A0004A1
:01005B00099B
:01005C000C97
:01005D001092
:01005E00168B
:01005F001C84
:010060002778
:010061002C72
:01006200316C
:01006300019B
:010064000299
:010065000397
:010066000693
:010067000B8D
:010068001087
:010069001581
:01006A001B7A
:01006B00266E
:01006C003162
:01006D00365C
:01006E000190
:01006F00028E
:01007000058A
:010071000787
:010072000A83
:01007300107C
:010074001477
:010075001A70
:010076002564
:010077002C5C
:010078003156
:010079000185
:01007A000283
:01007B000480
:01007C00087B
:01007D000E74
:01007E00166B
:01007F001A66
:01008000215E
:010081002D51
:010082003B42
:01008300413B
:01008400017A
:010085000278
:010086000376
:010087000573
:01008800086F
:010089000A6C
:01008A001263
:01008B00185C
:01008C002350
:01008D002C46
:01008E003140
:01008F00016F
:01009000026D
:010091000569
:010092000A63
:01009300115B
:010094001655
:010095001F4B
:010096002742
:010097003434
:010098003B2C
:010099004125
:01009A000164
:01009B000262
:01009C00045F
:01009D00075B
:01009E000B56
:01009F001050
:0100A0001748
:0100A1001E40
:0100A2002A33
:0100A3003626
:0100A4003C1F
:0100A5000159
:0100A6000257
:0100A7000355
:0100A8000453
:0100A9000551
:0100AA000A4B
:0100AB000F45
:0100AC00153E
:0100AD002032
:0100AE00272A
:0100AF002B25
:0100B000014E
:0100B100024C
:0100B2000548
:0100B3000943
:0100B4000E3D
:0100B5001634
:0100B6001C2D
:0100B7002424
:0100B8003116
:0100B9004006
:0100BA0047FE
:0100BB000143
:0100BC000241
:0100BD00043E
:0100BE00063B
:0100BF000838
:0100C0000A35
:0100C1000D31
:0100C200132A
:0100C3001E1E
:0100C4002714
:0100C5002B0F
:0100C6000138
:0100C7000236
:0100C8000334
:0100C900072F
:0100CA000C29
:0100CB001024
:0100CC001320
:0100CD001A18
:0100CE00260B
:0100CF002C04
:0100D00031FE
:0100D100012D
:0100D200022B
:0100D3000527
:0100D4000823
:0100D5000B1F
:0100D6001019
:0100D700190F
:0100D8002106
:0100D9002EF8
:0100DA003BEA
:0100DB0041E3
:0100DC000122
:0100DD000220
:0100DE00041D
:0100DF000917
:0100E0000F10
:0100E1001608
:0100E2001FFE
:0100E30028F4
:0100E4002DEE
:0100E50036E4
:0100E6003CDD
:0100E7000117
:0100E8000215
:0100E9000313
:0100EA00060F
:0100EB00090B
:0100EC001003
:0100ED0017FB
:0100EE001FF2
:0100EF0023ED
:0100F00027E8
:0100F1002BE3
:0100F200010C
:0100F300020A
:0100F4000506
:0100F5000703
:0100F6000DFC
:0100F70010F8
:0100F80016F1
:0100F9001EE8
:0100FA0022E3
:0100FB002CD8
:0100FC0031D2
:0100FD000101
:0100FE0002FF
:0100FF0004FC
:0101000008F6
:010101000CF1
:0101020010EC
:0101030015E6
:010104001DDD
:0101050021D8
:0101060027D1
:010107002BCC
:0101080001F5
:0101090002F3
:01010A0003F1
:01010B0005EE
:01010C000BE7
:01010D0010E1
:01010E0014DC
:01010F001CD3
:0101100020CE
:010111002CC1
:0101120031BB
:0101130001EA
:0101140002E8
:0101150005E4
:010116000ADE
:010117000FD8
:0101180016D0
:010119001ACB
:01011A0023C1
:01011B0028BB
:01011C0031B1
:01011D0036AB
:01011E0001DF
:01011F0002DD
:0101200004DA
:0101210007D6
:0101220009D3
:0101230010CB
:0101240019C1
:0101250022B7
:0101260027B1
:010127002CAB
:0101280031A5
:0101290001D4
:01012A0002D2
:01012B0003D0
:01012C0004CE
:01012D0008C9
:01012E000AC6
:01012F0011BE
:0101300019B5
:010131001DB0
:0101320027A5
:010133002BA0
:0101340001C9
:0101350002C7
:0101360005C3
:0101370009BE
:010138000CBA
:0101390010B5
:01013A0017AD
:01013B0020A3
:01013C00259D
:01013D002C95
:01013E00318F
:01013F0001BE
:0101400002BC
:0101410004B9
:0101420006B6
:010143000BB0
:0101440010AA
:0101450016A3
:010146001F99
:010147002493
:010148003185
:01014900367F
:01014A0001B3
:01014B0002B1
:01014C0003AF
:01014D0007AA
:01014E000AA6
:01014F00109F
:010150001599
:010151001E8F
:010152002389
:010153002C7F
:010154003179
:0101550001A8
:0101560002A6
:0101570005A2
:01015800089E
:010159000E97
:01015A00168E
:01015B001B88
:01015C00257D
:01015D002B76
:01015E00316F
:01015F003669
:01016000019D
:01016100029B
:010162000498
:010163000992
:010164000D8D
:010165001089
:010166001385
:010167001C7B
:010168002175
:010169002C69
:01016A003163
:01016B000192
:01016C000290
:01016D00038E
:01016E00068A
:01016F000C83
:01017000107E
:010171001974
:010172002369
:010173002962
:010174003159
:010175003653
:010176000187
:010177000285
:010178000581
:01017900077E
:01017A000B79
:01017B001073
:01017C00186A
:01017D00225F
:01017E002858
:01017F003649
:010180003C42
:01018100017C
:01018200027A
:010183000477
:010184000872
:010185000A6F
:010186001068
:010187001760
:010188002155
:01018900274E
:01018A003143
:01018B00363D
:01018C000171
:01018D00026F
:01018E00036D
:01018F00056A
:010190000965
:01019100105D
:010192001656
:01019300204B
:010194002644
:010195002C3D
:010196003137
:010197000166
:010198000264
:010199000560
:01019A000A5A
:01019B000D56
:01019C001052
:01019D00154C
:01019E001F41
:01019F00253A
:0101A000312D
:0101A1003627
:0101A200015B
:0101A3000259
:0101A4000456
:0101A5000752
:0101A6000C4C
:0101A7001047
:0101A8001442
:0101A9001E37
:0101AA002430
:0101AB002C27
:0101AC003121
:0101AD000150
:0101AE00024E
:0101AF00034C
:0101B000044A
:0101B1000647
:0101B2000A42
:0101B3000C3F
:0101B4001535
:0101B5001A2F
:0101B6001D2B
:0101B7002027
:0101B8000145
:0101B9000243
:0101BA00053F
:0101BB00093A
:0101BC000F33
:0101BD00162B
:0101BE002020
:0101BF002C13
:0101C000340A
:0101C10040FD
:0101C20047F5
:0101C300013A
:0101C4000238
:0101C5000435
:0101C6000632
:0101C700092E
:0101C8001026
:0101C900181D
:0101CA002311
:0101CB002A09
:0101CC003101
:0101CD0036FB
:0101CE00012F
:0101CF00022D
:0101D000032B
:0101D1000726
:0101D2000D1F
:0101D300101B
:0101D4001713
:0101D5002207
:0101D60029FF
:0101D70036F1
:0101D8003CEA
:0101D9000124
:0101DA000222
:0101DB00051E
:0101DC00081A
:0101DD000C15
:0101DE001010
:0101DF001609
:0101E00021FD
:0101E10028F5
:0101E20031EB
:0101E30036E5
:0101E4000119
:0101E5000217
:0101E6000414
:0101E700090E
:0101E8001006
:0101E90016FF
:0101EA001CF8
:0101EB0020F3
:0101EC0027EB
:0101ED002CE5
:0101EE0031DF
:0101EF00010E
:0101F000020C
:0101F100030A
:0101F2000606
:0101F3000A01
:0101F40010FA
:0101F50014F5
:0101F60017F1
:0101F7001DEA
:0101F80027DF
:0101F9002BDA
:0101FA000103
:0101FB000201
:0101FC0005FD
:0101FD0007FA
:0101FE0009F7
:0101FF0010EF
:0102000013EA
:0102010016E6
:010202001CDF
:0102030022D8
:0102040026D3
:0102050001F7
:0102060002F5
:0102070004F2
:0102080008ED
:010209000DE7
:01020A0010E3
:01020B0019D9
:01020C001DD4
:01020D0024CC
:01020E0031BE
:01020F0036B8
:0102100001EC
:0102110002EA
:0102120003E8
:0102130005E5
:0102140007E2
:010215000ADE
:0102160011D6
:0102170014D2
:010218001ACB
:0102190022C2
:01021A0026BD
:01021B0001E1
:01021C0002DF
:01021D0005DB
:01021E000AD5
:01021F0010CE
:0102200016C7
:010221001EBE
:0102220023B8
:010223002BAF
:0102240031A8
:0102250036A2
:0102260001D6
:0102270002D4
:0102280004D1
:0102290007CD
:01022A000AC9
:01022B0010C2
:01022C0016BB
:01022D001AB6
:01022E0021AE
:01022F002CA2
:01023000319C
:0102310001CB
:0102320002C9
:0102330003C7
:0102340004C5
:0102350009BF
:0102360010B7
:0102370015B1
:0102380019AC
:0102390020A4
:01023A00279C
:01023B002B97
:01023C0001C0
:01023D0002BE
:01023E0005BA
:01023F0009B5
:010240000DB0
:0102410010AC
:0102420014A7
:0102430018A2
:010244001F9A
:010245002C8C
:010246003186
:0102470001B5
:0102480002B3
:0102490004B0
:01024A0006AD
:01024B000CA6
:01024C0010A1
:01024D00139D
:01024E001798
:01024F001E90
:010250002786
:010251002B81
:0102520001AA
:0102530002A8
:0102540003A6
:0102550007A1
:010256000B9C
:010257001096
:01025800198C
:010259001E86
:01025A00267D
:01025B002C76
:01025C003170
:01025D00019F
:01025E00029D
:01025F000599
:010260000895
:010261000A92
:01026200108B
:010263001882
:010264001D7C
:010265002573
:010266003166
:010267003660
:010268000194
:010269000292
:01026A00048F
:01026B000989
:01026C000E83
:01026D00167A
:01026E001E71
:01026F00246A
:010270002D60
:010271003656
:010272003C4F
:010273000189
:010274000287
:010275000385
:010276000681
:01027700087E
:010278000A7B
:010279000F75
:01027A001370
:01027B001A68
:01027C001D64
:01027D002060
:01027E00017E
:01027F00027C
:010280000578
:010281000775
:010282000C6F
:01028300106A
:010284001564
:010285001A5E
:010286002255
:010287002C4A
:010288003144
:010289000173
:01028A000271
:01028B00046E
:01028C000869
:01028D000B65
:01028E00105F
:01028F00145A
:010290001954
:01029100214B
:010292002744
:010293002B3F
:010294000168
:010295000266
:010296000364
:010297000561
:010298000A5B
:010299001054
:01029A001350
:01029B00184A
:01029C002041
:01029D002C34
:01029E00312E
:01029F00015D
:0102A000025B
:0102A1000557
:0102A2000A51
:0102A3000E4C
:0102A4001643
:0102A5002038
:0102A6002730
:0102A7003125
:0102A8003B1A
:0102A9004113
:0102AA000152
:0102AB000250
:0102AC00044D
:0102AD000749
:0102AE000D42
:0102AF00103E
:0102B0001835
:0102B1001E2E
:0102B2002724
:0102B3002C1E
:0102B4003118
:0102B5000147
:0102B6000245
:0102B7000343
:0102B8000441
:0102B900073D
:0102BA000A39
:0102BB001032
:0102BC00152C
:0102BD001D23
:0102BE002718
:0102BF002B13
:0102C000013C
:0102C100023A
:0102C2000536
:0102C3000931
:0102C4001029
:0102C5001622
:0102C6001D1A
:0102C7002412
:0102C8002E07
:0102C90036FE
:0102CA003CF7
:0102CB000131
:0102CC00022F
:0102CD00042C
:0102CE000629
:0102CF000A24
:0102D000101D
:0102D1001517
:0102D2001B10
:0102D3002406
:0102D40031F8
:0102D50036F2
:0102D6000126
:0102D7000224
:0102D8000322
:0102D900071D
:0102DA00091A
:0102DB001012
:0102DC00140D
:0102DD001A06
:0102DE0023FC
:0102DF002CF2
:0102E00031EC
:0102E100011B
:0102E2000219
:0102E3000515
:0102E4000811
:0102E5000D0B
:0102E6001007
:0102E7001303
:0102E80019FC
:0102E90022F2
:0102EA0027EC
:0102EB002BE7
:0102EC000110
:0102ED00020E
:0102EE00040B
:0102EF000905
:0102F0000C01
:0102F10010FC
:0102F20019F2
:0102F30020EA
:0102F4002ADF
:0102F50036D2
:0102F6003CCB
:0102F7000105
:0102F8000203
:0102F9000301
:0102FA0006FD
:0102FB000BF7
:0102FC0010F1
:0102FD0018E8
:0102FE001FE0
:0102FF0029D5
:0103000031CB
:0103010036C5
:0103020001F9
:0103030002F7
:0103040005F3
:0103050007F0
:010306000AEC
:0103070010E5
:0103080017DD
:010309001ED5
:01030A0028CA
:01030B0036BB
:01030C003CB4
:01030D0001EE
:01030E0002EC
:01030F0004E9
:0103100008E4
:010311000EDD
:0103120016D4
:010313001DCC
:0103140025C3
:0103150030B7
:010316003BAB
:0103170041A4
:0103180001E3
:0103190002E1
:01031A0003DF
:01031B0005DC
:01031C0008D8
:01031D000AD5
:01031E000ED0
:01031F0014C9
:010320001DBF
:0103210022B9
:0103220026B4
:0103230001D8
:0103240002D6
:0103250005D2
:010326000ACC
:0103270011C4
:0103280016BE
:010329001BB8
:01032A0023AF
:01032B002EA3
:01032C003B95
:01032D00418E
:01032E0001CD
:01032F0002CB
:0103300004C8
:0103310007C4
:010332000BBF
:0103330010B9
:0103340013B5
:010335001AAD
:0103360024A2
:010337002C99
:010338003193
:0103390001C2
:01033A0002C0
:01033B0003BE
:01033C0004BC
:01033D0005BA
:01033E000AB4
:01033F0012AB
:0103400019A3
:010341002398
:010342002793
:010343002B8E
:0103440001B7
:0103450002B5
:0103460005B1
:0103470009AC
:010348000EA6
:01034900169D
:01034A001F93
:01034B002889
:01034C00347C
:01034D00406F
:01034E004767
:01034F0001AC
:0103500002AA
:0103510004A7
:0103520006A4
:0103530008A1
:010354000A9E
:010355001097
:01035600178F
:010357002184
:01035800277D
:010359002B78
:01035A0001A1
:01035B00029F
:01035C00039D
:01035D000798
:01035E000C92
:01035F00108D
:010360001686
:010361001E7D
:010362002971
:010363003663
:010364003C5C
:010365000196
:010366000294
:010367000590
:01036800088C
:010369000B88
:01036A001082
:01036B00157C
:01036C001D73
:01036D002867
:01036E00315D
:01036F003657
:01037000018B
:010371000289
:010372000486
:010373000980
:010374000F79
:010375001671
:010376001B6B
:010377002461
:010378003054
:01037900364D
:01037A003C46
:01037B000180
:01037C00027E
:01037D00037C
:01037E000678
:01037F000974
:01038000106C
:010381001368
:010382001B5F
:010383002653
:010384003147
:010385003641
:010386000175
:010387000273
:01038800056F
:01038900076C
:01038A000D65
:01038B001061
:01038C001957
:01038D00224D
:01038E002E40
:01038F003637
:010390003C30
:01039100016A
:010392000268
:010393000465
:010394000860
:010395000C5B
:010396001056
:01039700184D
:010398002143
:010399002D36
:01039A003B27
:01039B004120
:01039C00015F
:01039D00025D
:01039E00035B
:01039F000558
:0103A0000B51
:0103A100104B
:0103A2001743
:0103A3002039
:0103A4002C2C
:0103A5003621
:0103A6003C1A
:0103A7000154
:0103A8000252
:0103A900054E
:0103AA000A48
:0103AB000F42
:0103AC00163A
:0103AD001D32
:0103AE002727
:0103AF003419
:0103B0003B11
:0103B100410A
:0103B2000149
:0103B3000247
:0103B4000444
:0103B5000740
:0103B600093D
:0103B7001035
:0103B800152F
:0103B9001E25
:0103BA002A18
:0103BB00360B
:0103BC003C04
:0103BD00013E
:0103BE00023C
:0103BF00033A
:0103C0000438
:0103C1000833
:0103C2000A30
:0103C3000D2C
:0103C4001523
:0103C5002017
:0103C600270F
:0103C7002B0A
:0103C8000133
:0103C9000231
:0103CA00052D
:0103CB000928
:0103CC000C24
:0103CD00101F
:0103CE00131B
:0103CF001C11
:0103D0002804
:0103D10036F5
:0103D2003CEE
:0103D3000128
:0103D4000226
:0103D5000423
:0103D6000620
:0103D7000B1A
:0103D8001014
:0103D900190A
:0103DA0023FF
:0103DB0030F1
:0103DC003BE5
:0103DD0041DE
:0103DE00011D
:0103DF00021B
:0103E0000319
:0103E1000714
:0103E2000A10
:0103E3001009
:0103E4001800
:0103E50022F5
:0103E6002FE7
:0103E70036DF
:0103E8003CD8
:0103E9000112
:0103EA000210
:0103EB00050C
:0103EC000808
:0103ED000E01
:0103EE0016F8
:0103EF001EEF
:0103F00029E3
:0103F10037D4
:0103F20045C5
:0103F3004CBD
:0103F4000107
:0103F5000205
:0103F6000402
:0103F70009FC
:0103F8000DF7
:0103F90010F3
:0103FA0016EC
:0103FB0020E1
:0103FC0024DC
:0103FD002CD3
:0103FE0031CD
:0103FF0001FC
:0104000002F9
:0104010003F7
:0104020006F3
:010403000CEC
:0104040010E7
:0104050015E1
:010406001FD6
:0104070023D1
:0104080027CC
:010409002BC7
:01040A0001F0
:01040B0002EE
:01040C0005EA
:01040D0007E7
:01040E000BE2
:01040F0010DC
:0104100014D7
:010411001ECC
:0104120022C7
:010413002CBC
:0104140031B6
:0104150001E5
:0104160002E3
:0104170004E0
:0104180008DB
:010419000AD8
:01041A0010D1
:01041B0013CD
:01041C001DC2
:01041D0021BD
:01041E0027B6
:01041F002BB1
:0104200001DA
:0104210002D8
:0104220003D6
:0104230005D3
:0104240009CE
:0104250010C6
:0104260019BC
:0104270024B0
:0104280029AA
:01042900369C
:01042A003C95
:01042B0001CF
:01042C0002CD
:01042D0005C9
:01042E000AC3
:01042F000DBF
:0104300010BB
:0104310018B2
:0104320023A6
:0104330028A0
:010434003196
:010435003690
:0104360001C4
:0104370002C2
:0104380004BF
:0104390007BB
:01043A000CB5
:01043B0010B0
:01043C0017A8
:01043D00229C
:01043E002796
:01043F002C90
:01044000318A
:0104410001B9
:0104420002B7
:0104430003B5
:0104440004B3
:0104450006B0
:010446000AAB
:010447000FA5
:01044800199A
:010449001D95
:01044A00278A
:01044B002B85
:01044C0001AE
:01044D0002AC
:01044E0005A8
:01044F0009A3
:010450000F9C
:010451001694
:010452001C8D
:010453002088
:010454002582
:010455002C7A
:010456003174
:0104570001A3
:0104580002A1
:01045900049E
:01045A00069B
:01045B000997
:01045C00108F
:01045D00148A
:01045E001786
:01045F001B81
:010460002774
:010461002B6F
:010462000198
:010463000296
:010464000394
:01046500078F
:010466000D88
:010467001084
:010468001380
:01046900167C
:01046A001A77
:01046B00226E
:01046C002669
:01046D00018D
:01046E00028B
:01046F000587
:010470000883
:010471000C7E
:010472001079
:01047300196F
:010474001D6A
:010475002264
:01047600275E
:010477002B59
:010478000182
:010479000280
:01047A00047D
:01047B000977
:01047C00106F
:01047D001668
:01047E001F5E
:01047F002458
:010480002A51
:010481003644
:010482003C3D
:010483000177
:010484000275
:010485000373
:01048600066F
:010487000A6A
:010488001063
:01048900175B
:01048A001B56
:01048B002050
:01048C002748
:01048D002B43
:01048E00016C
:01048F00026A
:010490000566
:010491000763
:010492000960
:010493001058
:010494001651
:010495001A4C
:010496001F46
:010497002C38
:010498003132
:010499000161
:01049A00025F
:01049B00045C
:01049C000857
:01049D000D51
:01049E00104D
:01049F001547
:0104A0001942
:0104A1001E3C
:0104A2002732
:0104A3002B2D
:0104A4000156
:0104A5000254
:0104A6000352
:0104A700054F
:0104A800074C
:0104A9000A48
:0104AA000D44
:0104AB001040
:0104AC00143B
:0104AD001836
:0104AE001B32
:0104AF00014B
:0104B0000249
:0104B1000545
:0104B2000A3F
:0104B3001038
:0104B4001631
:0104B5001A2C
:0104B6001F26
:0104B700251F
:0104B8003112
:0104B900360C
:0104BA000140
:0104BB00023E
:0104BC00043B
:0104BD000737
:0104BE000A33
:0104BF00102C
:0104C0001922
:0104C1001E1C
:0104C2002415
:0104C3002C0C
:0104C4003106
:0104C5000135
:0104C6000233
:0104C7000331
:0104C800042F
:0104C9000929
:0104CA001021
:0104CB001818
:0104CC001D12
:0104CD00230B
:0104CE002706
:0104CF002B01
:0104D000012A
:0104D1000228
:0104D2000524
:0104D300091F
:0104D4000D1A
:0104D5001016
:0104D600170E
:0104D7001C08
:0104D8002201
:0104D9002CF6
:0104DA0031F0
:0104DB00011F
:0104DC00021D
:0104DD00041A
:0104DE000617
:0104DF000C10
:0104E000100B
:0104E1001604
:0104E2001BFE
:0104E30021F7
:0104E40027F0
:0104E5002BEB
:0104E6000114
:0104E7000212
:0104E8000310
:0104E900070B
:0104EA000B06
:0104EB001000
:0104EC0015FA
:0104ED001AF4
:0104EE0020ED
:0104EF002CE0
:0104F00031DA
:0104F1000109
:0104F2000207
:0104F3000503
:0104F40008FF
:0104F5000AFC
:0104F60010F5
:0104F70014F0
:0104F80019EA
:0104F9001FE3
:0104FA0027DA
:0104FB002BD5
:0104FC0001FE
:0104FD0002FC
:0104FE0004F9
:0104FF0009F3
:010500000EEC
:0105010016E3
:010502001ADE
:0105030020D7
:0105040027CF
:010505002CC9
:0105060031C3
:0105070001F2
:0105080002F0
:0105090003EE
:01050A0006EA
:01050B0008E7
:01050C000AE4
:01050D0012DB
:01050E0017D5
:01050F001DCE
:0105100027C3
:010511002BBE
:0105120001E7
:0105130002E5
:0105140005E1
:0105150007DE
:010516000CD8
:0105170010D3
:0105180018CA
:010519001EC3
:01051A0025BB
:01051B002CB3
:01051C0031AD
:01051D0001DC
:01051E0002DA
:01051F0004D7
:0105200008D2
:010521000BCE
:0105220010C8
:0105230017C0
:010524001DB9
:0105250024B1
:0105260031A3
:01052700369D
:0105280001D1
:0105290002CF
:01052A0003CD
:01052B0005CA
:01052C000AC4
:01052D0010BD
:01052E0016B6
:01052F001CAF
:0105300023A7
:010531002C9D
:010532003197
:0105330001C6
:0105340002C4
:0105350005C0
:010536000ABA
:010537000EB5
:0105380016AC
:010539001CA5
:01053A00239D
:01053B002B94
:01053C00318D
:01053D003687
:01053E0001BB
:01053F0002B9
:0105400004B6
:0105410007B2
:010542000DAB
:0105430010A7
:0105440014A2
:010545001A9B
:010546002193
:010547002C87
:010548003181
:0105490001B0
:01054A0002AE
:01054B0003AC
:01054C0004AA
:01054D0007A6
:01054E000AA2
:01054F000C9F
:010550001199
:010551001792
:010552001D8B
:010553002087
:0105540001A5
:0105550002A3
:01055600059F
:01055700099A
:010558001092
:01055900168B
:01055A002080
:01055B002877
:01055C00316D
:01055D00405D
:01055E004755
:01055F00019A
:010560000298
:010561000495
:010562000692
:010563000A8D
:010564001086
:01056500187D
:010566001F75
:01056700276C
:010568003161
:01056900365B
:01056A00018F
:01056B00028D
:01056C00038B
:01056D000786
:01056E000983
:01056F00107B
:010570001773
:010571001E6B
:010572002662
:010573002C5B
:010574003155
:010575000184
:010576000282
:01057700057E
:01057800087A
:010579000D74
:01057A001070
:01057B001669
:01057C001D61
:01057D002558
:01057E00314B
:01057F003645
:010580000179
:010581000277
:010582000474
:01058300096E
:010584000C6A
:010585001065
:01058600155F
:010587001C57
:01058800244E
:010589002C45
:01058A00313F
:01058B00016E
:01058C00026C
:01058D00036A
:01058E000666
:01058F000B60
:01059000105A
:010591001455
:010592001B4D
:010593002344
:01059400273F
:010595002B3A
:010596000163
:010597000261
:01059800055D
:01059900075A
:01059A000A56
:01059B00104F
:01059C00134B
:01059D001A43
:01059E00223A
:01059F002C2F
:0105A0003129
:0105A1000158
:0105A2000256
:0105A3000453
:0105A400084E
:0105A5000E47
:0105A600163E
:0105A7002033
:0105A8002929
:0105A900331E
:0105AA003B15
:0105AB00410E
:0105AC00014D
:0105AD00024B
:0105AE000349
:0105AF000546
:0105B0000842
:0105B1000A3F
:0105B2001137
:0105B300182F
:0105B4002026
:0105B5002C19
:0105B6003113
:0105B7000142
:0105B8000240
:0105B900053C
:0105BA000A36
:0105BB00112E
:0105BC001628
:0105BD001E1F
:0105BE002715
:0105BF00310A
:0105C0003BFF
:0105C10041F8
:0105C2000137
:0105C3000235
:0105C4000432
:0105C500072E
:0105C6000B29
:0105C7001023
:0105C800161C
:0105C9001E13
:0105CA002709
:0105CB002C03
:0105CC0031FD
:0105CD00012C
:0105CE00022A
:0105CF000328
:0105D0000426
:0105D1000524
:0105D2000A1E
:0105D3000E19
:0105D4001511
:0105D5001D08
:0105D60027FD
:0105D7002BF8
:0105D8000121
:0105D900021F
:0105DA00051B
:0105DB000916
:0105DC000E10
:0105DD001607
:0105DE001B01
:0105DF0024F7
:0105E0002EEC
:0105E10036E3
:0105E2003CDC
:0105E3000116
:0105E4000214
:0105E5000411
:0105E600060E
:0105E700080B
:0105E8000A08
:0105E9000C05
:0105EA0013FD
:0105EB001BF4
:0105EC0027E7
:0105ED002BE2
:0105EE00010B
:0105EF000209
:0105F0000307
:0105F1000702
:0105F2000CFC
:0105F30010F7
:0105F40019ED
:0105F50022E3
:0105F6002CD8
:0105F70036CD
:0105F8003CC6
:0105F9000100
:0105FA0002FE
:0105FB0005FA
:0105FC0008F6
:0105FD000BF2
:0105FE0010EC
:0105FF0018E3
:0106000021D8
:010601002BCD
:0106020031C6
:0106030036C0
:0106040001F4
:0106050002F2
:0106060004EF
:0106070009E9
:010608000FE2
:0106090016DA
:01060A001ED1
:01060B0028C6
:01060C0033BA
:01060D0040AC
:01060E0047A4
:01060F0001E9
:0106100002E7
:0106110003E5
:0106120006E1
:0106130009DD
:0106140010D5
:0106150016CE
:010616001FC4
:0106170029B9
:0106180031B0
:0106190036AA
:01061A0001DE
:01061B0002DC
:01061C0005D8
:01061D0007D5
:01061E000DCE
:01061F0010CA
:0106200015C4
:010621001EBA
:0106220028AF
:0106230036A0
:010624003C99
:0106250001D3
:0106260002D1
:0106270004CE
:0106280008C9
:010629000CC4
:01062A0010BF
:01062B0014BA
:01062C001DB0
:01062D0027A5
:01062E00319A
:01062F003694
:0106300001C8
:0106310002C6
:0106320003C4
:0106330005C1
:010634000BBA
:0106350010B4
:0106360013B0
:010637001CA6
:01063800269B
:010639002C94
:01063A00318E
:01063B0001BD
:01063C0002BB
:01063D0005B7
:01063E000AB1
:01063F000FAB
:0106400016A3
:010641002098
:010642002B8C
:01064300377F
:010644004570
:010645004C68
:0106460001B2
:0106470002B0
:0106480004AD
:0106490007A9
:01064A0009A6
:01064B00109E
:01064C001895
:01064D00228A
:01064E002D7E
:01064F003674
:010650003C6D
:0106510001A7
:0106520002A5
:0106530003A3
:0106540004A1
:01065500089C
:010656000A99
:010657001092
:010658001988
:01065900237D
:01065A002778
:01065B002B73
:01065C00019C
:01065D00029A
:01065E000596
:01065F000991
:010660000C8D
:010661001088
:010662001681
:010663002076
:010664002B6A
:01066500365E
:010666003C57
:010667000191
:01066800028F
:01066900048C
:01066A000689
:01066B000B83
:01066C00107D
:01066D001577
:01066E001F6C
:01066F002A60
:010670003158
:010671003652
:010672000186
:010673000284
:010674000382
:01067500077D
:010676000A79
:010677001072
:01067800146D
:010679001E62
:01067A002956
:01067B003648
:01067C003C41
:01067D00017B
:01067E000279
:01067F000575
:010680000871
:010681000E6A
:010682001661
:010683001A5C
:010684002550
:010685003143
:010686003B38
:010687004131
:010688000170
:01068900026E
:01068A00046B
:01068B000965
:01068C000D60
:01068D00105C
:01068E001952
:01068F002446
:010690003039
:010691003632
:010692003C2B
:010693000165
:010694000263
:010695000361
:01069600065D
:010697000C56
:010698001051
:010699001848
:01069A00233C
:01069B002F2F
:01069C003B22
:01069D00411B
:01069E00015A
:01069F000258
:0106A0000554
:0106A1000751
:0106A2000B4C
:0106A3001046
:0106A400173E
:0106A5002232
:0106A6002E25
:0106A700361C
:0106A8003C15
:0106A900014F
:0106AA00024D
:0106AB00044A
:0106AC000845
:0106AD000A42
:0106AE00103B
:0106AF001634
:0106B0002128
:0106B1002D1B
:0106B2003B0C
:0106B3004105
:0106B4000144
:0106B5000242
:0106B6000340
:0106B700053D
:0106B8000938
:0106B9001030
:0106BA00152A
:0106BB001826
:0106BC00231A
:0106BD002C10
:0106BE00310A
:0106BF000139
:0106C0000237
:0106C1000533
:0106C2000A2D
:0106C3000D29
:0106C4001025
:0106C5001420
:0106C600171C
:0106C7002210
:0106C800270A
:0106C9002B05
:0106CA00012E
:0106CB00022C
:0106CC000429
:0106CD000725
:0106CE000C1F
:0106CF00101A
:0106D0001316
:0106D1001612
:0106D2002106
:0106D3002CFA
:0106D40031F4
:0106D5000123
:0106D6000221
:0106D700031F
:0106D800041D
:0106D900061A
:0106DA000A15
:0106DB00120C
:0106DC001508
:0106DD0020FC
:0106DE0027F4
:0106DF002BEF
:0106E0000118
:0106E1000216
:0106E2000512
:0106E300090D
:0106E4000F06
:0106E50016FE
:0106E6001FF4
:0106E70024EE
:0106E80031E0
:0106E90040D0
:0106EA0047C8
:0106EB00010D
:0106EC00020B
:0106ED000408
:0106EE000605
:0106EF000901
:0106F00010F9
:0106F10017F1
:0106F2001BEC
:0106F30027DF
:0106F40031D4
:0106F50036CE
:0106F6000102
:0106F7000200
:0106F80003FE
:0106F90007F9
:0106FA000DF2
:0106FB0010EE
:0106FC0016E7
:0106FD001AE2
:0106FE0026D5
:0106FF002CCE
:0107000031C7
:0107010001F6
:0107020002F4
:0107030005F0
:0107040008EC
:010705000CE7
:0107060010E2
:0107070015DC
:0107080019D7
:0107090025CA
:01070A0031BD
:01070B0036B7
:01070C0001EB
:01070D0002E9
:01070E0004E6
:01070F0009E0
:0107100010D8
:0107110016D1
:010712001BCB
:0107130020C5
:0107140024C0
:010715002CB7
:0107160031B1
:0107170001E0
:0107180002DE
:0107190003DC
:01071A0006D8
:01071B000AD3
:01071C0010CC
:01071D0013C8
:01071E0017C3
:01071F001ABF
:010720001DBB
:0107210020B7
:0107220001D5
:0107230002D3
:0107240005CF
:0107250007CC
:0107260009C9
:0107270010C1
:0107280019B7
:010729001EB1
:01072A0022AC
:01072B002CA1
:01072C00319B
:01072D0001CA
:01072E0002C8
:01072F0004C5
:0107300008C0
:010731000DBA
:0107320010B6
:0107330018AD
:010734001DA7
:0107350021A2
:01073600279B
:010737002B96
:0107380001BF
:0107390002BD
:01073A0003BB
:01073B0005B8
:01073C0007B5
:01073D000AB1
:01073E0010AA
:01073F0014A5
:0107400017A1
:010741002295
:010742002690
:0107430001B4
:0107440002B2
:0107450005AE
:010746000AA8
:0107470010A1
:01074800169A
:010749001D92
:01074A00238B
:01074B002885
:01074C00317B
:01074D003675
:01074E0001A9
:01074F0002A7
:0107500004A4
:0107510007A0
:010752000A9C
:010753001095
:01075400158F
:010755001A89
:010756001E84
:01075700227F
:01075800267A
:01075900019E
:01075A00029C
:01075B00039A
:01075C000498
:01075D000992
:01075E00108A
:01075F001485
:01076000197F
:010761001D7A
:01076200276F
:010763002B6A
:010764000193
:010765000291
:01076600058D
:010767000988
:010768000D83
:01076900107F
:01076A00137B
:01076B001875
:01076C001C70
:01076D002269
:01076E002664
:01076F000188
:010770000286
:010771000483
:010772000680
:010773000C79
:010774001074
:01077500196A
:010776001F63
:01077700245D
:01077800314F
:010779003649
:01077A00017D
:01077B00027B
:01077C000379
:01077D000774
:01077E000B6F
:01077F001069
:010780001860
:010781001E59
:010782002353
:010783002C49
:010784003143
:010785000172
:010786000270
:01078700056C
:010788000868
:010789000A65
:01078A00105E
:01078B001756
:01078C001D4F
:01078D002249
:01078E002743
:01078F002B3E
:010790000167
:010791000265
:010792000462
:01079300095C
:010794000E56
:01079500164D
:010796001D45
:01079700243D
:010798002A36
:010799003629
:01079A003C22
:01079B00015C
:01079C00025A
:01079D000358
:01079E000654
:01079F000851
:0107A0000A4E
:0107A1000E49
:0107A2001343
:0107A300173E
:0107A4001D37
:0107A5002033
:0107A6000151
:0107A700024F
:0107A800054B
:0107A9000748
:0107AA000C42
:0107AB00103D
:0107AC001438
:0107AD001A31
:0107AE001F2B
:0107AF002C1D
:0107B0003117
:0107B1000146
:0107B2000244
:0107B3000441
:0107B400083C
:0107B5000B38
:0107B6001032
:0107B700132E
:0107B8001927
:0107B9001E21
:0107BA002717
:0107BB002B12
:0107BC00013B
:0107BD000239
:0107BE000337
:0107BF000534
:0107C0000A2E
:0107C1001027
:0107C200191D
:0107C3002015
:0107C400260E
:0107C5002C07
:0107C6003101
:0107C7000130
:0107C800022E
:0107C900052A
:0107CA000A24
:0107CB000E1F
:0107CC001616
:0107CD001F0C
:0107CE002703
:0107CF002EFB
:0107D0003BED
:0107D10041E6
:0107D2000125
:0107D3000223
:0107D4000420
:0107D500071C
:0107D6000D15
:0107D7001011
:0107D8001709
:0107D9001E01
:0107DA0024FA
:0107DB002CF1
:0107DC0031EB
:0107DD00011A
:0107DE000218
:0107DF000316
:0107E0000414
:0107E1000710
:0107E2000A0C
:0107E3000F06
:0107E40015FF
:0107E5001AF9
:0107E6001DF5
:0107E70020F1
:0107E800010F
:0107E900020D
:0107EA000509
:0107EB000904
:0107EC0010FC
:0107ED0016F5
:0107EE001CEE
:0107EF0024E5
:0107F0002BDD
:0107F10036D1
:0107F2003CCA
:0107F3000104
:0107F4000202
:0107F50004FF
:0107F60006FC
:0107F7000AF7
:0107F80010F0
:0107F90014EB
:0107FA001BE3
:0107FB0021DC
:0107FC0027D5
:0107FD002BD0
:0107FE0001F9
:0107FF0002F7
:0108000003F4
:0108010007EF
:0108020009EC
:0108030010E4
:0108040013E0
:010805001AD8
:0108060020D1
:010807002CC4
:0108080031BE
:0108090001ED
:01080A0002EB
:01080B0005E7
:01080C0008E3
:01080D000DDD
:01080E0010D9
:01080F0019CF
:0108100021C6
:0108110028BE
:0108120031B4
:0108130036AE
:0108140001E2
:0108150002E0
:0108160004DD
:0108170009D7
:010818000CD3
:0108190010CE
:01081A0018C5
:01081B0020BC
:01081C0027B4
:01081D002CAE
:01081E0031A8
:01081F0001D7
:0108200002D5
:0108210003D3
:0108220006CF
:010823000BC9
:0108240010C3
:0108250017BB
:010826001FB2
:0108270026AA
:01082800319E
:010829003698
:01082A0001CC
:01082B0002CA
:01082C0005C6
:01082D0007C3
:01082E000ABF
:01082F0010B8
:0108300016B1
:010831001EA8
:0108320025A0
:010833002C98
:010834003192
:0108350001C1
:0108360002BF
:0108370004BC
:0108380008B7
:010839000EB0
:01083A0016A7
:01083B001CA0
:01083C002596
:01083D002D8D
:01083E003B7E
:01083F004177
:0108400001B6
:0108410002B4
:0108420003B2
:0108430005AF
:0108440008AB
:010845000AA8
:010846000DA4
:01084700149C
:010848001A95
:01084900228C
:01084A002687
:01084B0001AB
:01084C0002A9
:01084D0005A5
:01084E000A9F
:01084F001197
:010850001691
:010851001A8C
:010852002382
:010853002B79
:010854003172
:01085500366C
:0108560001A0
:01085700029E
:01085800049B
:010859000797
:01085A000B92
:01085B00108C
:01085C001982
:01085D002278
:01085E002A6F
:01085F003662
:010860003C5B
:010861000195
:010862000293
:010863000391
:01086400048F
:01086500058D
:010866000A87
:01086700117F
:010868001976
:01086900206E
:01086A002766
:01086B002B61
:01086C00018A
:01086D000288
:01086E000584
:01086F00097F
:010870000E79
:010871001670
:010872001E67
:01087300285C
:010874003152
:010875004042
:01087600473A
:01087700017F
:01087800027D
:01087900047A
:01087A000677
:01087B000874
:01087C000A71
:01087D000F6B
:01087E001762
:01087F001E5A
:010880002750
:010881002B4B
:010882000174
:010883000272
:010884000370
:01088500076B
:010886000C65
:010887001060
:01088800155A
:010889001E50
:01088A002647
:01088B002C40
:01088C00313A
:01088D000169
:01088E000267
:01088F000563
:01089000085F
:010891000B5B
:010892001055
:010893001450
:010894001D46
:01089500253D
:010896003130
:01089700362A
:01089800015E
:01089900025C
:01089A000459
:01089B000953
:01089C000F4C
:01089D001644
:01089E001A3F
:01089F002434
:0108A0002D2A
:0108A1003620
:0108A2003C19
:0108A3000153
:0108A4000251
:0108A500034F
:0108A600064B
:0108A7000947
:0108A800103F
:0108A9001935
:0108AA00232A
:0108AB002C20
:0108AC00311A
:0108AD003614
:0108AE000148
:0108AF000246
:0108B0000542
:0108B100073F
:0108B2000D38
:0108B3001034
:0108B400182B
:0108B5002220
:0108B6002B16
:0108B700360A
:0108B8003C03
:0108B900013D
:0108BA00023B
:0108BB000438
:0108BC000833
:0108BD000C2E
:0108BE001029
:0108BF001721
:0108C0002116
:0108C1002A0C
:0108C2003104
:0108C30036FE
:0108C4000132
:0108C5000230
:0108C600032E
:0108C700052B
:0108C8000B24
:0108C900101E
:0108CA001617
:0108CB00200C
:0108CC002902
:0108CD0036F4
:0108CE003CED
:0108CF000127
:0108D0000225
:0108D1000521
:0108D2000A1B
:0108D3000F15
:0108D400160D
:0108D5001C06
:0108D60027FA
:0108D70031EF
:0108D8003BE4
:0108D90041DD
:0108DA00011C
:0108DB00021A
:0108DC000417
:0108DD000713
:0108DE000910
:0108DF001008
:0108E0001403
:0108E1001EF8
:0108E20027EE
:0108E3002CE8
:0108E40031E2
:0108E5000111
:0108E600020F
:0108E700030D
:0108E800040B
:0108E9000806
:0108EA000A03
:0108EB000C00
:0108EC0015F6
:0108ED001DED
:0108EE0027E2
:0108EF002BDD
:0108F0000106
:0108F1000204
:0108F2000500
:0108F30009FB
:0108F4000CF7
:0108F50010F2
:0108F60019E8
:0108F70024DC
:0108F8002ED1
:0108F90036C8
:0108FA003CC1
:0108FB0001FB
:0108FC0002F9
:0108FD0004F6
:0108FE0006F3
:0108FF000BED
:0109000010E6
:0109010018DD
:0109020023D1
:010903002DC6
:010904003BB7
:0109050041B0
:0109060001EF
:0109070002ED
:0109080003EB
:0109090007E6
:01090A000AE2
:01090B0010DB
:01090C0017D3
:01090D0022C7
:01090E002CBC
:01090F0036B1
:010910003CAA
:0109110001E4
:0109120002E2
:0109130005DE
:0109140008DA
:010915000ED3
:0109160016CA
:010917001DC2
:0109180029B5
:0109190034A9
:01091A003BA1
:01091B00419A
:01091C0001D9
:01091D0002D7
:01091E0004D4
:01091F0009CE
:010920000DC9
:0109210010C5
:0109220015BF
:0109230018BB
:0109240021B1
:010925002CA5
:01092600319F
:0109270001CE
:0109280002CC
:0109290003CA
:01092A0006C6
:01092B000CBF
:01092C0010BA
:01092D0014B5
:01092E0017B1
:01092F0020A7
:01093000279F
:010931002B9A
:0109320001C3
:0109330002C1
:0109340005BD
:0109350007BA
:010936000BB5
:0109370010AF
:0109380013AB
:0109390016A7
:01093A001F9D
:01093B002C8F
:01093C003189
:01093D0001B8
:01093E0002B6
:01093F0004B3
:0109400008AE
:010941000AAB
:0109420010A4
:01094300199A
:010944001D95
:01094500278A
:01094600317F
:010947003679
:0109480001AD
:0109490002AB
:01094A0003A9
:01094B0005A6
:01094C0009A1
:01094D001099
:01094E001890
:01094F001C8B
:010950002680
:010951002C79
:010952003173
:0109530001A2
:0109540002A0
:01095500059C
:010956000A96
:010957000D92
:01095800108E
:010959001786
:01095A001B81
:01095B002576
:01095C003169
:01095D003663
:01095E000197
:01095F000295
:010960000492
:01096100078E
:010962000C88
:010963001083
:01096400167C
:010965001A77
:01096600246C
:010967002C63
:01096800315D
:01096900018C
:01096A00028A
:01096B000388
:01096C000486
:01096D000683
:01096E000A7E
:01096F000E79
:010970001175
:010971001A6B
:010972001D67
:010973002063
:010974000181
:01097500027F
:01097600057B
:010977000976
:010978000F6F
:010979001667
:01097A001B61
:01097B00205B
:01097C002B4F
:01097D003643
:01097E003C3C
:01097F000176
:010980000274
:010981000471
:01098200066E
:01098300096A
:010984001062
:01098500135E
:010986001759
:01098700214E
:010988002747
:010989002B42
:01098A00016B
:01098B000269
:01098C000367
:01098D000762
:01098E000D5B
:01098F001057
:01099000194D
:010991001E47
:01099200293B
:01099300362D
:010994003C26
:010995000160
:01099600025E
:01099700055A
:010998000856
:010999000C51
:01099A00104C
:01099B001843
:01099C001D3D
:01099D002831
:01099E003127
:01099F003621
:0109A0000155
:0109A1000253
:0109A2000450
:0109A300094A
:0109A4001042
:0109A500163B
:0109A6001E32
:0109A700242B
:0109A800301E
:0109A9003617
:0109AA003C10
:0109AB00014A
:0109AC000248
:0109AD000346
:0109AE000642
:0109AF000A3D
:0109B0001036
:0109B100162F
:0109B2001B29
:0109B300261D
:0109B4003111
:0109B500360B
:0109B600013F
:0109B700023D
:0109B8000539
:0109B9000736
:0109BA000933
:0109BB00102B
:0109BC001525
:0109BD001A1F
:0109BE002513
:0109BF002C0B
:0109C0003105
:0109C1000134
:0109C2000232
:0109C300042F
:0109C400082A
:0109C5000D24
:0109C6001020
:0109C700141B
:0109C8001915
:0109C9002409
:0109CA0031FB
:0109CB0036F5
:0109CC000129
:0109CD000227
:0109CE000325
:0109CF000522
:0109D000071F
:0109D1000A1B
:0109D2000C18
:0109D3001013
:0109D4001A08
:0109D50022FF
:0109D60026FA
:0109D700011E
:0109D800021C
:0109D9000518
:0109DA000A12
:0109DB00100B
:0109DC001604
:0109DD0020F9
:0109DE0027F1
:0109DF0034E3
:0109E0003BDB
:0109E10041D4
:0109E2000113
:0109E3000211
:0109E400040E
:0109E500070A
:0109E6000A06
:0109E70010FF
:0109E80018F6
:0109E9001EEF
:0109EA002AE2
:0109EB0036D5
:0109EC003CCE
:0109ED000108
:0109EE000206
:0109EF000304
:0109F0000402
:0109F10009FC
:0109F20010F4
:0109F30017EC
:0109F4001DE5
:0109F50029D8
:0109F60031CF
:0109F70036C9
:0109F80001FD
:0109F90002FB
:0109FA0005F7
:0109FB0009F2
:0109FC000DED
:0109FD0010E9
:0109FE0016E2
:0109FF001CDB
:010A000028CD
:010A010036BE
:010A02003CB7
:010A030001F1
:010A040002EF
:010A050004EC
:010A060006E9
:010A07000CE2
:010A080010DD
:010A090015D7
:010A0A001BD0
:010A0B0027C3
:010A0C0031B8
:010A0D0036B2
:010A0E0001E6
:010A0F0002E4
:010A100003E2
:010A110007DD
:010A12000BD8
:010A130010D2
:010A140014CD
:010A15001AC6
:010A160026B9
:010A17002CB2
:010A180031AC
:010A190001DB
:010A1A0002D9
:010A1B0005D5
:010A1C0008D1
:010A1D000ACE
:010A1E0010C7
:010A1F0013C3
:010A200019BC
:010A210025AF
:010A220031A2
:010A2300369C
:010A240001D0
:010A250002CE
:010A260004CB
:010A270009C5
:010A28000EBF
:010A290016B6
:010A2A0020AB
:010A2B0028A2
:010A2C002D9C
:010A2D003692
:010A2E003C8B
:010A2F0001C5
:010A300002C3
:010A310003C1
:010A320006BD
:010A330008BA
:010A34000AB7
:010A350011AF
:010A360017A8
:010A37001AA4
:010A38001DA0
:010A3900209C
:010A3A0001BA
:010A3B0002B8
:010A3C0005B4
:010A3D0007B1
:010A3E000CAB
:010A3F0010A6
:010A4000179E
:010A41001E96
:010A42002291
:010A43002C86
:010A44003180
:010A450001AF
:010A460002AD
:010A470004AA
:010A480008A5
:010A49000BA1
:010A4A00109B
:010A4B001694
:010A4C001D8C
:010A4D002187
:010A4E002780
:010A4F002B7B
:010A500001A4
:010A510002A2
:010A520003A0
:010A5300059D
:010A54000A97
:010A55001090
:010A5600158A
:010A57001C82
:010A5800207D
:010A59002C70
:010A5A00316A
:010A5B000199
:010A5C000297
:010A5D000593
:010A5E000A8D
:010A5F000E88
:010A6000167F
:010A61001B79
:010A62002370
:010A6300286A
:010A64003160
:010A6500365A
:010A6600018E
:010A6700028C
:010A68000489
:010A69000785
:010A6A000D7E
:010A6B00107A
:010A6C001376
:010A6D001A6E
:010A6E001E69
:010A6F002264
:010A7000265F
:010A71000183
:010A72000281
:010A7300037F
:010A7400047D
:010A75000779
:010A76000A75
:010A7700126C
:010A78001964
:010A79001D5F
:010A7A002754
:010A7B002B4F
:010A7C000178
:010A7D000276
:010A7E000572
:010A7F00096D
:010A80001065
:010A8100165E
:010A82001F54
:010A8300284A
:010A84002E43
:010A8500363A
:010A86003C33
:010A8700016D
:010A8800026B
:010A89000468
:010A8A000665
:010A8B000A60
:010A8C001059
:010A8D001751
:010A8E001F48
:010A8F002442
:010A90003134
:010A9100362E
:010A92000162
:010A93000260
:010A9400035E
:010A95000759
:010A96000956
:010A9700104E
:010A98001647
:010A99001E3E
:010A9A002338
:010A9B002C2E
:010A9C003128
:010A9D000157
:010A9E000255
:010A9F000551
:010AA000084D
:010AA1000D47
:010AA2001043
:010AA300153D
:010AA4001D34
:010AA500222E
:010AA6002728
:010AA7002B23
:010AA800014C
:010AA900024A
:010AAA000447
:010AAB000941
:010AAC000C3D
:010AAD001038
:010AAE001433
:010AAF001C2A
:010AB0002124
:010AB1002C18
:010AB2003112
:010AB3000141
:010AB400023F
:010AB500033D
:010AB6000639
:010AB7000B33
:010AB800102D
:010AB9001329
:010ABA001B20
:010ABB00201A
:010ABC002712
:010ABD002B0D
:010ABE000136
:010ABF000234
:010AC0000530
:010AC100072D
:010AC2000A29
:010AC3001022
:010AC4001918
:010AC500220E
:010AC6002807
:010AC70036F8
:010AC8003CF1
:010AC900012B
:010ACA000229
:010ACB000426
:010ACC000821
:010ACD000E1A
:010ACE001611
:010ACF001F07
:010AD00029FC
:010AD10030F4
:010AD2003BE8
:010AD30041E1
:010AD4000120
:010AD500021E
:010AD600031C
:010AD7000519
:010AD8000815
:010AD9000A12
:010ADA00100B
:010ADB001802
:010ADC001DFC
:010ADD0022F6
:010ADE0026F1
:010ADF000115
:010AE0000213
:010AE100050F
:010AE2000A09
:010AE3001101
:010AE40016FB
:010AE5001DF3
:010AE60027E8
:010AE7002EE0
:010AE8003BD2
:010AE90041CB
:010AEA00010A
:010AEB000208
:010AEC000405
:010AED000701
:010AEE000BFC
:010AEF0010F6
:010AF00015F0
:010AF1001EE6
:010AF20024DF
:010AF3002CD6
:010AF40031D0
:010AF50001FF
:010AF60002FD
:010AF70003FB
:010AF80004F9
:010AF90005F7
:010AFA000AF1
:010AFB000DED
:010AFC0015E4
:010AFD001ADE
:010AFE001DDA
:010AFF0020D6
:010B000001F3
:010B010002F1
:010B020005ED
:010B030009E8
:010B04000EE2
:010B050016D9
:010B06001AD4
:010B070024C9
:010B08002BC1
:010B090036B5
:010B0A003CAE
:010B0B0001E8
:010B0C0002E6
:010B0D0004E3
:010B0E0006E0
:010B0F0008DD
:010B10000ADA
:010B110012D1
:010B12001BC7
:010B130021C0
:010B140027B9
:010B15002BB4
:010B160001DD
:010B170002DB
:010B180003D9
:010B190007D4
:010B1A000CCE
:010B1B0010C9
:010B1C0018C0
:010B1D0022B5
:010B1E0029AD
:010B1F00369F
:010B20003C98
:010B210001D2
:010B220002D0
:010B230005CC
:010B240008C8
:010B25000BC4
:010B260010BE
:010B270017B6
:010B280021AB
:010B290028A3
:010B2A003199
:010B2B003693
:010B2C0001C7
:010B2D0002C5
:010B2E0004C2
:010B2F0009BC
:010B30000FB5
:010B310016AD
:010B32001DA5
:010B33002899
:010B34003090
:010B35003689
:010B36003C82
:010B370001BC
:010B380002BA
:010B390003B8
:010B3A0006B4
:010B3B0009B0
:010B3C0010A8
:010B3D0015A2
:010B3E001F97
:010B3F00268F
:010B40003183
:010B4100367D
:010B420001B1
:010B430002AF
:010B440005AB
:010B450007A8
:010B46000DA1
:010B4700109D
:010B48001498
:010B49001E8D
:010B4A002585
:010B4B002C7D
:010B4C003177
:010B4D0001A6
:010B4E0002A4
:010B4F0004A1
:010B5000089C
:010B51000C97
:010B52001092
:010B5300138E
:010B54001D83
:010B5500247B
:010B5600316D
:010B57003667
:010B5800019B
:010B59000299
:010B5A000397
:010B5B000594
:010B5C000B8D
:010B5D001087
:010B5E00197D
:010B5F002471
:010B60002C68
:010B6100365D
:010B62003C56
:010B63000190
:010B6400028E
:010B6500058A
:010B66000A84
:010B67000F7E
:010B68001676
:010B69001F6C
:010B6A002B5F
:010B6B003455
:010B6C003B4D
:010B6D004146
:010B6E000185
:010B6F000283
:010B70000480
:010B7100077C
:010B72000979
:010B73001071
:010B74001769
:010B7500225D
:010B76002A54
:010B77003647
:010B78003C40
:010B7900017A
:010B7A000278
:010B7B000376
:010B7C000474
:010B7D00086F
:010B7E000A6C
:010B7F000F66
:010B8000195B
:010B81002053
:010B8200274B
:010B83002B46
:010B8400016F
:010B8500026D
:010B86000569
:010B87000964
:010B88000C60
:010B8900105B
:010B8A001555
:010B8B001851
:010B8C001F49
:010B8D002C3B
:010B8E003135
:010B8F000164
:010B90000262
:010B9100045F
:010B9200065C
:010B93000B56
:010B94001050
:010B9500144B
:010B96001747
:010B97001E3F
:010B98002735
:010B99002B30
:010B9A000159
:010B9B000257
:010B9C000355
:010B9D000750
:010B9E000A4C
:010B9F001045
:010BA0001341
:010BA100163D
:010BA2001D35
:010BA300222F
:010BA400262A
:010BA500014E
:010BA600024C
:010BA7000548
:010BA8000844
:010BA9000E3D
:010BAA001634
:010BAB002029
:010BAC002523
:010BAD002E19
:010BAE003B0B
:010BAF004104
:010BB0000143
:010BB1000241
:010BB200043E
:010BB3000938
:010BB4000D33
:010BB500102F
:010BB6001826
:010BB7001C21
:010BB8002418
:010BB9002C0F
:010BBA003109
:010BBB000138
:010BBC000236
:010BBD000334
:010BBE000630
:010BBF000C29
:010BC0001024
:010BC100171C
:010BC2001B17
:010BC300230E
:010BC4002709
:010BC5002B04
:010BC600012D
:010BC700022B
:010BC8000527
:010BC9000724
:010BCA000B1F
:010BCB001019
:010BCC001612
:010BCD001A0D
:010BCE002204
:010BCF002CF9
:010BD00031F3
:010BD1000122
:010BD2000220
:010BD300041D
:010BD4000818
:010BD5000A15
:010BD600100E
:010BD7001508
:010BD8001903
:010BD90021FA
:010BDA0027F3
:010BDB002BEE
:010BDC000117
:010BDD000215
:010BDE000313
:010BDF000510
:010BE000090B
:010BE1001003
:010BE20014FE
:010BE30018F9
:010BE40020F0
:010BE5002CE3
:010BE60031DD
:010BE700010C
:010BE800020A
:010BE9000506
:010BEA000A00
:010BEB000DFC
:010BEC0010F8
:010BED0013F4
:010BEE0017EF
:010BEF001FE6
:010BF00027DD
:010BF1002BD8
:010BF2000101
:010BF30002FF
:010BF40004FC
:010BF50007F8
:010BF6000CF2
:010BF70010ED
:010BF80019E3
:010BF9001EDD
:010BFA0027D3
:010BFB002CCD
:010BFC0031C7
:010BFD0001F6
:010BFE0002F4
:010BFF0003F2
:010C000004EF
:010C010006EC
:010C02000AE7
:010C030011DF
:010C040015DA
:010C05001DD1
:010C060027C6
:010C07002BC1
:010C080001EA
:010C090002E8
:010C0A0005E4
:010C0B0009DF
:010C0C000FD8
:010C0D0016D0
:010C0E001EC7
:010C0F0024C0
:010C10002EB5
:010C110036AC
:010C12003CA5
:010C130001DF
:010C140002DD
:010C150004DA
:010C160006D7
:010C170009D3
:010C180010CB
:010C190016C4
:010C1A001BBE
:010C1B0024B4
:010C1C0031A6
:010C1D0036A0
:010C1E0001D4
:010C1F0002D2
:010C200003D0
:010C210007CB
:010C22000DC4
:010C230010C0
:010C240015BA
:010C25001AB4
:010C260023AA
:010C27002CA0
:010C2800319A
:010C290001C9
:010C2A0002C7
:010C2B0005C3
:010C2C0008BF
:010C2D000CBA
:010C2E0010B5
:010C2F0014B0
:010C300019AA
:010C310022A0
:010C3200279A
:010C33002B95
:010C340001BE
:010C350002BC
:010C360004B9
:010C370009B3
:010C380010AB
:010C390016A4
:010C3A001A9F
:010C3B002098
:010C3C002A8D
:010C3D003680
:010C3E003C79
:010C3F0001B3
:010C400002B1
:010C410003AF
:010C420006AB
:010C43000AA6
:010C4400109F
:010C45001995
:010C46001F8E
:010C47002983
:010C4800317A
:010C49003674
:010C4A0001A8
:010C4B0002A6
:010C4C0005A2
:010C4D00079F
:010C4E00099C
:010C4F001094
:010C5000188B
:010C51001E84
:010C52002879
:010C5300366A
:010C54003C63
:010C5500019D
:010C5600029B
:010C57000498
:010C58000893
:010C59000D8D
:010C5A001089
:010C5B001781
:010C5C001D7A
:010C5D00276F
:010C5E003164
:010C5F00365E
:010C60000192
:010C61000290
:010C6200038E
:010C6300058B
:010C64000788
:010C65000A84
:010C66000F7E
:010C67001478
:010C68001D6E
:010C69002268
:010C6A002663
:010C6B000187
:010C6C000285
:010C6D000581
:010C6E000A7B
:010C6F001074
:010C7000166D
:010C71001C66
:010C7200235E
:010C73002E52
:010C74003B44
:010C7500413D
:010C7600017C
:010C7700027A
:010C78000477
:010C79000773
:010C7A000A6F
:010C7B001068
:010C7C001463
:010C7D001A5C
:010C7E002451
:010C7F002C48
:010C80003142
:010C81000171
:010C8200026F
:010C8300036D
:010C8400046B
:010C85000965
:010C8600105D
:010C87001359
:010C88001952
:010C89002347
:010C8A002742
:010C8B002B3D
:010C8C000166
:010C8D000264
:010C8E000560
:010C8F00095B
:010C90000D56
:010C91001052
:010C92001948
:010C93002040
:010C94002B34
:010C95003628
:010C96003C21
:010C9700015B
:010C98000259
:010C99000456
:010C9A000653
:010C9B000C4C
:010C9C001047
:010C9D00183E
:010C9E001F36
:010C9F002A2A
:010CA0003122
:010CA100361C
:010CA2000150
:010CA300024E
:010CA400034C
:010CA5000747
:010CA6000B42
:010CA700103C
:010CA8001734
:010CA9001E2C
:010CAA002920
:010CAB003612
:010CAC003C0B
:010CAD000145
:010CAE000243
:010CAF00053F
:010CB000083B
:010CB1000A38
:010CB2001031
:010CB300162A
:010CB4001D22
:010CB5002816
:010CB600310C
:010CB7003606
:010CB800013A
:010CB9000238
:010CBA000435
:010CBB00092F
:010CBC000E29
:010CBD001620
:010CBE001C19
:010CBF002410
:010CC0003003
:010CC10036FC
:010CC2003CF5
:010CC300012F
:010CC400022D
:010CC500032B
:010CC6000627
:010CC7000824
:010CC8000A21
:010CC9000D1D
:010CCA001316
:010CCB001D0B
:010CCC002700
:010CCD002BFB
:010CCE000124
:010CCF000222
:010CD000051E
:010CD100071B
:010CD2000C15
:010CD3001010
:010CD400130C
:010CD5001A04
:010CD60025F8
:010CD7002CF0
:010CD80031EA
:010CD9000119
:010CDA000217
:010CDB000414
:010CDC00080F
:010CDD000B0B
:010CDE001005
:010CDF0019FB
:010CE00021F2
:010CE1002DE5
:010CE2003BD6
:010CE30041CF
:010CE400010E
:010CE500020C
:010CE600030A
:010CE7000507
:010CE8000A01
:010CE90010FA
:010CEA0018F1
:010CEB0020E8
:010CEC002CDB
:010CED0036D0
:010CEE003CC9
:010CEF000103
:010CF0000201
:010CF10005FD
:010CF2000AF7
:010CF3000EF2
:010CF40016E9
:010CF5001EE0
:010CF60027D6
:010CF70034C8
:010CF8003BC0
:010CF90041B9
:010CFA0001F8
:010CFB0002F6
:010CFC0004F3
:010CFD0007EF
:010CFE000DE8
:010CFF0010E4
:010D000016DC
:010D01001ED3
:010D02002AC6
:010D030036B9
:010D04003CB2
:010D050001EC
:010D060002EA
:010D070003E8
:010D080004E6
:010D090007E2
:010D0A000ADE
:010D0B000ED9
:010D0C0015D1
:010D0D0020C5
:010D0E0027BD
:010D0F002BB8
:010D100001E1
:010D110002DF
:010D120005DB
:010D130009D6
:010D140010CE
:010D150016C7
:010D16001BC1
:010D170024B7
:010D180031A9
:010D19004099
:010D1A004791
:010D1B0001D6
:010D1C0002D4
:010D1D0004D1
:010D1E0006CE
:010D1F000AC9
:010D200010C2
:010D210013BE
:010D22001BB5
:010D230027A8
:010D2400319D
:010D25003697
:010D260001CB
:010D270002C9
:010D280003C7
:010D290007C2
:010D2A0009BF
:010D2B0010B7
:010D2C0019AD
:010D2D0022A3
:010D2E002F95
:010D2F00368D
:010D30003C86
:010D310001C0
:010D320002BE
:010D330005BA
:010D340008B6
:010D35000DB0
:010D360010AC
:010D370018A3
:010D38002199
:010D39002E8B
:010D3A003B7D
:010D3B004176
:010D3C0001B5
:010D3D0002B3
:010D3E0004B0
:010D3F0009AA
:010D40000CA6
:010D410010A1
:010D42001799
:010D4300208F
:010D4400248A
:010D45002C81
:010D4600317B
:010D470001AA
:010D480002A8
:010D490003A6
:010D4A0006A2
:010D4B000B9C
:010D4C001096
:010D4D00168F
:010D4E001F85
:010D4F002380
:010D5000277B
:010D51002B76
:010D5200019F
:010D5300029D
:010D54000599
:010D55000796
:010D56000A92
:010D5700108B
:010D58001585
:010D59001E7B
:010D5A002276
:010D5B002C6B
:010D5C003165
:010D5D000194
:010D5E000292
:010D5F00048F
:010D6000088A
:010D61000E83
:010D6200167A
:010D63001B74
:010D64002569
:010D65002A63
:010D6600315B
:010D67003655
:010D68000189
:010D69000287
:010D6A000385
:010D6B000582
:010D6C00087E
:010D6D000A7B
:010D6E000C78
:010D6F00146F
:010D7000176B
:010D7100225F
:010D7200265A
:010D7300017E
:010D7400027C
:010D75000578
:010D76000A72
:010D7700116A
:010D78001664
:010D79002059
:010D7A002B4D
:010D7B003146
:010D7C003B3B
:010D7D004134
:010D7E000173
:010D7F000271
:010D8000046E
:010D8100076A
:010D82000B65
:010D8300105F
:010D84001856
:010D8500224B
:010D86002745
:010D87002C3F
:010D88003139
:010D89000168
:010D8A000266
:010D8B000364
:010D8C000462
:010D8D000560
:010D8E000A5A
:010D8F001053
:010D90001949
:010D91001D44
:010D92002739
:010D93002B34
:010D9400015D
:010D9500025B
:010D96000557
:010D97000952
:010D98000E4C
:010D99001643
:010D9A001D3B
:010D9B00282F
:010D9C002E28
:010D9D00361F
:010D9E003C18
:010D9F000152
:010DA0000250
:010DA100044D
:010DA200064A
:010DA3000847
:010DA4000A44
:010DA5000E3F
:010DA6001735
:010DA7001B30
:010DA8002723
:010DA9002B1E
:010DAA000147
:010DAB000245
:010DAC000343
:010DAD00073E
:010DAE000C38
:010DAF001033
:010DB000142E
:010DB1001E23
:010DB200231D
:010DB3002C13
:010DB400310D
:010DB500013C
:010DB600023A
:010DB7000536
:010DB8000832
:010DB9000B2E
:010DBA001028
:010DBB001324
:010DBC001D19
:010DBD002213
:010DBE00270D
:010DBF002B08
:010DC0000131
:010DC100022F
:010DC200042C
:010DC3000926
:010DC4000F1F
:010DC5001617
:010DC600200C
:010DC7002CFF
:010DC80033F7
:010DC90040E9
:010DCA0047E1
:010DCB000126
:010DCC000224
:010DCD000322
:010DCE00061E
:010DCF00091A
:010DD0001012
:010DD1001809
:010DD20023FD
:010DD30029F6
:010DD40031ED
:010DD50036E7
:010DD600011B
:010DD7000219
:010DD8000515
:010DD9000712
:010DDA000D0B
:010DDB001007
:010DDC0017FF
:010DDD0022F3
:010DDE0028EC
:010DDF0036DD
:010DE0003CD6
:010DE1000110
:010DE200020E
:010DE300040B
:010DE4000806
:010DE5000C01
:010DE60010FC
:010DE70016F5
:010DE80021E9
:010DE90027E2
:010DEA0031D7
:010DEB0036D1
:010DEC000105
:010DED000203
:010DEE000301
:010DEF0005FE
:010DF0000BF7
:010DF10010F1
:010DF20015EB
:010DF30018E7
:010DF4001DE1
:010DF50022DB
:010DF60026D6
:010DF70001FA
:010DF80002F8
:010DF90005F4
:010DFA000AEE
:010DFB000FE8
:010DFC0016E0
:010DFD001BDA
:010DFE001FD5
:010DFF0025CE
:010E000031C0
:010E010036BA
:010E020001EE
:010E030002EC
:010E040004E9
:010E050007E5
:010E060009E2
:010E070010DA
:010E080013D6
:010E090016D2
:010E0A001BCC
:010E0B0022C4
:010E0C0026BF
:010E0D0001E3
:010E0E0002E1
:010E0F0003DF
:010E100004DD
:010E110008D8
:010E12000AD5
:010E130012CC
:010E140015C8
:010E15001AC2
:010E16001DBE
:010E170020BA
:010E180001D8
:010E190002D6
:010E1A0005D2
:010E1B0009CD
:010E1C000CC9
:010E1D0010C4
:010E1E0018BB
:010E1F001CB6
:010E200022AF
:010E21002CA4
:010E2200319E
:010E230001CD
:010E240002CB
:010E250004C8
:010E260006C5
:010E27000BBF
:010E280010B9
:010E290017B1
:010E2A001BAC
:010E2B0021A5
:010E2C00279E
:010E2D002B99
:010E2E0001C2
:010E2F0002C0
:010E300003BE
:010E310007B9
:010E32000AB5
:010E330010AE
:010E340016A7
:010E35001AA2
:010E3600209B
:010E37002C8E
:010E38003188
:010E390001B7
:010E3A0002B5
:010E3B0005B1
:010E3C0008AD
:010E3D000EA6
:010E3E00169D
:010E3F001C96
:010E40002190
:010E41002888
:010E4200317E
:010E43003678
:010E440001AC
:010E450002AA
:010E460004A7
:010E470009A1
:010E48000D9C
:010E49001098
:010E4A001493
:010E4B00188E
:010E4C001E87
:010E4D002282
:010E4E00267D
:010E4F0001A1
:010E5000029F
:010E5100039D
:010E52000699
:010E53000C92
:010E5400108D
:010E55001389
:010E56001784
:010E57001D7D
:010E58002772
:010E59002B6D
:010E5A000196
:010E5B000294
:010E5C000590
:010E5D00078D
:010E5E000B88
:010E5F001082
:010E60001978
:010E61001E72
:010E6200256A
:010E63002C62
:010E6400315C
:010E6500018B
:010E66000289
:010E67000486
:010E68000881
:010E69000A7E
:010E6A001077
:010E6B00186E
:010E6C001D68
:010E6D002460
:010E6E003152
:010E6F00364C
:010E70000180
:010E7100027E
:010E7200037C
:010E73000579
:010E74000974
:010E7500106C
:010E76001764
:010E77001C5E
:010E78002356
:010E79002C4C
:010E7A003146
:010E7B000175
:010E7C000273
:010E7D00056F
:010E7E000A69
:010E7F000D65
:010E80001061
:010E8100165A
:010E82001B54
:010E8300224C
:010E84002746
:010E85002B41
:010E8600016A
:010E87000268
:010E88000465
:010E89000761
:010E8A000C5B
:010E8B001056
:010E8C001550
:010E8D001A4A
:010E8E002142
:010E8F002C36
:010E90003130
:010E9100015F
:010E9200025D
:010E9300035B
:010E94000459
:010E95000656
:010E96000A51
:010E97000D4D
:010E98001148
:010E99001741
:010E9A001D3A
:010E9B002036
:010E9C000154
:010E9D000252
:010E9E00054E
:010E9F000949
:010EA0000F42
:010EA100163A
:010EA2001A35
:010EA300202E
:010EA4002825
:010EA5003616
:010EA6003C0F
:010EA7000149
:010EA8000247
:010EA9000444
:010EAA000641
:010EAB00093D
:010EAC001035
:010EAD00192B
:010EAE001F24
:010EAF00271B
:010EB0003110
:010EB100360A
:010EB200013E
:010EB300023C
:010EB400033A
:010EB5000735
:010EB6000D2E
:010EB700102A
:010EB8001821
:010EB9001E1A
:010EBA002611
:010EBB002C0A
:010EBC003104
:010EBD000133
:010EBE000231
:010EBF00052D
:010EC0000829
:010EC1000C24
:010EC200101F
:010EC3001717
:010EC4001D10
:010EC5002507
:010EC60031FA
:010EC70036F4
:010EC8000128
:010EC9000226
:010ECA000423
:010ECB00091D
:010ECC001015
:010ECD00160E
:010ECE001D06
:010ECF0024FE
:010ED0002DF4
:010ED10036EA
:010ED2003CE3
:010ED300011D
:010ED400021B
:010ED5000319
:010ED6000615
:010ED7000A10
:010ED8001009
:010ED9001503
:010EDA001BFC
:010EDB0023F3
:010EDC0027EE
:010EDD002BE9
:010EDE000112
:010EDF000210
:010EE000050C
:010EE1000709
:010EE2000906
:010EE30010FE
:010EE40014F9
:010EE5001AF2
:010EE60022E9
:010EE7002CDE
:010EE80031D8
:010EE9000107
:010EEA000205
:010EEB000402
:010EEC0008FD
:010EED000DF7
:010EEE0010F3
:010EEF0013EF
:010EF00019E8
:010EF10021DF
:010EF20027D8
:010EF3002BD3
:010EF40001FC
:010EF50002FA
:010EF60003F8
:010EF70005F5
:010EF80007F2
:010EF9000AEE
:010EFA0012E5
:010EFB0018DE
:010EFC0020D5
:010EFD002CC8
:010EFE0031C2
:010EFF0001F1
:010F000002EE
:010F010005EA
:010F02000AE4
:010F030010DD
:010F040016D6
:010F05001FCC
:010F060027C3
:010F070031B8
:010F08003BAD
:010F090041A6
:010F0A0001E5
:010F0B0002E3
:010F0C0004E0
:010F0D0007DC
:010F0E000AD8
:010F0F0010D1
:010F100017C9
:010F11001EC1
:010F120027B7
:010F13002CB1
:010F140031AB
:010F150001DA
:010F160002D8
:010F170003D6
:010F180004D4
:010F190009CE
:010F1A0010C6
:010F1B0016BF
:010F1C001DB7
:010F1D0026AD
:010F1E0031A1
:010F1F00369B
:010F200001CF
:010F210002CD
:010F220005C9
:010F230009C4
:010F24000DBF
:010F250010BB
:010F260015B5
:010F27001CAD
:010F280025A3
:010F29002C9B
:010F2A003195
:010F2B0001C4
:010F2C0002C2
:010F2D0004BF
:010F2E0006BC
:010F2F000CB5
:010F300010B0
:010F310014AB
:010F32001BA3
:010F33002499
:010F3400318B
:010F35003685
:010F360001B9
:010F370002B7
:010F380003B5
:010F390007B0
:010F3A000BAB
:010F3B0010A5
:010F3C0013A1
:010F3D001A99
:010F3E00238F
:010F3F002C85
:010F4000317F
:010F410001AE
:010F420002AC
:010F430005A8
:010F440008A4
:010F45000AA1
:010F4600109A
:010F47001990
:010F48002187
:010F49002B7C
:010F4A003175
:010F4B00366F
:010F4C0001A3
:010F4D0002A1
:010F4E00049E
:010F4F000998
:010F50000E92
:010F51001689
:010F52001F7F
:010F53002875
:010F54003369
:010F5500405B
:010F56004753
:010F57000198
:010F58000296
:010F59000394
:010F5A000690
:010F5B00088D
:010F5C000A8A
:010F5D001083
:010F5E00177B
:010F5F002071
:010F60002769
:010F61002B64
:010F6200018D
:010F6300028B
:010F64000587
:010F65000784
:010F66000C7E
:010F67001079
:010F68001672
:010F69001E69
:010F6A00285E
:010F6B00364F
:010F6C003C48
:010F6D000182
:010F6E000280
:010F6F00047D
:010F70000878
:010F71000B74
:010F7200106E
:010F73001568
:010F74001D5F
:010F75002754
:010F76003149
:010F77003643
:010F78000177
:010F79000275
:010F7A000373
:010F7B000570
:010F7C000A6A
:010F7D001063
:010F7E00145E
:010F7F001C55
:010F8000264A
:010F81002C43
:010F8200313D
:010F8300016C
:010F8400026A
:010F85000566
:010F86000A60
:010F87000E5B
:010F88001652
:010F89001A4D
:010F8A002343
:010F8B002E37
:010F8C003B29
:010F8D004122
:010F8E000161
:010F8F00025F
:010F9000045C
:010F91000758
:010F92000D51
:010F9300104D
:010F94001943
:010F95002239
:010F96002D2D
:010F97003623
:010F98003C1C
:010F99000156
:010F9A000254
:010F9B000352
:010F9C000450
:010F9D00074C
:010F9E000A48
:010F9F001140
:010FA0001937
:010FA100232C
:010FA2002727
:010FA3002B22
:010FA400014B
:010FA5000249
:010FA6000545
:010FA7000940
:010FA8001038
:010FA9001631
:010FAA001E28
:010FAB00281D
:010FAC003410
:010FAD004003
:010FAE0047FB
:010FAF000140
:010FB000023E
:010FB100043B
:010FB2000638
:010FB3000A33
:010FB400102C
:010FB5001625
:010FB6001F1B
:010FB7002A0F
:010FB8003107
:010FB9003601
:010FBA000135
:010FBB000233
:010FBC000331
:010FBD00072C
:010FBE000929
:010FBF001021
:010FC000151B
:010FC1001E11
:010FC2002905
:010FC30036F7
:010FC4003CF0
:010FC500012A
:010FC6000228
:010FC7000524
:010FC8000820
:010FC9000D1A
:010FCA001016
:010FCB001411
:010FCC001D07
:010FCD0028FB
:010FCE0031F1
:010FCF0036EB
:010FD000011F
:010FD100021D
:010FD200041A
:010FD3000914
:010FD4000C10
:010FD500100B
:010FD6001307
:010FD7001CFD
:010FD80027F1
:010FD9002CEB
:010FDA0031E5
:010FDB000114
:010FDC000212
:010FDD000310
:010FDE00060C
:010FDF000B06
:010FE0001000
:010FE10019F6
:010FE20023EB
:010FE3002FDE
:010FE4003BD1
:010FE50041CA
:010FE6000109
:010FE7000207
:010FE8000503
:010FE9000700
:010FEA000AFC
:010FEB0010F5
:010FEC0018EC
:010FED0022E1
:010FEE002ED4
:010FEF0036CB
:010FF0003CC4
:010FF10001FE
:010FF20002FC
:010FF30004F9
:010FF40008F4
:010FF5000EED
:010FF60016E4
:010FF7001EDB
:010FF80029CF
:010FF90036C1
:010FFA0045B1
:010FFB004CA9
:010FFC0001F3
:010FFD0002F1
:010FFE0003EF
:010FFF0005EC
:0110000008E7
:011001000AE4
:011002000FDE
:0110030018D4
:0110040023C8
:011005002CBE
:0110060031B8
:0110070001E7
:0110080002E5
:0110090005E1
:01100A000ADB
:01100B0011D3
:01100C0016CD
:01100D001CC6
:01100E0027BA
:01100F0034AC
:011010003BA4
:01101100419D
:0110120001DC
:0110130002DA
:0110140004D7
:0110150007D3
:011016000BCE
:0110170010C8
:0110180014C3
:011019001EB8
:01101A002AAB
:01101B00369E
:01101C003C97
:01101D0001D1
:01101E0002CF
:01101F0003CD
:0110200004CB
:0110210005C9
:011022000AC3
:011023000CC0
:0110240015B6
:0110250020AA
:0110260027A2
:011027002B9D
:0110280001C6
:0110290002C4
:01102A0005C0
:01102B0009BB
:01102C000EB5
:01102D0016AC
:01102E0020A1
:01102F002C94
:011030003A85
:011031004A74
:01103200526B
:0110330001BB
:0110340002B9
:0110350004B6
:0110360006B3
:0110370008B0
:011038000AAD
:0110390011A5
:01103A001B9A
:01103B00278D
:01103C003182
:01103D00367C
:01103E0001B0
:01103F0002AE
:0110400003AC
:0110410007A7
:011042000CA1
:01104300109C
:011044001794
:011045002288
:011046002F7A
:011047003672
:011048003C6B
:0110490001A5
:01104A0002A3
:01104B00059F
:01104C00089B
:01104D000B97
:01104E001091
:01104F00168A
:01105000217E
:011051002E70
:011052003B62
:01105300415B
:01105400019A
:011055000298
:011056000495
:01105700098F
:011058000F88
:011059001680
:01105A001C79
:01105B002074
:01105C00246F
:01105D002C66
:01105E003160
:01105F00018F
:01106000028D
:01106100038B
:011062000687
:011063000983
:01106400107B
:011065001476
:011066001772
:011067001A6E
:011068001D6A
:011069002066
:01106A000184
:01106B000282
:01106C00057E
:01106D00077B
:01106E000D74
:01106F001070
:01107000136C
:011071001668
:011072001964
:01107300225A
:011074002655
:011075000179
:011076000277
:011077000474
:01107800086F
:011079000C6A
:01107A001065
:01107B00195B
:01107C001D56
:01107D002151
:01107E00274A
:01107F002B45
:01108000016E
:01108100026C
:01108200036A
:011083000567
:011084000B60
:01108500105A
:011086001851
:011087001C4C
:011088002047
:011089002C3A
:01108A003134
:01108B000163
:01108C000261
:01108D00055D
:01108E000A57
:01108F000F51
:011090001649
:011091001E40
:01109200233A
:011093002834
:01109400312A
:011095003624
:011096000158
:011097000256
:011098000453
:01109900074F
:01109A00094C
:01109B001044
:01109C00163D
:01109D001A38
:01109E001E33
:01109F00222E
:0110A0002629
:0110A100014D
:0110A200024B
:0110A3000349
:0110A4000447
:0110A5000842
:0110A6000A3F
:0110A7000E3A
:0110A8001136
:0110A9001432
:0110AA001D28
:0110AB002024
:0110AC000142
:0110AD000240
:0110AE00053C
:0110AF000937
:0110B0000C33
:0110B100102E
:0110B2001429
:0110B3001824
:0110B4001C1F
:0110B5002218
:0110B6002613
:0110B7000137
:0110B8000235
:0110B9000432
:0110BA00062F
:0110BB000B29
:0110BC001023
:0110BD00131F
:0110BE00171A
:0110BF001B15
:0110C0002708
:0110C1002B03
:0110C200012C
:0110C300022A
:0110C4000328
:0110C5000723
:0110C6000A1F
:0110C7001018
:0110C800190E
:0110C9001E08
:0110CA002302
:0110CB002CF8
:0110CC0031F2
:0110CD000121
:0110CE00021F
:0110CF00051B
:0110D0000817
:0110D1000E10
:0110D2001607
:0110D3001FFD
:0110D40025F6
:0110D5002BEF
:0110D60031E8
:0110D70036E2
:0110D8000116
:0110D9000214
:0110DA000411
:0110DB00090B
:0110DC000D06
:0110DD001002
:0110DE0017FA
:0110DF001CF4
:0110E00021EE
:0110E1002CE2
:0110E20031DC
:0110E300010B
:0110E4000209
:0110E5000307
:0110E6000603
:0110E7000CFC
:0110E80010F7
:0110E90016F0
:0110EA001BEA
:0110EB0020E4
:0110EC0027DC
:0110ED002BD7
:0110EE000100
:0110EF0002FE
:0110F00005FA
:0110F10007F7
:0110F2000BF2
:0110F30010EC
:0110F40015E6
:0110F5001AE0
:0110F6001FDA
:0110F7002CCC
:0110F80031C6
:0110F90001F5
:0110FA0002F3
:0110FB0004F0
:0110FC0008EB
:0110FD000AE8
:0110FE0010E1
:0110FF0014DC
:0111000019D5
:011101001ECF
:0111020027C5
:011103002BC0
:0111040001E9
:0111050002E7
:0111060003E5
:0111070005E2
:0111080009DD
:0111090010D5
:01110A0013D1
:01110B0018CB
:01110C001DC5
:01110D0022BF
:01110E0026BA
:01110F0001DE
:0111100002DC
:0111110005D8
:011112000AD2
:011113000DCE
:0111140010CA
:0111150019C0
:011116001FB9
:0111170025B2
:0111180031A5
:01111900369F
:01111A0001D3
:01111B0002D1
:01111C0004CE
:01111D0007CA
:01111E000CC4
:01111F0010BF
:0111200018B6
:011121001EAF
:0111220024A8
:011123002C9F
:011124003199
:0111250001C8
:0111260002C6
:0111270003C4
:0111280004C2
:0111290006BF
:01112A000ABA
:01112B0010B3
:01112C0015AD
:01112D001AA7
:01112E001DA3
:01112F00209F
:0111300001BD
:0111310002BB
:0111320005B7
:0111330009B2
:011134000FAB
:0111350016A3
:011136001D9B
:011137002493
:011138002B8B
:01113900367F
:01113A003C78
:01113B0001B2
:01113C0002B0
:01113D0004AD
:01113E0006AA
:01113F0009A6
:01114000109E
:011141001598
:011142001B91
:01114300218A
:011144002783
:011145002B7E
:0111460001A7
:0111470002A5
:0111480003A3
:01114900079E
:01114A000D97
:01114B001093
:01114C00148E
:01114D001A87
:01114E002080
:01114F002C73
:01115000316D
:01115100019C
:01115200029A
:011153000596
:011154000892
:011155000C8D
:011156001088
:011157001384
:01115800197D
:011159001F76
:01115A00276D
:01115B002B68
:01115C000191
:01115D00028F
:01115E00048C
:01115F000986
:01116000107E
:011161001677
:01116200206C
:011163002863
:01116400305A
:011165003653
:011166003C4C
:011167000186
:011168000284
:011169000382
:01116A00067E
:01116B000A79
:01116C001072
:01116D001869
:01116E001F61
:01116F002659
:01117000314D
:011171003647
:01117200017B
:011173000279
:011174000575
:011175000772
:01117600096F
:011177001067
:01117800175F
:011179001E57
:01117A00254F
:01117B002C47
:01117C003141
:01117D000170
:01117E00026E
:01117F00046B
:011180000866
:011181000D60
:01118200105C
:011183001655
:011184001D4D
:011185002445
:011186003137
:011187003631
:011188000165
:011189000263
:01118A000361
:01118B00055E
:01118C00075B
:01118D000A57
:01118E000E52
:01118F00144B
:011190001A44
:01119100223B
:011192002636
:01119300015A
:011194000258
:011195000554
:011196000A4E
:011197001047
:011198001640
:011199001B3A
:01119A002331
:01119B002B28
:01119C003121
:01119D00361B
:01119E00014F
:01119F00024D
:0111A000044A
:0111A1000746
:0111A2000A42
:0111A300103B
:0111A4001337
:0111A5001A2F
:0111A6002127
:0111A7002C1B
:0111A8003115
:0111A9000144
:0111AA000242
:0111AB000340
:0111AC00043E
:0111AD000938
:0111AE001030
:0111AF001926
:0111B000211D
:0111B1002914
:0111B200310B
:0111B3003605
:0111B4000139
:0111B5000237
:0111B6000533
:0111B700092E
:0111B8000D29
:0111B9001025
:0111BA00181C
:0111BB002013
:0111BC00280A
:0111BD0036FB
:0111BE003CF4
:0111BF00012E
:0111C000022C
:0111C1000429
:0111C2000626
:0111C3000C1F
:0111C400101A
:0111C5001712
:0111C6001F09
:0111C7002700
:0111C80031F5
:0111C90036EF
:0111CA000123
:0111CB000221
:0111CC00031F
:0111CD00071A
:0111CE000B15
:0111CF00100F
:0111D0001608
:0111D1001EFF
:0111D20026F6
:0111D3002CEF
:0111D40031E9
:0111D5000118
:0111D6000216
:0111D7000512
:0111D800080E
:0111D9000A0B
:0111DA001004
