:0100000001FE
:0100010002FC
:0100020003FA
:0100030004F8
:0100040005F6
:0100050006F4
:0100060007F2
:0100070001F7
:0100080002F5
:0100090005F1
:01000A0009EC
:01000B000EE6
:01000C0012E1
:01000D0015DD
:01000E0001F0
:01000F0002EE
:0100100004EB
:0100110006E8
:0100120008E5
:010013000CE0
:010014000EDD
:0100150001E9
:0100160002E7
:0100170003E5
:0100180007E0
:010019000CDA
:01001A0012D3
:01001B0015CF
:01001C0001E2
:01001D0002E0
:01001E0005DC
:01001F0008D8
:010020000BD4
:0100210012CC
:0100220015C8
:0100230001DB
:0100240002D9
:0100250004D6
:0100260009D0
:010027000FC9
:0100280012C5
:0100290015C1
:01002A0001D4
:01002B0002D2
:01002C0003D0
:01002D0006CC
:01002E0009C8
:01002F000CC4
:010030000EC1
:0100310001CD
:0100320002CB
:0100330005C7
:0100340007C4
:010035000DBD
:0100360012B7
:0100370015B3
:0100380001C6
:0100390002C4
:01003A0004C1
:01003B0008BC
:01003C000CB7
:01003D0012B0
:01003E0015AC
:01003F0001BF
:0100400002BD
:0100410003BB
:0100420005B8
:010043000BB1
:0100440012A9
:0100450015A5
:0100460001B8
:0100470002B6
:0100480005B2
:010049000AAC
:01004A000FA6
:01004B0012A2
:01004C00159E
:01004D0001B1
:01004E0002AF
:01004F0004AC
:0100500007A8
:0100510009A5
:010052000CA1
:010053000E9E
:0100540001AA
:0100550002A8
:0100560003A6
:0100570004A4
:01005800089F
:010059000C9A
:01005A000E97
:01005B0001A3
:01005C0002A1
:01005D00059D
:01005E000998
:01005F000C94
:01006000128D
:010061001589
:01006200019C
:01006300029A
:010064000497
:010065000694
:010066000B8E
:010067001286
:010068001582
:010069000195
:01006A000293
:01006B000391
:01006C00078C
:01006D000A88
:01006E000C85
:01006F000E82
:01007000018E
:01007100028C
:010072000588
:010073000884
:010074000E7D
:010075001278
:010076001574
:010077000187
:010078000285
:010079000482
:01007A00097C
:01007B000D77
:01007C001271
:01007D00156D
:01007E000180
:01007F00027E
:01008000037C
:010081000678
:010082000C71
:01008300126A
:010084001566
:010085000179
:010086000277
:010087000573
:010088000770
:010089000B6B
:01008A001263
:01008B00155F
:01008C000172
:01008D000270
:01008E00046D
:01008F000868
:010090000A65
:010091000C62
:010092000E5F
:01009300016B
:010094000269
:010095000367
:010096000564
:01009700095F
:010098000C5B
:010099000E58
:01009A000164
:01009B000262
:01009C00055E
:01009D000A58
:01009E000D54
:01009F00124E
:0100A000154A
:0100A100015D
:0100A200025B
:0100A3000458
:0100A4000754
:0100A5000C4E
:0100A6001247
:0100A7001543
:0100A8000156
:0100A9000254
:0100AA000352
:0100AB000450
:0100AC00064D
:0100AD000C46
:0100AE000E43
:0100AF00014F
:0100B000024D
:0100B1000549
:0100B2000944
:0100B3000F3D
:0100B4001239
:0100B5001535
:0100B6000148
:0100B7000246
:0100B8000443
:0100B9000640
:0100BA00093C
:0100BB000C38
:0100BC000E35
:0100BD000141
:0100BE00023F
:0100BF00033D
:0100C0000738
:0100C1000D31
:0100C200122B
:0100C3001527
:0100C400013A
:0100C5000238
:0100C6000534
:0100C7000830
:0100C8000C2B
:0100C9001224
:0100CA001520
:0100CB000133
:0100CC000231
:0100CD00042E
:0100CE000928
:0100CF001020
:0100D0001817
:0100D1001C12
:0100D200012C
:0100D300022A
:0100D4000328
:0100D5000624
:0100D6000A1F
:0100D7000C1C
:0100D8000E19
:0100D9000125
:0100DA000223
:0100DB00051F
:0100DC00071C
:0100DD000919
:0100DE000C15
:0100DF000E12
:0100E000011E
:0100E100021C
:0100E2000419
:0100E3000814
:0100E4000D0E
:0100E5001208
:0100E6001504
:0100E7000117
:0100E8000215
:0100E9000313
:0100EA000510
:0100EB00070D
:0100EC000C07
:0100ED000E04
:0100EE000110
:0100EF00020E
:0100F000050A
:0100F1000A04
:0100F20010FD
:0100F30018F4
:0100F4001CEF
:0100F5000109
:0100F6000207
:0100F7000404
:0100F8000700
:0100F9000AFC
:0100FA000CF9
:0100FB000EF6
:0100FC000102
:0100FD000200
:0100FE0003FE
:0100FF0004FC
:0101000009F5
:010101000CF1
:010102000EEE
:0101030001FA
:0101040002F8
:0101050005F4
:0101060009EF
:010107000DEA
:0101080012E4
:0101090015E0
:01010A0001F3
:01010B0002F1
:01010C0004EE
:01010D0006EB
:01010E000CE4
:01010F0012DD
:0101100015D9
:0101110001EC
:0101120002EA
:0101130003E8
:0101140007E3
:010115000BDE
:0101160012D6
:0101170015D2
:0101180001E5
:0101190002E3
:01011A0005DF
:01011B0008DB
:01011C000AD8
:01011D000CD5
:01011E000ED2
:01011F0001DE
:0101200002DC
:0101210004D9
:0101220009D3
:010123000ECD
:0101240012C8
:0101250015C4
:0101260001D7
:0101270002D5
:0101280003D3
:0101290006CF
:01012A0008CC
:01012B000CC7
:01012C000EC4
:01012D0001D0
:01012E0002CE
:01012F0005CA
:0101300007C7
:010131000CC1
:0101320012BA
:0101330015B6
:0101340001C9
:0101350002C7
:0101360004C4
:0101370008BF
:010138000BBB
:0101390012B3
:01013A0015AF
:01013B0001C2
:01013C0002C0
:01013D0003BE
:01013E0005BB
:01013F000AB5
:010140000CB2
:010141000EAF
:0101420001BB
:0101430002B9
:0101440005B5
:010145000AAF
:010146000EAA
:0101470012A5
:0101480015A1
:0101490001B4
:01014A0002B2
:01014B0004AF
:01014C0007AB
:01014D000DA4
:01014E00129E
:01014F00159A
:0101500001AD
:0101510002AB
:0101520003A9
:0101530004A7
:0101540007A3
:010155000C9D
:010156000E9A
:0101570001A6
:0101580002A4
:0101590005A0
:01015A00099B
:01015B001093
:01015C00188A
:01015D001C85
:01015E00019F
:01015F00029D
:01016000049A
:010161000697
:010162000A92
:010163000C8F
:010164000E8C
:010165000198
:010166000296
:010167000394
:01016800078F
:01016900098C
:01016A000C88
:01016B000E85
:01016C000191
:01016D00028F
:01016E00058B
:01016F000887
:010170000D81
:01017100127B
:010172001577
:01017300018A
:010174000288
:010175000485
:01017600097F
:010177000C7B
:010178001274
:010179001570
:01017A000183
:01017B000281
:01017C00037F
:01017D00067B
:01017E000B75
:01017F00126D
:010180001569
:01018100017C
:01018200027A
:010183000576
:010184000773
:010185000A6F
:010186000C6C
:010187000E69
:010188000175
:010189000273
:01018A000470
:01018B00086B
:01018C000E64
:01018D00125F
:01018E00155B
:01018F00016E
:01019000026C
:01019100036A
:010192000567
:010193000863
:010194000C5E
:010195000E5B
:010196000167
:010197000265
:010198000561
:010199000A5B
:01019A001153
:01019B00184B
:01019C001C46
:01019D000160
:01019E00025E
:01019F00045B
:0101A0000757
:0101A1000B52
:0101A200124A
:0101A3001546
:0101A4000159
:0101A5000257
:0101A6000355
:0101A7000453
:0101A8000551
:0101A900074E
:0101AA00094B
:0101AB000152
:0101AC000250
:0101AD00054C
:0101AE000947
:0101AF000E41
:0101B000133B
:0101B1001736
:0101B200014B
:0101B3000249
:0101B4000446
:0101B5000643
:0101B6000840
:0101B7000D3A
:0101B8001036
:0101B9000144
:0101BA000242
:0101BB000340
:0101BC00073B
:0101BD000C35
:0101BE00132D
:0101BF001728
:0101C000013D
:0101C100023B
:0101C2000537
:0101C3000833
:0101C4000B2F
:0101C5001326
:0101C6001721
:0101C7000136
:0101C8000234
:0101C9000431
:0101CA00092B
:0101CB000F24
:0101CC00131F
:0101CD00171A
:0101CE00012F
:0101CF00022D
:0101D000032B
:0101D1000627
:0101D2000923
:0101D3000D1E
:0101D400101A
:0101D5000128
:0101D6000226
:0101D7000522
:0101D800071F
:0101D9000D18
:0101DA001311
:0101DB00170C
:0101DC000121
:0101DD00021F
:0101DE00041C
:0101DF000817
:0101E0000C12
:0101E100130A
:0101E2001705
:0101E300011A
:0101E4000218
:0101E5000316
:0101E6000513
:0101E7000B0C
:0101E8001303
:0101E90017FE
:0101EA000113
:0101EB000211
:0101EC00050D
:0101ED000A07
:0101EE000F01
:0101EF0013FC
:0101F00017F7
:0101F100010C
:0101F200020A
:0101F3000407
:0101F4000703
:0101F5000900
:0101F6000DFB
:0101F70010F7
:0101F8000105
:0101F9000203
:0101FA000301
:0101FB0004FF
:0101FC0008FA
:0101FD000DF4
:0101FE0010F0
:0101FF0001FE
:0102000002FB
:0102010005F7
:0102020009F2
:010203000CEE
:0102040013E6
:0102050017E1
:0102060001F6
:0102070002F4
:0102080004F1
:0102090006EE
:01020A000BE8
:01020B0013DF
:01020C0017DA
:01020D0001EF
:01020E0002ED
:01020F0003EB
:0102100007E6
:010211000AE2
:010212000DDE
:0102130010DA
:0102140001E8
:0102150002E6
:0102160005E2
:0102170008DE
:010218000ED7
:0102190013D1
:01021A0017CC
:01021B0001E1
:01021C0002DF
:01021D0004DC
:01021E0009D6
:01021F000DD1
:0102200013CA
:0102210017C5
:0102220001DA
:0102230002D8
:0102240003D6
:0102250006D2
:010226000CCB
:0102270013C3
:0102280017BE
:0102290001D3
:01022A0002D1
:01022B0005CD
:01022C0007CA
:01022D000BC5
:01022E0013BC
:01022F0017B7
:0102300001CC
:0102310002CA
:0102320004C7
:0102330008C2
:010234000ABF
:010235000DBB
:0102360010B7
:0102370001C5
:0102380002C3
:0102390003C1
:01023A0005BE
:01023B0009B9
:01023C000DB4
:01023D0010B0
:01023E0001BE
:01023F0002BC
:0102400005B8
:010241000AB2
:010242000DAE
:0102430013A7
:0102440017A2
:0102450001B7
:0102460002B5
:0102470004B2
:0102480007AE
:010249000CA8
:01024A0013A0
:01024B00179B
:01024C0001B0
:01024D0002AE
:01024E0003AC
:01024F0004AA
:0102500006A7
:010251000D9F
:01025200109B
:0102530001A9
:0102540002A7
:0102550005A3
:01025600099E
:010257000F97
:010258001392
:01025900178D
:01025A0001A2
:01025B0002A0
:01025C00049D
:01025D00069A
:01025E000996
:01025F000D91
:01026000108D
:01026100019B
:010262000299
:010263000397
:010264000792
:010265000D8B
:010266001384
:01026700177F
:010268000194
:010269000292
:01026A00058E
:01026B00088A
:01026C000C85
:01026D00137D
:01026E001778
:01026F00018D
:01027000028B
:010271000488
:010272000982
:01027300107A
:010274001970
:010275001E6A
:010276000186
:010277000284
:010278000382
:01027900067E
:01027A000A79
:01027B000D75
:01027C001071
:01027D00017F
:01027E00027D
:01027F000579
:010280000776
:010281000973
:010282000D6E
:01028300106A
:010284000178
:010285000276
:010286000473
:01028700086E
:010288000D68
:010289001361
:01028A00175C
:01028B000171
:01028C00026F
:01028D00036D
:01028E00056A
:01028F000767
:010290000D60
:01029100105C
:01029200016A
:010293000268
:010294000564
:010295000A5E
:010296001057
:01029700194D
:010298001E47
:010299000163
:01029A000261
:01029B00045E
:01029C00075A
:01029D000A56
:01029E000D52
:01029F00104E
:0102A000015C
:0102A100025A
:0102A2000358
:0102A3000456
:0102A4000950
:0102A5000D4B
:0102A6001047
:0102A7000155
:0102A8000253
:0102A900054F
:0102AA00094A
:0102AB000D45
:0102AC00133E
:0102AD001739
:0102AE00014E
:0102AF00024C
:0102B0000449
:0102B1000646
:0102B2000C3F
:0102B3001337
:0102B4001732
:0102B5000147
:0102B6000245
:0102B7000343
:0102B800073E
:0102B9000B39
:0102BA001330
:0102BB00172B
:0102BC000140
:0102BD00023E
:0102BE00053A
:0102BF000836
:0102C0000A33
:0102C1000D2F
:0102C200102B
:0102C3000139
:0102C4000237
:0102C5000434
:0102C600092E
:0102C7000E28
:0102C8001322
:0102C900171D
:0102CA000132
:0102CB000230
:0102CC00032E
:0102CD00062A
:0102CE000827
:0102CF000D21
:0102D000101D
:0102D100012B
:0102D2000229
:0102D3000525
:0102D4000722
:0102D5000C1C
:0102D6001314
:0102D700170F
:0102D8000124
:0102D9000222
:0102DA00041F
:0102DB00081A
:0102DC000B16
:0102DD00130D
:0102DE001708
:0102DF00011D
:0102E000021B
:0102E1000319
:0102E2000516
:0102E3000A10
:0102E4000D0C
:0102E5001008
:0102E6000116
:0102E7000214
:0102E8000510
:0102E9000A0A
:0102EA000E05
:0102EB0013FF
:0102EC0017FA
:0102ED00010F
:0102EE00020D
:0102EF00040A
:0102F0000706
:0102F1000DFF
:0102F20013F8
:0102F30017F3
:0102F4000108
:0102F5000206
:0102F6000304
:0102F7000402
:0102F80007FE
:0102F9000DF7
:0102FA0010F3
:0102FB000101
:0102FC0002FF
:0102FD0005FB
:0102FE0009F6
:0102FF0010EE
:0103000019E3
:010301001EDD
:0103020001F9
:0103030002F7
:0103040004F4
:0103050006F1
:010306000AEC
:010307000DE8
:0103080010E4
:0103090001F2
:01030A0002F0
:01030B0003EE
:01030C0007E9
:01030D0009E6
:01030E000DE1
:01030F0010DD
:0103100001EB
:0103110002E9
:0103120005E5
:0103130008E1
:010314000DDB
:0103150013D4
:0103160017CF
:0103170001E4
:0103180002E2
:0103190004DF
:01031A0009D9
:01031B000CD5
:01031C0013CD
:01031D0017C8
:01031E0001DD
:01031F0002DB
:0103200003D9
:0103210006D5
:010322000BCF
:0103230013C6
:0103240017C1
:0103250001D6
:0103260002D4
:0103270005D0
:0103280007CD
:010329000AC9
:01032A000DC5
:01032B0010C1
:01032C0001CF
:01032D0002CD
:01032E0004CA
:01032F0008C5
:010330000EBE
:0103310013B8
:0103320017B3
:0103330001C8
:0103340002C6
:0103350003C4
:0103360005C1
:0103370008BD
:010338000DB7
:0103390010B3
:01033A0001C1
:01033B0002BF
:01033C0005BB
:01033D000AB5
:01033E0011AD
:01033F0019A4
:010340001E9E
:0103410001BA
:0103420002B8
:0103430004B5
:0103440007B1
:010345000BAC
:0103460013A3
:01034700179E
:0103480001B3
:0103490002B1
:01034A0003AF
:01034B0004AD
:01034C0005AB
:01034D0008A7
:01034E000AA4
:01034F0001AC
:0103500002AA
:0103510005A6
:0103520009A1
:010353000E9B
:010354001494
:01035500188F
:0103560001A5
:0103570002A3
:0103580004A0
:01035900069D
:01035A00089A
:01035B000E93
:01035C00118F
:01035D00019E
:01035E00029C
:01035F00039A
:010360000795
:010361000C8F
:010362001486
:010363001881
:010364000197
:010365000295
:010366000591
:01036700088D
:010368000B89
:010369000E85
:01036A001181
:01036B000190
:01036C00028E
:01036D00048B
:01036E000985
:01036F000F7E
:010370001478
:010371001873
:010372000189
:010373000287
:010374000385
:010375000681
:01037600097D
:010377000E77
:010378001173
:010379000182
:01037A000280
:01037B00057C
:01037C000779
:01037D000D72
:01037E00146A
:01037F001865
:01038000017B
:010381000279
:010382000476
:010383000871
:010384000C6C
:010385001463
:01038600185E
:010387000174
:010388000272
:010389000370
:01038A00056D
:01038B000B66
:01038C000E62
:01038D00115E
:01038E00016D
:01038F00026B
:010390000567
:010391000A61
:010392000F5B
:010393001455
:010394001850
:010395000166
:010396000264
:010397000461
:01039800075D
:01039900095A
:01039A000E54
:01039B001150
:01039C00015F
:01039D00025D
:01039E00035B
:01039F000459
:0103A0000854
:0103A1000E4D
:0103A2001149
:0103A3000158
:0103A4000256
:0103A5000552
:0103A600094D
:0103A7000C49
:0103A8001440
:0103A900183B
:0103AA000151
:0103AB00024F
:0103AC00044C
:0103AD000649
:0103AE000B43
:0103AF000E3F
:0103B000113B
:0103B100014A
:0103B2000248
:0103B3000346
:0103B4000741
:0103B5000A3D
:0103B6000E38
:0103B7001134
:0103B8000143
:0103B9000241
:0103BA00053D
:0103BB000839
:0103BC000E32
:0103BD00142B
:0103BE001826
:0103BF00013C
:0103C000023A
:0103C1000437
:0103C2000931
:0103C3000D2C
:0103C4001424
:0103C500181F
:0103C6000135
:0103C7000233
:0103C8000331
:0103C900062D
:0103CA000C26
:0103CB00141D
:0103CC001818
:0103CD00012E
:0103CE00022C
:0103CF000528
:0103D0000725
:0103D1000B20
:0103D2000E1C
:0103D3001118
:0103D4000127
:0103D5000225
:0103D6000422
:0103D700081D
:0103D8000A1A
:0103D9000E15
:0103DA001111
:0103DB000120
:0103DC00021E
:0103DD00031C
:0103DE000519
:0103DF000914
:0103E0000E0E
:0103E100110A
:0103E2000119
:0103E3000217
:0103E4000513
:0103E5000A0D
:0103E6000D09
:0103E7001401
:0103E80018FC
:0103E9000112
:0103EA000210
:0103EB00040D
:0103EC000709
:0103ED000C03
:0103EE0014FA
:0103EF0018F5
:0103F000010B
:0103F1000209
:0103F2000307
:0103F3000405
:0103F4000602
:0103F50008FF
:0103F6000AFC
:0103F7000104
:0103F8000202
:0103F90005FE
:0103FA0009F9
:0103FB000FF2
:0103FC0014EC
:0103FD0018E7
:0103FE0001FD
:0103FF0002FB
:0104000004F7
:0104010006F4
:0104020009F0
:010403000EEA
:0104040011E6
:0104050001F5
:0104060002F3
:0104070003F1
:0104080007EC
:010409000DE5
:01040A0014DD
:01040B0018D8
:01040C0001EE
:01040D0002EC
:01040E0005E8
:01040F0008E4
:010410000CDF
:0104110014D6
:0104120018D1
:0104130001E7
:0104140002E5
:0104150004E2
:0104160009DC
:0104170010D4
:0104180014CF
:0104190018CA
:01041A0001E0
:01041B0002DE
:01041C0003DC
:01041D0006D8
:01041E000AD3
:01041F000ECE
:0104200011CA
:0104210001D9
:0104220002D7
:0104230005D3
:0104240007D0
:0104250009CD
:010426000EC7
:0104270011C3
:0104280001D2
:0104290002D0
:01042A0004CD
:01042B0008C8
:01042C000DC2
:01042D0014BA
:01042E0018B5
:01042F0001CB
:0104300002C9
:0104310003C7
:0104320005C4
:0104330007C1
:010434000EB9
:0104350011B5
:0104360001C4
:0104370002C2
:0104380005BE
:010439000AB8
:01043A0010B1
:01043B0014AC
:01043C0018A7
:01043D0001BD
:01043E0002BB
:01043F0004B8
:0104400007B4
:010441000AB0
:010442000EAB
:0104430011A7
:0104440001B6
:0104450002B4
:0104460003B2
:0104470004B0
:0104480009AA
:010449000EA4
:01044A0011A0
:01044B0001AF
:01044C0002AD
:01044D0005A9
:01044E0009A4
:01044F000D9F
:010450001497
:010451001892
:0104520001A8
:0104530002A6
:0104540004A3
:0104550006A0
:010456000C99
:010457001490
:01045800188B
:0104590001A1
:01045A00029F
:01045B00039D
:01045C000798
:01045D000B93
:01045E000E8F
:01045F00118B
:01046000019A
:010461000298
:010462000594
:010463000890
:010464000A8D
:010465000E88
:010466001184
:010467000193
:010468000291
:01046900048E
:01046A000988
:01046B000E82
:01046C00147B
:01046D001876
:01046E00018C
:01046F00028A
:010470000388
:010471000684
:010472000881
:010473000E7A
:010474001176
:010475000185
:010476000283
:01047700057F
:01047800077C
:010479000C76
:01047A00146D
:01047B001868
:01047C00017E
:01047D00027C
:01047E000479
:01047F000874
:010480000B70
:010481000E6C
:010482001168
:010483000177
:010484000275
:010485000373
:010486000570
:010487000A6A
:010488000E65
:010489001161
:01048A000170
:01048B00026E
:01048C00056A
:01048D000A64
:01048E000E5F
:01048F001458
:010490001853
:010491000169
:010492000267
:010493000464
:010494000760
:010495000D59
:010496001451
:01049700184C
:010498000162
:010499000260
:01049A00035E
:01049B00045C
:01049C000758
:01049D000E50
:01049E00114C
:01049F00015B
:0104A0000259
:0104A1000555
:0104A2000950
:0104A3001048
:0104A4001443
:0104A500183E
:0104A6000154
:0104A7000252
:0104A800044F
:0104A900064C
:0104AA000A47
:0104AB000E42
:0104AC00113E
:0104AD00014D
:0104AE00024B
:0104AF000349
:0104B0000744
:0104B1000941
:0104B2000E3B
:0104B3001137
:0104B4000146
:0104B5000244
:0104B6000540
:0104B700083C
:0104B8000D36
:0104B900142E
:0104BA001829
:0104BB00013F
:0104BC00023D
:0104BD00043A
:0104BE000934
:0104BF000C30
:0104C0001427
:0104C1001822
:0104C2000138
:0104C3000236
:0104C4000334
:0104C5000630
:0104C6000B2A
:0104C7000E26
:0104C8001122
:0104C9000131
:0104CA00022F
:0104CB00052B
:0104CC000728
:0104CD000A24
:0104CE000E1F
:0104CF00111B
:0104D000012A
:0104D1000228
:0104D2000425
:0104D3000820
:0104D4000E19
:0104D5001412
:0104D600180D
:0104D7000123
:0104D8000221
:0104D900031F
:0104DA00051C
:0104DB000818
:0104DC000E11
:0104DD00110D
:0104DE00011C
:0104DF00021A
:0104E0000516
:0104E1000A10
:0104E2001108
:0104E3001AFE
:0104E4001FF8
:0104E5000115
:0104E6000213
:0104E7000410
:0104E800070C
:0104E9000B07
:0104EA000E03
:0104EB0011FF
:0104EC00010E
:0104ED00020C
:0104EE00030A
:0104EF000408
:0104F0000506
:0104F1000901
:0104F2000BFE
:0104F3000107
:0104F4000205
:0104F5000501
:0104F60009FC
:0104F7000EF6
:0104F80015EE
:0104F90019E9
:0104FA000100
:0104FB0002FE
:0104FC0004FB
:0104FD0006F8
:0104FE0008F5
:0104FF000FED
:0105000012E8
:0105010001F8
:0105020002F6
:0105030003F4
:0105040007EF
:010505000CE9
:010506000FE5
:0105070012E1
:0105080001F1
:0105090002EF
:01050A0005EB
:01050B0008E7
:01050C000BE3
:01050D000FDE
:01050E0012DA
:01050F0001EA
:0105100002E8
:0105110004E5
:0105120009DF
:010513000FD8
:0105140015D1
:0105150019CC
:0105160001E3
:0105170002E1
:0105180003DF
:0105190006DB
:01051A0009D7
:01051B000FD0
:01051C0012CC
:01051D0001DC
:01051E0002DA
:01051F0005D6
:0105200007D3
:010521000DCC
:0105220015C3
:0105230019BE
:0105240001D5
:0105250002D3
:0105260004D0
:0105270008CB
:010528000CC6
:010529000FC2
:01052A0012BE
:01052B0001CE
:01052C0002CC
:01052D0003CA
:01052E0005C7
:01052F000BC0
:010530000FBB
:0105310012B7
:0105320001C7
:0105330002C5
:0105340005C1
:010535000ABB
:010536000FB5
:0105370015AE
:0105380019A9
:0105390001C0
:01053A0002BE
:01053B0004BB
:01053C0007B7
:01053D0009B4
:01053E000FAD
:01053F0012A9
:0105400001B9
:0105410002B7
:0105420003B5
:0105430004B3
:0105440008AE
:010545000FA6
:0105460012A2
:0105470001B2
:0105480002B0
:0105490005AC
:01054A0009A7
:01054B000CA3
:01054C000F9F
:01054D00129B
:01054E0001AB
:01054F0002A9
:0105500004A6
:0105510006A3
:010552000B9D
:010553000F98
:010554001294
:0105550001A4
:0105560002A2
:0105570003A0
:01055800079B
:010559000A97
:01055A000F91
:01055B00128D
:01055C00019D
:01055D00029B
:01055E000597
:01055F000893
:010560000E8C
:010561001584
:01056200197F
:010563000196
:010564000294
:010565000491
:01056600098B
:010567000D86
:01056800157D
:010569001978
:01056A00018F
:01056B00028D
:01056C00038B
:01056D000687
:01056E000C80
:01056F000F7C
:010570001278
:010571000188
:010572000286
:010573000582
:01057400077F
:010575000B7A
:010576000F75
:010577001271
:010578000181
:01057900027F
:01057A00047C
:01057B000877
:01057C000A74
:01057D000F6E
:01057E00126A
:01057F00017A
:010580000278
:010581000376
:010582000573
:01058300096E
:010584000F67
:010585001263
:010586000173
:010587000271
:01058800056D
:010589000A67
:01058A000D63
:01058B00155A
:01058C001955
:01058D00016C
:01058E00026A
:01058F000467
:010590000763
:010591000C5D
:010592000F59
:010593001255
:010594000165
:010595000263
:010596000361
:01059700045F
:01059800065C
:010599000958
:01059A000B55
:01059B00015E
:01059C00025C
:01059D000558
:01059E000953
:01059F000F4C
:0105A0001545
:0105A1001940
:0105A2000157
:0105A3000255
:0105A4000452
:0105A500064F
:0105A600094B
:0105A7000F44
:0105A8001240
:0105A9000150
:0105AA00024E
:0105AB00034C
:0105AC000747
:0105AD000D40
:0105AE001537
:0105AF001932
:0105B0000149
:0105B1000247
:0105B2000543
:0105B300083F
:0105B4000C3A
:0105B5000F36
:0105B6001232
:0105B7000142
:0105B8000240
:0105B900043D
:0105BA000937
:0105BB00102F
:0105BC001529
:0105BD001924
:0105BE00013B
:0105BF000239
:0105C0000337
:0105C1000633
:0105C2000A2E
:0105C3000F28
:0105C4001224
:0105C5000134
:0105C6000232
:0105C700052E
:0105C800072B
:0105C9000928
:0105CA000F21
:0105CB00121D
:0105CC00012D
:0105CD00022B
:0105CE000428
:0105CF000823
:0105D0000D1D
:0105D1001514
:0105D200190F
:0105D3000126
:0105D4000224
:0105D5000322
:0105D600051F
:0105D700071C
:0105D8000919
:0105D9000B16
:0105DA00011F
:0105DB00021D
:0105DC000519
:0105DD000A13
:0105DE00100C
:0105DF001506
:0105E0001901
:0105E1000118
:0105E2000216
:0105E3000413
:0105E400070F
:0105E5000A0B
:0105E6000F05
:0105E7001201
:0105E8000111
:0105E900020F
:0105EA00030D
:0105EB00040B
:0105EC000905
:0105ED000FFE
:0105EE0012FA
:0105EF00010A
:0105F0000208
:0105F1000504
:0105F20009FF
:0105F3000DFA
:0105F40015F1
:0105F50019EC
:0105F6000103
:0105F7000201
:0105F80004FE
:0105F90006FB
:0105FA000CF4
:0105FB000FF0
:0105FC0012EC
:0105FD0001FC
:0105FE0002FA
:0105FF0003F8
:0106000007F2
:010601000BED
:010602000FE8
:0106030012E4
:0106040001F4
:0106050002F2
:0106060005EE
:0106070008EA
:010608000AE7
:010609000FE1
:01060A0012DD
:01060B0001ED
:01060C0002EB
:01060D0004E8
:01060E0009E2
:01060F000EDC
:0106100015D4
:0106110019CF
:0106120001E6
:0106130002E4
:0106140003E2
:0106150006DE
:0106160008DB
:010617000FD3
:0106180012CF
:0106190001DF
:01061A0002DD
:01061B0005D9
:01061C0007D6
:01061D000CD0
:01061E000FCC
:01061F0012C8
:0106200001D8
:0106210002D6
:0106220004D3
:0106230008CE
:010624000BCA
:010625000FC5
:0106260012C1
:0106270001D1
:0106280002CF
:0106290003CD
:01062A0005CA
:01062B000AC4
:01062C000FBE
:01062D0012BA
:01062E0001CA
:01062F0002C8
:0106300005C4
:010631000ABE
:010632000EB9
:0106330015B1
:0106340019AC
:0106350001C3
:0106360002C1
:0106370004BE
:0106380007BA
:010639000DB3
:01063A0015AA
:01063B0019A5
:01063C0001BC
:01063D0002BA
:01063E0003B8
:01063F0004B6
:0106400007B2
:0106410009AF
:010642000BAC
:0106430001B5
:0106440002B3
:0106450005AF
:0106460009AA
:0106470010A2
:01064800159C
:010649001997
:01064A0001AE
:01064B0002AC
:01064C0004A9
:01064D0006A6
:01064E000AA1
:01064F000F9B
:010650001297
:0106510001A7
:0106520002A5
:0106530003A3
:01065400079E
:01065500099B
:010656000F94
:010657001290
:0106580001A0
:01065900029E
:01065A00059A
:01065B000896
:01065C000D90
:01065D001587
:01065E001982
:01065F000199
:010660000297
:010661000494
:01066200098E
:010663000C8A
:010664000F86
:010665001282
:010666000192
:010667000290
:01066800038E
:01066900068A
:01066A000B84
:01066B000F7F
:01066C00127B
:01066D00018B
:01066E000289
:01066F000585
:010670000782
:010671000A7E
:010672000F78
:010673001274
:010674000184
:010675000282
:01067600047F
:01067700087A
:010678000E73
:01067900156B
:01067A001966
:01067B00017D
:01067C00027B
:01067D000379
:01067E000576
:01067F000872
:010680000F6A
:010681001266
:010682000176
:010683000274
:010684000570
:010685000A6A
:010686001162
:01068700155D
:010688001958
:01068900016F
:01068A00026D
:01068B00046A
:01068C000766
:01068D000B61
:01068E000F5C
:01068F001258
:010690000168
:010691000266
:010692000364
:010693000462
:010694000560
:010695000A5A
:010696000C57
:010697000161
:01069800025F
:01069900055B
:01069A000956
:01069B000E50
:01069C001647
:01069D001A42
:01069E00015A
:01069F000258
:0106A0000455
:0106A1000652
:0106A200084F
:0106A3000A4C
:0106A4000C49
:0106A5000153
:0106A6000251
:0106A700034F
:0106A800074A
:0106A9000C44
:0106AA00103F
:0106AB00133B
:0106AC00014C
:0106AD00024A
:0106AE000546
:0106AF000842
:0106B0000B3E
:0106B1001038
:0106B2001334
:0106B3000145
:0106B4000243
:0106B5000440
:0106B600093A
:0106B7000F33
:0106B800162B
:0106B9001A26
:0106BA00013E
:0106BB00023C
:0106BC00033A
:0106BD000636
:0106BE000932
:0106BF00102A
:0106C0001326
:0106C1000137
:0106C2000235
:0106C3000531
:0106C400072E
:0106C5000D27
:0106C6001023
:0106C700131F
:0106C8000130
:0106C900022E
:0106CA00042B
:0106CB000826
:0106CC000C21
:0106CD00101C
:0106CE001318
:0106CF000129
:0106D0000227
:0106D1000325
:0106D2000522
:0106D3000B1B
:0106D4001015
:0106D5001311
:0106D6000122
:0106D7000220
:0106D800051C
:0106D9000A16
:0106DA000F10
:0106DB001608
:0106DC001A03
:0106DD00011B
:0106DE000219
:0106DF000416
:0106E0000712
:0106E100090F
:0106E2001007
:0106E3001303
:0106E4000114
:0106E5000212
:0106E6000310
:0106E700040E
:0106E8000809
:0106E9000A06
:0106EA000C03
:0106EB00010D
:0106EC00020B
:0106ED000507
:0106EE000902
:0106EF000CFE
:0106F00010F9
:0106F10013F5
:0106F2000106
:0106F3000204
:0106F4000401
:0106F50006FE
:0106F6000BF8
:0106F70010F2
:0106F80013EE
:0106F90001FF
:0106FA0002FD
:0106FB0003FB
:0106FC0007F6
:0106FD000AF2
:0106FE0010EB
:0106FF0013E7
:0107000001F7
:0107010002F5
:0107020005F1
:0107030008ED
:010704000EE6
:0107050016DD
:010706001AD8
:0107070001F0
:0107080002EE
:0107090004EB
:01070A0009E5
:01070B000DE0
:01070C0010DC
:01070D0013D8
:01070E0001E9
:01070F0002E7
:0107100003E5
:0107110006E1
:010712000CDA
:0107130010D5
:0107140013D1
:0107150001E2
:0107160002E0
:0107170005DC
:0107180007D9
:010719000BD4
:01071A0010CE
:01071B0013CA
:01071C0001DB
:01071D0002D9
:01071E0004D6
:01071F0008D1
:010720000ACE
:0107210010C7
:0107220013C3
:0107230001D4
:0107240002D2
:0107250003D0
:0107260005CD
:0107270009C8
:0107280010C0
:0107290013BC
:01072A0001CD
:01072B0002CB
:01072C0005C7
:01072D000AC1
:01072E000DBD
:01072F0010B9
:0107300013B5
:0107310001C6
:0107320002C4
:0107330004C1
:0107340007BD
:010735000CB7
:0107360010B2
:0107370013AE
:0107380001BF
:0107390002BD
:01073A0003BB
:01073B0004B9
:01073C0006B6
:01073D000AB1
:01073E000CAE
:01073F0001B8
:0107400002B6
:0107410005B2
:0107420009AD
:010743000FA6
:01074400169E
:010745001A99
:0107460001B1
:0107470002AF
:0107480004AC
:0107490006A9
:01074A0009A5
:01074B00109D
:01074C001399
:01074D0001AA
:01074E0002A8
:01074F0003A6
:0107500007A1
:010751000D9A
:010752001096
:010753001392
:0107540001A3
:0107550002A1
:01075600059D
:010757000899
:010758000C94
:01075900108F
:01075A00138B
:01075B00019C
:01075C00029A
:01075D000497
:01075E000991
:01075F001089
:010760001682
:010761001A7D
:010762000195
:010763000293
:010764000391
:01076500068D
:010766000A88
:010767001081
:01076800137D
:01076900018E
:01076A00028C
:01076B000588
:01076C000785
:01076D000982
:01076E00107A
:01076F001376
:010770000187
:010771000285
:010772000482
:01077300087D
:010774000D77
:010775001073
:01077600136F
:010777000180
:01077800027E
:01077900037C
:01077A000579
:01077B000776
:01077C000A72
:01077D000C6F
:01077E000179
:01077F000277
:010780000573
:010781000A6D
:010782001066
:01078300165F
:010784001A5A
:010785000172
:010786000270
:01078700046D
:010788000769
:010789000A65
:01078A00105E
:01078B00135A
:01078C00016B
:01078D000269
:01078E000367
:01078F000465
:01079000095F
:010791001057
:010792001353
:010793000164
:010794000262
:01079500055E
:010796000959
:010797000D54
:010798001050
:01079900134C
:01079A00015D
:01079B00025B
:01079C000458
:01079D000655
:01079E000C4E
:01079F001049
:0107A0001345
:0107A1000156
:0107A2000254
:0107A3000352
:0107A400074D
:0107A5000B48
:0107A6001042
:0107A700133E
:0107A800014F
:0107A900024D
:0107AA000549
:0107AB000845
:0107AC000A42
:0107AD00103B
:0107AE001337
:0107AF000148
:0107B0000246
:0107B1000443
:0107B200093D
:0107B3000E37
:0107B400162E
:0107B5001A29
:0107B6000141
:0107B700023F
:0107B800033D
:0107B9000639
:0107BA000836
:0107BB000A33
:0107BC000C30
:0107BD00013A
:0107BE000238
:0107BF000534
:0107C0000731
:0107C1000C2B
:0107C2001026
:0107C3001322
:0107C4000133
:0107C5000231
:0107C600042E
:0107C7000829
:0107C8000B25
:0107C900101F
:0107CA00131B
:0107CB00012C
:0107CC00022A
:0107CD000328
:0107CE000525
:0107CF000A1F
:0107D0001018
:0107D1001314
:0107D2000125
:0107D3000223
:0107D400051F
:0107D5000A19
:0107D6000E14
:0107D700160B
:0107D8001A06
:0107D900011E
:0107DA00021C
:0107DB000419
:0107DC000715
:0107DD000D0E
:0107DE00100A
:0107DF001306
:0107E0000117
:0107E1000215
:0107E2000313
:0107E3000411
:0107E400070D
:0107E5000A09
:0107E6000C06
:0107E7000110
:0107E800020E
:0107E900050A
:0107EA000905
:0107EB0010FD
:0107EC0016F6
:0107ED001AF1
:0107EE000109
:0107EF000207
:0107F0000404
:0107F1000601
:0107F2000AFC
:0107F30010F5
:0107F40013F1
:0107F5000102
:0107F6000200
:0107F70003FE
:0107F80007F9
:0107F90009F6
:0107FA0010EE
:0107FB0013EA
:0107FC0001FB
:0107FD0002F9
:0107FE0005F5
:0107FF0008F1
:010800000DEA
:0108010010E6
:0108020013E2
:0108030001F3
:0108040002F1
:0108050004EE
:0108060009E8
:010807000CE4
:0108080010DF
:0108090013DB
:01080A0001EC
:01080B0002EA
:01080C0003E8
:01080D0006E4
:01080E000BDE
:01080F0010D8
:0108100013D4
:0108110001E5
:0108120002E3
:0108130005DF
:0108140007DC
:010815000AD8
:0108160010D1
:0108170013CD
:0108180001DE
:0108190002DC
:01081A0004D9
:01081B0008D4
:01081C000ECD
:01081D0016C4
:01081E001ABF
:01081F0001D7
:0108200002D5
:0108210003D3
:0108220005D0
:0108230008CC
:010824000AC9
:010825000CC6
:0108260001D0
:0108270002CE
:0108280005CA
:010829000AC4
:01082A0011BC
:01082B0016B6
:01082C001AB1
:01082D0001C9
:01082E0002C7
:01082F0004C4
:0108300007C0
:010831000BBB
:0108320010B5
:0108330013B1
:0108340001C2
:0108350002C0
:0108360003BE
:0108370004BC
:0108380005BA
:010839000BB3
:01083A000DB0
:01083B0001BB
:01083C0002B9
:01083D0005B5
:01083E0009B0
:01083F000EAA
:0108400011A6
:0108410014A2
:0108420001B4
:0108430002B2
:0108440004AF
:0108450006AC
:0108460008A9
:010847000BA5
:010848000DA2
:0108490001AD
:01084A0002AB
:01084B0003A9
:01084C0007A4
:01084D000C9E
:01084E001198
:01084F001494
:0108500001A6
:0108510002A4
:0108520005A0
:01085300089C
:010854000B98
:010855001191
:01085600148D
:01085700019F
:01085800029D
:01085900049A
:01085A000994
:01085B000F8D
:01085C001784
:01085D001B7F
:01085E000198
:01085F000296
:010860000394
:010861000690
:01086200098C
:010863000B89
:010864000D86
:010865000191
:01086600028F
:01086700058B
:010868000788
:010869000D81
:01086A00117C
:01086B001478
:01086C00018A
:01086D000288
:01086E000485
:01086F000880
:010870000C7B
:010871001175
:010872001471
:010873000183
:010874000281
:01087500037F
:01087600057C
:010877000B75
:01087800116E
:01087900146A
:01087A00017C
:01087B00027A
:01087C000576
:01087D000A70
:01087E000F6A
:01087F001761
:010880001B5C
:010881000175
:010882000273
:010883000470
:01088400076C
:010885000969
:010886000B66
:010887000D63
:01088800016E
:01088900026C
:01088A00036A
:01088B000468
:01088C000863
:01088D000B5F
:01088E000D5C
:01088F000167
:010890000265
:010891000561
:01089200095C
:010893000C58
:010894001152
:01089500144E
:010896000160
:01089700025E
:01089800045B
:010899000658
:01089A000B52
:01089B00114B
:01089C001447
:01089D000159
:01089E000257
:01089F000355
:0108A0000750
:0108A1000A4C
:0108A2001144
:0108A3001440
:0108A4000152
:0108A5000250
:0108A600054C
:0108A7000848
:0108A8000E41
:0108A900113D
:0108AA001439
:0108AB00014B
:0108AC000249
:0108AD000446
:0108AE000940
:0108AF000D3B
:0108B0001136
:0108B1001432
:0108B2000144
:0108B3000242
:0108B4000340
:0108B500063C
:0108B6000C35
:0108B700112F
:0108B800142B
:0108B900013D
:0108BA00023B
:0108BB000537
:0108BC000734
:0108BD000B2F
:0108BE001128
:0108BF001424
:0108C0000136
:0108C1000234
:0108C2000431
:0108C300082C
:0108C4000A29
:0108C5001121
:0108C600141D
:0108C700012F
:0108C800022D
:0108C900032B
:0108CA000528
:0108CB000923
:0108CC000B20
:0108CD000D1D
:0108CE000128
:0108CF000226
:0108D0000522
:0108D1000A1C
:0108D2000D18
:0108D3001113
:0108D400140F
:0108D5000121
:0108D600021F
:0108D700041C
:0108D8000718
:0108D9000C12
:0108DA00110C
:0108DB001408
:0108DC00011A
:0108DD000218
:0108DE000316
:0108DF000414
:0108E0000611
:0108E1000B0B
:0108E2000D08
:0108E3000113
:0108E4000211
:0108E500050D
:0108E6000908
:0108E7000F01
:0108E80017F8
:0108E9001BF3
:0108EA00010C
:0108EB00020A
:0108EC000407
:0108ED000604
:0108EE000900
:0108EF000BFD
:0108F0000DFA
:0108F1000105
:0108F2000203
:0108F3000301
:0108F40007FC
:0108F5000DF5
:0108F60011F0
:0108F70014EC
:0108F80001FE
:0108F90002FC
:0108FA0005F8
:0108FB0008F4
:0108FC000CEF
:0108FD0011E9
:0108FE0014E5
:0108FF0001F7
:0109000002F4
:0109010004F1
:0109020009EB
:0109030010E3
:0109040017DB
:010905001BD6
:0109060001EF
:0109070002ED
:0109080003EB
:0109090006E7
:01090A000AE2
:01090B0011DA
:01090C0014D6
:01090D0001E8
:01090E0002E6
:01090F0005E2
:0109100007DF
:0109110009DC
:010912000BD9
:010913000DD6
:0109140001E1
:0109150002DF
:0109160004DC
:0109170008D7
:010918000DD1
:0109190011CC
:01091A0014C8
:01091B0001DA
:01091C0002D8
:01091D0003D6
:01091E0005D3
:01091F0007D0
:010920000BCB
:010921000DC8
:0109220001D3
:0109230002D1
:0109240005CD
:010925000AC7
:0109260010C0
:0109270017B8
:010928001BB3
:0109290001CC
:01092A0002CA
:01092B0004C7
:01092C0007C3
:01092D000ABF
:01092E0011B7
:01092F0014B3
:0109300001C5
:0109310002C3
:0109320003C1
:0109330004BF
:0109340009B9
:010935000BB6
:010936000DB3
:0109370001BE
:0109380002BC
:0109390005B8
:01093A0009B3
:01093B000DAE
:01093C0011A9
:01093D0014A5
:01093E0001B7
:01093F0002B5
:0109400004B2
:0109410006AF
:010942000CA8
:0109430011A2
:01094400149E
:0109450001B0
:0109460002AE
:0109470003AC
:0109480007A7
:010949000BA2
:01094A00119B
:01094B001497
:01094C0001A9
:01094D0002A7
:01094E0005A3
:01094F00089F
:010950000A9C
:010951001194
:010952001490
:0109530001A2
:0109540002A0
:01095500049D
:010956000997
:010957000E91
:01095800118D
:010959001489
:01095A00019B
:01095B000299
:01095C000397
:01095D000693
:01095E000890
:01095F000B8C
:010960000D89
:010961000194
:010962000292
:01096300058E
:01096400078B
:010965000C85
:01096600117F
:01096700147B
:01096800018D
:01096900028B
:01096A000488
:01096B000883
:01096C000B7F
:01096D001178
:01096E001474
:01096F000186
:010970000284
:010971000382
:01097200057F
:010973000A79
:010974001171
:01097500146D
:01097600017F
:01097700027D
:010978000579
:010979000A73
:01097A000E6E
:01097B00116A
:01097C001466
:01097D000178
:01097E000276
:01097F000473
:01098000076F
:010981000D68
:010982001163
:01098300145F
:010984000171
:01098500026F
:01098600036D
:01098700046B
:010988000767
:010989000B62
:01098A000D5F
:01098B00016A
:01098C000268
:01098D000564
:01098E00095F
:01098F001057
:01099000174F
:010991001B4A
:010992000163
:010993000261
:01099400045E
:01099500065B
:010996000A56
:01099700114E
:01099800144A
:01099900015C
:01099A00025A
:01099B000358
:01099C000753
:01099D000950
:01099E000B4D
:01099F000D4A
:0109A0000155
:0109A1000253
:0109A200054F
:0109A300084B
:0109A4000D45
:0109A5001140
:0109A600143C
:0109A700014E
:0109A800024C
:0109A9000449
:0109AA000943
:0109AB000C3F
:0109AC001139
:0109AD001435
:0109AE000147
:0109AF000245
:0109B0000343
:0109B100063F
:0109B2000B39
:0109B3001132
:0109B400142E
:0109B5000140
:0109B600023E
:0109B700053A
:0109B8000737
:0109B9000A33
:0109BA00112B
:0109BB001427
:0109BC000139
:0109BD000237
:0109BE000434
:0109BF00082F
:0109C0000E28
:0109C1001124
:0109C2001420
:0109C3000132
:0109C4000230
:0109C500032E
:0109C600052B
:0109C7000827
:0109C8000B23
:0109C9000D20
:0109CA00012B
:0109CB000229
:0109CC000525
:0109CD000A1F
:0109CE001117
:0109CF001710
:0109D0001B0B
:0109D1000124
:0109D2000222
:0109D300041F
:0109D400071B
:0109D5000B16
:0109D600110F
:0109D700140B
:0109D800011D
:0109D900031A
:0109DA000616
:0109DB000813
:0109DC000A10
:0109DD000C0D
:0109DE000E0A
:0109DF000116
:0109E0000313
:0109E1000510
:0109E200090B
:0109E3000E05
:0109E4001200
:0109E50015FC
:0109E600010F
:0109E700030C
:0109E8000707
:0109E9000A03
:0109EA000DFF
:0109EB0012F9
:0109EC0015F5
:0109ED000108
:0109EE000305
:0109EF000601
:0109F0000BFB
:0109F10011F4
:0109F20018EC
:0109F3001CE7
:0109F4000101
:0109F50003FE
:0109F60005FB
:0109F70008F7
:0109F8000BF3
:0109F90012EB
:0109FA0015E7
:0109FB0001FA
:0109FC0003F7
:0109FD0007F2
:0109FE000DEB
:0109FF0014E3
:010A000018DD
:010A01001CD8
:010A020001F2
:010A030003EF
:010A040006EB
:010A05000AE6
:010A06000EE1
:010A070012DC
:010A080015D8
:010A090001EB
:010A0A0003E8
:010A0B0005E5
:010A0C0007E2
:010A0D000DDB
:010A0E0012D5
:010A0F0015D1
:010A100001E4
:010A110003E1
:010A120007DC
:010A13000CD6
:010A140011D0
:010A150018C8
:010A16001CC3
:010A170001DD
:010A180003DA
:010A190006D6
:010A1A0009D2
:010A1B0010CA
:010A1C0018C1
:010A1D001CBC
:010A1E0001D6
:010A1F0003D3
:010A200005D0
:010A21000ACA
:010A22000FC4
:010A230012C0
:010A240015BC
:010A250001CF
:010A260003CC
:010A270007C7
:010A28000BC2
:010A29000EBE
:010A2A0012B9
:010A2B0015B5
:010A2C0001C8
:010A2D0003C5
:010A2E0006C1
:010A2F0008BE
:010A30000DB8
:010A310012B2
:010A320015AE
:010A330001C1
:010A340003BE
:010A350005BB
:010A360009B6
:010A37000CB2
:010A380012AB
:010A390015A7
:010A3A0001BA
:010A3B0003B7
:010A3C0007B2
:010A3D000AAE
:010A3E0010A7
:010A3F00189E
:010A40001C99
:010A410001B3
:010A420003B0
:010A430006AC
:010A44000BA6
:010A45000FA1
:010A4600129D
:010A47001599
:010A480001AC
:010A490003A9
:010A4A0005A6
:010A4B0008A2
:010A4C000E9B
:010A4D001296
:010A4E001592
:010A4F0001A5
:010A500003A2
:010A5100079D
:010A52000D96
:010A53001290
:010A54001889
:010A55001C84
:010A5600019E
:010A5700039B
:010A58000697
:010A59000A92
:010A5A00118A
:010A5B001882
:010A5C001C7D
:010A5D000197
:010A5E000394
:010A5F000591
:010A6000078E
:010A61000B89
:010A62001281
:010A6300157D
:010A64000190
:010A6500038D
:010A66000788
:010A67000C82
:010A68000F7E
:010A6900127A
:010A6A001576
:010A6B000189
:010A6C000386
:010A6D000682
:010A6E00097E
:010A6F000E78
:010A70001273
:010A7100156F
:010A72000182
:010A7300037F
:010A7400057C
:010A75000A76
:010A76000D72
:010A7700126C
:010A78001568
:010A7900017B
:010A7A000378
:010A7B000773
:010A7C000B6E
:010A7D001167
:010A7E00185F
:010A7F001C5A
:010A80000174
:010A81000371
:010A8200066D
:010A8300086A
:010A84000B66
:010A8500125E
:010A8600155A
:010A8700016D
:010A8800036A
:010A89000567
:010A8A000962
:010A8B000F5B
:010A8C001257
:010A8D001553
:010A8E000166
:010A8F000363
:010A9000075E
:010A91000A5A
:010A92000E55
:010A93001250
:010A9400154C
:010A9500015F
:010A9600035C
:010A97000658
:010A98000B52
:010A9900124A
:010A9A001843
:010A9B001C3E
:010A9C000158
:010A9D000355
:010A9E000552
:010A9F00084E
:010AA0000C49
:010AA1001242
:010AA200153E
:010AA3000151
:010AA400034E
:010AA5000749
:010AA6000D42
:010AA7001539
:010AA8001E2F
:010AA9002329
:010AAA00014A
:010AAB000347
:010AAC000643
:010AAD000A3E
:010AAE000F38
:010AAF001234
:010AB0001530
:010AB1000143
:010AB2000340
:010AB300053D
:010AB400073A
:010AB5000937
:010AB6000C33
:010AB7000E30
:010AB800013C
:010AB9000339
:010ABA000734
:010ABB000C2E
:010ABC001227
:010ABD001820
:010ABE001C1B
:010ABF000135
:010AC0000332
:010AC100062E
:010AC200092A
:010AC3000C26
:010AC400121F
:010AC500151B
:010AC600012E
:010AC700032B
:010AC8000528
:010AC9000A22
:010ACA00101B
:010ACB001812
:010ACC001C0D
:010ACD000127
:010ACE000324
:010ACF00071F
:010AD0000B1A
:010AD1000F15
:010AD2001211
:010AD300150D
:010AD4000120
:010AD500031D
:010AD6000619
:010AD7000816
:010AD8000E0F
:010AD900120A
:010ADA001506
:010ADB000119
:010ADC000316
:010ADD000513
:010ADE00090E
:010ADF000D09
:010AE0001203
:010AE10015FF
:010AE2000112
:010AE300030F
:010AE400070A
:010AE5000A06
:010AE60011FE
:010AE70018F6
:010AE8001CF1
:010AE900010B
:010AEA000308
:010AEB000604
:010AEC000BFE
:010AED0010F8
:010AEE0018EF
:010AEF001CEA
:010AF0000104
:010AF1000301
:010AF20005FE
:010AF30008FA
:010AF4000AF7
:010AF5000CF4
:010AF6000EF1
:010AF70001FD
:010AF80003FA
:010AF90007F5
:010AFA000DEE
:010AFB0013E7
:010AFC0018E1
:010AFD001CDC
:010AFE0001F6
:010AFF0003F3
:010B000006EE
:010B01000AE9
:010B02000DE5
:010B030012DF
:010B040015DB
:010B050001EE
:010B060003EB
:010B070005E8
:010B080007E5
:010B09000CDF
:010B0A0012D8
:010B0B0015D4
:010B0C0001E7
:010B0D0003E4
:010B0E0007DF
:010B0F000CD9
:010B100010D4
:010B110018CB
:010B12001CC6
:010B130001E0
:010B140003DD
:010B150006D9
:010B160009D5
:010B17000FCE
:010B180012CA
:010B190015C6
:010B1A0001D9
:010B1B0003D6
:010B1C0005D3
:010B1D000ACD
:010B1E000EC8
:010B1F0012C3
:010B200015BF
:010B210001D2
:010B220003CF
:010B230007CA
:010B24000BC5
:010B250012BD
:010B260018B6
:010B27001CB1
:010B280001CB
:010B290003C8
:010B2A0006C4
:010B2B0008C1
:010B2C000CBC
:010B2D0012B5
:010B2E0015B1
:010B2F0001C4
:010B300003C1
:010B310005BE
:010B320009B9
:010B330010B1
:010B340018A8
:010B35001CA3
:010B360001BD
:010B370003BA
:010B380007B5
:010B39000AB1
:010B3A000FAB
:010B3B0012A7
:010B3C0015A3
:010B3D0001B6
:010B3E0003B3
:010B3F0006AF
:010B40000BA9
:010B41000EA5
:010B420012A0
:010B4300159C
:010B440001AF
:010B450003AC
:010B460005A9
:010B470008A5
:010B48000D9F
:010B49001299
:010B4A001595
:010B4B0001A8
:010B4C0003A5
:010B4D0007A0
:010B4E000D99
:010B4F001194
:010B5000188C
:010B51001C87
:010B520001A1
:010B5300039E
:010B5400069A
:010B55000A95
:010B5600108E
:010B57001885
:010B58001C80
:010B5900019A
:010B5A000397
:010B5B000594
:010B5C000791
:010B5D000A8D
:010B5E000C8A
:010B5F000E87
:010B60000193
:010B61000390
:010B6200078B
:010B63000C85
:010B6400137D
:010B65001877
:010B66001C72
:010B6700018C
:010B68000389
:010B69000685
:010B6A000981
:010B6B000D7C
:010B6C001276
:010B6D001572
:010B6E000185
:010B6F000382
:010B7000057F
:010B71000A79
:010B72001171
:010B73001869
:010B74001C64
:010B7500017E
:010B7600037B
:010B77000776
:010B78000B71
:010B7900106B
:010B7A001862
:010B7B001C5D
:010B7C000177
:010B7D000374
:010B7E000670
:010B7F00086D
:010B80000A6A
:010B81000D66
:010B82001062
:010B83000170
:010B8400036D
:010B8500056A
:010B86000965
:010B87000E5F
:010B88001359
:010B89001754
:010B8A000169
:010B8B000366
:010B8C000761
:010B8D000A5D
:010B8E000D59
:010B8F001352
:010B9000174D
:010B91000162
:010B9200035F
:010B9300065B
:010B94000B55
:010B9500114E
:010B96001945
:010B97001E3F
:010B9800015B
:010B99000358
:010B9A000555
:010B9B000851
:010B9C000B4D
:010B9D001344
:010B9E00173F
:010B9F000154
:010BA0000351
:010BA100074C
:010BA2000D45
:010BA300143D
:010BA4001937
:010BA5001E31
:010BA600014D
:010BA700034A
:010BA8000646
:010BA9000A41
:010BAA000E3C
:010BAB001336
:010BAC001731
:010BAD000146
:010BAE000343
:010BAF000540
:010BB000073D
:010BB1000D36
:010BB200132F
:010BB300172A
:010BB400013F
:010BB500033C
:010BB6000737
:010BB7000C31
:010BB800112B
:010BB9001922
:010BBA001E1C
:010BBB000138
:010BBC000335
:010BBD000631
:010BBE00092D
:010BBF001025
:010BC000191B
:010BC1001E15
:010BC2000131
:010BC300032E
:010BC400052B
:010BC5000A25
:010BC6000F1F
:010BC700131A
:010BC8001715
:010BC900012A
:010BCA000327
:010BCB000722
:010BCC000B1D
:010BCD000E19
:010BCE001313
:010BCF00170E
:010BD0000123
:010BD1000320
:010BD200061C
:010BD3000819
:010BD4000D13
:010BD500130C
:010BD6001707
:010BD700011C
:010BD8000319
:010BD9000516
:010BDA000911
:010BDB000C0D
:010BDC001305
:010BDD001700
:010BDE000115
:010BDF000312
:010BE000070D
:010BE1000A09
:010BE2001002
:010BE30019F8
:010BE4001EF2
:010BE500010E
:010BE600030B
:010BE7000607
:010BE8000B01
:010BE9000FFC
:010BEA0013F7
:010BEB0017F2
:010BEC000107
:010BED000304
:010BEE000501
:010BEF0008FD
:010BF0000EF6
:010BF10013F0
:010BF20017EB
:010BF3000100
:010BF40003FD
:010BF50007F8
:010BF6000DF1
:010BF70012EB
:010BF80019E3
:010BF9001EDD
:010BFA0001F9
:010BFB0003F6
:010BFC0006F2
:010BFD000AED
:010BFE0011E5
:010BFF0019DC
:010C00001ED5
:010C010001F1
:010C020003EE
:010C030005EB
:010C040007E8
:010C05000BE3
:010C060013DA
:010C070017D5
:010C080001EA
:010C090003E7
:010C0A0007E2
:010C0B000CDC
:010C0C000FD8
:010C0D0013D3
:010C0E0017CE
:010C0F0001E3
:010C100003E0
:010C110006DC
:010C120009D8
:010C13000ED2
:010C140013CC
:010C150017C7
:010C160001DC
:010C170003D9
:010C180005D6
:010C19000AD0
:010C1A000DCC
:010C1B0013C5
:010C1C0017C0
:010C1D0001D5
:010C1E0003D2
:010C1F0007CD
:010C20000BC8
:010C210011C1
:010C220019B8
:010C23001EB2
:010C240001CE
:010C250003CB
:010C260006C7
:010C270008C4
:010C28000BC0
:010C290013B7
:010C2A0017B2
:010C2B0001C7
:010C2C0003C4
:010C2D0005C1
:010C2E0009BC
:010C2F000FB5
:010C300013B0
:010C310017AB
:010C320001C0
:010C330003BD
:010C340007B8
:010C35000AB4
:010C36000EAF
:010C370013A9
:010C380017A4
:010C390001B9
:010C3A0003B6
:010C3B0006B2
:010C3C000BAC
:010C3D0012A4
:010C3E00199C
:010C3F001E96
:010C400001B2
:010C410003AF
:010C420005AC
:010C430008A8
:010C44000CA3
:010C4500139B
:010C46001796
:010C470001AB
:010C480003A8
:010C490007A3
:010C4A000D9C
:010C4B001593
:010C4C001F88
:010C4D002581
:010C4E0001A4
:010C4F0003A1
:010C5000069D
:010C51000A98
:010C52000F92
:010C5300138D
:010C54001788
:010C5500019D
:010C5600039A
:010C57000597
:010C58000794
:010C59000991
:010C5A000D8C
:010C5B001088
:010C5C000196
:010C5D000393
:010C5E00078E
:010C5F000C88
:010C60001281
:010C61001979
:010C62001E73
:010C6300018F
:010C6400038C
:010C65000688
:010C66000984
:010C67000C80
:010C68001378
:010C69001773
:010C6A000188
:010C6B000385
:010C6C000582
:010C6D000A7C
:010C6E001075
:010C6F00196B
:010C70001E65
:010C71000181
:010C7200037E
:010C73000779
:010C74000B74
:010C75000F6F
:010C7600136A
:010C77001765
:010C7800017A
:010C79000377
:010C7A000673
:010C7B000870
:010C7C000E69
:010C7D001363
:010C7E00175E
:010C7F000173
:010C80000370
:010C8100056D
:010C82000968
:010C83000D63
:010C8400135C
:010C85001757
:010C8600016C
:010C87000369
:010C88000764
:010C89000A60
:010C8A001158
:010C8B00194F
:010C8C001E49
:010C8D000165
:010C8E000362
:010C8F00065E
:010C90000B58
:010C91001052
:010C92001948
:010C93001E42
:010C9400015E
:010C9500035B
:010C96000558
:010C97000854
:010C98000A51
:010C99000D4D
:010C9A001049
:010C9B000157
:010C9C000354
:010C9D00074F
:010C9E000D48
:010C9F001341
:010CA000193A
:010CA1001E34
:010CA2000150
:010CA300034D
:010CA4000649
:010CA5000A44
:010CA6000D40
:010CA7001339
:010CA8001734
:010CA9000149
:010CAA000346
:010CAB000543
:010CAC000740
:010CAD000C3A
:010CAE001332
:010CAF00172D
:010CB0000142
:010CB100033F
:010CB200073A
:010CB3000C34
:010CB400102F
:010CB5001925
:010CB6001E1F
:010CB700013B
:010CB8000338
:010CB9000634
:010CBA000930
:010CBB000F29
:010CBC001324
:010CBD00171F
:010CBE000134
:010CBF000331
:010CC000052E
:010CC1000A28
:010CC2000E23
:010CC300131D
:010CC4001718
:010CC500012D
:010CC600032A
:010CC7000725
:010CC8000B20
:010CC9001218
:010CCA001910
:010CCB001E0A
:010CCC000126
:010CCD000323
:010CCE00061F
:010CCF00081C
:010CD0000C17
:010CD100130F
:010CD200170A
:010CD300011F
:010CD400031C
:010CD5000519
:010CD6000914
:010CD700100C
:010CD8001902
:010CD9001EFC
:010CDA000118
:010CDB000315
:010CDC000710
:010CDD000A0C
:010CDE000F06
:010CDF001301
:010CE00017FC
:010CE1000111
:010CE200030E
:010CE300060A
:010CE4000B04
:010CE5000E00
:010CE60013FA
:010CE70017F5
:010CE800010A
:010CE9000307
:010CEA000504
:010CEB000800
:010CEC000DFA
:010CED0013F3
:010CEE0017EE
:010CEF000103
:010CF0000300
:010CF10007FB
:010CF2000DF4
:010CF30011EF
:010CF40019E6
:010CF5001EE0
:010CF60001FC
:010CF70003F9
:010CF80006F5
:010CF9000AF0
:010CFA0010E9
:010CFB0019DF
:010CFC001ED9
:010CFD0001F5
:010CFE0003F2
:010CFF0005EF
:010D000007EB
:010D01000AE7
:010D02000DE3
:010D030010DF
:010D040001ED
:010D050003EA
:010D060007E5
:010D07000CDF
:010D080013D7
:010D090019D0
:010D0A001ECA
:010D0B0001E6
:010D0C0003E3
:010D0D0006DF
:010D0E0009DB
:010D0F000DD6
:010D100013CF
:010D110017CA
:010D120001DF
:010D130003DC
:010D140005D9
:010D15000AD3
:010D160011CB
:010D170019C2
:010D18001EBC
:010D190001D8
:010D1A0003D5
:010D1B0007D0
:010D1C000BCB
:010D1D0010C5
:010D1E0019BB
:010D1F001EB5
:010D200001D1
:010D210003CE
:010D220006CA
:010D230008C7
:010D24000AC4
:010D25000EBF
:010D260011BB
:010D270001CA
:010D280003C7
:010D290005C4
:010D2A0009BF
:010D2B000EB9
:010D2C0014B2
:010D2D0018AD
:010D2E0001C3
:010D2F0003C0
:010D300007BB
:010D31000AB7
:010D32000DB3
:010D330014AB
:010D340018A6
:010D350001BC
:010D360003B9
:010D370006B5
:010D38000BAF
:010D390011A8
:010D3A001A9E
:010D3B001F98
:010D3C0001B5
:010D3D0003B2
:010D3E0005AF
:010D3F0008AB
:010D40000BA7
:010D41000EA3
:010D4200119F
:010D430001AE
:010D440003AB
:010D450007A6
:010D46000D9F
:010D47001497
:010D48001A90
:010D49001F8A
:010D4A0001A7
:010D4B0003A4
:010D4C0006A0
:010D4D000A9B
:010D4E000E96
:010D4F00148F
:010D5000188A
:010D510001A0
:010D5200039D
:010D5300059A
:010D54000797
:010D55000D90
:010D56001488
:010D57001883
:010D58000199
:010D59000396
:010D5A000791
:010D5B000C8B
:010D5C001185
:010D5D001A7B
:010D5E001F75
:010D5F000192
:010D6000038F
:010D6100068B
:010D62000987
:010D6300107F
:010D6400147A
:010D65001875
:010D6600018B
:010D67000388
:010D68000585
:010D69000A7F
:010D6A000F79
:010D6B001473
:010D6C00186E
:010D6D000184
:010D6E000381
:010D6F00077C
:010D70000B77
:010D71000E73
:010D7200146C
:010D73001867
:010D7400017D
:010D7500037A
:010D76000676
:010D77000873
:010D78000D6D
:010D79001465
:010D7A001860
:010D7B000176
:010D7C000373
:010D7D000570
:010D7E00096B
:010D7F000C67
:010D8000145E
:010D81001859
:010D8200016F
:010D8300036C
:010D84000767
:010D85000A63
:010D8600105C
:010D87001457
:010D88001852
:010D89000168
:010D8A000365
:010D8B000661
:010D8C000B5B
:010D8D000F56
:010D8E001450
:010D8F00184B
:010D90000161
:010D9100035E
:010D9200055B
:010D93000857
:010D94000E50
:010D95001449
:010D96001844
:010D9700015A
:010D98000357
:010D99000752
:010D9A000D4B
:010D9B001245
:010D9C001A3C
:010D9D001F36
:010D9E000153
:010D9F000350
:010DA000064C
:010DA1000A47
:010DA200113F
:010DA3001A35
:010DA4001F2F
:010DA500014C
:010DA6000349
:010DA7000546
:010DA8000743
:010DA9000B3E
:010DAA000E3A
:010DAB001136
:010DAC000145
:010DAD000342
:010DAE00073D
:010DAF000C37
:010DB0000F33
:010DB100142D
:010DB2001828
:010DB300013E
:010DB400033B
:010DB5000637
:010DB6000933
:010DB7000E2D
:010DB8001426
:010DB9001821
:010DBA000137
:010DBB000334
:010DBC000531
:010DBD000A2B
:010DBE000D27
:010DBF00141F
:010DC000181A
:010DC1000130
:010DC200032D
:010DC3000728
:010DC4000B23
:010DC500111C
:010DC6001A12
:010DC7001F0C
:010DC8000129
:010DC9000326
:010DCA000622
:010DCB00081F
:010DCC000B1B
:010DCD000E17
:010DCE001113
:010DCF000122
:010DD000031F
:010DD100051C
:010DD2000917
:010DD3000F10
:010DD400140A
:010DD5001805
:010DD600011B
:010DD7000318
:010DD8000713
:010DD9000A0F
:010DDA000E0A
:010DDB001403
:010DDC0018FE
:010DDD000114
:010DDE000311
:010DDF00060D
:010DE0000B07
:010DE10012FF
:010DE2001AF6
:010DE3001FF0
:010DE400010D
:010DE500030A
:010DE6000507
:010DE7000803
:010DE8000CFE
:010DE90014F5
:010DEA0018F0
:010DEB000106
:010DEC000303
:010DED0007FE
:010DEE000DF7
:010DEF0015EE
:010DF0001AE8
:010DF1001FE2
:010DF20001FF
:010DF30003FC
:010DF40006F8
:010DF5000AF3
:010DF6000FED
:010DF70014E7
:010DF80018E2
:010DF90001F8
:010DFA0003F5
:010DFB0005F2
:010DFC0007EF
:010DFD0009EC
:010DFE000EE6
:010DFF0011E2
:010E000001F0
:010E010003ED
:010E020007E8
:010E03000CE2
:010E040012DB
:010E05001AD2
:010E06001FCC
:010E070001E9
:010E080003E6
:010E090006E2
:010E0A0009DE
:010E0B000CDA
:010E0C0014D1
:010E0D0018CC
:010E0E0001E2
:010E0F0003DF
:010E100005DC
:010E11000AD6
:010E120010CF
:010E130014CA
:010E140018C5
:010E150001DB
:010E160003D8
:010E170007D3
:010E18000BCE
:010E19000FC9
:010E1A0014C3
:010E1B0018BE
:010E1C0001D4
:010E1D0003D1
:010E1E0006CD
:010E1F0008CA
:010E20000EC3
:010E210014BC
:010E220018B7
:010E230001CD
:010E240003CA
:010E250005C7
:010E260009C2
:010E27000DBD
:010E280014B5
:010E290018B0
:010E2A0001C6
:010E2B0003C3
:010E2C0007BE
:010E2D000ABA
:010E2E0011B2
:010E2F001AA8
:010E30001FA2
:010E310001BF
:010E320003BC
:010E330006B8
:010E34000BB2
:010E350010AC
:010E360014A7
:010E370018A2
:010E380001B8
:010E390003B5
:010E3A0005B2
:010E3B0008AE
:010E3C000AAB
:010E3D000EA6
:010E3E0011A2
:010E3F0001B1
:010E400003AE
:010E410007A9
:010E42000DA2
:010E4300139B
:010E44001A93
:010E45001F8D
:010E460001AA
:010E470003A7
:010E480006A3
:010E49000A9E
:010E4A000D9A
:010E4B001492
:010E4C00188D
:010E4D0001A3
:010E4E0003A0
:010E4F00059D
:010E5000079A
:010E51000C94
:010E5200148B
:010E53001886
:010E5400019C
:010E55000399
:010E56000794
:010E57000C8E
:010E58001089
:010E59001484
:010E5A00187F
:010E5B000195
:010E5C000392
:010E5D00068E
:010E5E00098A
:010E5F000F83
:010E6000147D
:010E61001878
:010E6200018E
:010E6300038B
:010E64000588
:010E65000A82
:010E66000E7D
:010E67001476
:010E68001871
:010E69000187
:010E6A000384
:010E6B00077F
:010E6C000B7A
:010E6D001272
:010E6E001A69
:010E6F001F63
:010E70000180
:010E7100037D
:010E72000679
:010E73000876
:010E74000C71
:010E75001468
:010E76001863
:010E77000179
:010E78000376
:010E79000573
:010E7A00096E
:010E7B001066
:010E7C001461
:010E7D00185C
:010E7E000172
:010E7F00036F
:010E8000076A
:010E81000A66
:010E82000F60
:010E8300145A
:010E84001855
:010E8500016B
:010E86000368
:010E87000664
:010E88000B5E
:010E89000E5A
:010E8A001453
:010E8B00184E
:010E8C000164
:010E8D000361
:010E8E00055E
:010E8F00085A
:010E90000D54
:010E9100144C
:010E92001847
:010E9300015D
:010E9400035A
:010E95000755
:010E96000D4E
:010E97001149
:010E98001A3F
:010E99001F39
:010E9A000156
:010E9B000353
:010E9C00064F
:010E9D000A4A
:010E9E001043
:010E9F00143E
:010EA0001839
:010EA100014F
:010EA200034C
:010EA3000549
:010EA4000746
:010EA5000A42
:010EA6000E3D
:010EA7001139
:010EA8000148
:010EA9000345
:010EAA000740
:010EAB000C3A
:010EAC001332
:010EAD001A2A
:010EAE001F24
:010EAF000141
:010EB000033E
:010EB100063A
:010EB2000936
:010EB3000D31
:010EB4001429
:010EB5001824
:010EB600013A
:010EB7000337
:010EB8000534
:010EB9000A2E
:010EBA001126
:010EBB001A1C
:010EBC001F16
:010EBD000133
:010EBE000330
:010EBF00072B
:010EC0000B26
:010EC1001020
:010EC200141B
:010EC3001816
:010EC400012C
:010EC5000329
:010EC6000625
:010EC7000822
:010EC8000A1F
:010EC9000F19
:010ECA001215
:010ECB000125
:010ECC000322
:010ECD00051F
:010ECE00091A
:010ECF000E14
:010ED000150C
:010ED1001907
:010ED200011E
:010ED300031B
:010ED4000716
:010ED5000A12
:010ED6000D0E
:010ED7001505
:010ED8001900
:010ED9000117
:010EDA000314
:010EDB000610
:010EDC000B0A
:010EDD001103
:010EDE0015FE
:010EDF0019F9
:010EE0000110
:010EE100030D
:010EE200050A
:010EE3000806
:010EE4000B02
:010EE5000FFD
:010EE60012F9
:010EE7000109
:010EE8000306
:010EE9000701
:010EEA000DFA
:010EEB0014F2
:010EEC001BEA
:010EED0020E4
:010EEE000102
:010EEF0003FF
:010EF00006FB
:010EF1000AF6
:010EF2000EF1
:010EF30015E9
:010EF40019E4
:010EF50001FB
:010EF60003F8
:010EF70005F5
:010EF80007F2
:010EF9000DEB
:010EFA0015E2
:010EFB0019DD
:010EFC0001F4
:010EFD0003F1
:010EFE0007EC
:010EFF000CE6
:010F000011DF
:010F010015DA
:010F020019D5
:010F030001EC
:010F040003E9
:010F050006E5
:010F060009E1
:010F070010D9
:010F080015D3
:010F090019CE
:010F0A0001E5
:010F0B0003E2
:010F0C0005DF
:010F0D000AD9
:010F0E000FD3
:010F0F0015CC
:010F100019C7
:010F110001DE
:010F120003DB
:010F130007D6
:010F14000BD1
:010F15000ECD
:010F160015C5
:010F170019C0
:010F180001D7
:010F190003D4
:010F1A0006D0
:010F1B0008CD
:010F1C000DC7
:010F1D0015BE
:010F1E0019B9
:010F1F0001D0
:010F200003CD
:010F210005CA
:010F220009C5
:010F23000CC1
:010F24000FBD
:010F250012B9
:010F260001C9
:010F270003C6
:010F280007C1
:010F29000ABD
:010F2A0010B6
:010F2B0015B0
:010F2C0019AB
:010F2D0001C2
:010F2E0003BF
:010F2F0006BB
:010F30000BB5
:010F31000FB0
:010F320015A9
:010F330019A4
:010F340001BB
:010F350003B8
:010F360005B5
:010F370008B1
:010F38000EAA
:010F390015A2
:010F3A00199D
:010F3B0001B4
:010F3C0003B1
:010F3D0007AC
:010F3E000DA5
:010F3F00129F
:010F40001B95
:010F4100208F
:010F420001AD
:010F430003AA
:010F440006A6
:010F45000AA1
:010F46001199
:010F47001594
:010F4800198F
:010F490001A6
:010F4A0003A3
:010F4B0005A0
:010F4C00079D
:010F4D000B98
:010F4E000F93
:010F4F00128F
:010F5000019F
:010F5100039C
:010F52000797
:010F53000C91
:010F54000F8D
:010F55001586
:010F56001981
:010F57000198
:010F58000395
:010F59000691
:010F5A00098D
:010F5B000E87
:010F5C00157F
:010F5D00197A
:010F5E000191
:010F5F00038E
:010F6000058B
:010F61000A85
:010F62000D81
:010F63001578
:010F64001973
:010F6500018A
:010F66000387
:010F67000782
:010F68000B7D
:010F69001176
:010F6A001571
:010F6B00196C
:010F6C000183
:010F6D000380
:010F6E00067C
:010F6F000879
:010F70000B75
:010F71000F70
:010F7200126C
:010F7300017C
:010F74000379
:010F75000576
:010F76000971
:010F77000F6A
:010F78001563
:010F7900195E
:010F7A000175
:010F7B000372
:010F7C00076D
:010F7D000A69
:010F7E000E64
:010F7F00155C
:010F80001957
:010F8100016E
:010F8200036B
:010F83000667
:010F84000B61
:010F85001259
:010F86001B4F
:010F87002049
:010F88000167
:010F89000364
:010F8A000561
:010F8B00085D
:010F8C000C58
:010F8D000F54
:010F8E001250
:010F8F000160
:010F9000035D
:010F91000758
:010F92000D51
:010F93001548
:010F94001B41
:010F9500203B
:010F96000159
:010F97000356
:010F98000652
:010F99000A4D
:010F9A000F47
:010F9B001540
:010F9C00193B
:010F9D000152
:010F9E00034F
:010F9F00054C
:010FA0000749
:010FA1000946
:010FA2000F3F
:010FA300123B
:010FA400014B
:010FA5000348
:010FA6000743
:010FA7000C3D
:010FA8001236
:010FA9001B2C
:010FAA002026
:010FAB000144
:010FAC000341
:010FAD00063D
:010FAE000939
:010FAF000C35
:010FB0000F31
:010FB100122D
:010FB200013D
:010FB300033A
:010FB4000537
:010FB5000A31
:010FB600102A
:010FB7001524
:010FB800191F
:010FB9000136
:010FBA000333
:010FBB00072E
:010FBC000B29
:010FBD000F24
:010FBE00151D
:010FBF001918
:010FC000012F
:010FC100032C
:010FC2000628
:010FC3000825
:010FC4000E1E
:010FC5001516
:010FC6001911
:010FC7000128
:010FC8000325
:010FC9000522
:010FCA00091D
:010FCB000D18
:010FCC00150F
:010FCD00190A
:010FCE000121
:010FCF00031E
:010FD0000719
:010FD1000A15
:010FD200110D
:010FD3001508
:010FD4001903
:010FD500011A
:010FD6000317
:010FD7000613
:010FD8000B0D
:010FD9001007
:010FDA001501
:010FDB0019FC
:010FDC000113
:010FDD000310
:010FDE00050D
:010FDF000809
:010FE0000A06
:010FE1000F00
:010FE20012FC
:010FE300010C
:010FE4000309
:010FE5000704
:010FE6000DFD
:010FE70013F6
:010FE8001BED
:010FE90020E7
:010FEA000105
:010FEB000302
:010FEC0006FE
:010FED000AF9
:010FEE000DF5
:010FEF0015EC
:010FF00019E7
:010FF10001FE
:010FF20003FB
:010FF30005F8
:010FF40007F5
:010FF5000CEF
:010FF6000FEB
:010FF70012E7
:010FF80001F7
:010FF90003F4
:010FFA0007EF
:010FFB000CE9
:010FFC0010E4
:010FFD0015DE
:010FFE0019D9
:010FFF0001F0
:0110000003EC
:0110010006E8
:0110020009E4
:011003000FDD
:0110040015D6
:0110050019D1
:0110060001E8
:0110070003E5
:0110080005E2
:011009000ADC
:01100A000ED7
:01100B0015CF
:01100C0019CA
:01100D0001E1
:01100E0003DE
:01100F0007D9
:011010000BD4
:0110110012CC
:011012001BC2
:0110130020BC
:0110140001DA
:0110150003D7
:0110160006D3
:0110170008D0
:011018000CCB
:011019000FC7
:01101A0012C3
:01101B0001D3
:01101C0003D0
:01101D0005CD
:01101E0009C8
:01101F0010C0
:0110200015BA
:0110210019B5
:0110220001CC
:0110230003C9
:0110240007C4
:011025000AC0
:011026000FBA
:0110270015B3
:0110280019AE
:0110290001C5
:01102A0003C2
:01102B0006BE
:01102C000BB8
:01102D000EB4
:01102E0015AC
:01102F0019A7
:0110300001BE
:0110310003BB
:0110320005B8
:0110330008B4
:011034000DAE
:0110350015A5
:0110360019A0
:0110370001B7
:0110380003B4
:0110390007AF
:01103A000DA8
:01103B0011A3
:01103C00159E
:01103D001999
:01103E0001B0
:01103F0003AD
:0110400006A9
:011041000AA4
:01104200109D
:011043001597
:011044001992
:0110450001A9
:0110460003A6
:0110470005A3
:0110480007A0
:011049000A9C
:01104A000F96
:01104B001292
:01104C0001A2
:01104D00039F
:01104E00079A
:01104F000C94
:01105000138C
:011051001B83
:01105200207D
:01105300019B
:011054000398
:011055000694
:011056000990
:011057000D8B
:011058001582
:01105900197D
:01105A000194
:01105B000391
:01105C00058E
:01105D000A88
:01105E001180
:01105F00157B
:011060001976
:01106100018D
:01106200038A
:011063000785
:011064000B80
:01106500107A
:011066001574
:01106700196F
:011068000186
:011069000383
:01106A00067F
:01106B00087C
:01106C000A79
:01106D001072
:01106E00136E
:01106F00017F
:01107000037C
:011071000579
:011072000974
:011073000E6E
:011074001665
:011075001A60
:011076000178
:011077000375
:011078000770
:011079000A6C
:01107A000D68
:01107B001064
:01107C001360
:01107D000171
:01107E00036E
:01107F00066A
:011080000B64
:01108100115D
:011082001657
:011083001A52
:01108400016A
:011085000367
:011086000564
:011087000860
:011088000B5C
:011089001056
:01108A001352
:01108B000163
:01108C000360
:01108D00075B
:01108E000D54
:01108F00144C
:011090001C43
:01109100213D
:01109200015C
:011093000359
:011094000655
:011095000A50
:011096000E4B
:011097001642
:011098001A3D
:011099000155
:01109A000352
:01109B00054F
:01109C00074C
:01109D000D45
:01109E001041
:01109F00133D
:0110A000014E
:0110A100034B
:0110A2000746
:0110A3000C40
:0110A400113A
:0110A5001634
:0110A6001A2F
:0110A7000147
:0110A8000344
:0110A9000640
:0110AA00093C
:0110AB001034
:0110AC00162D
:0110AD001A28
:0110AE000140
:0110AF00033D
:0110B000053A
:0110B1000A34
:0110B2000F2E
:0110B3001626
:0110B4001A21
:0110B5000139
:0110B6000336
:0110B7000731
:0110B8000B2C
:0110B9000E28
:0110BA00161F
:0110BB001A1A
:0110BC000132
:0110BD00032F
:0110BE00062B
:0110BF000828
:0110C0000D22
:0110C100101E
:0110C200131A
:0110C300012B
:0110C4000328
:0110C5000525
:0110C6000920
:0110C7000C1C
:0110C8001017
:0110C9001313
:0110CA000124
:0110CB000321
:0110CC00071C
:0110CD000A18
:0110CE001011
:0110CF00160A
:0110D0001A05
:0110D100011D
:0110D200031A
:0110D3000616
:0110D4000B10
:0110D5000F0B
:0110D6001603
:0110D7001AFE
:0110D8000116
:0110D9000313
:0110DA000510
:0110DB00080C
:0110DC000E05
:0110DD0016FC
:0110DE001AF7
:0110DF00010F
:0110E000030C
:0110E1000707
:0110E2000D00
:0110E30012FA
:0110E40016F5
:0110E5001AF0
:0110E6000108
:0110E7000305
:0110E8000601
:0110E9000AFC
:0110EA0011F4
:0110EB0016EE
:0110EC001AE9
:0110ED000101
:0110EE0003FE
:0110EF0005FB
:0110F00007F8
:0110F1000BF3
:0110F20010ED
:0110F30013E9
:0110F40001FA
:0110F50003F7
:0110F60007F2
:0110F7000CEC
:0110F8000FE8
:0110F90016E0
:0110FA001ADB
:0110FB0001F3
:0110FC0003F0
:0110FD0006EC
:0110FE0009E8
:0110FF000EE2
:0111000016D8
:011101001AD3
:0111020001EB
:0111030003E8
:0111040005E5
:011105000ADF
:011106000DDB
:0111070010D7
:0111080013D3
:0111090001E4
:01110A0003E1
:01110B0007DC
:01110C000BD7
:01110D0011D0
:01110E0016CA
:01110F001AC5
:0111100001DD
:0111110003DA
:0111120006D6
:0111130008D3
:011114000BCF
:0111150010C9
:0111160013C5
:0111170001D6
:0111180003D3
:0111190005D0
:01111A0009CB
:01111B000FC4
:01111C0016BC
:01111D001AB7
:01111E0001CF
:01111F0003CC
:0111200007C7
:011121000AC3
:011122000EBE
:0111230016B5
:011124001AB0
:0111250001C8
:0111260003C5
:0111270006C1
:011128000BBB
:0111290012B3
:01112A0016AE
:01112B001AA9
:01112C0001C1
:01112D0003BE
:01112E0005BB
:01112F0008B7
:011130000CB2
:0111310010AD
:0111320013A9
:0111330001BA
:0111340003B7
:0111350007B2
:011136000DAB
:0111370015A2
:011138001C9A
:011139002194
:01113A0001B3
:01113B0003B0
:01113C0006AC
:01113D000AA7
:01113E000FA1
:01113F001699
:011140001A94
:0111410001AC
:0111420003A9
:0111430005A6
:0111440007A3
:0111450009A0
:011146001098
:011147001394
:0111480001A5
:0111490003A2
:01114A00079D
:01114B000C97
:01114C001290
:01114D00168B
:01114E001A86
:01114F00019E
:01115000039B
:011151000697
:011152000993
:011153000C8F
:01115400108A
:011155001386
:011156000197
:011157000394
:011158000591
:011159000A8B
:01115A001084
:01115B00167D
:01115C001A78
:01115D000190
:01115E00038D
:01115F000788
:011160000B83
:011161000F7E
:011162001676
:011163001A71
:011164000189
:011165000386
:011166000682
:01116700087F
:011168000E78
:01116900166F
:01116A001A6A
:01116B000182
:01116C00037F
:01116D00057C
:01116E000977
:01116F000D72
:01117000106E
:01117100136A
:01117200017B
:011173000378
:011174000773
:011175000A6F
:011176001167
:011177001661
:011178001A5C
:011179000174
:01117A000371
:01117B00066D
:01117C000B67
:01117D001061
:01117E00165A
:01117F001A55
:01118000016D
:01118100036A
:011182000567
:011183000863
:011184000A60
:011185001059
:011186001355
:011187000166
:011188000363
:01118900075E
:01118A000D57
:01118B001350
:01118C001C46
:01118D002140
:01118E00015F
:01118F00035C
:011190000658
:011191000A53
:011192000D4F
:01119300104B
:011194001347
:011195000158
:011196000355
:011197000552
:01119800074F
:011199000C49
:01119A001044
:01119B001340
:01119C000151
:01119D00034E
:01119E000749
:01119F000C43
:0111A000103E
:0111A1001637
:0111A2001A32
:0111A300014A
:0111A4000347
:0111A5000643
:0111A600093F
:0111A7000F38
:0111A8001630
:0111A9001A2B
:0111AA000143
:0111AB000340
:0111AC00053D
:0111AD000A37
:0111AE000E32
:0111AF001629
:0111B0001A24
:0111B100013C
:0111B2000339
:0111B3000734
:0111B4000B2F
:0111B5001227
:0111B6001622
:0111B7001A1D
:0111B8000135
:0111B9000332
:0111BA00062E
:0111BB00082B
:0111BC000C26
:0111BD001021
:0111BE00131D
:0111BF00012E
:0111C000032B
:0111C1000528
:0111C2000923
:0111C300101B
:0111C4001614
:0111C5001A0F
:0111C6000127
:0111C7000324
:0111C800071F
:0111C9000A1B
:0111CA000F15
:0111CB00160D
:0111CC001A08
:0111CD000120
:0111CE00031D
:0111CF000619
:0111D0000B13
:0111D1000E0F
:0111D2001606
:0111D3001A01
:0111D4000119
:0111D5000316
:0111D6000513
:0111D700080F
:0111D8000D09
:0111D9001005
:0111DA001301
