:0100000001FE
:0100010003FB
:0100020007F6
:010003000DEF
:0100040014E7
:010005001BDF
:0100060021D8
:0100070026D2
:010008002BCC
:0100090001F5
:01000A0003F2
:01000B0006EE
:01000C000AE9
:01000D000EE4
:01000E0016DB
:01000F0020D0
:0100100025CA
:010011002AC4
:0100120001EC
:0100130003E9
:0100140005E6
:0100150007E3
:010016000DDC
:0100170011D7
:0100180018CF
:010019001CCA
:01001A0020C5
:01001B0001E3
:01001C0003E0
:01001D0007DB
:01001E000CD5
:01001F0011CF
:0100200018C7
:010021001EC0
:0100220023BA
:0100230028B4
:0100240001DA
:0100250003D7
:0100260006D3
:0100270009CF
:0100280010C7
:0100290019BD
:01002A0024B1
:01002B002AAA
:01002C0030A3
:01002D0001D1
:01002E0003CE
:01002F0005CB
:010030000AC5
:010031000FBF
:0100320014B9
:010033001CB0
:0100340021AA
:0100350026A4
:0100360001C8
:0100370003C5
:0100380007C0
:010039000BBB
:01003A000EB7
:01003B0015AF
:01003C001BA8
:01003D0020A2
:01003E00249D
:01003F0001BF
:0100400003BC
:0100410006B8
:0100420008B5
:010043000DAF
:0100440010AB
:0100450013A7
:0100460017A2
:010047001A9E
:0100480001B6
:0100490003B3
:01004A0005B0
:01004B0009AB
:01004C000CA7
:01004D0011A1
:01004E001998
:01004F001E92
:01005000228D
:0100510001AD
:0100520003AA
:0100530007A5
:010054000AA1
:01005500109A
:010056001891
:010057001F89
:010058002582
:010059002A7C
:01005A0001A4
:01005B0003A1
:01005C00069D
:01005D000B97
:01005E000F92
:01005F00138D
:010060001788
:010061001C82
:01006200207D
:01006300019B
:010064000398
:010065000595
:010066000891
:010067000E8A
:010068001483
:010069001D79
:01006A002372
:01006B00286C
:01006C000192
:01006D00038F
:01006E00078A
:01006F000D83
:01007000127D
:010071001B73
:01007200236A
:010073002A62
:01007400305B
:010075000189
:010076000386
:010077000682
:010078000A7D
:010079001175
:01007A00166F
:01007B001B69
:01007C002162
:01007D00265C
:01007E000180
:01007F00037D
:01008000057A
:010081000777
:010082000B72
:01008300116B
:010084001A61
:01008500205A
:010086002455
:010087000177
:010088000374
:01008900076F
:01008A000C69
:01008B000F65
:01008C001261
:01008D001959
:01008E001F52
:01008F00234D
:01009000016E
:01009100036B
:010092000667
:010093000963
:010094000E5D
:010095001357
:010096001851
:010097001E4A
:010098002245
:010099000165
:01009A000362
:01009B00055F
:01009C000A59
:01009D000D55
:01009E00144D
:01009F001E42
:0100A000253A
:0100A1002A34
:0100A200015C
:0100A3000359
:0100A4000754
:0100A5000B4F
:0100A6001148
:0100A7001543
:0100A8001D3A
:0100A9002432
:0100AA00292C
:0100AB000153
:0100AC000350
:0100AD00064C
:0100AE000849
:0100AF000B45
:0100B000103F
:0100B1001539
:0100B2001B32
:0100B3001F2D
:0100B400014A
:0100B5000347
:0100B6000544
:0100B700093F
:0100B8000F38
:0100B900172F
:0100BA001B2A
:0100BB002222
:0100BC00271C
:0100BD000141
:0100BE00033E
:0100BF000739
:0100C0000A35
:0100C1000E30
:0100C200122B
:0100C3001A22
:0100C400211A
:0100C5002614
:0100C6000138
:0100C7000335
:0100C8000631
:0100C9000B2B
:0100CA001223
:0100CB00191B
:0100CC002013
:0100CD00280A
:0100CE002D04
:0100CF00012F
:0100D000032C
:0100D1000529
:0100D2000825
:0100D3000C20
:0100D4001417
:0100D5001812
:0100D6001F0A
:0100D7002305
:0100D8000126
:0100D9000323
:0100DA00071E
:0100DB000D17
:0100DC00150E
:0100DD001B07
:0100DE0025FC
:0100DF002EF2
:0100E00034EB
:0100E100011D
:0100E200031A
:0100E3000616
:0100E4000A11
:0100E5000F0B
:0100E6001603
:0100E7001DFB
:0100E80025F2
:0100E9002AEC
:0100EA000114
:0100EB000311
:0100EC00050E
:0100ED00070B
:0100EE000908
:0100EF000B05
:0100F0000E01
:0100F10014FA
:0100F20017F6
:0100F300010B
:0100F4000308
:0100F5000703
:0100F6000CFD
:0100F70012F6
:0100F80018EF
:0100F90022E4
:0100FA002BDA
:0100FB0031D3
:0100FC000102
:0100FD0003FF
:0100FE0006FB
:0100FF0009F7
:010100000CF2
:0101010013EA
:010102001AE2
:0101030022D9
:0101040027D3
:0101050001F8
:0101060003F5
:0101070005F2
:010108000AEC
:0101090010E5
:01010A0014E0
:01010B0019DA
:01010C0021D1
:01010D0026CB
:01010E0001EF
:01010F0003EC
:0101100007E7
:010111000BE2
:010112000FDD
:0101130015D6
:010114001FCB
:0101150028C1
:010116002DBB
:0101170001E6
:0101180003E3
:0101190006DF
:01011A0008DC
:01011B000ED5
:01011C0016CC
:01011D001EC3
:01011E0027B9
:01011F002CB3
:0101200001DD
:0101210003DA
:0101220005D7
:0101230009D2
:010124000DCD
:0101250011C8
:0101260016C2
:010127001EB9
:0101280022B4
:0101290001D4
:01012A0003D1
:01012B0007CC
:01012C000AC8
:01012D0011C0
:01012E0018B8
:01012F001CB3
:0101300025A9
:010131002AA3
:0101320001CB
:0101330003C8
:0101340006C4
:010135000BBE
:0101360010B8
:0101370019AE
:0101380022A4
:010139002C99
:01013A003292
:01013B0001C2
:01013C0003BF
:01013D0005BC
:01013E0008B8
:01013F000AB5
:010140000EB0
:0101410013AA
:010142001BA1
:010143001F9C
:0101440001B9
:0101450003B6
:0101460007B1
:010147000DAA
:0101480013A3
:010149001B9A
:01014A002094
:01014B002A89
:01014C003082
:01014D0001B0
:01014E0003AD
:01014F0006A9
:010150000AA4
:010151000DA0
:01015200109C
:010153001893
:010154002189
:010155002683
:0101560001A7
:0101570003A4
:0101580005A1
:01015900079E
:01015A000C98
:01015B001192
:01015C00178B
:01015D002081
:01015E00247C
:01015F00019E
:01016000039B
:010161000796
:010162000C90
:01016300108B
:010164001882
:010165001D7C
:010166002771
:010167002C6B
:010168000195
:010169000392
:01016A00068E
:01016B00098A
:01016C000F83
:01016D00137E
:01016E001C74
:01016F002669
:010170002B63
:01017100018C
:010172000389
:010173000586
:010174000A80
:010175000E7B
:010176001474
:010177001B6C
:010178002561
:010179002A5B
:01017A000183
:01017B000380
:01017C00077B
:01017D000B76
:01017E00126E
:01017F001B64
:01018000215D
:010181002C51
:01018200324A
:01018300017A
:010184000377
:010185000673
:010186000870
:010187000C6B
:010188001066
:01018900195C
:01018A002351
:01018B00284B
:01018C000171
:01018D00036E
:01018E00056B
:01018F000966
:01019000105E
:010191001756
:010192001F4D
:010193002A41
:01019400303A
:010195000168
:010196000365
:010197000760
:010198000A5C
:010199000F56
:01019A001252
:01019B00174C
:01019C002141
:01019D00263B
:01019E00015F
:01019F00035C
:0101A0000658
:0101A1000B52
:0101A2000E4E
:0101A3001348
:0101A4001D3D
:0101A5002831
:0101A6002D2B
:0101A7000156
:0101A8000353
:0101A9000550
:0101AA00084C
:0101AB000D46
:0101AC00143E
:0101AD001C35
:0101AE002729
:0101AF002C23
:0101B000014D
:0101B100034A
:0101B2000745
:0101B3000D3E
:0101B4001139
:0101B5001534
:0101B6001B2D
:0101B7002621
:0101B8002B1B
:0101B9000144
:0101BA000341
:0101BB00063D
:0101BC000A38
:0101BD001031
:0101BE00162A
:0101BF001A25
:0101C0002519
:0101C1002A13
:0101C200013B
:0101C3000338
:0101C4000535
:0101C5000732
:0101C6000A2E
:0101C7001126
:0101C800191D
:0101C9002411
:0101CA00290B
:0101CB000132
:0101CC00032F
:0101CD00072A
:0101CE000C24
:0101CF00131C
:0101D0001816
:0101D1001F0E
:0101D2002B01
:0101D30031FA
:0101D4000129
:0101D5000326
:0101D6000622
:0101D700091E
:0101D8000D19
:0101D9001312
:0101DA00170D
:0101DB002201
:0101DC0027FB
:0101DD000120
:0101DE00031D
:0101DF00051A
:0101E0000A14
:0101E100110C
:0101E2001A02
:0101E30024F7
:0101E40031E9
:0101E50038E1
:0101E6000117
:0101E7000314
:0101E800070F
:0101E9000B0A
:0101EA001004
:0101EB0015FE
:0101EC001CF6
:0101ED0020F1
:0101EE0024EC
:0101EF00010E
:0101F000030B
:0101F1000607
:0101F2000804
:0101F3000A01
:0101F40010FA
:0101F50014F5
:0101F60017F1
:0101F7001AED
:0101F8000105
:0101F9000302
:0101FA0005FF
:0101FB0009FA
:0101FC000EF4
:0101FD0011F0
:0101FE001AE6
:0101FF001EE1
:0102000022DB
:0102010001FB
:0102020003F8
:0102030007F3
:010204000AEF
:010205000DEB
:0102060012E5
:0102070019DD
:010208001DD8
:0102090021D3
:01020A0001F2
:01020B0003EF
:01020C0006EB
:01020D000BE5
:01020E0011DE
:01020F0019D5
:010210001FCE
:0102110024C8
:0102120029C2
:0102130001E9
:0102140003E6
:0102150005E3
:0102160008DF
:010217000BDB
:010218000ED7
:0102190017CD
:01021A001BC8
:01021B001FC3
:01021C0001E0
:01021D0003DD
:01021E0007D8
:01021F000DD1
:0102200014C9
:010221001BC1
:0102220024B7
:010223002AB0
:0102240030A9
:0102250001D7
:0102260003D4
:0102270006D0
:010228000ACB
:010229000EC6
:01022A0016BD
:01022B001CB6
:01022C0021B0
:01022D0026AA
:01022E0001CE
:01022F0003CB
:0102300005C8
:0102310007C5
:010232000DBE
:0102330011B9
:0102340014B5
:0102350018B0
:010236001BAC
:0102370001C5
:0102380003C2
:0102390007BD
:01023A000CB7
:01023B0011B1
:01023C0018A9
:01023D00219F
:01023E002798
:01023F002C92
:0102400001BC
:0102410003B9
:0102420006B5
:0102430009B1
:0102440010A9
:01024500199F
:010246002097
:010247002690
:010248002B8A
:0102490001B3
:01024A0003B0
:01024B0005AD
:01024C000AA7
:01024D000FA1
:01024E00149B
:01024F001896
:010250001D90
:01025100218B
:0102520001AA
:0102530003A7
:0102540007A2
:010255000B9D
:010256000E99
:010257001591
:010258001E87
:010259002480
:01025A00297A
:01025B0001A1
:01025C00039E
:01025D00069A
:01025E000897
:01025F000D91
:01026000108D
:010261001686
:010262001B80
:010263001F7B
:010264000198
:010265000395
:010266000592
:01026700098D
:010268000C89
:010269001183
:01026A00157E
:01026B001A78
:01026C001E73
:01026D00018F
:01026E00038C
:01026F000787
:010270000A83
:01027100107C
:010272001873
:010273002268
:010274002960
:010275002F59
:010276000186
:010277000383
:01027800067F
:010279000B79
:01027A000F74
:01027B00136F
:01027C001A67
:01027D002060
:01027E00245B
:01027F00017D
:01028000037A
:010281000577
:010282000873
:010283000E6C
:010284001465
:01028500195F
:010286001F58
:010287002353
:010288000174
:010289000371
:01028A00076C
:01028B000D65
:01028C00125F
:01028D001B55
:01028E002649
:01028F002E40
:010290003439
:01029100016B
:010292000368
:010293000664
:010294000A5F
:010295001157
:010296001651
:010297001E48
:010298002540
:010299002A3A
:01029A000162
:01029B00035F
:01029C00055C
:01029D000759
:01029E000B54
:01029F00114D
:0102A0001647
:0102A1001C40
:0102A200203B
:0102A3000159
:0102A4000356
:0102A5000751
:0102A6000C4B
:0102A7000F47
:0102A8001243
:0102A900153F
:0102AA001B38
:0102AB001F33
:0102AC000150
:0102AD00034D
:0102AE000649
:0102AF000945
:0102B0000E3F
:0102B1001339
:0102B2001B30
:0102B3002228
:0102B4002722
:0102B5000147
:0102B6000344
:0102B7000541
:0102B8000A3B
:0102B9000D37
:0102BA00142F
:0102BB001A28
:0102BC002120
:0102BD00261A
:0102BE00013E
:0102BF00033B
:0102C0000736
:0102C1000B31
:0102C200112A
:0102C3001525
:0102C4001920
:0102C5002018
:0102C6002413
:0102C7000135
:0102C8000332
:0102C900062E
:0102CA00082B
:0102CB000B27
:0102CC001021
:0102CD001818
:0102CE001F10
:0102CF00230B
:0102D000012C
:0102D1000329
:0102D2000526
:0102D3000921
:0102D4000F1A
:0102D5001711
:0102D6001E09
:0102D7002600
:0102D8002BFA
:0102D9000123
:0102DA000320
:0102DB00071B
:0102DC000A17
:0102DD000E12
:0102DE00120D
:0102DF001608
:0102E0001D00
:0102E10021FB
:0102E200011A
:0102E3000317
:0102E4000613
:0102E5000B0D
:0102E6001205
:0102E70019FD
:0102E80023F2
:0102E9002CE8
:0102EA0032E1
:0102EB000111
:0102EC00030E
:0102ED00050B
:0102EE000807
:0102EF000C02
:0102F00014F9
:0102F1001BF1
:0102F20023E8
:0102F30028E2
:0102F4000108
:0102F5000305
:0102F6000700
:0102F7000DF9
:0102F80015F0
:0102F9001BE9
:0102FA0021E2
:0102FB002AD8
:0102FC0030D1
:0102FD0001FF
:0102FE0003FC
:0102FF0006F8
:010300000AF2
:010301000FEC
:0103020016E4
:0103030020D9
:0103040029CF
:010305002FC8
:0103060001F5
:0103070003F2
:0103080005EF
:0103090007EC
:01030A0009E9
:01030B000BE6
:01030C0011DF
:01030D0018D7
:01030E001BD3
:01030F0001EC
:0103100003E9
:0103110007E4
:010312000CDE
:0103130012D7
:0103140018D0
:010315001EC9
:0103160027BF
:010317002CB9
:0103180001E3
:0103190003E0
:01031A0006DC
:01031B0009D8
:01031C000CD4
:01031D0013CC
:01031E001DC1
:01031F0026B7
:010320002BB1
:0103210001DA
:0103220003D7
:0103230005D4
:010324000ACE
:0103250010C7
:0103260014C2
:010327001CB9
:0103280025AF
:010329002AA9
:01032A0001D1
:01032B0003CE
:01032C0007C9
:01032D000BC4
:01032E000FBF
:01032F0015B8
:010330001BB1
:0103310024A7
:0103320029A1
:0103330001C8
:0103340003C5
:0103350006C1
:0103360008BE
:010337000EB7
:0103380016AE
:010339001AA9
:01033A00239F
:01033B002899
:01033C0001BF
:01033D0003BC
:01033E0005B9
:01033F0009B4
:010340000DAF
:0103410011AA
:0103420019A1
:010343002297
:010344002791
:0103450001B6
:0103460003B3
:0103470007AE
:010348000AAA
:0103490011A2
:01034A00189A
:01034B001F92
:01034C002987
:01034D002F80
:01034E0001AD
:01034F0003AA
:0103500006A6
:010351000BA0
:01035200109A
:010353001990
:010354001E8A
:01035500287F
:010356002D79
:0103570001A4
:0103580003A1
:01035900059E
:01035A00089A
:01035B000A97
:01035C000E92
:01035D001689
:01035E001F7F
:01035F00237A
:01036000019B
:010361000398
:010362000793
:010363000D8C
:010364001385
:010365001B7C
:010366002373
:010367002E67
:010368003460
:010369000192
:01036A00038F
:01036B00068B
:01036C000A86
:01036D000D82
:01036E00107E
:01036F001479
:010370001D6F
:01037100216A
:010372000189
:010373000386
:010374000583
:010375000780
:010376000C7A
:010377001174
:010378001A6A
:01037900245F
:01037A002959
:01037B000180
:01037C00037D
:01037D000778
:01037E000C72
:01037F00106D
:010380001864
:01038100205B
:010382002B4F
:010383003148
:010384000177
:010385000374
:010386000670
:01038700096C
:010388000F65
:010389001360
:01038A00185A
:01038B00224F
:01038C002749
:01038D00016E
:01038E00036B
:01038F000568
:010390000A62
:010391000E5D
:010392001456
:010393001E4B
:01039400293F
:010395002F38
:010396000165
:010397000362
:01039800075D
:010399000B58
:01039A001250
:01039B001B46
:01039C00243C
:01039D00302F
:01039E003628
:01039F00015C
:0103A0000359
:0103A1000655
:0103A2000852
:0103A3000C4D
:0103A4001048
:0103A5001542
:0103A6001F37
:0103A7002332
:0103A8000153
:0103A9000350
:0103AA00054D
:0103AB000948
:0103AC001040
:0103AD001738
:0103AE001B33
:0103AF002627
:0103B0002B21
:0103B100014A
:0103B2000347
:0103B3000742
:0103B4000A3E
:0103B5000F38
:0103B6001234
:0103B7001A2B
:0103B800251F
:0103B9002A19
:0103BA000141
:0103BB00033E
:0103BC00063A
:0103BD000B34
:0103BE000E30
:0103BF00132A
:0103C0001923
:0103C1002417
:0103C2002911
:0103C3000138
:0103C4000335
:0103C5000532
:0103C600082E
:0103C7000D28
:0103C8001420
:0103C900181B
:0103CA00230F
:0103CB002809
:0103CC00012F
:0103CD00032C
:0103CE000727
:0103CF000D20
:0103D000111B
:0103D1001516
:0103D2001E0C
:0103D3002AFF
:0103D40030F8
:0103D5000126
:0103D6000323
:0103D700061F
:0103D8000A1A
:0103D9001013
:0103DA00160C
:0103DB001D04
:0103DC0029F7
:0103DD002FF0
:0103DE00011D
:0103DF00031A
:0103E0000517
:0103E1000714
:0103E2000A10
:0103E3001108
:0103E4001503
:0103E50018FF
:0103E6001BFB
:0103E7000114
:0103E8000311
:0103E900070C
:0103EA000C06
:0103EB0013FE
:0103EC0018F8
:0103ED0022ED
:0103EE0027E7
:0103EF002CE1
:0103F000010B
:0103F1000308
:0103F2000604
:0103F3000900
:0103F4000DFB
:0103F50013F4
:0103F6001AEC
:0103F7001EE7
:0103F80022E2
:0103F9000102
:0103FA0003FF
:0103FB0005FC
:0103FC000AF6
:0103FD0011EE
:0103FE001AE4
:0103FF0020DD
:0104000025D6
:010401002AD0
:0104020001F8
:0104030003F5
:0104040007F0
:010405000BEB
:0104060010E5
:0104070015DF
:010408001FD4
:0104090024CE
:01040A0029C8
:01040B0001EF
:01040C0003EC
:01040D0006E8
:01040E0008E5
:01040F000AE2
:0104100010DB
:0104110017D3
:010412001BCE
:010413001FC9
:0104140001E6
:0104150003E3
:0104160005E0
:0104170009DB
:010418000ED5
:0104190011D1
:01041A0016CB
:01041B001AC6
:01041C001EC1
:01041D0001DD
:01041E0003DA
:01041F0007D5
:010420000AD1
:010421000DCD
:0104220012C7
:0104230015C3
:0104240019BE
:010425001DB9
:0104260001D4
:0104270003D1
:0104280006CD
:010429000BC7
:01042A0011C0
:01042B0019B7
:01042C0022AD
:01042D0028A6
:01042E002DA0
:01042F0001CB
:0104300003C8
:0104310005C5
:0104320008C1
:010433000BBD
:010434000EB9
:0104350013B3
:0104360017AE
:010437001AAA
:0104380001C2
:0104390003BF
:01043A0007BA
:01043B000DB3
:01043C0014AB
:01043D001BA3
:01043E00209D
:01043F002696
:010440002B90
:0104410001B9
:0104420003B6
:0104430006B2
:010444000AAD
:010445000EA8
:01044600169F
:010447001F95
:01044800258E
:010449002A88
:01044A0001B0
:01044B0003AD
:01044C0005AA
:01044D0007A7
:01044E000DA0
:01044F00119B
:010450001794
:010451001C8E
:010452002089
:0104530001A7
:0104540003A4
:01045500079F
:010456000C99
:010457001193
:01045800188B
:010459001D85
:01045A00237E
:01045B002878
:01045C00019E
:01045D00039B
:01045E000697
:01045F000993
:01046000108B
:010461001981
:010462002376
:010463002A6E
:010464003067
:010465000195
:010466000392
:01046700058F
:010468000A89
:010469000F83
:01046A00147D
:01046B001B75
:01046C00216E
:01046D002668
:01046E00018C
:01046F000389
:010470000784
:010471000B7F
:010472000E7B
:010473001573
:010474001A6D
:010475002066
:010476002461
:010477000183
:010478000380
:01047900067C
:01047A000879
:01047B000D73
:01047C00106F
:01047D001965
:01047E001F5E
:01047F002359
:01048000017A
:010481000377
:010482000574
:01048300096F
:010484000C6B
:010485001165
:01048600185D
:010487001E56
:010488002251
:010489000171
:01048A00036E
:01048B000769
:01048C000A65
:01048D00105E
:01048E001855
:01048F001E4E
:010490002546
:010491002A40
:010492000168
:010493000365
:010494000661
:010495000B5B
:010496000F56
:010497001351
:010498001D46
:01049900243E
:01049A002938
:01049B00015F
:01049C00035C
:01049D000559
:01049E000855
:01049F000E4E
:0104A0001447
:0104A1001C3E
:0104A2002336
:0104A3002830
:0104A4000156
:0104A5000353
:0104A600074E
:0104A7000D47
:0104A8001241
:0104A9001B37
:0104AA00222F
:0104AB002A26
:0104AC00301F
:0104AD00014D
:0104AE00034A
:0104AF000646
:0104B0000A41
:0104B1001139
:0104B2001633
:0104B3001A2E
:0104B4002126
:0104B5002620
:0104B6000144
:0104B7000341
:0104B800053E
:0104B900073B
:0104BA000B36
:0104BB00112F
:0104BC001926
:0104BD00201E
:0104BE002419
:0104BF00013B
:0104C0000338
:0104C1000733
:0104C2000C2D
:0104C3000F29
:0104C4001225
:0104C500181E
:0104C6001F16
:0104C7002311
:0104C8000132
:0104C900032F
:0104CA00062B
:0104CB000927
:0104CC000E21
:0104CD00131B
:0104CE001716
:0104CF001E0E
:0104D0002209
:0104D1000129
:0104D2000326
:0104D3000523
:0104D4000A1D
:0104D5000D19
:0104D6001411
:0104D7001D07
:0104D80025FE
:0104D9002AF8
:0104DA000120
:0104DB00031D
:0104DC000718
:0104DD000B13
:0104DE00110C
:0104DF001507
:0104E0001CFF
:0104E10024F6
:0104E20029F0
:0104E3000117
:0104E4000314
:0104E5000610
:0104E600080D
:0104E7000B09
:0104E8001003
:0104E90014FE
:0104EA001BF6
:0104EB001FF1
:0104EC00010E
:0104ED00030B
:0104EE000508
:0104EF000903
:0104F0000FFC
:0104F10017F3
:0104F20021E8
:0104F3002ADE
:0104F40030D7
:0104F5000105
:0104F6000302
:0104F70007FD
:0104F8000AF9
:0104F9000EF4
:0104FA0012EF
:0104FB0019E7
:0104FC0021DE
:0104FD0026D8
:0104FE0001FC
:0104FF0003F9
:0105000006F4
:010501000BEE
:0105020012E6
:0105030019DE
:010504001FD7
:0105050028CD
:010506002DC7
:0105070001F2
:0105080003EF
:0105090005EC
:01050A0008E8
:01050B000CE3
:01050C0014DA
:01050D001ECF
:01050E0027C5
:01050F002CBF
:0105100001E9
:0105110003E6
:0105120007E1
:010513000DDA
:0105140015D1
:010515001BCA
:0105160024C0
:010517002EB5
:0105180034AE
:0105190001E0
:01051A0003DD
:01051B0006D9
:01051C000AD4
:01051D000FCE
:01051E0016C6
:01051F001CBF
:0105200025B5
:010521002AAF
:0105220001D7
:0105230003D4
:0105240005D1
:0105250007CE
:0105260009CB
:010527000BC8
:010528000DC5
:0105290014BD
:01052A0017B9
:01052B0001CE
:01052C0003CB
:01052D0007C6
:01052E000CC0
:01052F0012B9
:0105300018B2
:0105310021A8
:010532002B9D
:010533003196
:0105340001C5
:0105350003C2
:0105360006BE
:0105370009BA
:010538000CB6
:0105390013AE
:01053A0019A7
:01053B00229D
:01053C002797
:01053D0001BC
:01053E0003B9
:01053F0005B6
:010540000AB0
:0105410010A9
:0105420014A4
:01054300189F
:010544002195
:01054500268F
:0105460001B3
:0105470003B0
:0105480007AB
:010549000BA6
:01054A000FA1
:01054B00159A
:01054C001E90
:01054D002885
:01054E002D7F
:01054F0001AA
:0105500003A7
:0105510006A3
:0105520008A0
:010553000E99
:010554001690
:010555001D88
:01055600277D
:010557002C77
:0105580001A1
:01055900039E
:01055A00059B
:01055B000996
:01055C000D91
:01055D00118C
:01055E001587
:01055F001E7D
:010560002278
:010561000198
:010562000395
:010563000790
:010564000A8C
:010565001184
:01056600187C
:010567002271
:010568002D65
:01056900335E
:01056A00018F
:01056B00038C
:01056C000688
:01056D000B82
:01056E00107C
:01056F001972
:010570002169
:010571002C5D
:010572003256
:010573000186
:010574000383
:010575000580
:01057600087C
:010577000A79
:010578000E74
:01057900126F
:01057A001B65
:01057B001F60
:01057C00017D
:01057D00037A
:01057E000775
:01057F000D6E
:010580001367
:010581001B5E
:010582002652
:010583003245
:01058400393D
:010585000174
:010586000371
:01058700066D
:010588000A68
:010589000D64
:01058A001060
:01058B001758
:01058C00214D
:01058D002647
:01058E00016B
:01058F000368
:010590000565
:010591000762
:010592000C5C
:010593001156
:010594001650
:010595002045
:010596002440
:010597000162
:01059800035F
:01059900075A
:01059A000C54
:01059B00104F
:01059C001846
:01059D001C41
:01059E002735
:01059F002C2F
:0105A0000159
:0105A1000356
:0105A2000652
:0105A300094E
:0105A4000F47
:0105A5001342
:0105A6001B39
:0105A700262D
:0105A8002B27
:0105A9000150
:0105AA00034D
:0105AB00054A
:0105AC000A44
:0105AD000E3F
:0105AE001438
:0105AF001A31
:0105B0002525
:0105B1002A1F
:0105B2000147
:0105B3000344
:0105B400073F
:0105B5000B3A
:0105B6001232
:0105B7001B28
:0105B8002022
:0105B9002C15
:0105BA00320E
:0105BB00013E
:0105BC00033B
:0105BD000637
:0105BE000834
:0105BF000C2F
:0105C000102A
:0105C1001821
:0105C2002315
:0105C300280F
:0105C4000135
:0105C5000332
:0105C600052F
:0105C700092A
:0105C8001022
:0105C900171A
:0105CA001E12
:0105CB002A05
:0105CC0030FE
:0105CD00012C
:0105CE000329
:0105CF000724
:0105D0000A20
:0105D1000F1A
:0105D2001216
:0105D3001611
:0105D4002105
:0105D50026FF
:0105D6000123
:0105D7000320
:0105D800061C
:0105D9000B16
:0105DA000E12
:0105DB00130C
:0105DC001C02
:0105DD0020FD
:0105DE0024F8
:0105DF00011A
:0105E0000317
:0105E1000514
:0105E2000810
:0105E3000D0A
:0105E4001402
:0105E5001BFA
:0105E6001FF5
:0105E70023F0
:0105E8000111
:0105E900030E
:0105EA000709
:0105EB000D02
:0105EC0011FD
:0105ED0015F8
:0105EE001AF2
:0105EF001EED
:0105F00022E8
:0105F1000108
:0105F2000305
:0105F3000601
:0105F4000AFC
:0105F50010F5
:0105F60016EE
:0105F70020E3
:0105F80025DD
:0105F9002AD7
:0105FA0001FF
:0105FB0003FC
:0105FC0005F9
:0105FD0007F6
:0105FE000AF2
:0105FF0011EA
:0106000018E1
:010601001CDC
:0106020020D7
:0106030001F5
:0106040003F2
:0106050007ED
:010606000CE7
:0106070013DF
:0106080018D9
:010609001ED2
:01060A0023CC
:01060B0028C6
:01060C0001EC
:01060D0003E9
:01060E0006E5
:01060F0009E1
:010610000DDC
:0106110013D5
:010612001DCA
:0106130022C4
:0106140027BE
:0106150001E3
:0106160003E0
:0106170005DD
:010618000AD7
:0106190011CF
:01061A001AC5
:01061B0023BB
:01061C0029B4
:01061D002FAD
:01061E0001DA
:01061F0003D7
:0106200007D2
:010621000BCD
:0106220010C7
:0106230015C1
:010624001BBA
:0106250020B4
:0106260024AF
:0106270001D1
:0106280003CE
:0106290006CA
:01062A0008C7
:01062B000AC4
:01062C0010BD
:01062D0013B9
:01062E0017B4
:01062F001AB0
:0106300001C8
:0106310003C5
:0106320005C2
:0106330009BD
:010634000EB7
:0106350011B3
:0106360019AA
:010637001EA4
:01063800229F
:0106390001BF
:01063A0003BC
:01063B0007B7
:01063C000AB3
:01063D000DAF
:01063E0012A9
:01063F0018A2
:010640001D9C
:010641002197
:0106420001B6
:0106430003B3
:0106440006AF
:010645000BA9
:0106460011A2
:010647001999
:010648001E93
:01064900248C
:01064A002986
:01064B0001AD
:01064C0003AA
:01064D0005A7
:01064E0008A3
:01064F000B9F
:010650000E9B
:010651001692
:010652001B8C
:010653001F87
:0106540001A4
:0106550003A1
:01065600079C
:010657000D95
:01065800148D
:010659001B85
:01065A00237C
:01065B002A74
:01065C00306D
:01065D00019B
:01065E000398
:01065F000694
:010660000A8F
:010661000E8A
:010662001681
:010663001B7B
:010664002174
:01066500266E
:010666000192
:01066700038F
:01066800058C
:010669000789
:01066A000D82
:01066B00117D
:01066C001A73
:01066D00206C
:01066E002467
:01066F000189
:010670000386
:010671000781
:010672000C7B
:010673001175
:01067400186D
:010675002064
:01067600275C
:010677002C56
:010678000180
:01067900037D
:01067A000679
:01067B000975
:01067C00106D
:01067D001963
:01067E001F5C
:01067F002654
:010680002B4E
:010681000177
:010682000374
:010683000571
:010684000A6B
:010685000F65
:01068600145F
:010687001E54
:01068800254C
:010689002A46
:01068A00016E
:01068B00036B
:01068C000766
:01068D000B61
:01068E000E5D
:01068F001555
:010690001D4C
:010691002444
:01069200293E
:010693000165
:010694000362
:01069500065E
:01069600085B
:010697000D55
:010698001051
:01069900154B
:01069A001B44
:01069B001F3F
:01069C00015C
:01069D000359
:01069E000556
:01069F000951
:0106A0000C4D
:0106A1001147
:0106A2001443
:0106A3001A3C
:0106A4001E37
:0106A5000153
:0106A6000350
:0106A700074B
:0106A8000A47
:0106A9001040
:0106AA001837
:0106AB00212D
:0106AC002924
:0106AD002F1D
:0106AE00014A
:0106AF000347
:0106B0000643
:0106B1000B3D
:0106B2000F38
:0106B3001333
:0106B400192C
:0106B5002024
:0106B600241F
:0106B7000141
:0106B800033E
:0106B900053B
:0106BA000837
:0106BB000E30
:0106BC001429
:0106BD001824
:0106BE001F1C
:0106BF002317
:0106C0000138
:0106C1000335
:0106C2000730
:0106C3000D29
:0106C4001223
:0106C5001B19
:0106C600250E
:0106C7002E04
:0106C80034FD
:0106C900012F
:0106CA00032C
:0106CB000628
:0106CC000A23
:0106CD00111B
:0106CE001615
:0106CF001D0D
:0106D0002504
:0106D1002AFE
:0106D2000126
:0106D3000323
:0106D4000520
:0106D500071D
:0106D6000B18
:0106D7001111
:0106D800150C
:0106D9001C04
:0106DA0020FF
:0106DB00011D
:0106DC00031A
:0106DD000715
:0106DE000C0F
:0106DF000F0B
:0106E0001207
:0106E1001BFD
:0106E20023F4
:0106E30028EE
:0106E4000114
:0106E5000311
:0106E600060D
:0106E7000909
:0106E8000E03
:0106E90013FD
:0106EA001AF5
:0106EB0022EC
:0106EC0027E6
:0106ED00010B
:0106EE000308
:0106EF000505
:0106F0000AFF
:0106F1000DFB
:0106F20014F3
:0106F30019ED
:0106F40021E4
:0106F50026DE
:0106F6000102
:0106F70003FF
:0106F80007FA
:0106F9000BF5
:0106FA0011EE
:0106FB0015E9
:0106FC001FDE
:0106FD0028D4
:0106FE002DCE
:0106FF0001F9
:0107000003F5
:0107010006F1
:0107020008EE
:010703000BEA
:0107040010E4
:0107050017DC
:010706001FD3
:0107070023CE
:0107080001EF
:0107090003EC
:01070A0005E9
:01070B0009E4
:01070C000FDD
:01070D0017D4
:01070E001DCD
:01070F0026C3
:010710002BBD
:0107110001E6
:0107120003E3
:0107130007DE
:010714000ADA
:010715000ED5
:0107160012D0
:0107170015CC
:010718001DC3
:0107190021BE
:01071A0001DD
:01071B0003DA
:01071C0006D6
:01071D000BD0
:01071E0012C8
:01071F0019C0
:0107200022B6
:010721002CAB
:0107220032A4
:0107230001D4
:0107240003D1
:0107250005CE
:0107260008CA
:010727000CC5
:0107280014BC
:010729001AB5
:01072A0023AB
:01072B0028A5
:01072C0001CB
:01072D0003C8
:01072E0007C3
:01072F000DBC
:0107300015B3
:010731001BAC
:0107320020A6
:010733002A9B
:010734003094
:0107350001C2
:0107360003BF
:0107370006BB
:010738000AB6
:010739000FB0
:01073A0016A8
:01073B001F9E
:01073C002993
:01073D002F8C
:01073E0001B9
:01073F0003B6
:0107400005B3
:0107410007B0
:0107420009AD
:010743000BAA
:0107440010A4
:01074500189B
:010746001B97
:0107470001B0
:0107480003AD
:0107490007A8
:01074A000CA2
:01074B00129B
:01074C001894
:01074D001D8E
:01074E002783
:01074F002C7D
:0107500001A7
:0107510003A4
:0107520006A0
:01075300099C
:010754000C98
:010755001390
:010756001C86
:01075700267B
:010758002B75
:01075900019E
:01075A00039B
:01075B000598
:01075C000A92
:01075D00108B
:01075E001486
:01075F001B7E
:010760002573
:010761002A6D
:010762000195
:010763000392
:01076400078D
:010765000B88
:010766000F83
:01076700157C
:010768001A76
:01076900246B
:01076A002965
:01076B00018C
:01076C000389
:01076D000685
:01076E000882
:01076F000E7B
:010770001672
:010771002067
:010772002B5B
:010773003154
:010774000183
:010775000380
:01077600057D
:010777000978
:010778000D73
:01077900116E
:01077A001866
:01077B00225B
:01077C002755
:01077D00017A
:01077E000377
:01077F000772
:010780000A6E
:010781001166
:01078200185E
:010783001E57
:01078400294B
:010785002F44
:010786000171
:01078700036E
:01078800066A
:010789000B64
:01078A00105E
:01078B001954
:01078C002448
:01078D00303B
:01078E003634
:01078F000168
:010790000365
:010791000562
:01079200085E
:010793000A5B
:010794000E56
:01079500154E
:010796001F43
:01079700233E
:01079800015F
:01079900035C
:01079A000757
:01079B000D50
:01079C001349
:01079D001B40
:01079E002238
:01079F002E2B
:0107A0003424
:0107A1000156
:0107A2000353
:0107A300064F
:0107A4000A4A
:0107A5000D46
:0107A6001042
:0107A700133E
:0107A8001D33
:0107A900212E
:0107AA00014D
:0107AB00034A
:0107AC000547
:0107AD000744
:0107AE000C3E
:0107AF001138
:0107B000192F
:0107B1002423
:0107B200291D
:0107B3000144
:0107B4000341
:0107B500073C
:0107B6000C36
:0107B7001031
:0107B8001828
:0107B9001F20
:0107BA002B13
:0107BB00310C
:0107BC00013B
:0107BD000338
:0107BE000634
:0107BF000930
:0107C0000F29
:0107C1001324
:0107C200171F
:0107C3002213
:0107C400270D
:0107C5000132
:0107C600032F
:0107C700052C
:0107C8000A26
:0107C9000E21
:0107CA00141A
:0107CB001D10
:0107CC002903
:0107CD002FFC
:0107CE000129
:0107CF000326
:0107D0000721
:0107D1000B1C
:0107D2001214
:0107D3001B0A
:0107D4002301
:0107D50028FB
:0107D6002DF5
:0107D7000120
:0107D800031D
:0107D9000619
:0107DA000816
:0107DB000C11
:0107DC00100C
:0107DD001407
:0107DE001703
:0107DF001AFF
:0107E0000117
:0107E1000314
:0107E2000511
:0107E300090C
:0107E4001004
:0107E50017FC
:0107E60021F1
:0107E70026EB
:0107E8002BE5
:0107E900010E
:0107EA00030B
:0107EB000706
:0107EC000A02
:0107ED000FFC
:0107EE0012F8
:0107EF0019F0
:0107F0001DEB
:0107F10021E6
:0107F2000105
:0107F3000302
:0107F40006FE
:0107F5000BF8
:0107F6000EF4
:0107F70013EE
:0107F80018E8
:0107F9001CE3
:0107FA0020DE
:0107FB0001FC
:0107FC0003F9
:0107FD0005F6
:0107FE0008F2
:0107FF000DEC
:0108000014E3
:010801001ED8
:0108020023D2
:0108030028CC
:0108040001F2
:0108050003EF
:0108060007EA
:010807000DE3
:0108080011DE
:0108090015D9
:01080A001DD0
:01080B0022CA
:01080C0027C4
:01080D0001E9
:01080E0003E6
:01080F0006E2
:010810000ADD
:0108110010D6
:0108120016CF
:010813001CC8
:0108140021C2
:0108150026BC
:0108160001E0
:0108170003DD
:0108180005DA
:0108190007D7
:01081A000AD3
:01081B0011CB
:01081C0014C7
:01081D0018C2
:01081E001BBE
:01081F0001D7
:0108200003D4
:0108210007CF
:010822000CC9
:0108230013C1
:0108240018BB
:0108250021B1
:0108260027AA
:010827002CA4
:0108280001CE
:0108290003CB
:01082A0006C7
:01082B0009C3
:01082C000DBE
:01082D0013B7
:01082E0019B0
:01082F001EAA
:0108300022A5
:0108310001C5
:0108320003C2
:0108330005BF
:010834000AB9
:0108350011B1
:010836001AA7
:010837001FA1
:01083800259A
:010839002A94
:01083A0001BC
:01083B0003B9
:01083C0007B4
:01083D000BAF
:01083E0010A9
:01083F0015A3
:010840001E99
:010841002492
:01084200298C
:0108430001B3
:0108440003B0
:0108450006AC
:0108460008A9
:010847000AA6
:01084800109F
:010849001698
:01084A001B92
:01084B001F8D
:01084C0001AA
:01084D0003A7
:01084E0005A4
:01084F00099F
:010850000E99
:010851001195
:010852001590
:010853001A8A
:010854001E85
:0108550001A1
:01085600039E
:010857000799
:010858000A95
:010859000D91
:01085A00128B
:01085B001B81
:01085C00217A
:01085D002674
:01085E000198
:01085F000395
:010860000691
:010861000B8B
:010862001184
:01086300197B
:010864002172
:01086500286A
:010866002D64
:01086700018F
:01086800038C
:010869000589
:01086A000885
:01086B000B81
:01086C000E7D
:01086D001278
:01086E001772
:01086F001A6E
:010870000186
:010871000383
:01087200077E
:010873000D77
:01087400146F
:010875001B67
:01087600265B
:010877002E52
:01087800344B
:01087900017D
:01087A00037A
:01087B000676
:01087C000A71
:01087D000E6C
:01087E001663
:01087F001E5A
:010880002552
:010881002A4C
:010882000174
:010883000371
:01088400056E
:01088500076B
:010886000D64
:01088700115F
:010888001659
:010889001C52
:01088A00204D
:01088B00016B
:01088C000368
:01088D000763
:01088E000C5D
:01088F001157
:01089000184F
:010891001C4A
:010892002342
:01089300283C
:010894000162
:01089500035F
:01089600065B
:010897000957
:01089800104F
:010899001945
:01089A00223B
:01089B002A32
:01089C00302B
:01089D000159
:01089E000356
:01089F000553
:0108A0000A4D
:0108A1000F47
:0108A2001441
:0108A3001A3A
:0108A4002132
:0108A500262C
:0108A6000150
:0108A700034D
:0108A8000748
:0108A9000B43
:0108AA000E3F
:0108AB001537
:0108AC001932
:0108AD00202A
:0108AE002425
:0108AF000147
:0108B0000344
:0108B1000640
:0108B200083D
:0108B3000D37
:0108B4001033
:0108B500182A
:0108B6001F22
:0108B700231D
:0108B800013E
:0108B900033B
:0108BA000538
:0108BB000933
:0108BC000C2F
:0108BD001129
:0108BE001722
:0108BF001E1A
:0108C0002215
:0108C1000135
:0108C2000332
:0108C300072D
:0108C4000A29
:0108C5001022
:0108C6001819
:0108C7001D13
:0108C800250A
:0108C9002A04
:0108CA00012C
:0108CB000329
:0108CC000625
:0108CD000B1F
:0108CE000F1A
:0108CF001315
:0108D0001C0B
:0108D1002402
:0108D20029FC
:0108D3000123
:0108D4000320
:0108D500051D
:0108D6000819
:0108D7000E12
:0108D800140B
:0108D9001B03
:0108DA0023FA
:0108DB0028F4
:0108DC00011A
:0108DD000317
:0108DE000712
:0108DF000D0B
:0108E0001205
:0108E1001BFB
:0108E20021F4
:0108E3002AEA
:0108E40030E3
:0108E5000111
:0108E600030E
:0108E700060A
:0108E8000A05
:0108E90011FD
:0108EA0016F7
:0108EB0020EC
:0108EC0029E2
:0108ED002FDB
:0108EE000108
:0108EF000305
:0108F0000502
:0108F10007FF
:0108F2000BFA
:0108F30011F3
:0108F40018EB
:0108F50020E2
:0108F60024DD
:0108F70001FF
:0108F80003FC
:0108F90007F7
:0108FA000CF1
:0108FB000FED
:0108FC0012E9
:0108FD0017E3
:0108FE001FDA
:0108FF0023D5
:0109000001F5
:0109010003F2
:0109020006EE
:0109030009EA
:010904000EE4
:0109050013DE
:010906001DD3
:0109070026C9
:010908002BC3
:0109090001EC
:01090A0003E9
:01090B0005E6
:01090C000AE0
:01090D000DDC
:01090E0014D4
:01090F001CCB
:0109100025C1
:010911002ABB
:0109120001E3
:0109130003E0
:0109140007DB
:010915000BD6
:0109160011CF
:0109170015CA
:010918001BC3
:0109190024B9
:01091A0029B3
:01091B0001DA
:01091C0003D7
:01091D0006D3
:01091E0008D0
:01091F000BCC
:0109200010C6
:0109210013C2
:010922001BB9
:010923001FB4
:0109240001D1
:0109250003CE
:0109260005CB
:0109270009C6
:010928000FBF
:0109290017B6
:01092A0020AC
:01092B002AA1
:01092C00309A
:01092D0001C8
:01092E0003C5
:01092F0007C0
:010930000ABC
:010931000EB7
:0109320012B2
:0109330018AB
:0109340021A1
:01093500269B
:0109360001BF
:0109370003BC
:0109380006B8
:010939000BB2
:01093A0012AA
:01093B0019A2
:01093C001E9C
:01093D002891
:01093E002D8B
:01093F0001B6
:0109400003B3
:0109410005B0
:0109420008AC
:010943000CA7
:01094400149E
:010945001D94
:010946002789
:010947002C83
:0109480001AD
:0109490003AA
:01094A0007A5
:01094B000D9E
:01094C001595
:01094D001B8E
:01094E002385
:01094F002E79
:010950003472
:0109510001A4
:0109520003A1
:01095300069D
:010954000A98
:010955000F92
:01095600168A
:010957001B84
:010958002579
:010959002A73
:01095A00019B
:01095B000398
:01095C000595
:01095D000792
:01095E00098F
:01095F000B8C
:010960001383
:010961001C79
:010962002074
:010963000192
:01096400038F
:01096500078A
:010966000C84
:01096700127D
:010968001876
:01096900206D
:01096A002B61
:01096B00315A
:01096C000189
:01096D000386
:01096E000682
:01096F00097E
:010970000C7A
:010971001372
:01097200186C
:010973002261
:01097400275B
:010975000180
:01097600037D
:01097700057A
:010978000A74
:01097900106D
:01097A001468
:01097B001E5D
:01097C002951
:01097D002F4A
:01097E000177
:01097F000374
:01098000076F
:010981000B6A
:010982000F65
:01098300155E
:010984001D55
:010985002849
:010986002D43
:01098700016E
:01098800036B
:010989000667
:01098A000864
:01098B000E5D
:01098C001654
:01098D001C4D
:01098E002741
:01098F002C3B
:010990000165
:010991000362
:01099200055F
:01099300095A
:010994000D55
:010995001150
:01099600144C
:010997001E41
:01099800223C
:01099900015C
:01099A000359
:01099B000754
:01099C000A50
:01099D001148
:01099E001840
:01099F002136
:0109A0002D29
:0109A1003322
:0109A2000153
:0109A3000350
:0109A400064C
:0109A5000B46
:0109A6001040
:0109A7001936
:0109A800202E
:0109A9002C21
:0109AA00321A
:0109AB00014A
:0109AC000347
:0109AD000544
:0109AE000840
:0109AF000A3D
:0109B0000E38
:0109B1001134
:0109B2001B29
:0109B3001F24
:0109B4000141
:0109B500033E
:0109B6000739
:0109B7000D32
:0109B800132B
:0109B9001B22
:0109BA002517
:0109BB003209
:0109BC003901
:0109BD000138
:0109BE000335
:0109BF000631
:0109C0000A2C
:0109C1000D28
:0109C2001024
:0109C300161D
:0109C4002111
:0109C500260B
:0109C600012F
:0109C700032C
:0109C8000529
:0109C9000726
:0109CA000C20
:0109CB00111A
:0109CC001515
:0109CD001811
:0109CE001B0D
:0109CF000126
:0109D0000323
:0109D100071E
:0109D2000C18
:0109D3001013
:0109D400180A
:0109D50022FF
:0109D60027F9
:0109D7002CF3
:0109D800011D
:0109D900031A
:0109DA000616
:0109DB000912
:0109DC000F0B
:0109DD001306
:0109DE001AFE
:0109DF001EF9
:0109E00022F4
:0109E1000114
:0109E2000311
:0109E300050E
:0109E4000A08
:0109E5000E03
:0109E60014FC
:0109E70019F6
:0109E8001DF1
:0109E90021EC
:0109EA00010B
:0109EB000308
:0109EC000703
:0109ED000BFE
:0109EE0012F6
:0109EF001BEC
:0109F00026E0
:0109F1002CD9
:0109F20032D2
:0109F3000102
:0109F40003FF
:0109F50006FB
:0109F60008F8
:0109F7000CF3
:0109F80010EE
:0109F90017E6
:0109FA001BE1
:0109FB001FDC
:0109FC0001F9
:0109FD0003F6
:0109FE0005F3
:0109FF0009EE
:010A000010E5
:010A010017DD
:010A02001DD6
:010A030022D0
:010A040027CA
:010A050001EF
:010A060003EC
:010A070007E7
:010A08000AE3
:010A09000FDD
:010A0A0012D9
:010A0B0015D5
:010A0C0019D0
:010A0D001DCB
:010A0E0001E6
:010A0F0003E3
:010A100006DF
:010A11000BD9
:010A12000ED5
:010A130013CF
:010A14001BC6
:010A150020C0
:010A160024BB
:010A170001DD
:010A180003DA
:010A190005D7
:010A1A0008D3
:010A1B000DCD
:010A1C0014C5
:010A1D001ABE
:010A1E001FB8
:010A1F0023B3
:010A200001D4
:010A210003D1
:010A220007CC
:010A23000DC5
:010A240011C0
:010A250015BB
:010A260019B6
:010A27001EB0
:010A280022AB
:010A290001CB
:010A2A0003C8
:010A2B0006C4
:010A2C000ABF
:010A2D0010B8
:010A2E0016B1
:010A2F001FA7
:010A300025A0
:010A31002A9A
:010A320001C2
:010A330003BF
:010A340005BC
:010A350007B9
:010A36000AB5
:010A370011AD
:010A380017A6
:010A39001CA0
:010A3A00209B
:010A3B0001B9
:010A3C0003B6
:010A3D0007B1
:010A3E000CAB
:010A3F0013A3
:010A4000189D
:010A41001D97
:010A42002390
:010A4300288A
:010A440001B0
:010A450003AD
:010A460006A9
:010A470009A5
:010A48000DA0
:010A49001399
:010A4A001C8F
:010A4B002288
:010A4C002782
:010A4D0001A7
:010A4E0003A4
:010A4F0005A1
:010A50000A9B
:010A51001193
:010A52001A89
:010A53002280
:010A54002978
:010A55002F71
:010A5600019E
:010A5700039B
:010A58000796
:010A59000B91
:010A5A00108B
:010A5B001585
:010A5C001A7F
:010A5D002078
:010A5E002473
:010A5F000195
:010A60000392
:010A6100068E
:010A6200088B
:010A63000A88
:010A64001081
:010A65001977
:010A66001F70
:010A6700236B
:010A6800018C
:010A69000389
:010A6A000586
:010A6B000981
:010A6C000E7B
:010A6D001177
:010A6E00186F
:010A6F001E68
:010A70002263
:010A71000183
:010A72000380
:010A7300077B
:010A74000A77
:010A75000D73
:010A7600126D
:010A77001767
:010A78001D60
:010A7900215B
:010A7A00017A
:010A7B000377
:010A7C000673
:010A7D000B6D
:010A7E001166
:010A7F00195D
:010A80002451
:010A81002C48
:010A82003241
:010A83000171
:010A8400036E
:010A8500056B
:010A86000867
:010A87000B63
:010A88000E5F
:010A89001557
:010A8A001B50
:010A8B001F4B
:010A8C000168
:010A8D000365
:010A8E000760
:010A8F000D59
:010A90001451
:010A91001B49
:010A92002241
:010A93002A38
:010A94003031
:010A9500015F
:010A9600035C
:010A97000658
:010A98000A53
:010A99000E4E
:010A9A001645
:010A9B001A40
:010A9C002138
:010A9D002632
:010A9E000156
:010A9F000353
:010AA0000550
:010AA100074D
:010AA2000D46
:010AA3001141
:010AA4001938
:010AA5002030
:010AA600242B
:010AA700014D
:010AA800034A
:010AA9000745
:010AAA000C3F
:010AAB001139
:010AAC001831
:010AAD001F29
:010AAE002720
:010AAF002C1A
:010AB0000144
:010AB1000341
:010AB200063D
:010AB3000939
:010AB4001031
:010AB5001927
:010AB6001E21
:010AB7002618
:010AB8002B12
:010AB900013B
:010ABA000338
:010ABB000535
:010ABC000A2F
:010ABD000F29
:010ABE001423
:010ABF001D19
:010AC0002510
:010AC1002A0A
:010AC2000132
:010AC300032F
:010AC400072A
:010AC5000B25
:010AC6000E21
:010AC7001519
:010AC8001C11
:010AC9002408
:010ACA002902
:010ACB000129
:010ACC000326
:010ACD000622
:010ACE00081F
:010ACF000D19
:010AD0001015
:010AD1001410
:010AD2001B08
:010AD3001F03
:010AD4000120
:010AD500031D
:010AD600051A
:010AD7000915
:010AD8000C11
:010AD900110B
:010ADA001A01
:010ADB0022F8
:010ADC0027F2
:010ADD000117
:010ADE000314
:010ADF00070F
:010AE0000A0B
:010AE1001004
:010AE20018FB
:010AE30020F2
:010AE40029E8
:010AE5002FE1
:010AE600010E
:010AE700030B
:010AE8000607
:010AE9000B01
:010AEA000FFC
:010AEB0013F7
:010AEC0018F1
:010AED0020E8
:010AEE0024E3
:010AEF000105
:010AF0000302
:010AF10005FF
:010AF20008FB
:010AF3000EF4
:010AF40014ED
:010AF5001EE2
:010AF60027D8
:010AF7002CD2
:010AF80001FC
:010AF90003F9
:010AFA0007F4
:010AFB000DED
:010AFC0012E7
:010AFD001BDD
:010AFE0024D3
:010AFF002EC8
:010B000034C0
:010B010001F2
:010B020003EF
:010B030006EB
:010B04000AE6
:010B050011DE
:010B060016D8
:010B07001CD1
:010B080025C7
:010B09002AC1
:010B0A0001E9
:010B0B0003E6
:010B0C0005E3
:010B0D0007E0
:010B0E000BDB
:010B0F0011D4
:010B100014D0
:010B11001CC7
:010B120020C2
:010B130001E0
:010B140003DD
:010B150007D8
:010B16000CD2
:010B17000FCE
:010B180012CA
:010B19001AC1
:010B1A0023B7
:010B1B0028B1
:010B1C0001D7
:010B1D0003D4
:010B1E0006D0
:010B1F0009CC
:010B20000EC6
:010B210013C0
:010B220019B9
:010B230022AF
:010B240027A9
:010B250001CE
:010B260003CB
:010B270005C8
:010B28000AC2
:010B29000DBE
:010B2A0014B6
:010B2B0018B1
:010B2C0021A7
:010B2D0026A1
:010B2E0001C5
:010B2F0003C2
:010B300007BD
:010B31000BB8
:010B320011B1
:010B330015AC
:010B34001EA2
:010B35002897
:010B36002D91
:010B370001BC
:010B380003B9
:010B390006B5
:010B3A0008B2
:010B3B000BAE
:010B3C0010A8
:010B3D0016A1
:010B3E001F97
:010B3F002392
:010B400001B3
:010B410003B0
:010B420005AD
:010B43000AA7
:010B44000FA1
:010B4500159A
:010B46001B93
:010B4700208D
:010B48002488
:010B490001AA
:010B4A0003A7
:010B4B0007A2
:010B4C000B9D
:010B4D000E99
:010B4E001690
:010B4F001A8B
:010B50001F85
:010B51002380
:010B520001A1
:010B5300039E
:010B5400069A
:010B55000897
:010B56000D91
:010B5700118C
:010B58001983
:010B59001E7D
:010B5A002278
:010B5B000198
:010B5C000395
:010B5D000592
:010B5E00098D
:010B5F000C89
:010B60001282
:010B6100187B
:010B62001D75
:010B63002170
:010B6400018F
:010B6500038C
:010B66000787
:010B67000A83
:010B6800107C
:010B69001972
:010B6A001E6C
:010B6B002465
:010B6C00295F
:010B6D000186
:010B6E000383
:010B6F00067F
:010B70000B79
:010B71000F74
:010B7200146E
:010B73001D64
:010B7400235D
:010B75002857
:010B7600017D
:010B7700037A
:010B78000577
:010B79000873
:010B7A000E6C
:010B7B001564
:010B7C001C5C
:010B7D002255
:010B7E00274F
:010B7F000174
:010B80000371
:010B8100076C
:010B82000D65
:010B8300125F
:010B8400165A
:010B85001B54
:010B8600214D
:010B87002647
:010B8800016B
:010B89000368
:010B8A000664
:010B8B000A5F
:010B8C001157
:010B8D001750
:010B8E002145
:010B8F00283D
:010B90002D37
:010B91000162
:010B9200035F
:010B9300055C
:010B94000759
:010B95000B54
:010B9600124C
:010B97001944
:010B98001F3D
:010B99002338
:010B9A000159
:010B9B000356
:010B9C000751
:010B9D000C4B
:010B9E000F47
:010B9F001342
:010BA000183C
:010BA1001E35
:010BA2002230
:010BA3000150
:010BA400034D
:010BA5000649
:010BA6000945
:010BA7000E3F
:010BA8001438
:010BA9001E2D
:010BAA002525
:010BAB002A1F
:010BAC000147
:010BAD000344
:010BAE000541
:010BAF000A3B
:010BB0000D37
:010BB100152E
:010BB2001D25
:010BB300241D
:010BB4002917
:010BB500013E
:010BB600033B
:010BB7000736
:010BB8000B31
:010BB900112A
:010BBA001624
:010BBB001C1D
:010BBC002315
:010BBD00280F
:010BBE000135
:010BBF000332
:010BC000062E
:010BC100082B
:010BC2000B27
:010BC3001120
:010BC400141C
:010BC5001A15
:010BC6001E10
:010BC700012C
:010BC8000329
:010BC9000526
:010BCA000921
:010BCB000F1A
:010BCC001216
:010BCD001A0D
:010BCE002105
:010BCF0026FF
:010BD0000123
:010BD1000320
:010BD200071B
:010BD3000A17
:010BD4000E12
:010BD500130C
:010BD6001905
:010BD70020FD
:010BD80024F8
:010BD900011A
:010BDA000317
:010BDB000613
:010BDC000B0D
:010BDD001205
:010BDE001AFC
:010BDF001FF6
:010BE00027ED
:010BE1002CE7
:010BE2000111
:010BE300030E
:010BE400050B
:010BE5000807
:010BE6000C02
:010BE7000FFE
:010BE80017F5
:010BE9001EED
:010BEA0022E8
:010BEB000108
:010BEC000305
:010BED000700
:010BEE000DF9
:010BEF0015F0
:010BF0001CE8
:010BF10024DF
:010BF2002DD5
:010BF30033CE
:010BF40001FF
:010BF50003FC
:010BF60006F8
:010BF7000AF3
:010BF8000FED
:010BF90017E4
:010BFA001CDE
:010BFB0024D5
:010BFC0029CF
:010BFD0001F6
:010BFE0003F3
:010BFF0005F0
:010C000007EC
:010C010009E9
:010C02000CE5
:010C030014DC
:010C04001BD4
:010C05001FCF
:010C060001EC
:010C070003E9
:010C080007E4
:010C09000CDE
:010C0A0012D7
:010C0B0019CF
:010C0C0021C6
:010C0D002ABC
:010C0E0030B5
:010C0F0001E3
:010C100003E0
:010C110006DC
:010C120009D8
:010C13000CD4
:010C140014CB
:010C150019C5
:010C160021BC
:010C170026B6
:010C180001DA
:010C190003D7
:010C1A0005D4
:010C1B000ACE
:010C1C0010C7
:010C1D0015C1
:010C1E001FB6
:010C1F0028AC
:010C20002DA6
:010C210001D1
:010C220003CE
:010C230007C9
:010C24000BC4
:010C25000FBF
:010C260016B7
:010C27001EAE
:010C280027A4
:010C29002C9E
:010C2A0001C8
:010C2B0003C5
:010C2C0006C1
:010C2D0008BE
:010C2E000EB7
:010C2F0011B3
:010C300016AD
:010C31001EA4
:010C3200229F
:010C330001BF
:010C340003BC
:010C350005B9
:010C360009B4
:010C37000DAF
:010C380012A9
:010C390015A5
:010C3A001D9C
:010C3B002197
:010C3C0001B6
:010C3D0003B3
:010C3E0007AE
:010C3F000AAA
:010C400011A2
:010C41001999
:010C4200228F
:010C43002C84
:010C4400327D
:010C450001AD
:010C460003AA
:010C470006A6
:010C48000BA0
:010C4900109A
:010C4A001495
:010C4B001A8E
:010C4C002384
:010C4D00287E
:010C4E0001A4
:010C4F0003A1
:010C5000059E
:010C5100089A
:010C52000A97
:010C53000F91
:010C5400128D
:010C55001A84
:010C56001E7F
:010C5700019B
:010C58000398
:010C59000793
:010C5A000D8C
:010C5B001385
:010C5C001C7B
:010C5D002670
:010C5E003164
:010C5F00385C
:010C60000192
:010C6100038F
:010C6200068B
:010C63000A86
:010C64000D82
:010C6500117D
:010C66001776
:010C6700206C
:010C68002467
:010C69000189
:010C6A000386
:010C6B000583
:010C6C000780
:010C6D000C7A
:010C6E001273
:010C6F00166E
:010C70001F64
:010C7100235F
:010C72000180
:010C7300037D
:010C74000778
:010C75000C72
:010C7600106D
:010C77001963
:010C78002358
:010C79002E4C
:010C7A003445
:010C7B000177
:010C7C000374
:010C7D000670
:010C7E00096C
:010C7F000F65
:010C8000145F
:010C81001B57
:010C8200254C
:010C83002A46
:010C8400016E
:010C8500036B
:010C86000568
:010C87000A62
:010C88000E5D
:010C89001555
:010C8A001A4F
:010C8B002444
:010C8C00293E
:010C8D000165
:010C8E000362
:010C8F00075D
:010C90000B58
:010C91001250
:010C9200164B
:010C93002040
:010C94002B34
:010C9500312D
:010C9600015C
:010C97000359
:010C98000655
:010C99000852
:010C9A000C4D
:010C9B001147
:010C9C00183F
:010C9D002234
:010C9E00272E
:010C9F000153
:010CA0000350
:010CA100054D
:010CA2000948
:010CA3001040
:010CA4001837
:010CA5001E30
:010CA6002924
:010CA7002F1D
:010CA800014A
:010CA9000347
:010CAA000742
:010CAB000A3E
:010CAC000F38
:010CAD001333
:010CAE001D28
:010CAF00281C
:010CB0002D16
:010CB1000141
:010CB200033E
:010CB300063A
:010CB4000B34
:010CB5000E30
:010CB6001429
:010CB7001C20
:010CB8002714
:010CB9002C0E
:010CBA000138
:010CBB000335
:010CBC000532
:010CBD00082E
:010CBE000D28
:010CBF00151F
:010CC0001B18
:010CC100260C
:010CC2002B06
:010CC300012F
:010CC400032C
:010CC5000727
:010CC6000D20
:010CC700111B
:010CC8001615
:010CC9001A10
:010CCA002504
:010CCB002AFE
:010CCC000126
:010CCD000323
:010CCE00061F
:010CCF000A1A
:010CD0001013
:010CD100170B
:010CD2002001
:010CD3002CF4
:010CD40032ED
:010CD500011D
:010CD600031A
:010CD7000517
:010CD8000714
:010CD9000A10
:010CDA000C0D
:010CDB001107
:010CDC001BFC
:010CDD001FF7
:010CDE000114
:010CDF000311
:010CE000070C
:010CE1000C06
:010CE20013FE
:010CE30019F7
:010CE4001EF1
:010CE5002AE4
:010CE60030DD
:010CE700010B
:010CE8000308
:010CE9000604
:010CEA000900
:010CEB000DFB
:010CEC0014F3
:010CED001DE9
:010CEE0029DC
:010CEF002FD5
:010CF0000102
:010CF10003FF
:010CF20005FC
:010CF3000AF6
:010CF40011EE
:010CF50015E9
:010CF6001CE1
:010CF70020DC
:010CF80024D7
:010CF90001F9
:010CFA0003F6
:010CFB0007F1
:010CFC000BEC
:010CFD0010E6
:010CFE0016DF
:010CFF001BD9
:010D00001FD3
:010D010023CE
:010D020001EF
:010D030003EC
:010D040006E8
:010D050008E5
:010D06000AE2
:010D070011DA
:010D08001AD0
:010D09001ECB
:010D0A0022C6
:010D0B0001E6
:010D0C0003E3
:010D0D0005E0
:010D0E0009DB
:010D0F000ED5
:010D100012D0
:010D110019C8
:010D12001DC3
:010D130021BE
:010D140001DD
:010D150003DA
:010D160007D5
:010D17000AD1
:010D18000DCD
:010D190013C6
:010D1A0018C0
:010D1B001CBB
:010D1C0020B6
:010D1D0001D4
:010D1E0003D1
:010D1F0006CD
:010D20000BC7
:010D210011C0
:010D22001AB6
:010D230025AA
:010D24002BA3
:010D2500319C
:010D260001CB
:010D270003C8
:010D280005C5
:010D290008C1
:010D2A000BBD
:010D2B000FB8
:010D2C0016B0
:010D2D001AAB
:010D2E001EA6
:010D2F0001C2
:010D300003BF
:010D310007BA
:010D32000DB3
:010D330014AB
:010D34001CA2
:010D3500239A
:010D36002993
:010D37002F8C
:010D380001B9
:010D390003B6
:010D3A0006B2
:010D3B000AAD
:010D3C000EA8
:010D3D0011A4
:010D3E0014A0
:010D3F00189B
:010D40001B97
:010D410001B0
:010D420003AD
:010D430005AA
:010D440007A7
:010D45000DA0
:010D4600129A
:010D47001A91
:010D48001F8B
:010D49002386
:010D4A0001A7
:010D4B0003A4
:010D4C00079F
:010D4D000C99
:010D4E001193
:010D4F00198A
:010D50002082
:010D5100267B
:010D52002B75
:010D5300019E
:010D5400039B
:010D55000697
:010D56000993
:010D5700108B
:010D58001486
:010D59001881
:010D5A001D7B
:010D5B002176
:010D5C000195
:010D5D000392
:010D5E00058F
:010D5F000A89
:010D60000F83
:010D6100157C
:010D62001E72
:010D6300246B
:010D64002965
:010D6500018C
:010D66000389
:010D67000784
:010D68000B7F
:010D69000E7B
:010D6A001672
:010D6B001D6A
:010D6C002363
:010D6D00285D
:010D6E000183
:010D6F000380
:010D7000067C
:010D71000879
:010D72000D73
:010D7300116E
:010D74001569
:010D75001A63
:010D76001E5E
:010D7700017A
:010D78000377
:010D79000574
:010D7A00096F
:010D7B000C6B
:010D7C001264
:010D7D001B5A
:010D7E002153
:010D7F00264D
:010D80000171
:010D8100036E
:010D82000769
:010D83000A65
:010D8400105E
:010D85001954
:010D8600214B
:010D87002843
:010D88002D3D
:010D89000168
:010D8A000365
:010D8B000661
:010D8C000B5B
:010D8D000F56
:010D8E001450
:010D8F00194A
:010D90001F43
:010D9100233E
:010D9200015F
:010D9300035C
:010D94000559
:010D95000855
:010D96000E4E
:010D97001546
:010D98001F3B
:010D99002633
:010D9A002B2D
:010D9B000156
:010D9C000353
:010D9D00074E
:010D9E000D47
:010D9F001241
:010DA000163C
:010DA1001E33
:010DA200252B
:010DA3002A25
:010DA400014D
:010DA500034A
:010DA6000646
:010DA7000A41
:010DA8001139
:010DA9001732
:010DAA001D2B
:010DAB002423
:010DAC00291D
:010DAD000144
:010DAE000341
:010DAF00053E
:010DB000073B
:010DB1000B36
:010DB200122E
:010DB300152A
:010DB4001B23
:010DB5001F1E
:010DB600013B
:010DB7000338
:010DB8000733
:010DB9000C2D
:010DBA000F29
:010DBB001324
:010DBC001B1B
:010DBD002213
:010DBE00270D
:010DBF000132
:010DC000032F
:010DC100062B
:010DC2000927
:010DC3000E21
:010DC400141A
:010DC5001A13
:010DC600210B
:010DC7002605
:010DC8000129
:010DC9000326
:010DCA000523
:010DCB000A1D
:010DCC000D19
:010DCD001510
:010DCE00190B
:010DCF002003
:010DD00024FE
:010DD1000120
:010DD200031D
:010DD3000718
:010DD4000B13
:010DD500110C
:010DD6001606
:010DD7001FFC
:010DD80027F3
:010DD9002CED
:010DDA000117
:010DDB000314
:010DDC000610
:010DDD00080D
:010DDE000B09
:010DDF001102
:010DE00017FB
:010DE1001EF3
:010DE20022EE
:010DE300010E
:010DE400030B
:010DE5000508
:010DE6000903
:010DE7000FFC
:010DE80012F8
:010DE90016F3
:010DEA001DEB
:010DEB0021E6
:010DEC000105
:010DED000302
:010DEE0007FD
:010DEF000AF9
:010DF0000EF4
:010DF10013EE
:010DF2001CE4
:010DF30024DB
:010DF40029D5
:010DF50001FC
:010DF60003F9
:010DF70006F5
:010DF8000BEF
:010DF90012E7
:010DFA001ADE
:010DFB0022D5
:010DFC002BCB
:010DFD0031C4
:010DFE0001F3
:010DFF0003F0
:010E000005EC
:010E010008E8
:010E02000CE3
:010E03000FDF
:010E040013DA
:010E05001AD2
:010E06001ECD
:010E070001E9
:010E080003E6
:010E090007E1
:010E0A000DDA
:010E0B0015D1
:010E0C001CC9
:010E0D0027BD
:010E0E0031B2
:010E0F0038AA
:010E100001E0
:010E110003DD
:010E120006D9
:010E13000AD4
:010E14000FCE
:010E150017C5
:010E16001FBC
:010E170028B2
:010E18002DAC
:010E190001D7
:010E1A0003D4
:010E1B0005D1
:010E1C0007CE
:010E1D0009CB
:010E1E000CC7
:010E1F0010C2
:010E200017BA
:010E21001AB6
:010E220001CE
:010E230003CB
:010E240007C6
:010E25000CC0
:010E260012B9
:010E270019B1
:010E280024A5
:010E29002E9A
:010E2A003493
:010E2B0001C5
:010E2C0003C2
:010E2D0006BE
:010E2E0009BA
:010E2F000CB6
:010E300014AD
:010E31001CA4
:010E3200259A
:010E33002A94
:010E340001BC
:010E350003B9
:010E360005B6
:010E37000AB0
:010E380010A9
:010E390015A3
:010E3A001B9C
:010E3B002492
:010E3C00298C
:010E3D0001B3
:010E3E0003B0
:010E3F0007AB
:010E40000BA6
:010E41000FA1
:010E42001699
:010E43001A94
:010E4400238A
:010E45002884
:010E460001AA
:010E470003A7
:010E480006A3
:010E490008A0
:010E4A000E99
:010E4B001195
:010E4C00198C
:010E4D002282
:010E4E00277C
:010E4F0001A1
:010E5000039E
:010E5100059B
:010E52000996
:010E53000D91
:010E5400128B
:010E55001884
:010E5600217A
:010E57002674
:010E58000198
:010E59000395
:010E5A000790
:010E5B000A8C
:010E5C001184
:010E5D00197B
:010E5E001E75
:010E5F00286A
:010E60002D64
:010E6100018F
:010E6200038C
:010E63000688
:010E64000B82
:010E6500107C
:010E66001477
:010E67001D6D
:010E68002762
:010E69002C5C
:010E6A000186
:010E6B000383
:010E6C000580
:010E6D00087C
:010E6E000A79
:010E6F000F73
:010E7000156C
:010E71001E62
:010E7200225D
:010E7300017D
:010E7400037A
:010E75000775
:010E76000D6E
:010E77001367
:010E78001C5D
:010E79002256
:010E7A002D4A
:010E7B003343
:010E7C000174
:010E7D000371
:010E7E00066D
:010E7F000A68
:010E80000D64
:010E8100115F
:010E82001A55
:010E8300244A
:010E84002944
:010E8500016B
:010E86000368
:010E87000565
:010E88000762
:010E89000C5C
:010E8A001255
:010E8B00194D
:010E8C002342
:010E8D00283C
:010E8E000162
:010E8F00035F
:010E9000075A
:010E91000C54
:010E9200104F
:010E93001945
:010E94001F3E
:010E95002A32
:010E9600302B
:010E97000159
:010E98000356
:010E99000652
:010E9A00094E
:010E9B000F47
:010E9C001441
:010E9D001E36
:010E9E00292A
:010E9F002F23
:010EA0000150
:010EA100034D
:010EA200054A
:010EA3000A44
:010EA4000E3F
:010EA5001537
:010EA6001D2E
:010EA7002822
:010EA8002D1C
:010EA9000147
:010EAA000344
:010EAB00073F
:010EAC000B3A
:010EAD001232
:010EAE00162D
:010EAF001C26
:010EB000271A
:010EB1002C14
:010EB200013E
:010EB300033B
:010EB4000637
:010EB5000834
:010EB6000C2F
:010EB7001129
:010EB8001425
:010EB9001E1A
:010EBA002215
:010EBB000135
:010EBC000332
:010EBD00052F
:010EBE00092A
:010EBF001022
:010EC0001819
:010EC100210F
:010EC2002D02
:010EC30033FB
:010EC400012C
:010EC5000329
:010EC6000724
:010EC7000A20
:010EC8000F1A
:010EC9001315
:010ECA00190E
:010ECB002402
:010ECC0029FC
:010ECD000123
:010ECE000320
:010ECF00061C
:010ED0000B16
:010ED1000E12
:010ED200140B
:010ED3001806
:010ED40023FA
:010ED50028F4
:010ED600011A
:010ED7000317
:010ED8000514
:010ED9000810
:010EDA000D0A
:010EDB001501
:010EDC001EF7
:010EDD002AEA
:010EDE0030E3
:010EDF000111
:010EE000030E
:010EE1000709
:010EE2000D02
:010EE30011FD
:010EE40016F7
:010EE5001DEF
:010EE60029E2
:010EE7002FDB
:010EE8000108
:010EE9000305
:010EEA000601
:010EEB000AFC
:010EEC0010F5
:010EED0017ED
:010EEE001CE7
:010EEF0020E2
:010EF00024DD
:010EF10001FF
:010EF20003FC
:010EF30005F9
:010EF40007F6
:010EF5000AF2
:010EF6000CEF
:010EF70014E6
:010EF80017E2
:010EF9001ADE
:010EFA0001F6
:010EFB0003F3
:010EFC0007EE
:010EFD000CE8
:010EFE0013E0
:010EFF0019D9
:010F000021CF
:010F010026C9
:010F02002BC3
:010F030001EC
:010F040003E9
:010F050006E5
:010F060009E1
:010F07000DDC
:010F080014D4
:010F090019CE
:010F0A001DC9
:010F0B0021C4
:010F0C0001E3
:010F0D0003E0
:010F0E0005DD
:010F0F000AD7
:010F100011CF
:010F110015CA
:010F12001FBF
:010F130024B9
:010F140029B3
:010F150001DA
:010F160003D7
:010F170007D2
:010F18000BCD
:010F190010C7
:010F1A0016C0
:010F1B001EB7
:010F1C0023B1
:010F1D0028AB
:010F1E0001D1
:010F1F0003CE
:010F200006CA
:010F210008C7
:010F22000AC4
:010F230011BC
:010F240016B6
:010F25001AB1
:010F26001EAC
:010F270001C8
:010F280003C5
:010F290005C2
:010F2A0009BD
:010F2B000EB7
:010F2C0012B2
:010F2D0015AE
:010F2E0019A9
:010F2F001DA4
:010F300001BF
:010F310003BC
:010F320007B7
:010F33000AB3
:010F34000DAF
:010F350013A8
:010F36001B9F
:010F37002099
:010F38002494
:010F390001B6
:010F3A0003B3
:010F3B0006AF
:010F3C000BA9
:010F3D0011A2
:010F3E001A98
:010F3F002190
:010F40002789
:010F41002C83
:010F420001AD
:010F430003AA
:010F440005A7
:010F450008A3
:010F46000B9F
:010F47000F9A
:010F48001296
:010F49001691
:010F4A00198D
:010F4B0001A4
:010F4C0003A1
:010F4D00079C
:010F4E000D95
:010F4F00148D
:010F50001C84
:010F51002679
:010F52002D71
:010F5300336A
:010F5400019B
:010F55000398
:010F56000694
:010F57000A8F
:010F58000E8A
:010F59001186
:010F5A00177F
:010F5B001C79
:010F5C002074
:010F5D000192
:010F5E00038F
:010F5F00058C
:010F60000789
:010F61000D82
:010F6200127C
:010F63001677
:010F64001B71
:010F65001F6C
:010F66000189
:010F67000386
:010F68000781
:010F69000C7B
:010F6A001175
:010F6B00196C
:010F6C002361
:010F6D002A59
:010F6E003052
:010F6F000180
:010F7000037D
:010F71000679
:010F72000975
:010F7300106D
:010F74001468
:010F75001B60
:010F76002159
:010F77002653
:010F78000177
:010F79000374
:010F7A000571
:010F7B000A6B
:010F7C000F65
:010F7D00155E
:010F7E001A58
:010F7F002051
:010F8000244C
:010F8100016E
:010F8200036B
:010F83000766
:010F84000B61
:010F85000E5D
:010F86001654
:010F87002049
:010F88002741
:010F89002C3B
:010F8A000165
:010F8B000362
:010F8C00065E
:010F8D00085B
:010F8E000D55
:010F8F001150
:010F90001848
:010F91001E41
:010F9200223C
:010F9300015C
:010F94000359
:010F95000556
:010F96000951
:010F97000C4D
:010F98001246
:010F99001740
:010F9A001D39
:010F9B002134
:010F9C000153
:010F9D000350
:010F9E00074B
:010F9F000A47
:010FA0001040
:010FA1001936
:010FA200242A
:010FA3002C21
:010FA400321A
:010FA500014A
:010FA6000347
:010FA7000643
:010FA8000B3D
:010FA9000F38
:010FAA001432
:010FAB001C29
:010FAC002321
:010FAD00281B
:010FAE000141
:010FAF00033E
:010FB000053B
:010FB1000837
:010FB2000E30
:010FB3001528
:010FB4001B21
:010FB5002219
:010FB6002713
:010FB7000138
:010FB8000335
:010FB9000730
:010FBA000D29
:010FBB001223
:010FBC00161E
:010FBD001A19
:010FBE002111
:010FBF00260B
:010FC000012F
:010FC100032C
:010FC2000628
:010FC3000A23
:010FC400111B
:010FC5001714
:010FC600200A
:010FC7002801
:010FC8002DFB
:010FC9000126
:010FCA000323
:010FCB000520
:010FCC00071D
:010FCD000B18
:010FCE001210
:010FCF001809
:010FD0001F01
:010FD10023FC
:010FD200011D
:010FD300031A
:010FD4000715
:010FD5000C0F
:010FD6000F0B
:010FD7001306
:010FD8001701
:010FD9001EF9
:010FDA0022F4
:010FDB000114
:010FDC000311
:010FDD00060D
:010FDE000909
:010FDF000E03
:010FE00014FC
:010FE1001DF2
:010FE20025E9
:010FE3002AE3
:010FE400010B
:010FE5000308
:010FE6000505
:010FE7000AFF
:010FE8000DFB
:010FE90015F2
:010FEA001CEA
:010FEB0024E1
:010FEC0029DB
:010FED000102
:010FEE0003FF
:010FEF0007FA
:010FF0000BF5
:010FF10011EE
:010FF20016E8
:010FF3001BE2
:010FF40023D9
:010FF50028D3
:010FF60001F9
:010FF70003F6
:010FF80006F2
:010FF90008EF
:010FFA000BEB
:010FFB0011E4
:010FFC001ADA
:010FFD0022D1
:010FFE0027CB
:010FFF0001F0
:0110000003EC
:0110010005E9
:0110020009E4
:011003000FDD
:0110040012D9
:0110050019D1
:0110060021C8
:0110070026C2
:0110080001E6
:0110090003E3
:01100A0007DE
:01100B000ADA
:01100C000ED5
:01100D0013CF
:01100E0018C9
:01100F0020C0
:0110100024BB
:0110110001DD
:0110120003DA
:0110130006D6
:011014000BD0
:0110150012C8
:011016001ABF
:0110170025B3
:011018002FA8
:0110190035A1
:01101A0001D4
:01101B0003D1
:01101C0005CE
:01101D0008CA
:01101E000CC5
:01101F000FC1
:0110200016B9
:011021001EB0
:0110220022AB
:0110230001CB
:0110240003C8
:0110250007C3
:011026000DBC
:0110270015B3
:011028001CAB
:0110290023A3
:01102A002D98
:01102B003391
:01102C0001C2
:01102D0003BF
:01102E0006BB
:01102F000AB6
:011030000FB0
:0110310017A7
:011032001BA2
:011033002498
:011034002992
:0110350001B9
:0110360003B6
:0110370005B3
:0110380007B0
:0110390009AD
:01103A000CA9
:01103B0013A1
:01103C001B98
:01103D001F93
:01103E0001B0
:01103F0003AD
:0110400007A8
:011041000CA2
:01104200129B
:011043001993
:01104400208B
:011045002A80
:011046003079
:0110470001A7
:0110480003A4
:0110490006A0
:01104A00099C
:01104B000C98
:01104C00148F
:01104D00188A
:01104E002180
:01104F00267A
:01105000019E
:01105100039B
:011052000598
:011053000A92
:01105400108B
:011055001585
:011056001E7B
:011057002870
:011058002D6A
:011059000195
:01105A000392
:01105B00078D
:01105C000B88
:01105D000F83
:01105E00167B
:01105F001D73
:011060002768
:011061002C62
:01106200018C
:011063000389
:011064000685
:011065000882
:011066000E7B
:011067001177
:011068001572
:011069001E68
:01106A002263
:01106B000183
:01106C000380
:01106D00057D
:01106E000978
:01106F000D73
:01107000126D
:011071001B63
:011072002558
:011073002A52
:01107400017A
:011075000377
:011076000772
:011077000A6E
:011078001166
:01107900195D
:01107A002154
:01107B002C48
:01107C003241
:01107D000171
:01107E00036E
:01107F00066A
:011080000B64
:01108100105E
:011082001459
:011083001953
:011084002348
:011085002842
:011086000168
:011087000365
:011088000562
:01108900085E
:01108A000A5B
:01108B000F55
:01108C00184B
:01108D002240
:01108E00273A
:01108F00015F
:01109000035C
:011091000757
:011092000D50
:011093001349
:011094001C3F
:011095002535
:011096003128
:011097003820
:011098000156
:011099000353
:01109A00064F
:01109B000A4A
:01109C000D46
:01109D001141
:01109E00163B
:01109F002030
:0110A000242B
:0110A100014D
:0110A200034A
:0110A3000547
:0110A4000744
:0110A5000C3E
:0110A6001237
:0110A7001533
:0110A8001F28
:0110A9002323
:0110AA000144
:0110AB000341
:0110AC00073C
:0110AD000C36
:0110AE001031
:0110AF001927
:0110B000221D
:0110B1002E10
:0110B2003409
:0110B300013B
:0110B4000338
:0110B5000634
:0110B6000930
:0110B7000F29
:0110B8001423
:0110B9001A1C
:0110BA002510
:0110BB002A0A
:0110BC000132
:0110BD00032F
:0110BE00052C
:0110BF000A26
:0110C0000E21
:0110C1001519
:0110C2001914
:0110C3002408
:0110C4002902
:0110C5000129
:0110C6000326
:0110C7000721
:0110C8000B1C
:0110C9001214
:0110CA00160F
:0110CB001F05
:0110CC002BF8
:0110CD0031F1
:0110CE000120
:0110CF00031D
:0110D0000619
:0110D1000816
:0110D2000C11
:0110D300110B
:0110D4001704
:0110D50022F8
:0110D60027F2
:0110D7000117
:0110D8000314
:0110D9000511
:0110DA00090C
:0110DB001004
:0110DC0018FB
:0110DD001DF5
:0110DE0029E8
:0110DF002FE1
:0110E000010E
:0110E100030B
:0110E2000508
:0110E3000903
:0110E4000FFC
:0110E50017F3
:0110E6001CED
:0110E70026E2
:0110E8002BDC
:0110E9000105
:0110EA000302
:0110EB0007FD
:0110EC000AF9
:0110ED000EF4
:0110EE0012EF
:0110EF001BE5
:0110F00025DA
:0110F1002AD4
:0110F20001FC
:0110F30003F9
:0110F40006F5
:0110F5000BEF
:0110F60012E7
:0110F70019DF
:0110F80021D6
:0110F9002CCA
:0110FA0032C3
:0110FB0001F3
:0110FC0003F0
:0110FD0005ED
:0110FE0008E9
:0110FF000CE4
:0111000014DA
:0111010019D4
:0111020023C9
:0111030028C3
:0111040001E9
:0111050003E6
:0111060007E1
:011107000DDA
:0111080015D1
:011109001BCA
:01110A0026BE
:01110B0032B1
:01110C0039A9
:01110D0001E0
:01110E0003DD
:01110F0006D9
:011110000AD4
:011111000FCE
:0111120016C6
:011113001EBD
:0111140029B1
:011115002FAA
:0111160001D7
:0111170003D4
:0111180005D1
:0111190007CE
:01111A0009CB
:01111B000BC8
:01111C000FC3
:01111D0018B9
:01111E001BB5
:01111F0001CE
:0111200003CB
:0111210007C6
:011122000CC0
:0111230012B9
:0111240018B2
:011125001CAD
:0111260027A1
:011127002C9B
:0111280001C5
:0111290003C2
:01112A0006BE
:01112B0009BA
:01112C000CB6
:01112D0013AE
:01112E001BA5
:01112F002699
:011130002B93
:0111310001BC
:0111320003B9
:0111330005B6
:011134000AB0
:0111350010A9
:0111360014A4
:011137001A9D
:011138002591
:011139002A8B
:01113A0001B3
:01113B0003B0
:01113C0007AB
:01113D000BA6
:01113E000FA1
:01113F00159A
:011140001995
:011141002489
:011142002983
:0111430001AA
:0111440003A7
:0111450006A3
:0111460008A0
:011147000E99
:011148001690
:011149001F86
:01114A002B79
:01114B003172
:01114C0001A1
:01114D00039E
:01114E00059B
:01114F000996
:011150000D91
:01115100118C
:011152001785
:011153002279
:011154002773
:011155000198
:011156000395
:011157000790
:011158000A8C
:011159001184
:01115A00187C
:01115B001D76
:01115C002969
:01115D002F62
:01115E00018F
:01115F00038C
:011160000688
:011161000B82
:01116200107C
:011163001972
:011164002367
:011165002861
:011166002D5B
:011167000186
:011168000383
:011169000580
:01116A00087C
:01116B000A79
:01116C000E74
:01116D00146D
:01116E001769
:01116F001A65
:01117000017D
:01117100037A
:011172000775
:011173000D6E
:011174001367
:011175001B5E
:011176002157
:011177002651
:011178002B4B
:011179000174
:01117A000371
:01117B00066D
:01117C000A68
:01117D000D64
:01117E001060
:01117F001956
:011180001D51
:01118100214C
:01118200016B
:011183000368
:011184000565
:011185000762
:011186000C5C
:011187001156
:01118800184E
:011189001C49
:01118A002044
:01118B000162
:01118C00035F
:01118D00075A
:01118E000C54
:01118F00104F
:011190001846
:011191001E3F
:011192002339
:011193002833
:011194000159
:011195000356
:011196000652
:01119700094E
:011198000F47
:011199001342
:01119A001D37
:01119B002231
:01119C00272B
:01119D000150
:01119E00034D
:01119F00054A
:0111A0000A44
:0111A1000E3F
:0111A2001438
:0111A3001C2F
:0111A4002129
:0111A5002623
:0111A6000147
:0111A7000344
:0111A800073F
:0111A9000B3A
:0111AA001232
:0111AB001B28
:0111AC002220
:0111AD002819
:0111AE002D13
:0111AF00013E
:0111B000033B
:0111B1000637
:0111B2000834
:0111B3000C2F
:0111B400102A
:0111B5001326
:0111B6001721
:0111B7001A1D
:0111B8000135
:0111B9000332
:0111BA00052F
:0111BB00092A
:0111BC001022
:0111BD00171A
:0111BE002010
:0111BF002609
:0111C0002B03
:0111C100012C
:0111C2000329
:0111C3000724
:0111C4000A20
:0111C5000F1A
:0111C6001216
:0111C700180F
:0111C8001D09
:0111C9002104
:0111CA000123
:0111CB000320
:0111CC00061C
:0111CD000B16
:0111CE000E12
:0111CF00130C
:0111D0001707
:0111D1001C01
:0111D20020FC
:0111D300011A
:0111D4000317
:0111D5000514
:0111D6000810
:0111D7000D0A
:0111D8001402
:0111D9001DF8
:0111DA0023F1
