:0400000000000001FB
:0400010000000002F9
:0400020000000003F7
:0400030000000004F5
:0400040000000005F3
:0400050000000006F1
:0400060000000007EF
:0400070000000001F4
:0400080000000003F1
:0400090000000007EC
:04000A000000000BE7
:04000B000000000EE3
:04000C0000000013DD
:04000D0000000017D8
:04000E0000000001ED
:04000F0000000002EB
:0400100000000005E7
:040011000000000AE1
:040012000000000DDD
:0400130000000014D5
:0400140000000018D0
:0400150000000001E6
:0400160000000003E3
:0400170000000006DF
:0400180000000009DB
:040019000000000CD7
:04001A000000000FD3
:04001B0000000012CF
:04001C0000000001DF
:04001D0000000002DD
:04001E0000000004DA
:04001F0000000008D5
:040020000000000BD1
:0400210000000010CB
:0400220000000013C7
:0400230000000001D8
:0400240000000003D5
:0400250000000005D2
:0400260000000007CF
:040027000000000ACB
:0400280000000011C3
:0400290000000014BF
:04002A0000000001D1
:04002B0000000002CF
:04002C0000000003CD
:04002D0000000006C9
:04002E0000000009C5
:04002F000000000CC1
:040030000000000EBE
:0400310000000001CA
:0400320000000003C7
:0400330000000007C2
:040034000000000DBB
:0400350000000012B5
:0400360000000019AD
:040037000000001EA7
:0400380000000001C3
:0400390000000002C1
:04003A0000000005BD
:04003B0000000008B9
:04003C000000000CB4
:04003D0000000014AB
:04003E0000000018A6
:04003F0000000001BC
:0400400000000003B9
:0400410000000006B5
:040042000000000BAF
:0400430000000010A9
:0400440000000015A3
:04004500000000199E
:0400460000000001B5
:0400470000000002B3
:0400480000000004B0
:0400490000000006AD
:04004A000000000AA8
:04004B0000000010A1
:04004C00000000139D
:04004D0000000001AE
:04004E0000000003AB
:04004F0000000005A8
:0400500000000009A3
:040051000000000E9D
:040052000000001199
:040053000000001495
:0400540000000001A7
:0400550000000002A5
:0400560000000003A3
:0400570000000004A1
:04005800000000089C
:040059000000000C97
:04005A000000000E94
:04005B0000000001A0
:04005C00000000039D
:04005D000000000798
:04005E000000000B93
:04005F00000000118C
:040060000000001983
:040061000000001E7D
:040062000000000199
:040063000000000297
:040064000000000593
:040065000000000A8D
:040066000000001086
:040067000000001481
:04006800000000187C
:040069000000000192
:04006A00000000038F
:04006B00000000068B
:04006C000000000987
:04006D000000000F80
:04006E000000001579
:04006F000000001974
:04007000000000018B
:040071000000000289
:040072000000000486
:040073000000000881
:040074000000000E7A
:040075000000001671
:040076000000001A6C
:040077000000000184
:040078000000000381
:04007900000000057E
:04007A00000000077B
:04007B000000000D74
:04007C00000000116F
:04007D00000000146B
:04007E00000000017D
:04007F00000000027B
:040080000000000379
:040081000000000675
:040082000000000C6E
:040083000000001267
:040084000000001563
:040085000000000176
:040086000000000373
:04008700000000076E
:040088000000000D67
:04008900000000155E
:04008A000000001F53
:04008B00000000254C
:04008C00000000016F
:04008D00000000026D
:04008E000000000569
:04008F000000000865
:040090000000000A62
:040091000000000E5D
:040092000000001159
:040093000000000168
:040094000000000365
:040095000000000661
:040096000000000B5B
:040097000000000E57
:04009800000000154F
:04009900000000194A
:04009A000000000161
:04009B00000000025F
:04009C00000000045C
:04009D000000000659
:04009E000000000856
:04009F000000000A53
:0400A0000000000C50
:0400A100000000015A
:0400A2000000000357
:0400A3000000000554
:0400A400000000094F
:0400A5000000000C4B
:0400A6000000001145
:0400A7000000001441
:0400A8000000000153
:0400A9000000000251
:0400AA00000000034F
:0400AB00000000044D
:0400AC00000000064A
:0400AD000000000C43
:0400AE000000000E40
:0400AF00000000014C
:0400B0000000000349
:0400B1000000000744
:0400B2000000000B3F
:0400B3000000000F3A
:0400B4000000001335
:0400B5000000001730
:0400B6000000000145
:0400B7000000000243
:0400B800000000053F
:0400B9000000000A39
:0400BA000000000E34
:0400BB00000000142D
:0400BC000000001828
:0400BD00000000013E
:0400BE00000000033B
:0400BF000000000637
:0400C0000000000933
:0400C1000000000D2E
:0400C2000000001525
:0400C3000000001920
:0400C4000000000137
:0400C5000000000235
:0400C6000000000432
:0400C700000000082D
:0400C8000000000C28
:0400C9000000001023
:0400CA00000000131F
:0400CB000000000130
:0400CC00000000032D
:0400CD00000000052A
:0400CE000000000727
:0400CF000000000B22
:0400D000000000111B
:0400D1000000001417
:0400D2000000000129
:0400D3000000000227
:0400D4000000000325
:0400D5000000000621
:0400D6000000000A1C
:0400D7000000000C19
:0400D8000000000E16
:0400D9000000000122
:0400DA00000000031F
:0400DB00000000071A
:0400DC000000000D13
:0400DD00000000130C
:0400DE000000001905
:0400DF000000001EFF
:0400E000000000011B
:0400E1000000000219
:0400E2000000000515
:0400E3000000000811
:0400E4000000000D0B
:0400E5000000001403
:0400E60000000018FE
:0400E7000000000114
:0400E8000000000311
:0400E900000000060D
:0400EA000000000B07
:0400EB000000001100
:0400EC0000000015FB
:0400ED0000000019F6
:0400EE00000000010D
:0400EF00000000020B
:0400F0000000000408
:0400F1000000000605
:0400F2000000000BFF
:0400F30000000010F9
:0400F40000000013F5
:0400F5000000000106
:0400F6000000000303
:0400F7000000000500
:0400F80000000009FB
:0400F9000000000FF4
:0400FA0000000017EB
:0400FB000000001BE6
:0400FC0000000001FF
:0400FD0000000002FD
:0400FE0000000003FB
:0400FF0000000004F9
:0401000000000009F2
:040101000000000CEE
:040102000000000EEB
:0401030000000001F7
:0401040000000003F4
:0401050000000007EF
:040106000000000BEA
:0401070000000012E2
:0401080000000019DA
:040109000000001ED4
:04010A0000000001F0
:04010B0000000002EE
:04010C0000000005EA
:04010D000000000AE4
:04010E0000000011DC
:04010F000000001AD2
:040110000000001FCC
:0401110000000001E9
:0401120000000003E6
:0401130000000006E2
:0401140000000009DE
:0401150000000010D6
:0401160000000015D0
:0401170000000019CB
:0401180000000001E2
:0401190000000002E0
:04011A0000000004DD
:04011B0000000008D8
:04011C000000000AD5
:04011D0000000010CE
:04011E0000000013CA
:04011F0000000001DB
:0401200000000003D8
:0401210000000005D5
:0401220000000007D2
:0401230000000009CF
:040124000000000BCC
:040125000000000DC9
:0401260000000001D4
:0401270000000002D2
:0401280000000003D0
:0401290000000006CC
:04012A0000000008C9
:04012B000000000CC4
:04012C000000000EC1
:04012D0000000001CD
:04012E0000000003CA
:04012F0000000007C5
:040130000000000DBE
:0401310000000011B9
:0401320000000019B0
:040133000000001EAA
:0401340000000001C6
:0401350000000002C4
:0401360000000005C0
:0401370000000008BC
:040138000000000BB8
:040139000000000EB4
:04013A0000000011B0
:04013B0000000001BF
:04013C0000000003BC
:04013D0000000006B8
:04013E000000000BB2
:04013F000000000FAD
:0401400000000015A6
:0401410000000019A1
:0401420000000001B8
:0401430000000002B6
:0401440000000004B3
:0401450000000006B0
:0401460000000009AC
:0401470000000010A4
:0401480000000013A0
:0401490000000001B1
:04014A0000000003AE
:04014B0000000005AB
:04014C0000000009A6
:04014D000000000DA1
:04014E00000000119C
:04014F000000001498
:0401500000000001AA
:0401510000000002A8
:0401520000000003A6
:0401530000000004A4
:0401540000000007A0
:040155000000000C9A
:040156000000000E97
:0401570000000001A3
:0401580000000003A0
:04015900000000079B
:04015A000000000B96
:04015B000000001090
:04015C000000001986
:04015D000000001E80
:04015E00000000019C
:04015F00000000029A
:040160000000000596
:040161000000000A90
:040162000000000F8A
:040163000000001484
:04016400000000187F
:040165000000000195
:040166000000000392
:04016700000000068E
:04016800000000098A
:040169000000000E84
:04016A00000000157C
:04016B000000001977
:04016C00000000018E
:04016D00000000028C
:04016E000000000489
:04016F000000000884
:040170000000000D7E
:04017100000000107A
:040172000000001376
:040173000000000187
:040174000000000384
:040175000000000581
:04017600000000077E
:040177000000000C78
:040178000000001172
:04017900000000146E
:04017A000000000180
:04017B00000000027E
:04017C00000000037C
:04017D000000000678
:04017E000000000B72
:04017F00000000126A
:040180000000001566
:040181000000000179
:040182000000000376
:040183000000000771
:040184000000000D6A
:040185000000001462
:04018600000000195C
:040187000000001E56
:040188000000000172
:040189000000000270
:04018A00000000056C
:04018B000000000868
:04018C000000000E61
:04018D00000000145A
:04018E000000001855
:04018F00000000016B
:040190000000000368
:040191000000000664
:040192000000000B5E
:040193000000001256
:040194000000001B4C
:040195000000002046
:040196000000000164
:040197000000000262
:04019800000000045F
:04019900000000065C
:04019A000000000C55
:04019B000000001050
:04019C00000000134C
:04019D00000000015D
:04019E00000000035A
:04019F000000000557
:0401A0000000000952
:0401A100000000104A
:0401A2000000001742
:0401A3000000001B3D
:0401A4000000000156
:0401A5000000000353
:0401A600000000074E
:0401A7000000000C48
:0401A8000000000F44
:0401A900000000143E
:0401AA000000001839
:0401AB00000000014F
:0401AC00000000024D
:0401AD000000000549
:0401AE000000000746
:0401AF000000000943
:0401B0000000000F3C
:0401B1000000001238
:0401B2000000000148
:0401B3000000000345
:0401B4000000000641
:0401B5000000000A3C
:0401B6000000000D38
:0401B7000000001034
:0401B8000000001330
:0401B9000000000141
:0401BA00000000023F
:0401BB00000000043C
:0401BC000000000936
:0401BD000000000C32
:0401BE00000000112C
:0401BF000000001428
:0401C000000000013A
:0401C1000000000337
:0401C2000000000534
:0401C3000000000830
:0401C4000000000B2C
:0401C5000000001224
:0401C6000000001520
:0401C7000000000133
:0401C8000000000231
:0401C900000000032F
:0401CA00000000072A
:0401CB000000000A26
:0401CC000000000D22
:0401CD00000000101E
:0401CE00000000012C
:0401CF000000000329
:0401D0000000000724
:0401D1000000000A20
:0401D2000000000E1B
:0401D3000000001414
:0401D400000000180F
:0401D5000000000125
:0401D6000000000223
:0401D700000000051F
:0401D800000000091A
:0401D9000000000D15
:0401DA00000000150C
:0401DB000000001907
:0401DC00000000011E
:0401DD00000000031B
:0401DE000000000617
:0401DF000000000814
:0401E0000000000C0F
:0401E100000000100A
:0401E2000000001306
:0401E3000000000117
:0401E4000000000215
:0401E5000000000412
:0401E600000000070E
:0401E7000000000B09
:0401E8000000001102
:0401E90000000014FE
:0401EA000000000110
:0401EB00000000030D
:0401EC00000000050A
:0401ED000000000A04
:0401EE000000000FFE
:0401EF0000000012FA
:0401F00000000015F6
:0401F1000000000109
:0401F2000000000207
:0401F3000000000305
:0401F4000000000502
:0401F50000000009FD
:0401F6000000000DF8
:0401F70000000010F4
:0401F8000000000102
:0401F90000000003FF
:0401FA0000000007FA
:0401FB000000000CF4
:0401FC0000000012ED
:0401FD000000001AE4
:0401FE000000001FDE
:0401FF0000000001FB
:0402000000000002F8
:0402010000000005F4
:0402020000000007F1
:040203000000000CEB
:040204000000000FE7
:0402050000000012E3
:0402060000000001F3
:0402070000000003F0
:0402080000000006EC
:040209000000000AE7
:04020A0000000010E0
:04020B0000000016D9
:04020C000000001AD4
:04020D0000000001EC
:04020E0000000002EA
:04020F0000000004E7
:0402100000000009E1
:040211000000000FDA
:0402120000000017D1
:040213000000001BCC
:0402140000000001E5
:0402150000000003E2
:0402160000000005DF
:0402170000000008DB
:040218000000000ED4
:0402190000000012CF
:04021A0000000015CB
:04021B0000000001DE
:04021C0000000002DC
:04021D0000000003DA
:04021E0000000007D5
:04021F000000000DCE
:0402200000000013C7
:0402210000000017C2
:0402220000000001D7
:0402230000000003D4
:0402240000000007CF
:040225000000000ACB
:0402260000000011C3
:040227000000001AB9
:040228000000001FB3
:0402290000000001D0
:04022A0000000002CE
:04022B0000000005CA
:04022C0000000009C5
:04022D0000000010BD
:04022E0000000015B7
:04022F0000000019B2
:0402300000000001C9
:0402310000000003C6
:0402320000000006C2
:0402330000000008BF
:040234000000000ABC
:0402350000000010B5
:0402360000000013B1
:0402370000000001C2
:0402380000000002C0
:0402390000000004BD
:04023A0000000007B9
:04023B0000000009B6
:04023C000000000BB3
:04023D000000000DB0
:04023E0000000001BB
:04023F0000000003B8
:0402400000000005B5
:040241000000000AAF
:040242000000000DAB
:0402430000000012A5
:0402440000000015A1
:0402450000000001B4
:0402460000000002B2
:0402470000000003B0
:0402480000000005AD
:0402490000000007AA
:04024A000000000DA3
:04024B00000000109F
:04024C0000000001AD
:04024D0000000003AA
:04024E0000000007A5
:04024F000000000C9F
:04025000000000109A
:040251000000001495
:040252000000001890
:0402530000000001A6
:0402540000000002A4
:0402550000000005A0
:04025600000000079D
:040257000000000A99
:040258000000000F93
:04025900000000128F
:04025A00000000019F
:04025B00000000039C
:04025C000000000698
:04025D000000000A93
:04025E000000000E8E
:04025F000000001685
:040260000000001A80
:040261000000000198
:040262000000000296
:040263000000000493
:04026400000000098D
:040265000000000D88
:040266000000001183
:04026700000000147F
:040268000000000191
:04026900000000038E
:04026A00000000058B
:04026B000000000887
:04026C000000000C82
:04026D00000000127B
:04026E000000001577
:04026F00000000018A
:040270000000000288
:040271000000000386
:040272000000000781
:040273000000000B7C
:040274000000001373
:04027500000000176E
:040276000000000183
:040277000000000380
:04027800000000077B
:040279000000000A77
:04027A000000000F71
:04027B00000000146B
:04027C000000001866
:04027D00000000017C
:04027E00000000027A
:04027F000000000576
:040280000000000971
:040281000000000E6B
:040282000000001563
:04028300000000195E
:040284000000000175
:040285000000000372
:04028600000000066E
:04028700000000086B
:040288000000000D65
:040289000000001061
:04028A00000000135D
:04028B00000000016E
:04028C00000000026C
:04028D000000000469
:04028E000000000765
:04028F000000000C5F
:040290000000001159
:040291000000001455
:040292000000000167
:040293000000000364
:040294000000000561
:040295000000000A5B
:040296000000001054
:04029700000000184B
:040298000000001C46
:040299000000000160
:04029A00000000025E
:04029B00000000035C
:04029C000000000559
:04029D000000000A53
:04029E000000000D4F
:04029F00000000104B
:0402A0000000000159
:0402A1000000000356
:0402A2000000000751
:0402A3000000000C4B
:0402A4000000001343
:0402A5000000001A3B
:0402A6000000001F35
:0402A7000000000152
:0402A8000000000250
:0402A900000000054C
:0402AA000000000749
:0402AB000000000D42
:0402AC000000001539
:0402AD000000001934
:0402AE00000000014B
:0402AF000000000348
:0402B0000000000644
:0402B1000000000A3F
:0402B2000000001137
:0402B3000000001631
:0402B4000000001A2C
:0402B5000000000144
:0402B6000000000242
:0402B700000000043F
:0402B8000000000939
:0402B9000000001031
:0402BA000000001729
:0402BB000000001B24
:0402BC00000000013D
:0402BD00000000033A
:0402BE000000000537
:0402BF000000000833
:0402C0000000000A30
:0402C1000000000C2D
:0402C2000000000E2A
:0402C3000000000136
:0402C4000000000234
:0402C5000000000332
:0402C600000000072D
:0402C700000000092A
:0402C8000000000D25
:0402C9000000001021
:0402CA00000000012F
:0402CB00000000032C
:0402CC000000000727
:0402CD000000000A23
:0402CE000000000D1F
:0402CF000000001417
:0402D0000000001812
:0402D1000000000128
:0402D2000000000226
:0402D3000000000522
:0402D400000000091D
:0402D5000000000C19
:0402D6000000000F15
:0402D7000000001211
:0402D8000000000121
:0402D900000000031E
:0402DA00000000061A
:0402DB000000000817
:0402DC000000000B13
:0402DD00000000100D
:0402DE000000001309
:0402DF00000000011A
:0402E0000000000218
:0402E1000000000415
:0402E2000000000711
:0402E3000000000A0D
:0402E4000000001105
:0402E5000000001401
:0402E6000000000113
:0402E7000000000310
:0402E800000000050D
:0402E9000000000A07
:0402EA000000000E02
:0402EB0000000012FD
:0402EC0000000015F9
:0402ED00000000010C
:0402EE00000000020A
:0402EF000000000308
:0402F0000000000505
:0402F1000000000801
:0402F2000000000DFB
:0402F30000000010F7
:0402F4000000000105
:0402F5000000000302
:0402F60000000007FD
:0402F7000000000CF7
:0402F80000000011F1
:0402F9000000001AE7
:0402FA000000001FE1
:0402FB0000000001FE
:0402FC0000000002FC
:0402FD0000000005F8
:0402FE0000000007F5
:0402FF000000000BF0
:040300000000000FEA
:0403010000000012E6
:0403020000000001F6
:0403030000000003F3
:0403040000000006EF
:040305000000000AEA
:040306000000000FE4
:0403070000000016DC
:040308000000001AD7
:0403090000000001EF
:04030A0000000002ED
:04030B0000000004EA
:04030C0000000009E4
:04030D000000000EDE
:04030E0000000011DA
:04030F0000000014D6
:0403100000000001E8
:0403110000000003E5
:0403120000000005E2
:0403130000000008DE
:040314000000000DD8
:0403150000000012D2
:0403160000000015CE
:0403170000000001E1
:0403180000000002DF
:0403190000000003DD
:04031A0000000007D8
:04031B000000000CD2
:04031C0000000013CA
:04031D0000000017C5
:04031E0000000001DA
:04031F0000000003D7
:0403200000000007D2
:040321000000000ACE
:0403220000000010C7
:0403230000000014C2
:0403240000000018BD
:0403250000000001D3
:0403260000000002D1
:0403270000000005CD
:0403280000000009C8
:040329000000000FC1
:04032A0000000015BA
:04032B0000000019B5
:04032C0000000001CC
:04032D0000000003C9
:04032E0000000006C5
:04032F0000000008C2
:040330000000000EBB
:0403310000000016B2
:040332000000001AAD
:0403330000000001C5
:0403340000000002C3
:0403350000000004C0
:0403360000000007BC
:040337000000000DB5
:0403380000000011B0
:0403390000000014AC
:04033A0000000001BE
:04033B0000000003BB
:04033C0000000005B8
:04033D000000000AB2
:04033E0000000011AA
:04033F0000000018A2
:040340000000001C9D
:0403410000000001B7
:0403420000000002B5
:0403430000000003B3
:0403440000000005B0
:040345000000000BA9
:0403460000000013A0
:04034700000000179B
:0403480000000001B0
:0403490000000002AE
:04034A0000000005AA
:04034B0000000008A6
:04034C000000000AA3
:04034D00000000109C
:04034E000000001398
:04034F0000000001A9
:0403500000000003A6
:0403510000000006A2
:040352000000000B9C
:040353000000000E98
:040354000000001194
:040355000000001490
:0403560000000001A2
:0403570000000002A0
:04035800000000049D
:04035900000000069A
:04035A000000000897
:04035B000000000C92
:04035C000000000E8F
:04035D00000000019B
:04035E000000000398
:04035F000000000595
:040360000000000990
:040361000000000C8C
:040362000000001384
:04036300000000177F
:040364000000000194
:040365000000000292
:040366000000000390
:04036700000000048E
:04036800000000068B
:040369000000000888
:04036A000000000A85
:04036B00000000018D
:04036C00000000038A
:04036D000000000785
:04036E000000000B80
:04036F000000000F7B
:040370000000001574
:04037100000000196F
:040372000000000186
:040373000000000284
:040374000000000580
:040375000000000A7A
:040376000000000E75
:04037700000000166C
:040378000000001A67
:04037900000000017F
:04037A00000000037C
:04037B000000000678
:04037C000000000974
:04037D000000000D6F
:04037E00000000116A
:04037F000000001466
:040380000000000178
:040381000000000276
:040382000000000473
:04038300000000086E
:040384000000000C69
:040385000000001262
:04038600000000155E
:040387000000000171
:04038800000000036E
:04038900000000056B
:04038A000000000768
:04038B000000000B63
:04038C00000000135A
:04038D000000001755
:04038E00000000016A
:04038F000000000268
:040390000000000366
:040391000000000662
:040392000000000A5D
:040393000000000E58
:040394000000001154
:040395000000000163
:040396000000000360
:04039700000000075B
:040398000000000D54
:04039900000000134D
:04039A000000001B44
:04039B00000000203E
:04039C00000000015C
:04039D00000000025A
:04039E000000000556
:04039F000000000852
:0403A0000000000D4C
:0403A1000000001048
:0403A2000000001344
:0403A3000000000155
:0403A4000000000352
:0403A500000000064E
:0403A6000000000B48
:0403A7000000001141
:0403A800000000173A
:0403A9000000001B35
:0403AA00000000014E
:0403AB00000000024C
:0403AC000000000449
:0403AD000000000646
:0403AE000000000B40
:0403AF000000001238
:0403B0000000001534
:0403B1000000000147
:0403B2000000000344
:0403B3000000000541
:0403B400000000093C
:0403B5000000000F35
:0403B6000000001330
:0403B700000000172B
:0403B8000000000140
:0403B900000000023E
:0403BA00000000033C
:0403BB00000000043A
:0403BC000000000934
:0403BD000000000E2E
:0403BE00000000112A
:0403BF000000000139
:0403C0000000000336
:0403C1000000000731
:0403C2000000000B2C
:0403C3000000001224
:0403C4000000001B1A
:0403C5000000002014
:0403C6000000000132
:0403C7000000000230
:0403C800000000052C
:0403C9000000000A26
:0403CA00000000111E
:0403CB000000001618
:0403CC000000001A13
:0403CD00000000012B
:0403CE000000000328
:0403CF000000000624
:0403D0000000000920
:0403D1000000001018
:0403D2000000001710
:0403D3000000001B0B
:0403D4000000000124
:0403D5000000000222
:0403D600000000041F
:0403D700000000081A
:0403D8000000000A17
:0403D9000000000C14
:0403DA000000000E11
:0403DB00000000011D
:0403DC00000000031A
:0403DD000000000517
:0403DE000000000714
:0403DF000000000911
:0403E0000000000D0C
:0403E1000000001008
:0403E2000000000116
:0403E3000000000214
:0403E4000000000312
:0403E500000000060E
:0403E600000000080B
:0403E7000000000E04
:0403E8000000001100
:0403E900000000010F
:0403EA00000000030C
:0403EB000000000707
:0403EC000000000D00
:0403ED0000000011FB
:0403EE0000000015F6
:0403EF0000000019F1
:0403F0000000000108
:0403F1000000000206
:0403F2000000000502
:0403F30000000008FE
:0403F4000000000BFA
:0403F50000000010F4
:0403F60000000013F0
:0403F7000000000101
:0403F80000000003FE
:0403F90000000006FA
:0403FA000000000BF4
:0403FB000000000FEF
:0403FC0000000017E6
:0403FD000000001BE1
:0403FE0000000001FA
:0403FF0000000002F8
:0404000000000004F4
:0404010000000006F1
:0404020000000009ED
:040403000000000CE9
:040404000000000EE6
:0404050000000001F2
:0404060000000003EF
:0404070000000005EC
:0404080000000009E7
:040409000000000DE2
:04040A0000000013DB
:04040B0000000017D6
:04040C0000000001EB
:04040D0000000002E9
:04040E0000000003E7
:04040F0000000004E5
:0404100000000007E1
:040411000000000ED9
:0404120000000011D5
:0404130000000001E4
:0404140000000003E1
:0404150000000007DC
:040416000000000BD7
:0404170000000010D1
:0404180000000015CB
:0404190000000019C6
:04041A0000000001DD
:04041B0000000002DB
:04041C0000000005D7
:04041D000000000AD1
:04041E000000000FCB
:04041F0000000016C3
:040420000000001ABE
:0404210000000001D6
:0404220000000003D3
:0404230000000006CF
:0404240000000009CB
:040425000000000EC5
:0404260000000011C1
:0404270000000014BD
:0404280000000001CF
:0404290000000002CD
:04042A0000000004CA
:04042B0000000008C5
:04042C000000000DBF
:04042D0000000012B9
:04042E0000000015B5
:04042F0000000001C8
:0404300000000003C5
:0404310000000005C2
:0404320000000007BF
:040433000000000CB9
:0404340000000013B1
:0404350000000017AC
:0404360000000001C1
:0404370000000002BF
:0404380000000003BD
:0404390000000006B9
:04043A000000000BB3
:04043B000000000EAF
:04043C0000000011AB
:04043D0000000001BA
:04043E0000000003B7
:04043F0000000007B2
:040440000000000DAB
:0404410000000014A3
:040442000000001B9B
:040443000000002095
:0404440000000001B3
:0404450000000002B1
:0404460000000005AD
:0404470000000008A9
:040448000000000EA2
:040449000000001699
:04044A000000001A94
:04044B0000000001AC
:04044C0000000003A9
:04044D0000000006A5
:04044E000000000B9F
:04044F000000001297
:040450000000001791
:040451000000001B8C
:0404520000000001A5
:0404530000000002A3
:0404540000000004A0
:04045500000000069D
:040456000000000C96
:04045700000000128F
:04045800000000158B
:04045900000000019E
:04045A00000000039B
:04045B000000000598
:04045C000000000993
:04045D00000000108B
:04045E000000001981
:04045F000000001E7B
:040460000000000197
:040461000000000295
:040462000000000393
:040463000000000491
:04046400000000058F
:04046500000000088B
:040466000000000A88
:040467000000000190
:04046800000000038D
:040469000000000788
:04046A000000000B83
:04046B000000000E7F
:04046C000000001577
:04046D000000001972
:04046E000000000189
:04046F000000000287
:040470000000000583
:040471000000000A7D
:040472000000000D79
:040473000000001075
:040474000000001371
:040475000000000182
:04047600000000037F
:04047700000000067B
:040478000000000977
:040479000000000C73
:04047A00000000116D
:04047B000000001469
:04047C00000000017B
:04047D000000000279
:04047E000000000476
:04047F000000000871
:040480000000000B6D
:040481000000001265
:040482000000001561
:040483000000000174
:040484000000000371
:04048500000000056E
:04048600000000076B
:040487000000000A67
:040488000000000D63
:04048900000000105F
:04048A00000000016D
:04048B00000000026B
:04048C000000000369
:04048D000000000665
:04048E000000000961
:04048F000000000E5B
:040490000000001157
:040491000000000166
:040492000000000363
:04049300000000075E
:040494000000000D57
:040495000000001251
:040496000000001B47
:040497000000002041
:04049800000000015F
:04049900000000025D
:04049A000000000559
:04049B000000000855
:04049C000000000C50
:04049D00000000104B
:04049E000000001347
:04049F000000000158
:0404A0000000000355
:0404A1000000000651
:0404A2000000000B4B
:0404A3000000001045
:0404A400000000173D
:0404A5000000001B38
:0404A6000000000151
:0404A700000000024F
:0404A800000000044C
:0404A9000000000649
:0404AA000000000A44
:0404AB000000000C41
:0404AC000000000E3E
:0404AD00000000014A
:0404AE000000000347
:0404AF000000000544
:0404B000000000093F
:0404B1000000000E39
:0404B2000000001333
:0404B300000000172E
:0404B4000000000143
:0404B5000000000241
:0404B600000000033F
:0404B700000000043D
:0404B8000000000838
:0404B9000000000E31
:0404BA00000000112D
:0404BB00000000013C
:0404BC000000000339
:0404BD000000000734
:0404BE000000000B2F
:0404BF000000001128
:0404C0000000001523
:0404C100000000191E
:0404C2000000000135
:0404C3000000000233
:0404C400000000052F
:0404C5000000000A29
:0404C6000000001022
:0404C700000000161B
:0404C8000000001A16
:0404C900000000012E
:0404CA00000000032B
:0404CB000000000627
:0404CC000000000923
:0404CD000000000F1C
:0404CE000000001713
:0404CF000000001B0E
:0404D0000000000127
:0404D1000000000225
:0404D2000000000422
:0404D300000000081D
:0404D4000000000E16
:0404D5000000001211
:0404D600000000150D
:0404D7000000000120
:0404D800000000031D
:0404D900000000051A
:0404DA000000000717
:0404DB000000000D10
:0404DC000000001309
:0404DD000000001704
:0404DE000000000119
:0404DF000000000217
:0404E0000000000315
:0404E1000000000611
:0404E2000000000C0A
:0404E3000000001401
:0404E40000000018FC
:0404E5000000000112
:0404E600000000030F
:0404E700000000070A
:0404E8000000000D03
:0404E90000000015FA
:0404EA000000001BF3
:0404EB0000000020ED
:0404EC00000000010B
:0404ED000000000308
:0404EE000000000604
:0404EF000000000801
:0404F0000000000AFE
:0404F1000000000CFB
:0404F2000000000EF8
:0404F3000000000104
:0404F4000000000202
:0404F50000000004FF
:0404F60000000007FB
:0404F70000000009F8
:0404F8000000000DF3
:0404F90000000010EF
:0404FA0000000001FD
:0404FB0000000003FA
:0404FC0000000005F7
:0404FD000000000AF1
:0404FE000000000DED
:0404FF0000000014E5
:0405000000000018DF
:0405010000000001F5
:0405020000000002F3
:0405030000000003F1
:0405040000000005EE
:0405050000000007EB
:0405060000000009E8
:040507000000000BE5
:0405080000000001EE
:0405090000000003EB
:04050A0000000007E6
:04050B000000000CE0
:04050C0000000010DB
:04050D0000000016D4
:04050E000000001ACF
:04050F0000000001E7
:0405100000000002E5
:0405110000000005E1
:0405120000000007DE
:040513000000000ADA
:0405140000000011D2
:0405150000000014CE
:0405160000000001E0
:0405170000000003DD
:0405180000000006D9
:040519000000000AD4
:04051A000000000ECF
:04051B0000000012CA
:04051C0000000015C6
:04051D0000000001D9
:04051E0000000002D7
:04051F0000000004D4
:0405200000000009CE
:040521000000000DC9
:0405220000000013C2
:0405230000000017BD
:0405240000000001D2
:0405250000000003CF
:0405260000000005CC
:0405270000000008C8
:040528000000000CC3
:0405290000000014BA
:04052A0000000018B5
:04052B0000000001CB
:04052C0000000002C9
:04052D0000000003C7
:04052E0000000007C2
:04052F000000000BBD
:040530000000000FB8
:0405310000000012B4
:0405320000000001C4
:0405330000000003C1
:0405340000000007BC
:040535000000000AB8
:040536000000000FB2
:0405370000000016AA
:040538000000001AA5
:0405390000000001BD
:04053A0000000002BB
:04053B0000000005B7
:04053C0000000009B2
:04053D000000000EAC
:04053E0000000011A8
:04053F0000000014A4
:0405400000000001B6
:0405410000000003B3
:0405420000000006AF
:0405430000000008AC
:040544000000000DA6
:0405450000000012A0
:04054600000000159C
:0405470000000001AF
:0405480000000002AD
:0405490000000004AA
:04054A0000000007A6
:04054B000000000CA0
:04054C000000001398
:04054D000000001793
:04054E0000000001A8
:04054F0000000003A5
:0405500000000005A2
:040551000000000A9C
:040552000000001095
:040553000000001490
:04055400000000188B
:0405550000000001A1
:04055600000000029F
:04055700000000039D
:04055800000000059A
:040559000000000A94
:04055A000000000F8E
:04055B00000000128A
:04055C00000000019A
:04055D000000000397
:04055E000000000792
:04055F000000000C8C
:040560000000001384
:040561000000001C7A
:040562000000002174
:040563000000000193
:040564000000000291
:04056500000000058D
:04056600000000078A
:040567000000000D83
:04056800000000117E
:04056900000000147A
:04056A00000000018C
:04056B000000000389
:04056C000000000685
:04056D000000000A80
:04056E000000001178
:04056F000000001870
:040570000000001C6B
:040571000000000185
:040572000000000283
:040573000000000480
:04057400000000097A
:040575000000001072
:040576000000001968
:040577000000001E62
:04057800000000017E
:04057900000000037B
:04057A000000000578
:04057B000000000874
:04057C000000000A71
:04057D000000000E6C
:04057E000000001168
:04057F000000000177
:040580000000000275
:040581000000000373
:04058200000000076E
:04058300000000096B
:040584000000000F64
:040585000000001260
:040586000000000170
:04058700000000036D
:040588000000000768
:040589000000000A64
:04058A000000000D60
:04058B00000000105C
:04058C000000001358
:04058D000000000169
:04058E000000000267
:04058F000000000563
:04059000000000095E
:040591000000000C5A
:040592000000001154
:040593000000001450
:040594000000000162
:04059500000000035F
:04059600000000065B
:040597000000000858
:040598000000000B54
:04059900000000124C
:04059A000000001548
:04059B00000000015B
:04059C000000000259
:04059D000000000456
:04059E000000000752
:04059F000000000A4E
:0405A0000000000D4A
:0405A1000000001046
:0405A2000000000154
:0405A3000000000351
:0405A400000000054E
:0405A5000000000A48
:0405A6000000000E43
:0405A700000000143C
:0405A8000000001837
:0405A900000000014D
:0405AA00000000024B
:0405AB000000000349
:0405AC000000000546
:0405AD000000000842
:0405AE000000000F3A
:0405AF000000001236
:0405B0000000000146
:0405B1000000000343
:0405B200000000073E
:0405B3000000000C38
:0405B4000000001132
:0405B500000000162C
:0405B6000000001A27
:0405B700000000013F
:0405B800000000023D
:0405B9000000000539
:0405BA000000000736
:0405BB000000000B31
:0405BC00000000112A
:0405BD000000001426
:0405BE000000000138
:0405BF000000000335
:0405C0000000000631
:0405C1000000000A2C
:0405C2000000000F26
:0405C3000000001222
:0405C400000000151E
:0405C5000000000131
:0405C600000000022F
:0405C700000000042C
:0405C8000000000926
:0405C9000000000E20
:0405CA00000000131A
:0405CB000000001715
:0405CC00000000012A
:0405CD000000000327
:0405CE000000000524
:0405CF000000000820
:0405D0000000000D1A
:0405D1000000001412
:0405D200000000180D
:0405D3000000000123
:0405D4000000000221
:0405D500000000031F
:0405D600000000071A
:0405D7000000000C14
:0405D8000000000F10
:0405D900000000120C
:0405DA00000000011C
:0405DB000000000319
:0405DC000000000714
:0405DD000000000A10
:0405DE000000001009
:0405DF000000001602
:0405E0000000001AFD
:0405E1000000000115
:0405E2000000000213
:0405E300000000050F
:0405E400000000090A
:0405E5000000000F03
:0405E60000000017FA
:0405E7000000001BF5
:0405E800000000010E
:0405E900000000030B
:0405EA000000000607
:0405EB000000000804
:0405EC000000000EFD
:0405ED0000000012F8
:0405EE0000000015F4
:0405EF000000000107
:0405F0000000000205
:0405F1000000000402
:0405F20000000007FE
:0405F3000000000DF7
:0405F40000000013F0
:0405F50000000017EB
:0405F6000000000100
:0405F70000000003FD
:0405F80000000005FA
:0405F9000000000AF4
:0405FA0000000011EC
:0405FB000000001AE2
:0405FC000000001FDC
:0405FD0000000001F9
:0405FE0000000002F7
:0405FF0000000003F5
:0406000000000005F1
:040601000000000BEA
:040602000000000FE5
:0406030000000012E1
:0406040000000001F1
:0406050000000003EE
:0406060000000007E9
:040607000000000CE3
:040608000000000FDF
:0406090000000016D7
:04060A000000001AD2
:04060B0000000001EA
:04060C0000000002E8
:04060D0000000005E4
:04060E0000000007E1
:04060F0000000009DE
:040610000000000BDB
:040611000000000DD8
:0406120000000001E3
:0406130000000003E0
:0406140000000006DC
:040615000000000AD7
:040616000000000DD3
:0406170000000012CD
:0406180000000015C9
:0406190000000001DC
:04061A0000000002DA
:04061B0000000004D7
:04061C0000000009D1
:04061D000000000CCD
:04061E0000000013C5
:04061F0000000017C0
:0406200000000001D5
:0406210000000003D2
:0406220000000005CF
:0406230000000008CB
:040624000000000BC7
:040625000000000EC3
:0406260000000011BF
:0406270000000001CE
:0406280000000002CC
:0406290000000003CA
:04062A0000000007C5
:04062B000000000AC1
:04062C000000000FBB
:04062D0000000012B7
:04062E0000000001C7
:04062F0000000003C4
:0406300000000007BF
:040631000000000ABB
:040632000000000EB6
:0406330000000016AD
:040634000000001AA8
:0406350000000001C0
:0406360000000002BE
:0406370000000005BA
:0406380000000009B5
:040639000000000DB0
:04063A0000000011AB
:04063B0000000014A7
:04063C0000000001B9
:04063D0000000003B6
:04063E0000000006B2
:04063F0000000008AF
:040640000000000CAA
:0406410000000012A3
:04064200000000159F
:0406430000000001B2
:0406440000000002B0
:0406450000000004AD
:0406460000000007A9
:040647000000000BA4
:04064800000000139B
:040649000000001796
:04064A0000000001AB
:04064B0000000003A8
:04064C0000000005A5
:04064D000000000A9F
:04064E000000000F99
:04064F000000001493
:04065000000000188E
:0406510000000001A4
:0406520000000002A2
:0406530000000003A0
:04065400000000059D
:040655000000000998
:040656000000000F91
:04065700000000128D
:04065800000000019D
:04065900000000039A
:04065A000000000795
:04065B000000000C8F
:04065C000000001288
:04065D000000001683
:04065E000000001A7E
:04065F000000000196
:040660000000000294
:040661000000000590
:04066200000000078D
:040663000000000C87
:040664000000001181
:04066500000000147D
:04066600000000018F
:04066700000000038C
:040668000000000688
:040669000000000A83
:04066A00000000107C
:04066B000000001873
:04066C000000001C6E
:04066D000000000188
:04066E000000000286
:04066F000000000483
:04067000000000097D
:040671000000000F76
:040672000000001371
:04067300000000176C
:040674000000000181
:04067500000000037E
:04067600000000057B
:040677000000000877
:040678000000000E70
:040679000000001469
:04067A000000001864
:04067B00000000017A
:04067C000000000278
:04067D000000000376
:04067E000000000771
:04067F000000000D6A
:040680000000001561
:04068100000000195C
:040682000000000173
:040683000000000370
:04068400000000076B
:040685000000000A67
:04068600000000115F
:040687000000001659
:040688000000001A54
:04068900000000016C
:04068A00000000026A
:04068B000000000566
:04068C000000000961
:04068D000000001059
:04068E000000001751
:04068F000000001B4C
:040690000000000165
:040691000000000263
:040692000000000460
:04069300000000085B
:040694000000000A58
:040695000000000E53
:04069600000000114F
:04069700000000015E
:04069800000000035B
:040699000000000558
:04069A000000000755
:04069B000000000952
:04069C000000000F4B
:04069D000000001247
:04069E000000000157
:04069F000000000255
:0406A0000000000353
:0406A100000000064F
:0406A200000000084C
:0406A3000000000A49
:0406A4000000000C46
:0406A5000000000150
:0406A600000000034D
:0406A7000000000748
:0406A8000000000D41
:0406A900000000113C
:0406AA000000001735
:0406AB000000001B30
:0406AC000000000149
:0406AD000000000247
:0406AE000000000543
:0406AF00000000083F
:0406B0000000000B3B
:0406B1000000001233
:0406B200000000152F
:0406B3000000000142
:0406B400000000033F
:0406B500000000063B
:0406B6000000000B35
:0406B7000000000F30
:0406B800000000132B
:0406B9000000001726
:0406BA00000000013B
:0406BB000000000239
:0406BC000000000436
:0406BD000000000633
:0406BE00000000092F
:0406BF000000000E29
:0406C0000000001125
:0406C1000000000134
:0406C2000000000331
:0406C300000000052E
:0406C4000000000929
:0406C5000000000D24
:0406C600000000151B
:0406C7000000001916
:0406C800000000012D
:0406C900000000022B
:0406CA000000000329
:0406CB000000000427
:0406CC000000000723
:0406CD000000000A1F
:0406CE000000000C1C
:0406CF000000000126
:0406D0000000000323
:0406D100000000071E
:0406D2000000000B19
:0406D3000000001013
:0406D400000000170B
:0406D5000000001B06
:0406D600000000011F
:0406D700000000021D
:0406D8000000000519
:0406D9000000000A13
:0406DA000000000F0D
:0406DB000000001209
:0406DC000000001505
:0406DD000000000118
:0406DE000000000315
:0406DF000000000611
:0406E000000000090D
:0406E1000000000E07
:0406E2000000001301
:0406E30000000017FC
:0406E4000000000111
:0406E500000000020F
:0406E600000000040C
:0406E7000000000807
:0406E8000000000D01
:0406E90000000014F9
:0406EA0000000018F4
:0406EB00000000010A
:0406EC000000000307
:0406ED000000000504
:0406EE000000000701
:0406EF000000000CFB
:0406F0000000000FF7
:0406F10000000012F3
:0406F2000000000103
:0406F3000000000201
:0406F40000000003FF
:0406F50000000006FB
:0406F6000000000BF5
:0406F70000000010EF
:0406F80000000013EB
:0406F90000000001FC
:0406FA0000000003F9
:0406FB0000000007F4
:0406FC000000000DED
:0406FD0000000014E5
:0406FE000000001DDB
:0406FF0000000022D5
:0407000000000001F4
:0407010000000002F2
:0407020000000005EE
:0407030000000008EA
:040704000000000EE3
:0407050000000012DE
:0407060000000015DA
:0407070000000001ED
:0407080000000003EA
:0407090000000006E6
:04070A000000000BE0
:04070B0000000012D8
:04070C0000000019D0
:04070D000000001ECA
:04070E0000000001E6
:04070F0000000002E4
:0407100000000004E1
:0407110000000006DE
:040712000000000CD7
:0407130000000014CE
:0407140000000018C9
:0407150000000001DF
:0407160000000003DC
:0407170000000005D9
:0407180000000009D4
:0407190000000010CC
:04071A0000000015C6
:04071B0000000019C1
:04071C0000000001D8
:04071D0000000002D6
:04071E0000000003D4
:04071F0000000004D2
:0407200000000005D0
:040721000000000ACA
:040722000000000CC7
:0407230000000001D1
:0407240000000003CE
:0407250000000007C9
:040726000000000BC4
:040727000000000EC0
:0407280000000011BC
:0407290000000014B8
:04072A0000000001CA
:04072B0000000002C8
:04072C0000000005C4
:04072D000000000ABE
:04072E000000000DBA
:04072F0000000012B4
:0407300000000015B0
:0407310000000001C3
:0407320000000003C0
:0407330000000006BC
:0407340000000009B8
:040735000000000CB4
:0407360000000013AC
:0407370000000017A7
:0407380000000001BC
:0407390000000002BA
:04073A0000000004B7
:04073B0000000008B2
:04073C000000000BAE
:04073D000000000EAA
:04073E0000000011A6
:04073F0000000001B5
:0407400000000003B2
:0407410000000005AF
:0407420000000007AC
:040743000000000AA8
:040744000000000FA2
:04074500000000129E
:0407460000000001AE
:0407470000000002AC
:0407480000000003AA
:0407490000000006A6
:04074A0000000009A2
:04074B00000000109A
:04074C000000001396
:04074D0000000001A7
:04074E0000000003A4
:04074F00000000079F
:040750000000000D98
:040751000000001292
:04075200000000178C
:040753000000001B87
:0407540000000001A0
:04075500000000029E
:04075600000000059A
:040757000000000896
:040758000000000C91
:04075900000000128A
:04075A000000001586
:04075B000000000199
:04075C000000000396
:04075D000000000692
:04075E000000000B8C
:04075F000000001086
:04076000000000197C
:040761000000001E76
:040762000000000192
:040763000000000290
:04076400000000048D
:04076500000000068A
:040766000000000A85
:040767000000000E80
:04076800000000117C
:04076900000000018B
:04076A000000000388
:04076B000000000585
:04076C000000000980
:04076D000000000E7A
:04076E000000001572
:04076F00000000196D
:040770000000000184
:040771000000000282
:040772000000000380
:04077300000000047E
:040774000000000879
:040775000000000A76
:040776000000000C73
:04077700000000017D
:04077800000000037A
:040779000000000775
:04077A000000000B70
:04077B000000001169
:04077C000000001762
:04077D000000001B5D
:04077E000000000176
:04077F000000000274
:040780000000000570
:040781000000000A6A
:040782000000001063
:04078300000000185A
:040784000000001C55
:04078500000000016F
:04078600000000036C
:040787000000000668
:040788000000000964
:040789000000000F5D
:04078A000000001358
:04078B000000001753
:04078C000000000168
:04078D000000000266
:04078E000000000463
:04078F00000000085E
:040790000000000E57
:040791000000001450
:04079200000000184B
:040793000000000161
:04079400000000035E
:04079500000000055B
:040796000000000758
:040797000000000D51
:040798000000001548
:040799000000001943
:04079A00000000015A
:04079B000000000258
:04079C000000000356
:04079D000000000652
:04079E000000000C4B
:04079F000000001046
:0407A0000000001342
:0407A1000000000153
:0407A2000000000350
:0407A300000000074B
:0407A4000000000D44
:0407A500000000153B
:0407A6000000001D32
:0407A700000000222C
:0407A800000000014C
:0407A900000000024A
:0407AA000000000546
:0407AB000000000842
:0407AC000000000A3F
:0407AD000000000C3C
:0407AE000000000E39
:0407AF000000000145
:0407B0000000000342
:0407B100000000063E
:0407B2000000000B38
:0407B3000000000E34
:0407B400000000132E
:0407B5000000001729
:0407B600000000013E
:0407B700000000023C
:0407B8000000000439
:0407B9000000000636
:0407BA000000000833
:0407BB000000000E2C
:0407BC000000001128
:0407BD000000000137
:0407BE000000000334
:0407BF000000000531
:0407C000000000092C
:0407C1000000000C28
:0407C2000000000F24
:0407C3000000001220
:0407C4000000000130
:0407C500000000022E
:0407C600000000032C
:0407C700000000042A
:0407C8000000000627
:0407C9000000000A22
:0407CA000000000C1F
:0407CB000000000129
:0407CC000000000326
:0407CD000000000721
:0407CE000000000B1C
:0407CF000000000F17
:0407D000000000170E
:0407D1000000001B09
:0407D2000000000122
:0407D3000000000220
:0407D400000000051C
:0407D5000000000A16
:0407D6000000000E11
:0407D700000000120C
:0407D8000000001508
:0407D900000000011B
:0407DA000000000318
:0407DB000000000614
:0407DC000000000910
:0407DD000000000D0B
:0407DE000000001304
:0407DF0000000017FF
:0407E0000000000114
:0407E1000000000212
:0407E200000000040F
:0407E300000000080A
:0407E4000000000C05
:0407E50000000014FC
:0407E60000000018F7
:0407E700000000010D
:0407E800000000030A
:0407E9000000000507
:0407EA000000000704
:0407EB000000000BFF
:0407EC000000000FFA
:0407ED0000000012F6
:0407EE000000000106
:0407EF000000000204
:0407F0000000000302
:0407F10000000006FE
:0407F2000000000AF9
:0407F30000000010F2
:0407F40000000013EE
:0407F50000000001FF
:0407F60000000003FC
:0407F70000000007F7
:0407F8000000000DF0
:0407F90000000013E9
:0407FA0000000017E4
:0407FB000000001BDF
:0407FC0000000001F8
:0407FD0000000002F6
:0407FE0000000005F2
:0407FF0000000008EE
:040800000000000DE7
:0408010000000012E1
:0408020000000015DD
:0408030000000001F0
:0408040000000003ED
:0408050000000006E9
:040806000000000BE3
:0408070000000011DC
:0408080000000019D3
:040809000000001ECD
:04080A0000000001E9
:04080B0000000002E7
:04080C0000000004E4
:04080D0000000006E1
:04080E000000000BDB
:04080F000000000ED7
:0408100000000011D3
:0408110000000001E2
:0408120000000003DF
:0408130000000005DC
:0408140000000009D7
:040815000000000FD0
:0408160000000015C9
:0408170000000019C4
:0408180000000001DB
:0408190000000002D9
:04081A0000000003D7
:04081B0000000004D5
:04081C0000000009CF
:04081D0000000010C7
:04081E0000000013C3
:04081F0000000001D4
:0408200000000003D1
:0408210000000007CC
:040822000000000BC7
:0408230000000012BF
:0408240000000017B9
:040825000000001BB4
:0408260000000001CD
:0408270000000002CB
:0408280000000005C7
:040829000000000AC1
:04082A0000000011B9
:04082B0000000018B1
:04082C000000001CAC
:04082D0000000001C6
:04082E0000000003C3
:04082F0000000006BF
:0408300000000009BB
:0408310000000010B3
:0408320000000019A9
:040833000000001EA3
:0408340000000001BF
:0408350000000003BC
:0408360000000005B9
:0408370000000008B5
:040838000000000AB2
:0408390000000010AB
:04083A0000000013A7
:04083B0000000001B8
:04083C0000000002B6
:04083D0000000003B4
:04083E0000000007AF
:04083F0000000009AC
:040840000000000BA9
:040841000000000DA6
:0408420000000001B1
:0408430000000003AE
:0408440000000007A9
:040845000000000AA5
:040846000000000DA1
:04084700000000129B
:040848000000001597
:0408490000000001AA
:04084A0000000002A8
:04084B0000000005A4
:04084C00000000099F
:04084D000000000C9B
:04084E000000001393
:04084F00000000178E
:0408500000000001A3
:0408510000000003A0
:04085200000000069C
:040853000000000899
:040854000000000B95
:040855000000000E91
:04085600000000118D
:04085700000000019C
:04085800000000029A
:040859000000000497
:04085A000000000793
:04085B000000000A8F
:04085C000000000F89
:04085D000000001285
:04085E000000000195
:04085F000000000392
:04086000000000058F
:040861000000000A89
:040862000000000E84
:04086300000000167B
:040864000000001A76
:04086500000000018E
:04086600000000028C
:04086700000000038A
:040868000000000587
:040869000000000883
:04086A000000000B7F
:04086B000000000D7C
:04086C000000000187
:04086D000000000384
:04086E00000000077F
:04086F000000000C79
:040870000000001173
:04087100000000186B
:040872000000001C66
:040873000000000180
:04087400000000027E
:04087500000000057A
:040876000000000777
:040877000000000B72
:040878000000001369
:040879000000001764
:04087A000000000179
:04087B000000000376
:04087C000000000672
:04087D000000000A6D
:04087E000000000F67
:04087F000000001461
:04088000000000185C
:040881000000000172
:040882000000000270
:04088300000000046D
:040884000000000967
:040885000000000E61
:040886000000001559
:040887000000001954
:04088800000000016B
:040889000000000368
:04088A000000000565
:04088B000000000861
:04088C000000000D5B
:04088D000000001057
:04088E000000001353
:04088F000000000164
:040890000000000262
:040891000000000360
:04089200000000075B
:040893000000000C55
:04089400000000114F
:04089500000000144B
:04089600000000015D
:04089700000000035A
:040898000000000755
:040899000000000A51
:04089A00000000104A
:04089B000000001841
:04089C000000001C3C
:04089D000000000156
:04089E000000000254
:04089F000000000550
:0408A000000000094B
:0408A1000000000F44
:0408A200000000133F
:0408A300000000173A
:0408A400000000014F
:0408A500000000034C
:0408A6000000000648
:0408A7000000000845
:0408A8000000000E3E
:0408A9000000001437
:0408AA000000001832
:0408AB000000000148
:0408AC000000000246
:0408AD000000000443
:0408AE00000000073F
:0408AF000000000D38
:0408B000000000152F
:0408B100000000192A
:0408B2000000000141
:0408B300000000033E
:0408B400000000053B
:0408B5000000000A35
:0408B600000000112D
:0408B7000000001627
:0408B8000000001A22
:0408B900000000013A
:0408BA000000000238
:0408BB000000000336
:0408BC000000000533
:0408BD000000000B2C
:0408BE000000001125
:0408BF000000001421
:0408C0000000000133
:0408C1000000000330
:0408C200000000072B
:0408C3000000000C25
:0408C4000000000F21
:0408C500000000121D
:0408C6000000001519
:0408C700000000012C
:0408C800000000022A
:0408C9000000000526
:0408CA000000000723
:0408CB000000000920
:0408CC000000000D1B
:0408CD000000001017
:0408CE000000000125
:0408CF000000000322
:0408D000000000061E
:0408D1000000000A19
:0408D2000000000D15
:0408D300000000140D
:0408D4000000001808
:0408D500000000011E
:0408D600000000021C
:0408D7000000000419
:0408D8000000000913
:0408D9000000000C0F
:0408DA000000000F0B
:0408DB000000001207
:0408DC000000000117
:0408DD000000000314
:0408DE000000000511
:0408DF00000000080D
:0408E0000000000B09
:0408E1000000001003
:0408E20000000013FF
:0408E3000000000110
:0408E400000000020E
:0408E500000000030C
:0408E6000000000707
:0408E7000000000A03
:0408E80000000011FB
:0408E90000000014F7
:0408EA000000000109
:0408EB000000000306
:0408EC000000000701
:0408ED000000000AFD
:0408EE000000000EF8
:0408EF0000000012F3
:0408F00000000015EF
:0408F1000000000102
:0408F2000000000200
:0408F30000000005FC
:0408F40000000009F7
:0408F5000000000DF2
:0408F60000000013EB
:0408F70000000017E6
:0408F80000000001FB
:0408F90000000003F8
:0408FA0000000006F4
:0408FB0000000008F1
:0408FC000000000CEC
:0408FD0000000014E3
:0408FE0000000018DE
:0408FF0000000001F4
:0409000000000002F1
:0409010000000004EE
:0409020000000007EA
:040903000000000BE5
:040904000000000FE0
:0409050000000012DC
:0409060000000001EC
:0409070000000003E9
:0409080000000005E6
:040909000000000AE0
:04090A000000000FDA
:04090B0000000016D2
:04090C000000001ACD
:04090D0000000001E5
:04090E0000000002E3
:04090F0000000003E1
:0409100000000005DE
:0409110000000009D9
:040912000000000BD6
:040913000000000DD3
:0409140000000001DE
:0409150000000003DB
:0409160000000007D6
:040917000000000CD0
:0409180000000012C9
:0409190000000018C2
:04091A000000001CBD
:04091B0000000001D7
:04091C0000000002D5
:04091D0000000005D1
:04091E0000000007CE
:04091F000000000CC8
:0409200000000013C0
:0409210000000017BB
:0409220000000001D0
:0409230000000003CD
:0409240000000006C9
:040925000000000AC4
:0409260000000010BD
:0409270000000014B8
:0409280000000018B3
:0409290000000001C9
:04092A0000000002C7
:04092B0000000004C4
:04092C0000000009BE
:04092D000000000FB7
:04092E0000000015B0
:04092F0000000019AB
:0409300000000001C2
:0409310000000003BF
:0409320000000005BC
:0409330000000008B8
:040934000000000EB1
:0409350000000016A8
:040936000000001AA3
:0409370000000001BB
:0409380000000002B9
:0409390000000003B7
:04093A0000000007B2
:04093B000000000DAB
:04093C0000000011A6
:04093D0000000014A2
:04093E0000000001B4
:04093F0000000003B1
:0409400000000007AC
:040941000000000AA8
:0409420000000011A0
:040943000000001898
:040944000000001C93
:0409450000000001AD
:0409460000000002AB
:0409470000000005A7
:0409480000000009A2
:04094900000000109A
:04094A000000001990
:04094B000000001E8A
:04094C0000000001A6
:04094D0000000003A3
:04094E00000000069F
:04094F00000000089C
:040950000000000A99
:040951000000000E94
:040952000000001190
:04095300000000019F
:04095400000000029D
:04095500000000049A
:040956000000000796
:040957000000000993
:040958000000000F8C
:040959000000001288
:04095A000000000198
:04095B000000000395
:04095C000000000592
:04095D000000000A8C
:04095E000000000D88
:04095F000000001084
:040960000000001380
:040961000000000191
:04096200000000028F
:04096300000000038D
:04096400000000058A
:040965000000000787
:040966000000000B82
:040967000000000D7F
:04096800000000018A
:040969000000000387
:04096A000000000782
:04096B000000000C7C
:04096C000000001077
:04096D00000000186E
:04096E000000001C69
:04096F000000000183
:040970000000000281
:04097100000000057D
:04097200000000077A
:040973000000000A76
:040974000000000D72
:04097500000000106E
:04097600000000017C
:040977000000000379
:040978000000000675
:040979000000000A70
:04097A000000000E6B
:04097B000000001464
:04097C00000000185F
:04097D000000000175
:04097E000000000273
:04097F000000000470
:04098000000000096A
:040981000000000D65
:04098200000000155C
:040983000000001957
:04098400000000016E
:04098500000000036B
:040986000000000568
:040987000000000864
:040988000000000C5F
:04098900000000105A
:04098A000000001356
:04098B000000000167
:04098C000000000265
:04098D000000000363
:04098E00000000075E
:04098F000000000B59
:040990000000001152
:04099100000000144E
:040992000000000160
:04099300000000035D
:040994000000000758
:040995000000000A54
:040996000000000F4E
:04099700000000124A
:040998000000001546
:040999000000000159
:04099A000000000257
:04099B000000000553
:04099C00000000094E
:04099D000000000E48
:04099E000000001342
:04099F00000000173D
:0409A0000000000152
:0409A100000000034F
:0409A200000000064B
:0409A3000000000848
:0409A4000000000D42
:0409A500000000143A
:0409A6000000001835
:0409A700000000014B
:0409A8000000000249
:0409A9000000000446
:0409AA000000000742
:0409AB000000000C3C
:0409AC000000000F38
:0409AD000000001234
:0409AE000000000144
:0409AF000000000341
:0409B000000000053E
:0409B1000000000A38
:0409B2000000001031
:0409B300000000162A
:0409B4000000001A25
:0409B500000000013D
:0409B600000000023B
:0409B7000000000339
:0409B8000000000536
:0409B9000000000A30
:0409BA000000001128
:0409BB000000001424
:0409BC000000000136
:0409BD000000000333
:0409BE00000000072E
:0409BF000000000C28
:0409C0000000001320
:0409C100000000181A
:0409C2000000001C15
:0409C300000000012F
:0409C400000000022D
:0409C5000000000529
:0409C6000000000726
:0409C7000000000D1F
:0409C8000000001318
:0409C9000000001713
:0409CA000000000128
:0409CB000000000325
:0409CC000000000621
:0409CD000000000A1C
:0409CE000000001114
:0409CF000000001A0A
:0409D0000000001F04
:0409D1000000000121
:0409D200000000021F
:0409D300000000041C
:0409D4000000000916
:0409D500000000100E
:0409D6000000001508
:0409D7000000001903
:0409D800000000011A
:0409D9000000000218
:0409DA000000000316
:0409DB000000000612
:0409DC000000000A0D
:0409DD000000000F07
:0409DE000000001203
:0409DF000000000113
:0409E0000000000310
:0409E100000000070B
:0409E2000000000D04
:0409E30000000013FD
:0409E4000000001CF3
:0409E50000000021ED
:0409E600000000010C
:0409E700000000020A
:0409E8000000000506
:0409E9000000000802
:0409EA000000000DFC
:0409EB0000000011F7
:0409EC0000000014F3
:0409ED000000000105
:0409EE000000000302
:0409EF0000000006FE
:0409F0000000000BF8
:0409F10000000011F1
:0409F20000000018E9
:0409F3000000001CE4
:0409F40000000001FE
:0409F50000000002FC
:0409F60000000004F9
:0409F70000000006F6
:0409F8000000000BF0
:0409F90000000013E7
:0409FA0000000017E2
:0409FB0000000001F7
:0409FC0000000003F4
:0409FD0000000005F1
:0409FE0000000009EC
:0409FF000000000FE5
:040A000000000014DE
:040A010000000018D9
:040A020000000001EF
:040A030000000002ED
:040A040000000003EB
:040A050000000004E9
:040A060000000009E3
:040A07000000000FDC
:040A080000000012D8
:040A090000000001E8
:040A0A0000000003E5
:040A0B0000000007E0
:040A0C000000000BDB
:040A0D0000000012D3
:040A0E0000000016CE
:040A0F000000001AC9
:040A100000000001E1
:040A110000000002DF
:040A120000000005DB
:040A13000000000AD5
:040A140000000011CD
:040A150000000017C6
:040A16000000001BC1
:040A170000000001DA
:040A180000000003D7
:040A190000000006D3
:040A1A0000000009CF
:040A1B0000000010C7
:040A1C0000000018BE
:040A1D000000001CB9
:040A1E0000000001D3
:040A1F0000000002D1
:040A200000000004CE
:040A210000000008C9
:040A22000000000AC6
:040A23000000000DC2
:040A240000000010BE
:040A250000000001CC
:040A260000000003C9
:040A270000000005C6
:040A280000000007C3
:040A290000000009C0
:040A2A000000000EBA
:040A2B0000000011B6
:040A2C0000000001C5
:040A2D0000000002C3
:040A2E0000000003C1
:040A2F0000000006BD
:040A300000000008BA
:040A31000000000FB2
:040A320000000012AE
:040A330000000001BE
:040A340000000003BB
:040A350000000007B6
:040A36000000000DAF
:040A370000000011AA
:040A380000000016A4
:040A39000000001A9F
:040A3A0000000001B7
:040A3B0000000002B5
:040A3C0000000005B1
:040A3D0000000008AD
:040A3E000000000BA9
:040A3F0000000011A2
:040A4000000000149E
:040A410000000001B0
:040A420000000003AD
:040A430000000006A9
:040A44000000000BA3
:040A45000000000F9E
:040A4600000000129A
:040A47000000001596
:040A480000000001A9
:040A490000000002A7
:040A4A0000000004A4
:040A4B0000000006A1
:040A4C00000000099D
:040A4D000000000D98
:040A4E000000001094
:040A4F0000000001A2
:040A5000000000039F
:040A5100000000059C
:040A52000000000997
:040A53000000000D92
:040A5400000000148A
:040A55000000001885
:040A5600000000019B
:040A57000000000299
:040A58000000000397
:040A59000000000495
:040A5A000000000791
:040A5B00000000098E
:040A5C000000000B8B
:040A5D000000000194
:040A5E000000000391
:040A5F00000000078C
:040A60000000000B87
:040A61000000001081
:040A6200000000167A
:040A63000000001A75
:040A6400000000018D
:040A6500000000028B
:040A66000000000587
:040A67000000000A81
:040A68000000000F7B
:040A69000000001772
:040A6A000000001B6D
:040A6B000000000186
:040A6C000000000383
:040A6D00000000067F
:040A6E00000000097B
:040A6F000000000E75
:040A70000000001270
:040A7100000000156C
:040A7200000000017F
:040A7300000000027D
:040A7400000000047A
:040A75000000000875
:040A76000000000D6F
:040A77000000001368
:040A78000000001763
:040A79000000000178
:040A7A000000000375
:040A7B000000000572
:040A7C00000000076F
:040A7D000000000C69
:040A7E000000001460
:040A7F00000000185B
:040A80000000000171
:040A8100000000026F
:040A8200000000036D
:040A83000000000669
:040A84000000000B63
:040A85000000000F5E
:040A8600000000125A
:040A8700000000016A
:040A88000000000367
:040A89000000000762
:040A8A000000000D5B
:040A8B000000001453
:040A8C000000001C4A
:040A8D000000002144
:040A8E000000000163
:040A8F000000000261
:040A9000000000055D
:040A91000000000859
:040A92000000000E52
:040A9300000000114E
:040A9400000000144A
:040A9500000000015C
:040A96000000000359
:040A97000000000655
:040A98000000000B4F
:040A99000000001247
:040A9A000000001840
:040A9B000000001C3B
:040A9C000000000155
:040A9D000000000253
:040A9E000000000450
:040A9F00000000064D
:040AA0000000000C46
:040AA100000000133E
:040AA2000000001739
:040AA300000000014E
:040AA400000000034B
:040AA5000000000548
:040AA6000000000943
:040AA700000000103B
:040AA8000000001436
:040AA9000000001831
:040AAA000000000147
:040AAB000000000245
:040AAC000000000343
:040AAD000000000441
:040AAE00000000053F
:040AAF00000000093A
:040AB0000000000B37
:040AB1000000000140
:040AB200000000033D
:040AB3000000000738
:040AB4000000000B33
:040AB5000000000E2F
:040AB6000000001626
:040AB7000000001A21
:040AB8000000000139
:040AB9000000000237
:040ABA000000000533
:040ABB000000000A2D
:040ABC000000000D29
:040ABD000000001124
:040ABE000000001420
:040ABF000000000132
:040AC000000000032F
:040AC100000000062B
:040AC2000000000927
:040AC3000000000C23
:040AC400000000121C
:040AC5000000001518
:040AC600000000012B
:040AC7000000000229
:040AC8000000000426
:040AC9000000000821
:040ACA000000000B1D
:040ACB000000001314
:040ACC00000000170F
:040ACD000000000124
:040ACE000000000321
:040ACF00000000051E
:040AD000000000071B
:040AD1000000000A17
:040AD2000000000E12
:040AD300000000110E
:040AD400000000011D
:040AD500000000021B
:040AD6000000000319
:040AD7000000000615
:040AD8000000000911
:040AD9000000000F0A
:040ADA000000001206
:040ADB000000000116
:040ADC000000000313
:040ADD00000000070E
:040ADE000000000D07
:040ADF000000001201
:040AE00000000016FC
:040AE1000000001AF7
:040AE200000000010F
:040AE300000000020D
:040AE4000000000509
:040AE5000000000805
:040AE6000000000C00
:040AE70000000011FA
:040AE80000000014F6
:040AE9000000000108
:040AEA000000000305
:040AEB000000000601
:040AEC000000000BFB
:040AED0000000010F5
:040AEE0000000018EC
:040AEF000000001CE7
:040AF0000000000101
:040AF10000000002FF
:040AF20000000004FC
:040AF30000000006F9
:040AF4000000000AF4
:040AF5000000000DF0
:040AF60000000010EC
:040AF70000000001FA
:040AF80000000003F7
:040AF90000000005F4
:040AFA0000000009EF
:040AFB000000000EE9
:040AFC0000000014E2
:040AFD0000000018DD
:040AFE0000000001F3
:040AFF0000000002F1
:040B000000000003EE
:040B010000000004EC
:040B020000000008E7
:040B03000000000FDF
:040B040000000012DB
:040B050000000001EB
:040B060000000003E8
:040B070000000007E3
:040B08000000000BDE
:040B090000000011D7
:040B0A0000000016D1
:040B0B000000001ACC
:040B0C0000000001E4
:040B0D0000000002E2
:040B0E0000000005DE
:040B0F000000000AD8
:040B100000000010D1
:040B110000000017C9
:040B12000000001BC4
:040B130000000001DD
:040B140000000003DA
:040B150000000006D6
:040B160000000009D2
:040B17000000000FCB
:040B180000000012C7
:040B190000000015C3
:040B1A0000000001D6
:040B1B0000000002D4
:040B1C0000000004D1
:040B1D0000000008CC
:040B1E000000000EC5
:040B1F0000000013BF
:040B200000000017BA
:040B210000000001CF
:040B220000000003CC
:040B230000000005C9
:040B240000000007C6
:040B25000000000DBF
:040B260000000014B7
:040B270000000018B2
:040B280000000001C8
:040B290000000002C6
:040B2A0000000003C4
:040B2B0000000006C0
:040B2C000000000CB9
:040B2D000000000FB5
:040B2E0000000012B1
:040B2F0000000001C1
:040B300000000003BE
:040B310000000007B9
:040B32000000000DB2
:040B330000000015A9
:040B34000000001CA1
:040B3500000000219B
:040B360000000001BA
:040B370000000002B8
:040B380000000005B4
:040B390000000008B0
:040B3A000000000AAD
:040B3B0000000011A5
:040B3C0000000014A1
:040B3D0000000001B3
:040B3E0000000003B0
:040B3F0000000006AC
:040B40000000000BA6
:040B41000000000EA2
:040B4200000000129D
:040B43000000001599
:040B440000000001AC
:040B450000000002AA
:040B460000000004A7
:040B470000000006A4
:040B480000000008A1
:040B49000000000D9B
:040B4A000000001097
:040B4B0000000001A5
:040B4C0000000003A2
:040B4D00000000059F
:040B4E00000000099A
:040B4F000000000C96
:040B5000000000148D
:040B51000000001888
:040B5200000000019E
:040B5300000000029C
:040B5400000000039A
:040B55000000000498
:040B56000000000695
:040B57000000000991
:040B58000000000B8E
:040B59000000000197
:040B5A000000000394
:040B5B00000000078F
:040B5C000000000B8A
:040B5D000000000F85
:040B5E00000000167D
:040B5F000000001A78
:040B60000000000190
:040B6100000000028E
:040B6200000000058A
:040B63000000000A84
:040B64000000000E7F
:040B6500000000117B
:040B66000000001477
:040B67000000000189
:040B68000000000386
:040B69000000000682
:040B6A00000000097E
:040B6B000000000D79
:040B6C000000001273
:040B6D00000000156F
:040B6E000000000182
:040B6F000000000280
:040B7000000000047D
:040B71000000000878
:040B72000000000C73
:040B7300000000136B
:040B74000000001766
:040B7500000000017B
:040B76000000000378
:040B77000000000575
:040B78000000000772
:040B79000000000B6D
:040B7A000000000E69
:040B7B000000001165
:040B7C000000000174
:040B7D000000000371
:040B7E00000000076C
:040B7F000000000A68
:040B80000000000F62
:040B81000000001759
:040B82000000001B54
:040B8300000000016D
:040B8400000000026B
:040B85000000000567
:040B86000000000962
:040B87000000000E5C
:040B88000000001257
:040B89000000001553
:040B8A000000000166
:040B8B000000000363
:040B8C00000000065F
:040B8D00000000085C
:040B8E000000000D56
:040B8F00000000134F
:040B9000000000174A
:040B9100000000015F
:040B9200000000025D
:040B9300000000045A
:040B94000000000756
:040B95000000000C50
:040B96000000001447
:040B97000000001842
:040B98000000000158
:040B99000000000355
:040B9A000000000552
:040B9B000000000A4C
:040B9C000000001045
:040B9D00000000153F
:040B9E00000000193A
:040B9F000000000151
:040BA000000000024F
:040BA100000000034D
:040BA200000000054A
:040BA3000000000A44
:040BA400000000103D
:040BA5000000001339
:040BA600000000014A
:040BA7000000000347
:040BA8000000000742
:040BA9000000000C3C
:040BAA000000001334
:040BAB00000000172F
:040BAC000000001B2A
:040BAD000000000143
:040BAE000000000241
:040BAF00000000053D
:040BB000000000073A
:040BB1000000000D33
:040BB200000000122D
:040BB3000000001529
:040BB400000000013C
:040BB5000000000339
:040BB6000000000635
:040BB7000000000A30
:040BB8000000001128
:040BB900000000191F
:040BBA000000001E19
:040BBB000000000135
:040BBC000000000233
:040BBD000000000430
:040BBE00000000092A
:040BBF000000001022
:040BC000000000141D
:040BC1000000001818
:040BC200000000012E
:040BC300000000032B
:040BC4000000000528
:040BC5000000000824
:040BC6000000000A21
:040BC7000000000F1B
:040BC8000000001217
:040BC9000000000127
:040BCA000000000225
:040BCB000000000323
:040BCC00000000071E
:040BCD00000000091B
:040BCE000000001013
:040BCF00000000130F
:040BD0000000000120
:040BD100000000031D
:040BD2000000000718
:040BD3000000000A14
:040BD4000000000D10
:040BD500000000110B
:040BD6000000001407
:040BD7000000000119
:040BD8000000000217
:040BD9000000000513
:040BDA00000000090E
:040BDB000000000C0A
:040BDC000000001203
:040BDD0000000015FF
:040BDE000000000112
:040BDF00000000030F
:040BE000000000060B
:040BE1000000000808
:040BE2000000000B04
:040BE30000000013FB
:040BE40000000017F6
:040BE500000000010B
:040BE6000000000209
:040BE7000000000406
:040BE8000000000702
:040BE9000000000AFE
:040BEA000000000EF9
:040BEB0000000011F5
:040BEC000000000104
:040BED000000000301
:040BEE0000000005FE
:040BEF000000000AF8
:040BF0000000000EF3
:040BF10000000015EB
:040BF20000000019E6
:040BF30000000001FD
:040BF40000000002FB
:040BF50000000003F9
:040BF60000000005F6
:040BF70000000008F2
:040BF8000000000AEF
:040BF9000000000CEC
:040BFA0000000001F6
:040BFB0000000003F3
:040BFC0000000007EE
:040BFD000000000CE8
:040BFE0000000011E2
:040BFF0000000017DB
:040C00000000001BD5
:040C010000000001EE
:040C020000000002EC
:040C030000000005E8
:040C040000000007E5
:040C05000000000BE0
:040C060000000012D8
:040C070000000015D4
:040C080000000001E7
:040C090000000003E4
:040C0A0000000006E0
:040C0B000000000ADB
:040C0C000000000FD5
:040C0D0000000013D0
:040C0E0000000017CB
:040C0F0000000001E0
:040C100000000002DE
:040C110000000004DB
:040C120000000009D5
:040C13000000000ECF
:040C140000000014C8
:040C150000000018C3
:040C160000000001D9
:040C170000000003D6
:040C180000000005D3
:040C190000000008CF
:040C1A000000000DC9
:040C1B0000000015C0
:040C1C0000000019BB
:040C1D0000000001D2
:040C1E0000000002D0
:040C1F0000000003CE
:040C200000000007C9
:040C21000000000CC3
:040C220000000010BE
:040C230000000013BA
:040C240000000001CB
:040C250000000003C8
:040C260000000007C3
:040C27000000000ABF
:040C280000000010B8
:040C290000000017B0
:040C2A000000001BAB
:040C2B0000000001C4
:040C2C0000000002C2
:040C2D0000000005BE
:040C2E0000000009B9
:040C2F000000000FB2
:040C300000000012AE
:040C310000000015AA
:040C320000000001BD
:040C330000000003BA
:040C340000000006B6
:040C350000000008B3
:040C36000000000EAC
:040C370000000013A6
:040C380000000017A1
:040C390000000001B6
:040C3A0000000002B4
:040C3B0000000004B1
:040C3C0000000007AD
:040C3D000000000DA6
:040C3E00000000149E
:040C3F000000001899
:040C400000000001AF
:040C410000000003AC
:040C420000000005A9
:040C43000000000AA3
:040C4400000000119B
:040C45000000001596
:040C46000000001991
:040C470000000001A8
:040C480000000002A6
:040C490000000003A4
:040C4A0000000005A1
:040C4B000000000B9A
:040C4C000000001094
:040C4D000000001390
:040C4E0000000001A1
:040C4F00000000039E
:040C50000000000799
:040C51000000000C93
:040C52000000000F8F
:040C53000000001786
:040C54000000001B81
:040C5500000000019A
:040C56000000000298
:040C57000000000594
:040C58000000000791
:040C5900000000098E
:040C5A000000000C8A
:040C5B000000000E87
:040C5C000000000193
:040C5D000000000390
:040C5E00000000068C
:040C5F000000000A87
:040C60000000000D83
:040C6100000000137C
:040C62000000001777
:040C6300000000018C
:040C6400000000028A
:040C65000000000487
:040C66000000000981
:040C67000000000C7D
:040C68000000001474
:040C6900000000186F
:040C6A000000000185
:040C6B000000000382
:040C6C00000000057F
:040C6D00000000087B
:040C6E000000000B77
:040C6F000000000F72
:040C7000000000126E
:040C7100000000017E
:040C7200000000027C
:040C7300000000037A
:040C74000000000775
:040C75000000000A71
:040C7600000000106A
:040C77000000001366
:040C78000000000177
:040C79000000000374
:040C7A00000000076F
:040C7B000000000A6B
:040C7C000000000E66
:040C7D000000001162
:040C7E00000000145E
:040C7F000000000170
