:0400000000000001FB
:0400010000000002F9
:0400020000000003F7
:0400030000000007F2
:040004000000000AEE
:040005000000000CEB
:0400060000000013E3
:0400070000000018DD
:0400080000000020D4
:0400090000000024CF
:04000A0000000001F1
:04000B0000000002EF
:04000C0000000004EC
:04000D0000000006E9
:04000E0000000009E5
:04000F000000000DE0
:0400100000000012DA
:0400110000000017D4
:0400120000000021C9
:0400130000000025C4
:0400140000000001E7
:0400150000000002E5
:0400160000000005E1
:0400170000000009DC
:040018000000000DD7
:0400190000000014CF
:04001A0000000018CA
:04001B000000001EC3
:04001C0000000022BE
:04001D0000000026B9
:04001E0000000001DD
:04001F0000000002DB
:0400200000000003D9
:0400210000000004D7
:0400220000000007D3
:0400230000000009D0
:0400240000000010C8
:0400250000000015C2
:040026000000001ABC
:040027000000001DB8
:0400280000000001D3
:0400290000000002D1
:04002A0000000004CE
:04002B0000000007CA
:04002C000000000BC5
:04002D0000000010BF
:04002E0000000016B8
:04002F000000001CB1
:0400300000000024A8
:0400310000000028A3
:0400320000000001C9
:0400330000000002C7
:0400340000000005C3
:040035000000000ABD
:040036000000000FB7
:0400370000000017AE
:040038000000001CA8
:0400390000000023A0
:04003A000000002E94
:04003B00000000348D
:04003C0000000001BF
:04003D0000000002BD
:04003E0000000003BB
:04003F0000000005B8
:0400400000000009B3
:040041000000000CAF
:0400420000000014A6
:040043000000001A9F
:040044000000002692
:040045000000002B8C
:0400460000000001B5
:0400470000000002B3
:0400480000000004B0
:0400490000000008AB
:04004A000000000DA5
:04004B00000000139E
:04004C000000001A96
:04004D00000000218E
:04004E000000002787
:04004F000000002C81
:0400500000000001AB
:0400510000000002A9
:0400520000000005A5
:0400530000000007A2
:040054000000000C9C
:040055000000001493
:04005600000000198D
:040057000000002085
:04005800000000287C
:040059000000002D76
:04005A0000000001A1
:04005B00000000029F
:04005C00000000039D
:04005D000000000699
:04005E000000000B93
:04005F000000000F8E
:040060000000001884
:040061000000001F7C
:040062000000002971
:040063000000002E6B
:040064000000000197
:040065000000000295
:040066000000000492
:04006700000000098C
:040068000000000F85
:04006900000000167D
:04006A000000001E74
:04006B00000000266B
:04006C00000000335D
:04006D000000003956
:04006E00000000018D
:04006F00000000028B
:040070000000000587
:040071000000000883
:040072000000000E7C
:040073000000001178
:040074000000001672
:040075000000001D6A
:040076000000002264
:04007700000000265F
:040078000000000183
:040079000000000281
:04007A00000000037F
:04007B00000000077A
:04007C000000000D73
:04007D00000000126D
:04007E000000001569
:04007F000000001C61
:040080000000002359
:040081000000002754
:040082000000000179
:040083000000000277
:040084000000000474
:040085000000000671
:040086000000000C6A
:040087000000001362
:040088000000001B59
:040089000000002350
:04008A000000002D45
:04008B00000000323F
:04008C00000000016F
:04008D00000000026D
:04008E000000000569
:04008F000000000964
:04009000000000105C
:040091000000001457
:040092000000001A50
:040093000000002247
:040094000000002E3A
:040095000000003433
:040096000000000165
:040097000000000263
:040098000000000361
:04009900000000045F
:04009A00000000055D
:04009B000000000958
:04009C000000000B55
:04009D00000000114E
:04009E00000000144A
:04009F000000001746
:0400A000000000015B
:0400A1000000000259
:0400A2000000000456
:0400A3000000000752
:0400A400000000094F
:0400A5000000001047
:0400A600000000183E
:0400A7000000002035
:0400A800000000272D
:0400A9000000002C27
:0400AA000000000151
:0400AB00000000024F
:0400AC00000000054B
:0400AD000000000A45
:0400AE000000000D41
:0400AF00000000113C
:0400B0000000001735
:0400B1000000001F2C
:0400B2000000002822
:0400B3000000002D1C
:0400B4000000000147
:0400B5000000000245
:0400B6000000000343
:0400B7000000000540
:0400B800000000073D
:0400B9000000000C37
:0400BA000000000F33
:0400BB00000000162B
:0400BC000000002020
:0400BD00000000241B
:0400BE00000000013D
:0400BF00000000023B
:0400C0000000000438
:0400C1000000000833
:0400C2000000000B2F
:0400C3000000001326
:0400C4000000001C1C
:0400C5000000002512
:0400C6000000002A0C
:0400C7000000002F06
:0400C8000000000133
:0400C9000000000231
:0400CA00000000052D
:0400CB00000000072A
:0400CC000000000A26
:0400CD000000000E21
:0400CE00000000141A
:0400CF000000001C11
:0400D000000000220A
:0400D1000000002605
:0400D2000000000129
:0400D3000000000227
:0400D4000000000325
:0400D5000000000621
:0400D600000000091D
:0400D7000000000F16
:0400D8000000001311
:0400D9000000001B08
:0400DA0000000023FF
:0400DB0000000027FA
:0400DC00000000011F
:0400DD00000000021D
:0400DE00000000041A
:0400DF000000000914
:0400E0000000000D0F
:0400E100000000100B
:0400E2000000001901
:0400E30000000022F7
:0400E4000000002DEB
:0400E50000000032E5
:0400E6000000000115
:0400E7000000000213
:0400E800000000050F
:0400E900000000080B
:0400EA000000000C06
:0400EB000000001100
:0400EC0000000018F8
:0400ED0000000021EE
:0400EE000000002EE0
:0400EF0000000034D9
:0400F000000000010B
:0400F1000000000209
:0400F2000000000307
:0400F3000000000702
:0400F4000000000BFD
:0400F50000000012F5
:0400F60000000017EF
:0400F70000000020E5
:0400F80000000026DE
:0400F9000000002BD8
:0400FA000000000101
:0400FB0000000002FF
:0400FC0000000004FC
:0400FD0000000006F9
:0400FE000000000AF4
:0400FF000000000DF0
:0401000000000016E5
:040101000000001FDB
:0401020000000027D2
:040103000000002CCC
:0401040000000001F6
:0401050000000002F4
:0401060000000005F0
:0401070000000009EB
:040108000000000EE5
:0401090000000014DE
:04010A000000001CD5
:04010B0000000026CA
:04010C0000000031BE
:04010D0000000037B7
:04010E0000000001EC
:04010F0000000002EA
:0401100000000003E8
:0401110000000004E6
:0401120000000008E1
:040113000000000FD9
:0401140000000014D3
:040115000000001DC9
:0401160000000029BC
:040117000000002EB6
:0401180000000001E2
:0401190000000002E0
:04011A0000000004DD
:04011B0000000007D9
:04011C000000000CD3
:04011D0000000010CE
:04011E0000000013CA
:04011F000000001CC0
:0401200000000021BA
:0401210000000025B5
:0401220000000001D8
:0401230000000002D6
:0401240000000005D2
:040125000000000ACC
:0401260000000010C5
:0401270000000017BD
:0401280000000020B3
:040129000000002BA7
:04012A00000000349D
:04012B000000003A96
:04012C0000000001CE
:04012D0000000002CC
:04012E0000000003CA
:04012F0000000005C7
:040130000000000AC1
:040131000000000CBE
:0401320000000011B8
:040133000000001AAE
:0401340000000023A4
:04013500000000279F
:0401360000000001C4
:0401370000000002C2
:0401380000000004BF
:0401390000000008BA
:04013A000000000EB3
:04013B0000000013AD
:04013C0000000017A8
:04013D00000000219D
:04013E000000002D90
:04013F00000000328A
:0401400000000001BA
:0401410000000002B8
:0401420000000005B4
:0401430000000007B1
:040144000000000DAA
:0401450000000014A2
:040146000000001D98
:04014700000000288C
:040148000000002E85
:04014900000000347E
:04014A0000000001B0
:04014B0000000002AE
:04014C0000000003AC
:04014D0000000006A8
:04014E000000000CA1
:04014F000000000F9D
:040150000000001596
:040151000000001F8B
:040152000000002683
:040153000000002B7D
:0401540000000001A6
:0401550000000002A4
:0401560000000004A1
:04015700000000099B
:040158000000001093
:04015900000000168C
:04015A000000001B86
:04015B00000000267A
:04015C00000000306F
:04015D000000003668
:04015E00000000019C
:04015F00000000029A
:040160000000000596
:040161000000000892
:040162000000000A8F
:040163000000001187
:040164000000001A7D
:040165000000002571
:040166000000003164
:04016700000000375D
:040168000000000192
:040169000000000290
:04016A00000000038E
:04016B000000000789
:04016C000000000986
:04016D000000000C82
:04016E00000000127B
:04016F000000001C70
:04017000000000206B
:040171000000002466
:040172000000000188
:040173000000000286
:040174000000000483
:040175000000000680
:04017600000000087D
:040177000000000D77
:040178000000001172
:040179000000001B67
:04017A000000002160
:04017B00000000255B
:04017C00000000017E
:04017D00000000027C
:04017E000000000578
:04017F000000000973
:040180000000000C6F
:040181000000001466
:040182000000001E5B
:040183000000002A4E
:040184000000003443
:040185000000003A3C
:040186000000000174
:040187000000000272
:040188000000000370
:04018900000000046E
:04018A00000000066B
:04018B000000000967
:04018C000000000F60
:04018D000000001955
:04018E00000000234A
:04018F000000002745
:04019000000000016A
:040191000000000268
:040192000000000465
:040193000000000761
:040194000000000A5D
:040195000000001056
:040196000000001550
:04019700000000184C
:040198000000001B48
:040199000000001E44
:04019A000000000160
:04019B00000000025E
:04019C00000000055A
:04019D000000000A54
:04019E000000000E4F
:04019F00000000114B
:0401A0000000001447
:0401A1000000001743
:0401A2000000001C3D
:0401A3000000002038
:0401A4000000000156
:0401A5000000000254
:0401A6000000000352
:0401A700000000054F
:0401A800000000084B
:0401A9000000000C46
:0401AA00000000133E
:0401AB00000000163A
:0401AC000000001D32
:0401AD00000000212D
:0401AE00000000014C
:0401AF00000000024A
:0401B0000000000447
:0401B1000000000842
:0401B2000000000C3D
:0401B3000000001335
:0401B400000000192E
:0401B5000000001D29
:0401B600000000271E
:0401B7000000002C18
:0401B8000000000142
:0401B9000000000240
:0401BA00000000053C
:0401BB000000000739
:0401BC000000000B34
:0401BD000000000E30
:0401BE00000000112C
:0401BF000000001428
:0401C0000000001F1C
:0401C1000000002317
:0401C2000000000138
:0401C3000000000236
:0401C4000000000334
:0401C5000000000630
:0401C6000000000A2B
:0401C7000000000F25
:0401C800000000171C
:0401C9000000001B17
:0401CA000000002011
:0401CB00000000240C
:0401CC00000000012E
:0401CD00000000022C
:0401CE000000000429
:0401CF000000000923
:0401D0000000000E1D
:0401D1000000001614
:0401D2000000001D0C
:0401D3000000002206
:0401D4000000002AFD
:0401D5000000002FF7
:0401D6000000000124
:0401D7000000000222
:0401D800000000051E
:0401D900000000081A
:0401DA000000000D14
:0401DB00000000110F
:0401DC00000000150A
:0401DD000000001905
:0401DE0000000022FB
:0401DF0000000026F6
:0401E000000000011A
:0401E1000000000218
:0401E2000000000316
:0401E3000000000711
:0401E4000000000C0B
:0401E5000000001204
:0401E6000000001BFA
:0401E70000000020F4
:0401E8000000002CE7
:0401E90000000031E1
:0401EA000000000110
:0401EB00000000020E
:0401EC00000000040B
:0401ED000000000608
:0401EE000000000B02
:0401EF0000000013F9
:0401F0000000001AF1
:0401F1000000001FEB
:0401F20000000024E5
:0401F30000000028E0
:0401F4000000000106
:0401F5000000000204
:0401F6000000000500
:0401F70000000009FB
:0401F8000000000FF4
:0401F90000000014EE
:0401FA0000000019E8
:0401FB000000001EE2
:0401FC0000000025DA
:0401FD000000002AD4
:0401FE0000000001FC
:0401FF0000000002FA
:0402000000000003F7
:0402010000000004F5
:0402020000000009EF
:040203000000000FE8
:0402040000000018DE
:040205000000001DD8
:0402060000000026CE
:040207000000002BC8
:0402080000000001F1
:0402090000000002EF
:04020A0000000004EC
:04020B0000000007E8
:04020C000000000DE1
:04020D0000000010DD
:04020E0000000017D5
:04020F000000001CCF
:0402100000000027C3
:040211000000002CBD
:0402120000000001E7
:0402130000000002E5
:0402140000000005E1
:040215000000000ADB
:0402160000000011D3
:0402170000000017CC
:040218000000001DC5
:0402190000000023BE
:04021A0000000028B8
:04021B000000002DB2
:04021C0000000001DD
:04021D0000000002DB
:04021E0000000003D9
:04021F0000000005D6
:040220000000000BCF
:0402210000000012C7
:0402220000000015C3
:040223000000001ABD
:0402240000000020B6
:0402250000000024B1
:0402260000000001D3
:0402270000000002D1
:0402280000000004CE
:0402290000000008C9
:04022A000000000AC6
:04022B000000000DC2
:04022C0000000014BA
:04022D0000000019B4
:04022E0000000021AB
:04022F0000000025A6
:0402300000000001C9
:0402310000000002C7
:0402320000000005C3
:0402330000000007C0
:0402340000000009BD
:040235000000000EB7
:0402360000000013B1
:0402370000000018AB
:0402380000000022A0
:04023900000000269B
:04023A0000000001BF
:04023B0000000002BD
:04023C0000000003BB
:04023D0000000006B7
:04023E0000000008B4
:04023F000000000FAC
:0402400000000012A8
:0402410000000017A2
:040242000000001A9E
:040243000000001D9A
:0402440000000001B5
:0402450000000002B3
:0402460000000004B0
:0402470000000009AA
:040248000000000CA6
:0402490000000010A1
:04024A000000001898
:04024B000000001E91
:04024C00000000248A
:04024D000000002885
:04024E0000000001AB
:04024F0000000002A9
:0402500000000005A5
:0402510000000008A1
:040252000000000B9D
:040253000000001196
:04025400000000178F
:040255000000001D88
:04025600000000257F
:040257000000002A79
:0402580000000001A1
:04025900000000029F
:04025A00000000039D
:04025B000000000798
:04025C000000000A94
:04025D000000000C91
:04025E000000000F8D
:04025F000000001487
:040260000000001D7D
:040261000000002178
:040262000000000197
:040263000000000295
:040264000000000492
:04026500000000068F
:04026600000000098B
:040267000000000D86
:04026800000000157D
:040269000000001B76
:04026A000000002769
:04026B000000002C63
:04026C00000000018D
:04026D00000000028B
:04026E000000000587
:04026F000000000982
:040270000000000D7D
:040271000000001475
:040272000000001B6D
:040273000000002265
:04027400000000285E
:040275000000002D58
:040276000000000183
:040277000000000281
:04027800000000037F
:04027900000000047D
:04027A000000000779
:04027B000000000976
:04027C000000000C72
:04027D00000000116C
:04027E000000001765
:04027F000000001A61
:040280000000000179
:040281000000000277
:040282000000000474
:040283000000000770
:040284000000000B6B
:040285000000001065
:04028600000000195B
:040287000000002053
:040288000000002A48
:040289000000002F42
:04028A00000000016F
:04028B00000000026D
:04028C000000000569
:04028D000000000A63
:04028E000000000F5D
:04028F000000001754
:040290000000001F4B
:040291000000002742
:040292000000003434
:040293000000003A2D
:040294000000000165
:040295000000000263
:040296000000000361
:04029700000000055E
:040298000000000959
:040299000000000C55
:04029A000000001050
:04029B000000001649
:04029C000000001A44
:04029D000000001D40
:04029E00000000015B
:04029F000000000259
:0402A0000000000456
:0402A1000000000851
:0402A2000000000D4B
:0402A3000000001344
:0402A4000000001D39
:0402A5000000002530
:0402A6000000002D27
:0402A7000000003221
:0402A8000000000151
:0402A900000000024F
:0402AA00000000054B
:0402AB000000000748
:0402AC000000000C42
:0402AD000000001439
:0402AE000000001C30
:0402AF000000002427
:0402B0000000002E1C
:0402B1000000003415
:0402B2000000000147
:0402B3000000000245
:0402B4000000000343
:0402B500000000063F
:0402B6000000000B39
:0402B7000000000F34
:0402B800000000142E
:0402B9000000001B26
:0402BA00000000261A
:0402BB000000002B14
:0402BC00000000013D
:0402BD00000000023B
:0402BE000000000438
:0402BF000000000932
:0402C0000000000F2B
:0402C1000000001623
:0402C2000000001A1E
:0402C3000000002215
:0402C400000000270F
:0402C5000000002C09
:0402C6000000000133
:0402C7000000000231
:0402C800000000052D
:0402C9000000000829
:0402CA000000000E22
:0402CB00000000111E
:0402CC000000001915
:0402CD00000000210C
:0402CE000000002804
:0402CF000000002DFE
:0402D0000000000129
:0402D1000000000227
:0402D2000000000325
:0402D3000000000720
:0402D4000000000D19
:0402D5000000001213
:0402D600000000180C
:0402D7000000002003
:0402D80000000029F9
:0402D9000000002EF3
:0402DA00000000011F
:0402DB00000000021D
:0402DC00000000041A
:0402DD000000000617
:0402DE000000000C10
:0402DF000000001308
:0402E0000000001703
:0402E1000000001FFA
:0402E2000000002AEE
:0402E3000000002FE8
:0402E4000000000115
:0402E5000000000213
:0402E600000000050F
:0402E700000000090A
:0402E8000000001002
:0402E90000000014FD
:0402EA000000001DF3
:0402EB0000000026E9
:0402EC000000002BE3
:0402ED0000000030DD
:0402EE00000000010B
:0402EF000000000209
:0402F0000000000307
:0402F1000000000405
:0402F2000000000503
:0402F30000000009FE
:0402F4000000000EF8
:0402F50000000015F0
:0402F6000000001AEA
:0402F7000000001DE6
:0402F8000000000101
:0402F90000000002FF
:0402FA0000000004FC
:0402FB0000000007F8
:0402FC0000000009F5
:0402FD0000000010ED
:0402FE0000000014E8
:0402FF000000001CDF
:0403000000000024D5
:0403010000000028D0
:0403020000000001F6
:0403030000000002F4
:0403040000000005F0
:040305000000000AEA
:040306000000000DE6
:0403070000000011E1
:040308000000001AD7
:0403090000000023CD
:04030A000000002EC1
:04030B0000000034BA
:04030C0000000001EC
:04030D0000000002EA
:04030E0000000003E8
:04030F0000000005E5
:0403100000000007E2
:040311000000000CDC
:0403120000000012D5
:040313000000001ACC
:0403140000000026BF
:040315000000002BB9
:0403160000000001E2
:0403170000000002E0
:0403180000000004DD
:0403190000000008D8
:04031A000000000BD4
:04031B0000000013CB
:04031C0000000018C5
:04031D0000000021BB
:04031E0000000027B4
:04031F000000002CAE
:0403200000000001D8
:0403210000000002D6
:0403220000000005D2
:0403230000000007CF
:040324000000000ACB
:040325000000000EC6
:0403260000000017BC
:0403270000000020B2
:0403280000000028A9
:040329000000002DA3
:04032A0000000001CE
:04032B0000000002CC
:04032C0000000003CA
:04032D0000000006C6
:04032E0000000009C2
:04032F000000000FBB
:0403300000000016B3
:040331000000001FA9
:04033200000000299E
:040333000000002E98
:0403340000000001C4
:0403350000000002C2
:0403360000000004BF
:0403370000000009B9
:040338000000000DB4
:0403390000000010B0
:04033A0000000015AA
:04033B000000001EA0
:04033C000000002A93
:04033D000000002F8D
:04033E0000000001BA
:04033F0000000002B8
:0403400000000005B4
:0403410000000008B0
:040342000000000CAB
:0403430000000011A5
:0403440000000014A1
:040345000000001D97
:040346000000002291
:04034700000000268C
:0403480000000001B0
:0403490000000002AE
:04034A0000000003AC
:04034B0000000007A7
:04034C000000000BA2
:04034D00000000129A
:04034E000000001A91
:04034F000000002486
:040350000000002C7D
:040351000000003177
:0403520000000001A6
:0403530000000002A4
:0403540000000004A1
:04035500000000069E
:040356000000000A99
:040357000000000D95
:04035800000000128F
:040359000000001B85
:04035A00000000247B
:04035B000000002876
:04035C00000000019C
:04035D00000000029A
:04035E000000000596
:04035F000000000991
:040360000000000E8B
:040361000000001484
:04036200000000187F
:040363000000002274
:040364000000002E67
:040365000000003460
:040366000000000192
:040367000000000290
:04036800000000038E
:04036900000000048C
:04036A000000000887
:04036B000000000F7F
:04036C000000001776
:04036D00000000216B
:04036E000000002665
:04036F000000002B5F
:040370000000000188
:040371000000000286
:040372000000000483
:04037300000000077F
:040374000000000C79
:040375000000001074
:04037600000000166D
:040377000000002062
:04037800000000275A
:040379000000002C54
:04037A00000000017E
:04037B00000000027C
:04037C000000000578
:04037D000000000A72
:04037E00000000106B
:04037F000000001763
:040380000000001C5D
:040381000000002751
:040382000000003146
:04038300000000373F
:040384000000000174
:040385000000000272
:040386000000000370
:04038700000000056D
:040388000000000A67
:040389000000000C64
:04038A00000000145B
:04038B000000001E50
:04038C000000002944
:04038D000000002E3E
:04038E00000000016A
:04038F000000000268
:040390000000000465
:040391000000000860
:040392000000000E59
:040393000000001353
:040394000000001A4B
:04039500000000253F
:040396000000002A39
:040397000000002F33
:040398000000000160
:04039900000000025E
:04039A00000000055A
:04039B000000000757
:04039C000000000D50
:04039D000000001448
:04039E000000001942
:04039F000000002436
:0403A0000000002B2E
:0403A1000000003028
:0403A2000000000156
:0403A3000000000254
:0403A4000000000352
:0403A500000000064E
:0403A6000000000C47
:0403A7000000000F43
:0403A8000000001839
:0403A900000000232D
:0403AA000000002C23
:0403AB00000000311D
:0403AC00000000014C
:0403AD00000000024A
:0403AE000000000447
:0403AF000000000941
:0403B0000000001039
:0403B1000000001632
:0403B2000000001E29
:0403B3000000002A1C
:0403B400000000360F
:0403B5000000003C08
:0403B6000000000142
:0403B7000000000240
:0403B800000000053C
:0403B9000000000838
:0403BA000000000A35
:0403BB00000000112D
:0403BC000000001627
:0403BD00000000211B
:0403BE000000002E0D
:0403BF000000003406
:0403C0000000000138
:0403C1000000000236
:0403C2000000000334
:0403C300000000072F
:0403C400000000092C
:0403C5000000000C28
:0403C6000000000E25
:0403C7000000001022
:0403C800000000141D
:0403C9000000001719
:0403CA00000000012E
:0403CB00000000022C
:0403CC000000000429
:0403CD000000000626
:0403CE000000000823
:0403CF000000000D1D
:0403D0000000001415
:0403D1000000001711
:0403D2000000001E09
:0403D3000000002204
:0403D4000000000124
:0403D5000000000222
:0403D600000000051E
:0403D7000000000919
:0403D8000000000C15
:0403D900000000140C
:0403DA000000001A05
:0403DB000000001E00
:0403DC0000000028F5
:0403DD000000002DEF
:0403DE00000000011A
:0403DF000000000218
:0403E0000000000316
:0403E1000000000414
:0403E2000000000611
:0403E300000000090D
:0403E4000000000B0A
:0403E5000000000D07
:0403E60000000017FC
:0403E7000000001AF8
:0403E8000000000110
:0403E900000000020E
:0403EA00000000040B
:0403EB000000000707
:0403EC000000000A03
:0403ED0000000010FC
:0403EE0000000018F3
:0403EF000000001CEE
:0403F00000000021E8
:0403F10000000025E3
:0403F2000000000106
:0403F3000000000204
:0403F4000000000500
:0403F5000000000AFA
:0403F6000000000EF5
:0403F70000000011F1
:0403F80000000017EA
:0403F9000000001BE5
:0403FA0000000022DD
:0403FB0000000026D8
:0403FC0000000001FC
:0403FD0000000002FA
:0403FE0000000003F8
:0403FF0000000005F5
:0404000000000008F0
:040401000000000CEB
:040402000000000FE7
:0404030000000012E3
:040404000000001ADA
:040405000000001DD6
:0404060000000001F1
:0404070000000002EF
:0404080000000004EC
:0404090000000008E7
:04040A000000000CE2
:04040B0000000013DA
:04040C000000001CD0
:04040D0000000021CA
:04040E000000002DBD
:04040F0000000032B7
:0404100000000001E7
:0404110000000002E5
:0404120000000005E1
:0404130000000007DE
:040414000000000BD9
:040415000000000ED5
:0404160000000014CE
:0404170000000018C9
:040418000000001CC4
:0404190000000020BF
:04041A0000000001DD
:04041B0000000002DB
:04041C0000000003D9
:04041D0000000006D5
:04041E000000000AD0
:04041F000000000FCA
:0404200000000013C5
:0404210000000017C0
:040422000000001DB9
:0404230000000021B4
:0404240000000001D3
:0404250000000002D1
:0404260000000004CE
:0404270000000009C8
:040428000000000EC2
:0404290000000016B9
:04042A0000000020AE
:04042B0000000026A7
:04042C00000000309C
:04042D000000003695
:04042E0000000001C9
:04042F0000000002C7
:0404300000000005C3
:0404310000000008BF
:040432000000000DB9
:0404330000000011B4
:0404340000000018AC
:040435000000001DA6
:04043600000000289A
:040437000000002D94
:0404380000000001BF
:0404390000000002BD
:04043A0000000003BB
:04043B0000000007B6
:04043C000000000CB0
:04043D0000000012A9
:04043E0000000017A3
:04043F000000001C9D
:040440000000002098
:040441000000002493
:0404420000000001B5
:0404430000000002B3
:0404440000000004B0
:0404450000000006AD
:040446000000000BA7
:04044700000000139E
:040448000000001D93
:04044900000000238C
:04044A000000002A84
:04044B000000002F7E
:04044C0000000001AB
:04044D0000000002A9
:04044E0000000005A5
:04044F0000000009A0
:040450000000000F99
:040451000000001493
:040452000000001C8A
:040453000000002283
:040454000000002B79
:040455000000003073
:0404560000000001A1
:04045700000000029F
:04045800000000039D
:04045900000000049B
:04045A000000000995
:04045B000000000F8E
:04045C000000001488
:04045D000000001982
:04045E000000002377
:04045F000000002772
:040460000000000197
:040461000000000295
:040462000000000492
:04046300000000078E
:040464000000000D87
:040465000000001083
:04046600000000137F
:040467000000001879
:040468000000001B75
:040469000000001E71
:04046A00000000018D
:04046B00000000028B
:04046C000000000587
:04046D000000000A81
:04046E000000001179
:04046F000000001772
:040470000000002068
:040471000000002760
:040472000000002E58
:040473000000003451
:040474000000000183
:040475000000000281
:04047600000000037F
:04047700000000057C
:040478000000000B75
:04047900000000126D
:04047A000000001866
:04047B000000001E5F
:04047C000000002656
:04047D000000002B50
:04047E000000000179
:04047F000000000277
:040480000000000474
:04048100000000086F
:040482000000000A6C
:040483000000000D68
:040484000000001064
:04048500000000155E
:040486000000001E54
:04048700000000224F
:04048800000000016F
:04048900000000026D
:04048A000000000569
:04048B000000000766
:04048C000000000963
:04048D000000000E5D
:04048E000000001654
:04048F000000001C4D
:040490000000002840
:040491000000002D3A
:040492000000000165
:040493000000000263
:040494000000000361
:04049500000000065D
:04049600000000085A
:040497000000000F52
:04049800000000154B
:040499000000001B44
:04049A00000000203E
:04049B000000002439
:04049C00000000015B
:04049D000000000259
:04049E000000000456
:04049F000000000950
:0404A0000000000C4C
:0404A1000000001047
:0404A2000000001442
:0404A3000000001A3B
:0404A4000000002133
:0404A500000000252E
:0404A6000000000151
:0404A700000000024F
:0404A800000000054B
:0404A9000000000847
:0404AA000000000B43
:0404AB00000000113C
:0404AC000000001A32
:0404AD00000000212A
:0404AE000000002B1F
:0404AF000000003019
:0404B0000000000147
:0404B1000000000245
:0404B2000000000343
:0404B300000000073E
:0404B4000000000A3A
:0404B5000000000C37
:0404B6000000001230
:0404B7000000001829
:0404B800000000231D
:0404B9000000002718
:0404BA00000000013D
:0404BB00000000023B
:0404BC000000000438
:0404BD000000000635
:0404BE000000000931
:0404BF000000000D2C
:0404C0000000001127
:0404C1000000001720
:0404C2000000001B1B
:0404C3000000001E17
:0404C4000000000133
:0404C5000000000231
:0404C600000000052D
:0404C7000000000928
:0404C8000000000D23
:0404C900000000141B
:0404CA000000001E10
:0404CB000000002607
:0404CC000000002EFE
:0404CD0000000034F7
:0404CE000000000129
:0404CF000000000227
:0404D0000000000325
:0404D1000000000423
:0404D200000000071F
:0404D300000000091C
:0404D4000000000F15
:0404D500000000150E
:0404D6000000001D05
:0404D7000000002100
:0404D800000000011F
:0404D900000000021D
:0404DA00000000041A
:0404DB000000000716
:0404DC000000000B11
:0404DD00000000100B
:0404DE000000001505
:0404DF000000001CFD
:0404E00000000027F1
:0404E1000000002CEB
:0404E2000000000115
:0404E3000000000213
:0404E400000000050F
:0404E5000000000A09
:0404E6000000000F03
:0404E70000000017FA
:0404E8000000001BF5
:0404E90000000023EC
:0404EA0000000028E6
:0404EB000000002DE0
:0404EC00000000010B
:0404ED000000000209
:0404EE000000000307
:0404EF000000000504
:0404F00000000009FF
:0404F1000000000CFB
:0404F20000000013F3
:0404F3000000001AEB
:0404F40000000020E4
:0404F50000000024DF
:0404F6000000000101
:0404F70000000002FF
:0404F80000000004FC
:0404F90000000008F7
:0404FA000000000DF1
:0404FB0000000013EA
:0404FC0000000019E3
:0404FD0000000021DA
:0404FE000000002AD0
:0404FF000000002FCA
:0405000000000001F6
:0405010000000002F4
:0405020000000005F0
:0405030000000007ED
:040504000000000CE7
:0405050000000014DE
:0405060000000018D9
:0405070000000020D0
:040508000000002BC4
:0405090000000030BE
:04050A0000000001EC
:04050B0000000002EA
:04050C0000000003E8
:04050D0000000006E4
:04050E000000000BDE
:04050F000000000FD9
:0405100000000017D0
:040511000000001FC7
:0405120000000023C2
:0405130000000027BD
:0405140000000001E2
:0405150000000002E0
:0405160000000004DD
:0405170000000009D7
:040518000000000FD0
:0405190000000016C8
:04051A000000001DC0
:04051B0000000026B6
:04051C000000002DAE
:04051D0000000032A8
:04051E0000000001D8
:04051F0000000002D6
:0405200000000005D2
:0405210000000008CE
:040522000000000EC7
:0405230000000011C3
:0405240000000015BE
:040525000000001DB5
:0405260000000025AC
:040527000000002AA6
:0405280000000001CE
:0405290000000002CC
:04052A0000000003CA
:04052B0000000007C5
:04052C000000000DBE
:04052D0000000012B8
:04052E000000001BAE
:04052F0000000024A4
:040530000000002F98
:040531000000003591
:0405320000000001C4
:0405330000000002C2
:0405340000000004BF
:0405350000000006BC
:040536000000000CB5
:0405370000000013AD
:040538000000001AA5
:04053900000000239B
:04053A00000000308D
:04053B000000003686
:04053C0000000001BA
:04053D0000000002B8
:04053E0000000005B4
:04053F0000000009AF
:0405400000000010A7
:0405410000000014A2
:04054200000000199C
:040543000000002292
:04054400000000288B
:040545000000002D85
:0405460000000001B0
:0405470000000002AE
:0405480000000003AC
:0405490000000004AA
:04054A0000000005A8
:04054B0000000009A3
:04054C00000000119A
:04054D000000001991
:04054E000000002089
:04054F000000002484
:0405500000000001A6
:0405510000000002A4
:0405520000000004A1
:04055300000000079D
:04055400000000099A
:040555000000001092
:04055600000000178A
:040557000000002080
:040558000000002A75
:040559000000002F6F
:04055A00000000019C
:04055B00000000029A
:04055C000000000596
:04055D000000000A90
:04055E000000000D8C
:04055F000000001187
:040560000000001681
:040561000000001F77
:040562000000002B6A
:040563000000003064
:040564000000000192
:040565000000000290
:04056600000000038E
:04056700000000058B
:040568000000000788
:040569000000000C82
:04056A000000000E7F
:04056B000000001676
:04056C000000001A71
:04056D000000001D6D
:04056E000000000188
:04056F000000000286
:040570000000000483
:04057100000000087E
:040572000000000B7A
:040573000000001371
:040574000000001B68
:04057500000000255D
:040576000000002D54
:04057700000000324E
:04057800000000017E
:04057900000000027C
:04057A000000000578
:04057B000000000775
:04057C000000000A71
:04057D000000000E6C
:04057E000000001366
:04057F000000001C5C
:040580000000002552
:040581000000002A4C
:040582000000000174
:040583000000000272
:040584000000000370
:04058500000000066C
:040586000000000968
:040587000000000F61
:04058800000000125D
:040589000000001B53
:04058A000000002647
:04058B000000002B41
:04058C00000000016A
:04058D000000000268
:04058E000000000465
:04058F00000000095F
:040590000000000D5A
:040591000000001056
:04059200000000184D
:040593000000002242
:04059400000000273C
:040595000000002C36
:040596000000000160
:04059700000000025E
:04059800000000055A
:040599000000000856
:04059A000000000C51
:04059B00000000114B
:04059C000000001744
:04059D000000002139
:04059E000000002831
:04059F000000002D2B
:0405A0000000000156
:0405A1000000000254
:0405A2000000000352
:0405A300000000074D
:0405A4000000000B48
:0405A5000000001240
:0405A600000000163B
:0405A7000000002030
:0405A8000000002926
:0405A9000000002E20
:0405AA00000000014C
:0405AB00000000024A
:0405AC000000000447
:0405AD000000000644
:0405AE000000000A3F
:0405AF000000000D3B
:0405B0000000001532
:0405B1000000001F27
:0405B2000000002A1B
:0405B3000000002F15
:0405B4000000000142
:0405B5000000000240
:0405B600000000053C
:0405B7000000000937
:0405B8000000000E31
:0405B900000000142A
:0405BA000000001B22
:0405BB000000002616
:0405BC000000002B10
:0405BD00000000300A
:0405BE000000000138
:0405BF000000000236
:0405C0000000000334
:0405C1000000000432
:0405C200000000082D
:0405C3000000000F25
:0405C4000000001320
:0405C5000000001D15
:0405C600000000230E
:0405C7000000002709
:0405C800000000012E
:0405C900000000022C
:0405CA000000000429
:0405CB000000000725
:0405CC000000000C1F
:0405CD00000000101A
:0405CE000000001910
:0405CF000000002404
:0405D0000000002DFA
:0405D10000000032F4
:0405D2000000000124
:0405D3000000000222
:0405D400000000051E
:0405D5000000000A18
:0405D6000000001011
:0405D7000000001709
:0405D8000000001F00
:0405D9000000002BF3
:0405DA0000000037E6
:0405DB000000003EDE
:0405DC00000000011A
:0405DD000000000218
:0405DE000000000316
:0405DF000000000513
:0405E0000000000A0D
:0405E1000000000C0A
:0405E2000000001005
:0405E3000000001AFA
:0405E40000000026ED
:0405E5000000002BE7
:0405E6000000000110
:0405E700000000020E
:0405E800000000040B
:0405E9000000000806
:0405EA000000000EFF
:0405EB0000000013F9
:0405EC000000001DEE
:0405ED0000000029E1
:0405EE0000000030D9
:0405EF0000000036D2
:0405F0000000000106
:0405F1000000000204
:0405F2000000000500
:0405F30000000007FD
:0405F4000000000DF6
:0405F50000000014EE
:0405F6000000001CE5
:0405F70000000020E0
:0405F80000000028D7
:0405F9000000002DD1
:0405FA0000000001FC
:0405FB0000000002FA
:0405FC0000000003F8
:0405FD0000000006F4
:0405FE000000000CED
:0405FF000000000FE9
:0406000000000014E2
:0406010000000017DE
:0406020000000020D4
:0406030000000024CF
:0406040000000001F1
:0406050000000002EF
:0406060000000004EC
:0406070000000009E6
:0406080000000010DE
:0406090000000016D7
:04060A000000001AD2
:04060B000000001ECD
:04060C000000002AC0
:04060D000000002FBA
:04060E0000000001E7
:04060F0000000002E5
:0406100000000005E1
:0406110000000008DD
:040612000000000ADA
:0406130000000011D2
:0406140000000019C9
:040615000000001DC4
:0406160000000022BE
:0406170000000026B9
:0406180000000001DD
:0406190000000002DB
:04061A0000000003D9
:04061B0000000007D4
:04061C0000000009D1
:04061D000000000CCD
:04061E0000000011C7
:04061F0000000014C3
:040620000000001ABC
:040621000000001DB8
:0406220000000001D3
:0406230000000002D1
:0406240000000004CE
:0406250000000006CB
:0406260000000008C8
:040627000000000DC2
:0406280000000010BE
:0406290000000013BA
:04062A000000001BB1
:04062B000000001EAD
:04062C0000000001C9
:04062D0000000002C7
:04062E0000000005C3
:04062F0000000009BE
:040630000000000CBA
:0406310000000014B1
:040632000000001DA7
:0406330000000022A1
:040634000000002E94
:04063500000000348D
:0406360000000001BF
:0406370000000002BD
:0406380000000003BB
:0406390000000004B9
:04063A0000000006B6
:04063B0000000009B2
:04063C000000000EAC
:04063D0000000011A8
:04063E0000000014A4
:04063F0000000017A0
:0406400000000001B5
:0406410000000002B3
:0406420000000004B0
:0406430000000007AC
:040644000000000AA8
:0406450000000010A1
:04064600000000149C
:040647000000001897
:040648000000001E90
:04064900000000228B
:04064A0000000001AB
:04064B0000000002A9
:04064C0000000005A5
:04064D000000000A9F
:04064E000000000E9A
:04064F000000001196
:040650000000001A8C
:040651000000001F86
:04065200000000287C
:040653000000002D76
:0406540000000001A1
:04065500000000029F
:04065600000000039D
:04065700000000059A
:040658000000000896
:040659000000000C91
:04065A00000000128A
:04065B000000001685
:04065C00000000207A
:04065D000000002475
:04065E000000000197
:04065F000000000295
:040660000000000492
:04066100000000088D
:040662000000000C88
:040663000000001380
:04066400000000187A
:040665000000001D74
:04066600000000216F
:04066700000000256A
:04066800000000018D
:04066900000000028B
:04066A000000000587
:04066B000000000784
:04066C000000000B7F
:04066D000000000E7B
:04066E000000001771
:04066F000000001C6B
:040670000000002264
:04067100000000265F
:040672000000000183
:040673000000000281
:04067400000000037F
:04067500000000067B
:040676000000000A76
:040677000000000F70
:040678000000001668
:040679000000001B62
:04067A000000002359
:04067B000000002754
:04067C000000000179
:04067D000000000277
:04067E000000000474
:04067F00000000096E
:040680000000000E68
:04068100000000165F
:040682000000001C58
:040683000000002251
:040684000000002D45
:04068500000000323F
:04068600000000016F
:04068700000000026D
:040688000000000569
:040689000000000865
:04068A000000000D5F
:04068B00000000115A
:04068C000000001456
:04068D000000001950
:04068E000000002543
:04068F000000002A3D
:040690000000000165
:040691000000000263
:040692000000000361
:04069300000000075C
:040694000000000C56
:04069500000000124F
:040696000000001A46
:04069700000000203F
:040698000000002638
:040699000000002B32
:04069A00000000015B
:04069B000000000259
:04069C000000000456
:04069D000000000653
:04069E000000000B4D
:04069F000000001344
:0406A000000000193D
:0406A1000000001F36
:0406A200000000272D
:0406A3000000002C27
:0406A4000000000151
:0406A500000000024F
:0406A600000000054B
:0406A7000000000946
:0406A8000000000F3F
:0406A9000000001439
:0406AA000000001834
:0406AB000000001E2D
:0406AC000000002822
:0406AD000000002D1C
:0406AE000000000147
:0406AF000000000245
:0406B0000000000343
:0406B1000000000441
:0406B200000000093B
:0406B3000000000F34
:0406B400000000172B
:0406B5000000001D24
:0406B6000000002917
:0406B7000000002E11
:0406B800000000013D
:0406B900000000023B
:0406BA000000000438
:0406BB000000000734
:0406BC000000000D2D
:0406BD000000001029
:0406BE000000001622
:0406BF000000001C1B
:0406C0000000002115
:0406C1000000002510
:0406C2000000000133
:0406C3000000000231
:0406C400000000052D
:0406C5000000000A27
:0406C600000000111F
:0406C7000000001718
:0406C8000000001C12
:0406C900000000230A
:0406CA000000002B01
:0406CB0000000030FB
:0406CC000000000129
:0406CD000000000227
:0406CE000000000325
:0406CF000000000522
:0406D0000000000B1B
:0406D1000000001213
:0406D2000000001B09
:0406D3000000002201
:0406D4000000002CF6
:0406D50000000031F0
:0406D600000000011F
:0406D700000000021D
:0406D800000000041A
:0406D9000000000815
:0406DA000000000A12
:0406DB000000000D0E
:0406DC000000001307
:0406DD000000001900
:0406DE0000000024F4
:0406DF0000000028EF
:0406E0000000000115
:0406E1000000000213
:0406E200000000050F
:0406E300000000070C
:0406E4000000000909
:0406E5000000000E03
:0406E60000000012FE
:0406E70000000018F7
:0406E8000000001CF2
:0406E90000000020ED
:0406EA00000000010B
:0406EB000000000209
:0406EC000000000307
:0406ED000000000603
:0406EE000000000800
:0406EF000000000FF8
:0406F00000000018EE
:0406F1000000001FE6
:0406F20000000026DE
:0406F3000000002BD8
:0406F4000000000101
:0406F50000000002FF
:0406F60000000004FC
:0406F70000000009F6
:0406F8000000000CF2
:0406F90000000010ED
:0406FA0000000017E5
:0406FB000000001EDD
:0406FC0000000027D3
:0406FD000000002CCD
:0406FE0000000001F7
:0406FF0000000002F5
:0407000000000005F0
:0407010000000008EC
:040702000000000BE8
:0407030000000011E1
:0407040000000016DB
:040705000000001DD3
:0407060000000028C7
:040707000000002DC1
:0407080000000001EC
:0407090000000002EA
:04070A0000000003E8
:04070B0000000007E3
:04070C000000000ADF
:04070D000000000CDC
:04070E000000000ED9
:04070F0000000014D2
:0407100000000017CE
:040711000000001ACA
:0407120000000001E2
:0407130000000002E0
:0407140000000004DD
:0407150000000006DA
:0407160000000009D6
:040717000000000DD1
:0407180000000014C9
:040719000000001BC1
:04071A0000000021BA
:04071B0000000025B5
:04071C0000000001D8
:04071D0000000002D6
:04071E0000000005D2
:04071F0000000009CD
:040720000000000DC8
:0407210000000014C0
:040722000000001AB9
:0407230000000022B0
:040724000000002BA6
:0407250000000030A0
:0407260000000001CE
:0407270000000002CC
:0407280000000003CA
:0407290000000004C8
:04072A0000000007C4
:04072B0000000009C1
:04072C000000000BBE
:04072D0000000011B7
:04072E000000001AAD
:04072F000000001DA9
:0407300000000001C4
:0407310000000002C2
:0407320000000004BF
:0407330000000007BB
:040734000000000BB6
:0407350000000010B0
:0407360000000018A7
:04073700000000209E
:040738000000002499
:040739000000002894
:04073A0000000001BA
:04073B0000000002B8
:04073C0000000005B4
:04073D000000000AAE
:04073E000000000FA8
:04073F00000000179F
:040740000000001E97
:04074100000000278D
:040742000000002E85
:04074300000000347E
:0407440000000001B0
:0407450000000002AE
:0407460000000003AC
:0407470000000005A9
:0407480000000009A4
:040749000000000CA0
:04074A000000000F9C
:04074B000000001694
:04074C000000001D8C
:04074D000000002187
:04074E0000000001A6
:04074F0000000002A4
:0407500000000004A1
:04075100000000089C
:040752000000000D96
:04075300000000138F
:040754000000001C85
:04075500000000257B
:04075600000000306F
:040757000000003668
:04075800000000019C
:04075900000000029A
:04075A000000000596
:04075B000000000793
:04075C000000000C8D
:04075D000000001484
:04075E000000001B7C
:04075F000000002472
:040760000000003164
:04076100000000375D
:040762000000000192
:040763000000000290
:04076400000000038E
:04076500000000068A
:040766000000000B84
:040767000000000F7F
:04076800000000137A
:040769000000001B71
:04076A00000000206B
:04076B000000002466
:04076C000000000188
:04076D000000000286
:04076E000000000483
:04076F00000000097D
:040770000000000F76
:04077100000000166E
:040772000000002063
:040773000000002A58
:04077400000000334E
:040775000000003947
:04077600000000017E
:04077700000000027C
:040778000000000578
:040779000000000874
:04077A000000000E6D
:04077B000000001169
:04077C000000001861
:04077D000000002157
:04077E000000002B4C
:04077F000000003046
:040780000000000174
:040781000000000272
:040782000000000370
:04078300000000076B
:040784000000000D64
:04078500000000125E
:040786000000001758
:04078700000000204E
:040788000000002C41
:04078900000000313B
:04078A00000000016A
:04078B000000000268
:04078C000000000465
:04078D000000000662
:04078E000000000C5B
:04078F000000001353
:040790000000001D48
:04079100000000273D
:040792000000002D36
:040793000000003230
:040794000000000160
:04079500000000025E
:04079600000000055A
:040797000000000955
:04079800000000104D
:040799000000001448
:04079A000000001C3F
:04079B000000002634
:04079C000000002E2B
:04079D000000003424
:04079E000000000156
:04079F000000000254
:0407A0000000000352
:0407A1000000000450
:0407A200000000054E
:0407A3000000000949
:0407A4000000000D44
:0407A500000000153B
:0407A6000000001D32
:0407A700000000212D
:0407A800000000014C
:0407A900000000024A
:0407AA000000000447
:0407AB000000000743
:0407AC000000000940
:0407AD000000001038
:0407AE000000001334
:0407AF000000001C2A
:0407B000000000271E
:0407B1000000002C18
:0407B2000000000142
:0407B3000000000240
:0407B400000000053C
:0407B5000000000A36
:0407B6000000000D32
:0407B700000000112D
:0407B8000000001924
:0407B9000000002319
:0407BA000000002813
:0407BB000000002D0D
:0407BC000000000138
:0407BD000000000236
:0407BE000000000334
:0407BF000000000531
:0407C000000000072E
:0407C1000000000C28
:0407C2000000001122
:0407C3000000001A18
:0407C4000000002011
:0407C500000000240C
:0407C600000000012E
:0407C700000000022C
:0407C8000000000429
:0407C9000000000824
:0407CA000000000B20
:0407CB000000001317
:0407CC000000001712
:0407CD000000002107
:0407CE000000002AFD
:0407CF000000002FF7
:0407D0000000000124
:0407D1000000000222
:0407D200000000051E
:0407D300000000071B
:0407D4000000000A17
:0407D5000000000E12
:0407D6000000001609
:0407D70000000020FE
:0407D8000000002BF2
:0407D90000000030EC
:0407DA00000000011A
:0407DB000000000218
:0407DC000000000316
:0407DD000000000612
:0407DE00000000090E
:0407DF000000000F07
:0407E0000000001500
:0407E1000000001FF5
:0407E20000000023F0
:0407E30000000027EB
:0407E4000000000110
:0407E500000000020E
:0407E600000000040B
:0407E7000000000905
:0407E8000000000D00
:0407E90000000010FC
:0407EA0000000014F7
:0407EB000000001EEC
:0407EC0000000024E5
:0407ED0000000028E0
:0407EE000000000106
:0407EF000000000204
:0407F0000000000500
:0407F10000000008FC
:0407F2000000000CF7
:0407F30000000011F1
:0407F4000000001AE7
:0407F50000000025DB
:0407F6000000002ED1
:0407F70000000034CA
:0407F80000000001FC
:0407F90000000002FA
:0407FA0000000003F8
:0407FB0000000007F3
:0407FC000000000BEE
:0407FD0000000012E6
:0407FE0000000019DE
:0407FF0000000024D2
:040800000000002FC5
:0408010000000035BE
:0408020000000001F1
:0408030000000002EF
:0408040000000004EC
:0408050000000006E9
:040806000000000AE4
:040807000000000DE0
:0408080000000011DB
:040809000000001BD0
:04080A0000000027C3
:04080B000000002CBD
:04080C0000000001E7
:04080D0000000002E5
:04080E0000000005E1
:04080F0000000009DC
:040810000000000ED6
:0408110000000014CF
:040812000000001EC4
:040813000000002AB7
:0408140000000031AF
:0408150000000037A8
:0408160000000001DD
:0408170000000002DB
:0408180000000003D9
:0408190000000004D7
:04081A0000000008D2
:04081B000000000FCA
:04081C0000000016C2
:04081D0000000021B6
:04081E0000000029AD
:04081F000000002EA7
:0408200000000001D3
:0408210000000002D1
:0408220000000004CE
:0408230000000007CA
:040824000000000CC4
:0408250000000010BF
:0408260000000015B9
:0408270000000018B5
:0408280000000021AB
:0408290000000025A6
:04082A0000000001C9
:04082B0000000002C7
:04082C0000000005C3
:04082D000000000ABD
:04082E0000000010B6
:04082F0000000017AE
:040830000000001BA9
:040831000000001FA4
:040832000000002B97
:040833000000003091
:0408340000000001BF
:0408350000000002BD
:0408360000000003BB
:0408370000000005B8
:040838000000000AB2
:040839000000000CAF
:04083A0000000013A7
:04083B0000000016A3
:04083C000000001A9E
:04083D000000001D9A
:04083E0000000001B5
:04083F0000000002B3
:0408400000000004B0
:0408410000000008AB
:040842000000000EA4
:04084300000000139E
:040844000000001997
:040845000000001D92
:04084600000000248A
:040847000000002885
:0408480000000001AB
:0408490000000002A9
:04084A0000000005A5
:04084B0000000007A2
:04084C000000000D9B
:04084D000000001493
:04084E00000000188E
:04084F000000001C89
:04085000000000257F
:040851000000002A79
:0408520000000001A1
:04085300000000029F
:04085400000000039D
:040855000000000699
:040856000000000C92
:040857000000000F8E
:040858000000001785
:040859000000001B80
:04085A000000002674
:04085B000000002B6E
:04085C000000000197
:04085D000000000295
:04085E000000000492
:04085F00000000098C
:040860000000001084
:04086100000000167D
:040862000000001D75
:04086300000000226F
:040864000000002769
:040865000000002C63
:04086600000000018D
:04086700000000028B
:040868000000000587
:040869000000000883
:04086A000000000A80
:04086B000000001178
:04086C000000001573
:04086D00000000196E
:04086E000000001F67
:04086F000000002362
:040870000000000183
:040871000000000281
:04087200000000037F
:04087300000000077A
:040874000000000977
:040875000000000C73
:04087600000000146A
:040877000000001865
:04087800000000205C
:040879000000002457
:04087A000000000179
:04087B000000000277
:04087C000000000474
:04087D000000000671
:04087E00000000086E
:04087F000000000D68
:040880000000001361
:04088100000000175C
:040882000000002151
:04088300000000254C
:04088400000000016F
:04088500000000026D
:040886000000000569
:040887000000000964
:040888000000000C60
:040889000000001457
:04088A000000001951
:04088B000000001E4B
:04088C000000002246
:04088D000000002641
:04088E000000000165
:04088F000000000263
:040890000000000361
:04089100000000045F
:04089200000000065C
:040893000000000958
:04089400000000114F
:04089500000000154A
:040896000000001A44
:040897000000001D40
:04089800000000015B
:040899000000000259
:04089A000000000456
:04089B000000000752
:04089C000000000A4E
:04089D000000001047
:04089E00000000173F
:04089F000000001C39
:0408A0000000002430
:0408A100000000282B
:0408A2000000000151
:0408A300000000024F
:0408A400000000054B
:0408A5000000000A45
:0408A6000000000E40
:0408A700000000113C
:0408A8000000001636
:0408A9000000001B30
:0408AA000000002525
:0408AB000000002A1F
:0408AC000000000147
:0408AD000000000245
:0408AE000000000343
:0408AF000000000540
:0408B000000000083C
:0408B1000000000C37
:0408B2000000000E34
:0408B300000000122F
:0408B4000000001D23
:0408B500000000211E
:0408B600000000013D
:0408B700000000023B
:0408B8000000000438
:0408B9000000000833
:0408BA000000000C2E
:0408BB000000001326
:0408BC000000001B1D
:0408BD000000002116
:0408BE00000000270F
:0408BF000000002C09
:0408C0000000000133
:0408C1000000000231
:0408C200000000052D
:0408C300000000072A
:0408C4000000000B25
:0408C5000000000E21
:0408C600000000131B
:0408C7000000001815
:0408C8000000001F0D
:0408C9000000002308
:0408CA000000000129
:0408CB000000000227
:0408CC000000000325
:0408CD000000000621
:0408CE000000000A1C
:0408CF000000000F16
:0408D0000000001212
:0408D100000000170C
:0408D2000000002002
:0408D30000000024FD
:0408D400000000011F
:0408D500000000021D
:0408D600000000041A
:0408D7000000000914
:0408D8000000000E0E
:0408D9000000001605
:0408DA000000001FFB
:0408DB0000000026F3
:0408DC0000000033E5
:0408DD0000000039DE
:0408DE000000000115
:0408DF000000000213
:0408E000000000050F
:0408E100000000080B
:0408E2000000000D05
:0408E3000000001100
:0408E40000000017F9
:0408E5000000001DF2
:0408E60000000022EC
:0408E70000000026E7
:0408E800000000010B
:0408E9000000000209
:0408EA000000000307
:0408EB000000000702
:0408EC000000000CFC
:0408ED0000000012F5
:0408EE0000000016F0
:0408EF000000001CE9
:0408F00000000023E1
:0408F10000000027DC
:0408F2000000000101
:0408F30000000002FF
:0408F40000000004FC
:0408F50000000006F9
:0408F6000000000BF3
:0408F70000000013EA
:0408F8000000001CE0
:0408F90000000023D8
:0408FA000000002DCD
:0408FB0000000032C7
:0408FC0000000001F7
:0408FD0000000002F5
:0408FE0000000005F1
:0408FF0000000009EC
:040900000000000FE4
:0409010000000014DE
:040902000000001BD6
:0409030000000022CE
:040904000000002EC1
:0409050000000034BA
:0409060000000001EC
:0409070000000002EA
:0409080000000003E8
:0409090000000004E6
:04090A0000000009E0
:04090B000000000FD9
:04090C0000000013D4
:04090D0000000019CD
:04090E000000001DC8
:04090F0000000021C3
:0409100000000001E2
:0409110000000002E0
:0409120000000004DD
:0409130000000007D9
:040914000000000DD2
:0409150000000010CE
:0409160000000019C4
:0409170000000020BC
:0409180000000027B4
:040919000000002CAE
:04091A0000000001D8
:04091B0000000002D6
:04091C0000000005D2
:04091D000000000ACC
:04091E0000000011C4
:04091F0000000017BD
:040920000000001FB4
:0409210000000027AB
:0409220000000031A0
:040923000000003799
:0409240000000001CE
:0409250000000002CC
:0409260000000003CA
:0409270000000005C7
:040928000000000BC0
:0409290000000012B8
:04092A0000000017B2
:04092B000000001EAA
:04092C00000000299E
:04092D000000002E98
:04092E0000000001C4
:04092F0000000002C2
:0409300000000004BF
:0409310000000008BA
:040932000000000AB7
:040933000000000DB3
:0409340000000016A9
:040935000000001DA1
:04093600000000219C
:040937000000002597
:0409380000000001BA
:0409390000000002B8
:04093A0000000005B4
:04093B0000000007B1
:04093C0000000009AE
:04093D000000000EA8
:04093E0000000015A0
:04093F000000001C98
:040940000000002291
:04094100000000268C
:0409420000000001B0
:0409430000000002AE
:0409440000000003AC
:0409450000000006A8
:0409460000000008A5
:040947000000000F9D
:040948000000001497
:040949000000001B8F
:04094A000000002386
:04094B000000002781
:04094C0000000001A6
:04094D0000000002A4
:04094E0000000004A1
:04094F00000000099B
:040950000000000C97
:040951000000001092
:04095200000000138E
:040953000000001A86
:04095400000000247B
:040955000000002876
:04095600000000019C
:04095700000000029A
:040958000000000596
:040959000000000892
:04095A000000000B8E
:04095B000000001187
:04095C00000000197E
:04095D000000002175
:04095E000000002E67
:04095F000000003460
:040960000000000192
:040961000000000290
:04096200000000038E
:040963000000000789
:040964000000000A85
:040965000000000C82
:04096600000000117C
:040967000000001874
:040968000000001D6E
:040969000000002169
:04096A000000000188
:04096B000000000286
:04096C000000000483
:04096D000000000680
:04096E00000000097C
:04096F000000000D77
:040970000000001073
:04097100000000176B
:040972000000001E63
:04097300000000225E
:04097400000000017E
:04097500000000027C
:040976000000000578
:040977000000000973
:040978000000000D6E
:040979000000001466
:04097A000000001D5C
:04097B000000002652
:04097C000000003146
:04097D00000000373F
:04097E000000000174
:04097F000000000272
:040980000000000370
:04098100000000046E
:04098200000000076A
:040983000000000967
:040984000000000E61
:040985000000001559
:04098600000000204D
:040987000000002448
:04098800000000016A
:040989000000000268
:04098A000000000465
:04098B000000000761
:04098C000000000B5C
:04098D000000001056
:04098E000000001451
:04098F000000001C48
:040990000000002142
:04099100000000253D
:040992000000000160
:04099300000000025E
:04099400000000055A
:040995000000000A54
:040996000000000F4E
:040997000000001745
:04099800000000213A
:040999000000002B2F
:04099A000000003425
:04099B000000003A1E
:04099C000000000156
:04099D000000000254
:04099E000000000352
:04099F00000000054F
:0409A000000000094A
:0409A1000000000C46
:0409A200000000123F
:0409A3000000001A36
:0409A400000000232C
:0409A5000000002727
:0409A600000000014C
:0409A700000000024A
:0409A8000000000447
:0409A9000000000842
:0409AA000000000D3C
:0409AB000000001335
:0409AC00000000182F
:0409AD000000002125
:0409AE000000002D18
:0409AF000000003212
:0409B0000000000142
:0409B1000000000240
:0409B200000000053C
:0409B3000000000739
:0409B4000000000C33
:0409B500000000142A
:0409B6000000001E1F
:0409B7000000002814
:0409B8000000002E0D
:0409B9000000003406
:0409BA000000000138
:0409BB000000000236
:0409BC000000000334
:0409BD000000000630
:0409BE000000000B2A
:0409BF000000000F25
:0409C000000000161D
:0409C1000000001F13
:0409C200000000260B
:0409C3000000002B05
:0409C400000000012E
:0409C500000000022C
:0409C6000000000429
:0409C7000000000923
:0409C8000000000F1C
:0409C9000000001614
:0409CA000000001C0D
:0409CB000000002602
:0409CC0000000030F7
:0409CD0000000036F0
:0409CE000000000124
:0409CF000000000222
:0409D000000000051E
:0409D100000000081A
:0409D2000000000E13
:0409D300000000110F
:0409D400000000140B
:0409D5000000001D01
:0409D60000000028F5
:0409D7000000002DEF
:0409D800000000011A
:0409D9000000000218
:0409DA000000000316
:0409DB000000000711
:0409DC000000000D0A
:0409DD000000001204
:0409DE000000001AFB
:0409DF0000000024F0
:0409E00000000029EA
:0409E1000000002EE4
:0409E2000000000110
:0409E300000000020E
:0409E400000000040B
:0409E5000000000608
:0409E6000000000C01
:0409E70000000013F9
:0409E80000000019F2
:0409E90000000023E7
:0409EA000000002ADF
:0409EB000000002FD9
:0409EC000000000106
:0409ED000000000204
:0409EE000000000500
:0409EF0000000009FB
:0409F00000000010F3
:0409F10000000014EE
:0409F20000000018E9
:0409F30000000022DE
:0409F4000000002BD4
:0409F50000000030CE
:0409F60000000001FC
:0409F70000000002FA
:0409F80000000003F8
:0409F90000000004F6
:0409FA0000000005F4
:0409FB0000000009EF
:0409FC0000000010E7
:0409FD0000000019DD
:0409FE0000000023D2
:0409FF0000000027CD
:040A000000000001F1
:040A010000000002EF
:040A020000000004EC
:040A030000000007E8
:040A040000000009E5
:040A050000000010DD
:040A060000000016D6
:040A070000000020CB
:040A080000000024C6
:040A090000000028C1
:040A0A0000000001E7
:040A0B0000000002E5
:040A0C0000000005E1
:040A0D000000000ADB
:040A0E000000000DD7
:040A0F0000000011D2
:040A100000000015CD
:040A11000000001FC2
:040A120000000025BB
:040A13000000002AB5
:040A140000000001DD
:040A150000000002DB
:040A160000000003D9
:040A170000000005D6
:040A180000000007D3
:040A19000000000CCD
:040A1A0000000014C4
:040A1B000000001EB9
:040A1C0000000026B0
:040A1D000000002BAA
:040A1E0000000001D3
:040A1F0000000002D1
:040A200000000004CE
:040A210000000008C9
:040A22000000000BC5
:040A230000000013BC
:040A24000000001AB4
:040A250000000025A8
:040A2600000000309C
:040A27000000003695
:040A280000000001C9
:040A290000000002C7
:040A2A0000000005C3
:040A2B0000000007C0
:040A2C000000000ABC
:040A2D000000000EB7
:040A2E0000000012B2
:040A2F000000001CA7
:040A3000000000289A
:040A31000000002D94
:040A320000000001BF
:040A330000000002BD
:040A340000000003BB
:040A350000000006B7
:040A360000000009B3
:040A37000000000FAC
:040A380000000018A2
:040A39000000002396
:040A3A00000000298F
:040A3B000000002E89
:040A3C0000000001B5
:040A3D0000000002B3
:040A3E0000000004B0
:040A3F0000000009AA
:040A40000000000DA5
:040A410000000010A1
:040A42000000001799
:040A4300000000228D
:040A44000000002A84
:040A45000000002F7E
:040A460000000001AB
:040A470000000002A9
:040A480000000005A5
:040A490000000008A1
:040A4A000000000C9C
:040A4B000000001196
:040A4C000000001690
:040A4D000000002184
:040A4E000000002B79
:040A4F000000003073
:040A500000000001A1
:040A5100000000029F
:040A5200000000039D
:040A53000000000798
:040A54000000000B93
:040A5500000000128B
:040A56000000001587
:040A57000000001883
:040A58000000002377
:040A59000000002772
:040A5A000000000197
:040A5B000000000295
:040A5C000000000492
:040A5D00000000068F
:040A5E000000000A8A
:040A5F000000000D86
:040A6000000000147E
:040A6100000000177A
:040A62000000001B75
:040A63000000001E71
:040A6400000000018D
:040A6500000000028B
:040A66000000000587
:040A67000000000982
:040A68000000000E7C
:040A69000000001475
:040A6A000000001A6E
:040A6B000000001E69
:040A6C000000002561
:040A6D000000002A5B
:040A6E000000000183
:040A6F000000000281
:040A7000000000037F
:040A7100000000047D
:040A72000000000878
:040A73000000000F70
:040A7400000000126C
:040A75000000001568
:040A76000000001D5F
:040A7700000000215A
:040A78000000000179
:040A79000000000277
:040A7A000000000474
:040A7B000000000770
:040A7C000000000C6A
:040A7D000000001065
:040A7E00000000185C
:040A7F000000001C57
:040A8000000000274B
:040A81000000002C45
:040A8200000000016F
:040A8300000000026D
:040A84000000000569
:040A85000000000A63
:040A8600000000105C
:040A87000000001754
:040A88000000001E4C
:040A89000000002346
:040A8A000000002840
:040A8B000000002D3A
:040A8C000000000165
:040A8D000000000263
:040A8E000000000361
:040A8F00000000055E
:040A90000000000A58
:040A91000000000C55
:040A92000000000F51
:040A9300000000124D
:040A94000000001747
:040A95000000001A43
:040A9600000000015B
:040A97000000000259
:040A98000000000456
:040A99000000000851
:040A9A000000000E4A
:040A9B000000001344
:040A9C000000001C3A
:040A9D000000002134
:040A9E000000002A2A
:040A9F000000002F24
:040AA0000000000151
:040AA100000000024F
:040AA200000000054B
:040AA3000000000748
:040AA4000000000D41
:040AA5000000001439
:040AA6000000001B31
:040AA700000000202B
:040AA8000000002B1F
:040AA9000000003019
:040AAA000000000147
:040AAB000000000245
:040AAC000000000343
:040AAD00000000063F
:040AAE000000000C38
:040AAF000000000F34
:040AB000000000132F
:040AB100000000172A
:040AB2000000001A26
:040AB3000000001D22
:040AB400000000013D
:040AB500000000023B
:040AB6000000000438
:040AB7000000000932
:040AB800000000102A
:040AB9000000001623
:040ABA000000002018
:040ABB000000002611
:040ABC000000002D09
:040ABD000000003203
:040ABE000000000133
:040ABF000000000231
:040AC000000000052D
:040AC1000000000829
:040AC2000000000A26
:040AC300000000111E
:040AC4000000001816
:040AC5000000001D10
:040AC6000000002507
:040AC7000000002A01
:040AC8000000000129
:040AC9000000000227
:040ACA000000000325
:040ACB000000000720
:040ACC00000000091D
:040ACD000000000C19
:040ACE000000001014
:040ACF00000000140F
:040AD0000000001D05
:040AD1000000002100
:040AD200000000011F
:040AD300000000021D
:040AD400000000041A
:040AD5000000000617
:040AD6000000000814
:040AD7000000000D0E
:040AD8000000001604
:040AD9000000001BFE
:040ADA0000000027F1
:040ADB000000002CEB
:040ADC000000000115
:040ADD000000000213
:040ADE00000000050F
:040ADF00000000090A
:040AE0000000000C06
:040AE10000000014FD
:040AE2000000001CF4
:040AE30000000022ED
:040AE40000000028E6
:040AE5000000002DE0
:040AE600000000010B
:040AE7000000000209
:040AE8000000000307
:040AE9000000000405
:040AEA000000000602
:040AEB0000000009FE
:040AEC000000000DF9
:040AED0000000011F4
:040AEE0000000017ED
:040AEF000000001AE9
:040AF0000000000101
:040AF10000000002FF
:040AF20000000004FC
:040AF30000000007F8
:040AF4000000000AF4
:040AF50000000010ED
:040AF60000000013E9
:040AF70000000018E3
:040AF80000000021D9
:040AF90000000025D4
:040AFA0000000001F7
:040AFB0000000002F5
:040AFC0000000005F1
:040AFD000000000AEB
:040AFE000000000EE6
:040AFF0000000011E2
:040B000000000019D8
:040B01000000001FD1
:040B02000000002BC4
:040B030000000030BE
:040B040000000001EC
:040B050000000002EA
:040B060000000003E8
:040B070000000005E5
:040B080000000008E1
:040B09000000000CDC
:040B0A0000000011D6
:040B0B0000000016D0
:040B0C000000001ACB
:040B0D000000001DC7
:040B0E0000000001E2
:040B0F0000000002E0
:040B100000000004DD
:040B110000000008D8
:040B12000000000CD3
:040B130000000013CB
:040B140000000017C6
:040B15000000001DBF
:040B160000000024B7
:040B170000000028B2
:040B180000000001D8
:040B190000000002D6
:040B1A0000000005D2
:040B1B0000000007CF
:040B1C000000000BCA
:040B1D000000000EC6
:040B1E0000000016BD
:040B1F000000001CB6
:040B200000000025AC
:040B21000000002AA6
:040B220000000001CE
:040B230000000002CC
:040B240000000003CA
:040B250000000006C6
:040B26000000000AC1
:040B27000000000FBB
:040B280000000015B4
:040B29000000001BAD
:040B2A0000000026A1
:040B2B000000002B9B
:040B2C0000000001C4
:040B2D0000000002C2
:040B2E0000000004BF
:040B2F0000000009B9
:040B30000000000EB3
:040B310000000016AA
:040B32000000001BA4
:040B3300000000229C
:040B34000000002796
:040B35000000002C90
:040B360000000001BA
:040B370000000002B8
:040B380000000005B4
:040B390000000008B0
:040B3A000000000DAA
:040B3B0000000011A5
:040B3C000000001A9B
:040B3D000000002193
:040B3E00000000288B
:040B3F000000002D85
:040B400000000001B0
:040B410000000002AE
:040B420000000003AC
:040B430000000007A7
:040B44000000000CA1
:040B4500000000129A
:040B46000000001992
:040B4700000000208A
:040B48000000002980
:040B49000000002E7A
:040B4A0000000001A6
:040B4B0000000002A4
:040B4C0000000004A1
:040B4D00000000069E
:040B4E000000000B98
:040B4F00000000138F
:040B50000000001889
:040B51000000001F81
:040B52000000002A75
:040B53000000002F6F
:040B5400000000019C
:040B5500000000029A
:040B56000000000596
:040B57000000000991
:040B58000000000F8A
:040B59000000001484
:040B5A000000001E79
:040B5B000000002670
:040B5C000000002B6A
:040B5D000000003064
:040B5E000000000192
:040B5F000000000290
:040B6000000000038E
:040B6100000000048C
:040B62000000000986
:040B63000000000F7F
:040B64000000001677
:040B65000000001D6F
:040B66000000002368
:040B67000000002763
:040B68000000000188
:040B69000000000286
:040B6A000000000483
:040B6B00000000077F
:040B6C000000000D78
:040B6D000000001074
:040B6E00000000156E
:040B6F000000001C66
:040B7000000000245D
:040B71000000002858
:040B7200000000017E
:040B7300000000027C
:040B74000000000578
:040B75000000000A72
:040B7600000000116A
:040B77000000001763
:040B78000000001B5E
:040B79000000002355
:040B7A000000002E49
:040B7B000000003442
:040B7C000000000174
:040B7D000000000272
:040B7E000000000370
:040B7F00000000056D
:040B80000000000B66
:040B8100000000125E
:040B82000000001A55
:040B8300000000224C
:040B84000000002F3E
:040B85000000003537
:040B8600000000016A
:040B87000000000268
:040B88000000000465
:040B89000000000860
:040B8A000000000A5D
:040B8B000000000D59
:040B8C000000001253
:040B8D00000000194B
:040B8E000000001E45
:040B8F000000002240
:040B90000000000160
:040B9100000000025E
:040B9200000000055A
:040B93000000000757
:040B94000000000954
:040B95000000000E4E
:040B9600000000114A
:040B97000000001842
:040B98000000001F3A
:040B99000000002335
:040B9A000000000156
:040B9B000000000254
:040B9C000000000352
:040B9D00000000064E
:040B9E00000000084B
:040B9F000000000F43
:040BA000000000173A
:040BA1000000001F31
:040BA2000000002926
:040BA3000000002E20
:040BA400000000014C
:040BA500000000024A
:040BA6000000000447
:040BA7000000000941
:040BA8000000000C3D
:040BA9000000001038
:040BAA000000001631
:040BAB000000001E28
:040BAC000000002A1B
:040BAD000000002F15
:040BAE000000000142
:040BAF000000000240
:040BB000000000053C
:040BB1000000000838
:040BB2000000000B34
:040BB300000000112D
:040BB4000000001528
:040BB5000000001D1F
:040BB6000000002219
:040BB7000000002614
:040BB8000000000138
:040BB9000000000236
:040BBA000000000334
:040BBB00000000072F
:040BBC000000000A2B
:040BBD000000000C28
:040BBE00000000141F
:040BBF000000001C16
:040BC000000000230E
:040BC1000000002709
:040BC200000000012E
:040BC300000000022C
:040BC4000000000429
:040BC5000000000626
:040BC6000000000922
:040BC7000000000D1D
:040BC8000000001316
:040BC9000000001B0D
:040BCA000000002403
:040BCB0000000028FE
:040BCC000000000124
:040BCD000000000222
:040BCE00000000051E
:040BCF000000000919
:040BD0000000000D14
:040BD100000000140C
:040BD2000000001906
:040BD30000000022FC
:040BD4000000002EEF
:040BD50000000034E8
:040BD600000000011A
:040BD7000000000218
:040BD8000000000316
:040BD9000000000414
:040BDA000000000710
:040BDB00000000090D
:040BDC000000001104
:040BDD0000000019FB
:040BDE000000001DF6
:040BDF0000000021F1
:040BE0000000000110
:040BE100000000020E
:040BE200000000040B
:040BE3000000000707
:040BE4000000000B02
:040BE50000000010FC
:040BE60000000017F4
:040BE70000000020EA
:040BE80000000027E2
:040BE9000000002CDC
:040BEA000000000106
:040BEB000000000204
:040BEC000000000500
:040BED000000000AFA
:040BEE000000000FF4
:040BEF0000000017EB
:040BF0000000001DE4
:040BF10000000027D9
:040BF20000000031CE
:040BF30000000037C7
:040BF40000000001FC
:040BF50000000002FA
:040BF60000000003F8
:040BF70000000005F5
:040BF80000000009F0
:040BF9000000000CEC
:040BFA000000000EE9
:040BFB0000000016E0
:040BFC0000000020D5
:040BFD0000000024D0
:040BFE0000000001F2
:040BFF0000000002F0
:040C000000000004EC
:040C010000000008E7
:040C02000000000DE1
:040C030000000013DA
:040C04000000001BD1
:040C050000000025C6
:040C06000000002AC0
:040C07000000002FBA
:040C080000000001E7
:040C090000000002E5
:040C0A0000000005E1
:040C0B0000000007DE
:040C0C000000000CD8
:040C0D0000000014CF
:040C0E000000001AC8
:040C0F0000000024BD
:040C10000000002BB5
:040C110000000030AF
:040C120000000001DD
:040C130000000002DB
:040C140000000003D9
:040C150000000006D5
:040C16000000000BCF
:040C17000000000FCA
:040C180000000012C6
:040C19000000001BBC
:040C1A0000000023B3
:040C1B0000000027AE
:040C1C0000000001D3
:040C1D0000000002D1
:040C1E0000000004CE
:040C1F0000000009C8
:040C20000000000FC1
:040C210000000016B9
:040C22000000001FAF
:040C23000000002AA3
:040C24000000003696
:040C25000000003C8F
:040C260000000001C9
:040C270000000002C7
:040C280000000005C3
:040C290000000008BF
:040C2A000000000EB8
:040C2B0000000011B4
:040C2C0000000017AD
:040C2D0000000021A2
:040C2E000000002E94
:040C2F00000000348D
:040C300000000001BF
:040C310000000002BD
:040C320000000003BB
:040C330000000007B6
:040C34000000000DAF
:040C350000000012A9
:040C360000000016A4
:040C37000000002099
:040C38000000002692
:040C39000000002B8C
:040C3A0000000001B5
:040C3B0000000002B3
:040C3C0000000004B0
:040C3D0000000006AD
:040C3E000000000CA6
:040C3F00000000139E
:040C40000000001C94
:040C41000000002788
:040C4200000000307E
:040C43000000003677
:040C440000000001AB
:040C450000000002A9
:040C460000000005A5
:040C470000000009A0
:040C48000000001098
:040C49000000001493
:040C4A000000001B8B
:040C4B00000000267F
:040C4C000000003173
:040C4D00000000376C
:040C4E0000000001A1
:040C4F00000000029F
:040C5000000000039D
:040C5100000000049B
:040C52000000000599
:040C53000000000994
:040C54000000000C90
:040C55000000001586
:040C5600000000207A
:040C57000000002475
:040C58000000000197
:040C59000000000295
:040C5A000000000492
:040C5B00000000078E
:040C5C00000000098B
:040C5D000000001083
:040C5E000000001979
:040C5F00000000246D
:040C60000000002A66
:040C61000000002F60
:040C6200000000018D
:040C6300000000028B
:040C64000000000587
:040C65000000000A81
:040C66000000000D7D
:040C67000000001178
:040C68000000001870
:040C69000000002364
:040C6A000000002B5B
:040C6B000000003055
:040C6C000000000183
:040C6D000000000281
:040C6E00000000037F
:040C6F00000000057C
:040C70000000000779
:040C71000000000C73
:040C7200000000106E
:040C73000000001A63
:040C74000000002359
:040C75000000002754
:040C76000000000179
:040C77000000000277
:040C78000000000474
:040C7900000000086F
:040C7A000000000B6B
:040C7B000000001362
:040C7C000000001D57
:040C7D00000000294A
:040C7E00000000363C
:040C7F000000003C35
